:020000041000EA
:1000000000B5324B212058609868022188439860DF
:10001000D860186158612E4B002199600221596106
:100020000121F02299502B49196001219960352056
:1000300000F044F80222904214D00621196600F024
:1000400034F8196E01211966002018661A6600F04E
:100050002CF8196E196E196E052000F02FF8012189
:100060000842F9D1002199601B49196000215960AB
:100070001A491B48016001219960EB211966A021F2
:10008000196600F012F800219960164914480160C1
:100090000121996001BC002800D000471248134993
:1000A000086003C880F30888084703B5996A0420EC
:1000B0000142FBD001200142F8D103BD02B5186610
:1000C0001866FFF7F2FF186E186E02BD00000240BE
:1000D000000000180000070000035F00212200005C
:1000E000F4000018222000A00001001008ED00E03C
:1000F00000000000000000000000000074B24E7A12
:1001000000200420F7010010CB010010CD010010E9
:10011000C9010010C9010010C9010010C901001077
:10012000C9010010C9010010C9010010CF01001061
:10013000C9010010C9010010D1010010D301001045
:10014000C1010010C1010010C1010010C101001067
:10015000C1010010C1010010C1010010C101001057
:10016000C1010010C1010010C1010010C101001047
:10017000C1010010C1010010C1010010C101001037
:10018000C1010010C1010010C1010010C101001027
:10019000C1010010C1010010C1010010C101001017
:1001A000C1010010C1010010C1010010C101001007
:1001B000C1010010C1010010C1010010C1010010F7
:1001C000EFF30580103800BE00BE00BE00BE00BECA
:1001D00000BE00BEF2EB8871783605109836051027
:1001E0003802001090A31AE71E481F49086006C88D
:1001F00081F3088810471D480068002801D019487D
:10020000F3E70DA40ECC002902D000F012F8F9E7B4
:100210001749184A002000E001C19142FCD116495B
:100220008847164988471649884700BEFDE701C937
:1002300001C29A42FBD3704798360510E0000020B7
:1002400040130020F848051000000420000004209E
:10025000F8480510001004200010042000000000E1
:10026000704700000000000008ED00E0000000D032
:10027000401300208CAD0220317100105904001091
:1002800029710010F8B5C04606480749091A8B10B5
:10029000C90FC91810B5491003D0044B002B00D06A
:1002A000984710BD401300204013002000000000BC
:1002B000054B10B5002B03D00449054800E000BFF2
:1002C000FFF7E2FF10BDC046000000009CA3022023
:1002D000C4900110F8B5CE464746040080B508002A
:1002E0000E0018F00DFE071E27D0200018F008FEA3
:1002F0000300B84221D3DB1B0133984600232000C2
:100300009C460024025D335D11004139192901D852
:100310002032D2B21D00413D192D01D82033DBB26D
:100320009A4204D10134A742ECD1012006E0012316
:100330009946CC440130C445E3D10020C0BCB94645
:10034000B046F8BDF0B50F0014001D00A1B0002AA2
:1003500021D053891E1C7F2B2FD8B6B23200616882
:10036000684605F047FA00236A46684630499355C7
:10037000FFF7B0FF002810D005222E4B1A7029007D
:1003800038002D4A01F01EF83800290002F00EF95D
:1003900020000AF09DFB21B0F0BD68462749FFF719
:1003A00099FF00280BD168462549FFF793FF0028E5
:1003B00009D007221F4B1A70E1E77F26CDE70622FE
:1003C0001C4B1A70DBE768461E49FFF783FF0028C5
:1003D00009D168461C49FFF77DFF002807D001229C
:1003E000144B1A70CBE70822124B1A70C7E7684605
:1003F0001649FFF76FFF002803D002220D4B1A7039
:10040000BDE768461249FFF765FF002803D00322C5
:10041000084B1A70B3E768460E49FFF75BFF054BC0
:10042000002802D004221A70A9E71870A7E7C04676
:10043000C89001107CAD022089130000D8900110F3
:10044000E8900110F89001106C98011008910110CB
:1004500034970110E0900110F0B5C64600B586B0A3
:1004600006F0A4FFFA20C00003F0A2FD5E4C2000BD
:1004700006F0EAFF5D4806F0E7FF200006F0E4FF23
:100480005B4806F0E1FF13F0BDFB002800D09DE0C3
:1004900013F058FB574D5848290007F059F85749B1
:1004A0002800574B574A13F05BFB011E00D084E035
:1004B000554806F0C9FF554B1868043012F0D6FBBA
:1004C000534B0100180007F043F8524806F0BCFFF8
:1004D00000F0DCF800F056F94F4806F0B5FF00F0E8
:1004E00085FF4E4806F0B0FF00F0CEFF4C4806F006
:1004F000ABFF01F0E9FD4B4806F0A6FF01F056FF07
:10050000494806F0A1FF0FF02FF8484D2860002859
:1005100065D0474A47490EF075FE021E5AD1286839
:1005200045490EF0FDFF4249444807F011F844499F
:10053000444807F00DF84449444807F009F8444896
:1005400006F082FF01F0A4FF424806F07DFF200084
:1005500006F07AFF404806F077FF200006F074FFAF
:1005600033493E4806F0F4FF3D4806F06DFF3D4834
:1005700006F06AFF3C4B3D4F98463D4E3D4D3E4C8C
:1005800043461878C0B201F099F800F08FFF386048
:10059000684601F005FE03A801F03CFE03A801F047
:1005A00083FE3060684601F0ADFE2860684601F0C9
:1005B000C9FE206002F012F8E2E7304806F0C8FFFA
:1005C0000120404206B080BCB846F0BD2C4806F081
:1005D0003BFFF5E711002B4806F0BAFFF0E72A4889
:1005E00006F032FFECE7C04614910110489101106B
:1005F0007C910110B4910110C0910110E0910110A3
:100600003075000004004000109201108CA30220FD
:10061000249201103C920110689201108C920110FA
:10062000B8920110D8920110F892011040AD02204A
:1006300088130000B8C00110450300105893011042
:1006400089130000849301108D130000B0930110F2
:10065000DC930110FC930110189401104C940110CC
:100660007C940110AC9401107CAD0220A07102209A
:10067000A4710220A8710220AC710220EC9101103B
:10068000989101103C9301101C930110F0B587B0B4
:1006900001AC2200D02701262B4B3F0623CB23C2DF
:1006A00003CB03C220CC280002F046FC3300AB4051
:1006B0007B62BB6106AB9C42F4D180231B027B6151
:1006C0000421082002F030FB0421092002F02CFB59
:1006D00004210A2002F028FB04210B2002F024FB55
:1006E00004221A4B31001A60194B1A60194B01325F
:1006F0001A60194B1A600022184B1A60184B1E60C2
:10070000184B1A60184B194A1E60194B1A661A6664
:100710005A675A6710225A655A659A669A66154A48
:1007200013689943144B19603100126891431960A2
:100730003100124A13689943114B196012689643AD
:100740001E6007B0F0BDC046C8B601105CAB022009
:1007500060AB022064AB022068AB0220406702203D
:1007600044670220486702204C6702206918000095
:100770000000054050000540501005406400054051
:1007800064100540224B30B51A68224D93009B1827
:100790009B005A191068204A11684A1E91411F4A4D
:1007A0004942514001401E488446634419601D4B34
:1007B00019688B005B189B00591908681A49634433
:1007C00009684C1EA1414942514001401960174B34
:1007D00019688B005B189B00591908681449634419
:1007E00009684C1EA1414942514001401960114B1A
:1007F00019688B005B189B00591908680E496344FF
:1008000009684C1EA14149424A4002401A6030BD6D
:100810005CAB02200C00054040670220FFFF000097
:100820000C10054060AB02204467022064AB02203C
:100830004867022068AB02204C6702202C4B1A68E4
:1008400093009B182B4A9B0094462B4A63441268E2
:10085000002A47D129482A4A196841400A40802184
:1008600049018C4663441A60264B1A6893009B1812
:10087000204A9B009A181068234A1268511E8A4128
:100880001F4952424A4002402048844663441A604D
:100890001F4B1A6893009B18164A9B0094461D4AEA
:1008A00063441268002A20D114481A68424011405B
:1008B00080225201944663441960174B1A689300D2
:1008C0009B180C4A9B009A181168144A1268501E13
:1008D00082410B48524242400A400C498C466344D4
:1008E0001A6070470E480F4AB6E70D480D49DCE71D
:1008F0005CAB02200C000540406702206918000034
:10090000FFFF000060AB0220446702200C1005408E
:1009100064AB02204867022068AB02204C670220CB
:10092000000069180000FFFF2C4B1A6893009B1809
:100930002B4A9B009A1810682A4A1268511E8A4155
:10094000294952424A4002402848844663441A607A
:10095000274B1A6893009B18214A9B009446254A0E
:1009600063441268002A32D123481A684240114079
:1009700080225201944663441960204B1A68930008
:100980009B18174A9B009A1810681D4A1268511E3E
:100990008A41154952424A40024014488446634401
:1009A0001A60184B1A6893009B180D4A9B009446D6
:1009B000154A63441268002A0CD10F481A68424055
:1009C00011408022520194466344196070470F48D9
:1009D0000F49CAE70D480E49F0E7C0465CAB02205C
:1009E0000C00054040670220FFFF00000C1005408E
:1009F00060AB0220446702206918000064AB02204B
:100A00004867022068AB02204C670220000069188A
:100A10000000FFFF2C4B1A6893009B182B4A9B0089
:100A20009A1810682A4A1268511E8A41294952426E
:100A30004A4002402848844663441A60274B1A689B
:100A400093009B18214A9B009446254A63441268F0
:100A5000002A33D123481A684240114080225201B3
:100A6000944663441960204B1A6893009B18174AF8
:100A70009B0094461D4A63441268002A21D11948FC
:100A8000144A196841400A40802149018C46634458
:100A90001A60174B1A6893009B180C4A9B009A180F
:100AA0001168144A1268501E82410A48524242405C
:100AB0000A4009498C4663441A6070470E480F4942
:100AC000C9E70D480D4ADCE75CAB02200C0005408D
:100AD00040670220FFFF00000C10054060AB0220C1
:100AE000446702206918000064AB022048670220B6
:100AF00068AB02204C670220000069180000FFFF6D
:100B00002B4B10B51A6893009B182A4A9B009446F9
:100B1000294A63441268002A43D12848284A1968A0
:100B2000244C41400A40802149018C4663441A60AC
:100B3000244B1A6893009B189B001A191068224ACC
:100B40001268511E8A411E4952424A4002401F48C3
:100B5000844663441A601E4B1A6893009B189B00DE
:100B60001A1910681B4A63441268541EA24152426B
:100B70004A4002401A60184B1A6893009B180D4AAD
:100B80009B009446154A63441268002A0CD10B4816
:100B90001A68424011408022520194466344196011
:100BA00010BD0F480F4ABAE70D480E49F0E7C0469E
:100BB0005CAB02200C000540406702206918000071
:100BC000FFFF000060AB0220446702200C100540CC
:100BD00064AB02204867022068AB02204C67022009
:100BE000000069180000FFFF284B10B51A68284C58
:100BF00093009B189B001A191068264A1268511E10
:100C00008A41254952424A4002402448844663446E
:100C10001A60234B1A6893009B189B001A191068DE
:100C2000204A63441268541EA24152424A40024084
:100C30001A601D4B1A6893009B18154A9B00944636
:100C40001A4A63441268002A1DD119481A684240A2
:100C5000114080225201944663441960154B1A6872
:100C600093009B180A4A9B009A181168124A12684E
:100C7000501E82410848524242400A4007498C4671
:100C800063441A6010BD0D480D49DFE75CAB0220DC
:100C90000C00054040670220FFFF00000C100540DB
:100CA00060AB02204467022064AB02204867022048
:100CB0006918000068AB02204C6702200000691828
:100CC0000000FFFF274B30B51A6893009B18264A97
:100CD0009B009446254A63441268002A3ED124486A
:100CE000244A1968204D41400A40802149018C4620
:100CF00063441A60204B1A6893009B189B005A1992
:100D000010681E4A1268511E8A411A4952424A40CE
:100D100002401B48844663441A601A4B1A689300C9
:100D20009B189B005A191068174A63441268541E96
:100D3000A24152424A4002401A60144B1A68930082
:100D40009B189B005A191068114A63441268541E7C
:100D5000A241524251400140196030BD0D480E4A37
:100D6000BFE7C0465CAB02200C0005404067022094
:100D700069180000FFFF000060AB022044670220FA
:100D80000C10054064AB02204867022068AB0220CB
:100D90004C670220000069180000FFFF264B30B5A9
:100DA0001A68264D93009B189B005A191068244A14
:100DB00011684A1E9141234A49425140014022484C
:100DC000844663441960214B19688B005B189B00B3
:100DD000591908681E49634409684C1EA1414942DB
:100DE0005140014019601B4B19688B005B189B0038
:100DF00059190868184963440968AC464C1EA1415A
:100E00004942514001401960144B19688B005B182E
:100E100013499B0009686344002909D111481968E6
:100E200041400A40802149018C4663441A6030BD2C
:100E30000D480E4AF3E7C0465CAB02200C000540AB
:100E400040670220FFFF00000C10054060AB02204D
:100E50004467022064AB02204867022068AB02208E
:100E60004C67022069180000000069180000FFFFAD
:100E7000284B10B51A6893009B18274A9B009A18B4
:100E80001068264A1268511E8A41254952424A403A
:100E900002402448844663441A60234B1A68930036
:100EA0009B181D4A9B009446204A63441268002AFE
:100EB0002DD11F481A68184C42401140802252011F
:100EC0009446634419601B4B1A6893009B189B005F
:100ED0001A191068184A1268511E8A411049524264
:100EE0004A4002400F48844663441A60134B1A6814
:100EF00093009B189B001A191068114A63441268EA
:100F0000541EA241524251400140196010BD0D488B
:100F10000D49CFE75CAB02200C0005404067022082
:100F2000FFFF00000C10054060AB02204467022068
:100F30006918000064AB02204867022068AB0220F9
:100F40004C670220000069180000FFFF324B10B50B
:100F50001A6893009B18314A9B009A181168304A0E
:100F60001268541EA2412F4C524262400A402E4940
:100F70008C4663441A602D4B1B689C00E418274B79
:100F8000A4009C46031C6444642800D964232848B8
:100F9000DBB25843642103F033FE264B1B68002B61
:100FA00034D0254B010422684A401340802252016C
:100FB000944664442360214B1A6893009B18174A97
:100FC0009B0094461E4A63441268002A21D01A4AA4
:100FD0000004196841400A40802149018C4663445D
:100FE0001A60184B1A6893009B180C4A9B009A18B9
:100FF0001168154A1268501E82410A485242424006
:101000000A4009498C4663441A6010BD0100054B33
:10101000C9E7044ADDE7C0465CAB02200C0005408E
:1010200040670220FFFF00000C10054060AB02206B
:1010300069180000446702200000FFFF64AB022033
:101040004867022068AB02204C6702202F4B70B526
:101050001B689C00E4182E4BA4009C46031C6444AF
:10106000642800D964232B48DBB25843642103F081
:10107000C7FD294B1B68002B44D0284B0104226874
:10108000234D4A4013408022520194466444236019
:10109000234B1A6893009B189B005A191468214A25
:1010A00011684A1E9141204A4942514021401F4C3B
:1010B000A446634419601E4B19688B005B189B00A3
:1010C00059190C681B49634409684D1EA9414942DE
:1010D000514021401960184B19688B005B180C496E
:1010E0009B008C46154963440968002901D00B4ACE
:1010F0000004196841400A40802149018C4663443C
:101100001A6070BD0100084BB9E7C0465CAB022015
:101110000C00054069180000406702200000FFFF36
:1011200060AB022044670220FFFF00000C10054066
:1011300064AB02204867022068AB02204C670220A3
:10114000F0B5DE4657464E4645467D4BE0B51A683B
:10115000A3B0914600221A607A4B484619681A607B
:10116000794B8B461B689846784B1B681693784BD7
:101170001A68784B209219688A4604F02FF80022EA
:10118000754B04000D0003F0A8FF02000B0003F0F4
:101190009FFF0022714B03F0BAFF714A189019911A
:1011A000704B2000290003F0B2FF02000B00040086
:1011B0000D0003F08DFF6C4E22002B001A901B9146
:1011C0003068716803F084FF30607160584604F045
:1011D00005F80022604B04000D0003F07EFF0200C2
:1011E0000B0003F075FF00225C4B03F090FF5C4A9C
:1011F0001C901D915B4B2000290003F088FF02002A
:101200000B0004000D0003F063FF584F22002B0079
:101210001E901F913868796803F05AFF3860796032
:10122000169804F085F916901791209804F080F92B
:10123000040050460D0004F07BF90A000100009400
:1012400001952091219202910392169A179B414693
:10125000474806F07DF93268736846480292039366
:101260001A991B9A00910192189A199B494606F007
:101270006FF93A687B684048029203931E991F9A5F
:10128000009101921C9A1D9B594606F061F93B485A
:1012900006F0DAF83A4B1B78002B07D1012023B077
:1012A000F0BCBB46B246A946A046F0BD354B3868F7
:1012B00079689A465B46149015911E981F99129072
:1012C00013911C981D99109011910E9330687168BC
:1012D0004B460C900D911A981B990A900B911898F7
:1012E0001999089009912098219904900591C0219D
:1012F00002940395244A06934900169B179C504676
:1013000000930194434605F0CFFEA02281B206006F
:101310009200362009F064FA051EBFD03200514613
:10132000406804F067FA1949194B1A4A1B88086883
:1013300029000EF093F8280009F0CAFBAEE7C0467A
:1013400030AD022034AD0220A0710220A471022031
:10135000A8710220AC7102200000544000004E40F1
:1013600033333333096EEC3F30150020381500203D
:10137000DC94011014950110589501109C950110F2
:101380008AAD0220ACAB0220A09501102CAD02204A
:1013900070AD0220A8AB0220090703D51C2802D09B
:1013A000022805D07047054A136801331360F9E736
:1013B000034A136801331360F4E7C04630AD0220DE
:1013C00034AD0220054B09681860054B1960054BC8
:1013D0001A800122044B1A707047C0462CAD0220BF
:1013E000A8AB022070AD02208AAD022010B51C20EF
:1013F00084B001F0A1FDD024802324065B05A36204
:10140000002201211C2001F0A9FC022001F094FD22
:1014100004230022A3620121022001F09FFC02228A
:101420001C21124806F094F8114B012208211C20BF
:1014300001F0E8FC08210122022001F0B7FC0D4870
:1014400006F002F802F0D6FB0B4B0C4A0293002385
:1014500001930B4B0093002302F0AEFEFA210948E2
:10146000490006F075F804B010BDC0466096011042
:10147000991300108C96011058F7002020A1070046
:1014800041110010AC96011010B5102001F054FD70
:10149000D024802324065B0263621120A36101F043
:1014A0004BFD80239B02A36210BDC046F0B5DE4613
:1014B000574645464E46E0B58BB005AB9A46D0231D
:1014C0001B06984680235B029B4643465A460A20E9
:1014D0005A61002102F0F6FC43465A469A6102F036
:1014E0000FFF80239B0204000D00994608E002F0E4
:1014F00007FF001BA941002900DD7AE000D174E05C
:1015000043464A465B681342F1D002F0F9FE80235D
:101510009B0206000F00994606E002F0F1FE801BD8
:10152000B941002965DC66D043464A465B681342F0
:10153000F3D102F0E5FE02000B00921BBB413A2101
:10154000100003F085FB534601C39A46142002F0B5
:101550002FFD0AAB5345B8D1069B059A934200D3A1
:101560009BE0069205AA1360079B069A934200D35C
:101570008DE00792059A934200D394E0069205AA63
:101580001360089B079A934200D382E00892069A60
:10159000934200D385E00792059A934200D386E0F8
:1015A000069205AA1360099A089B9A4200D372E03A
:1015B0000993079B934200D871E00893069B9A42D7
:1015C00000D372E00793059B9A4200D371E0069323
:1015D00005AB1A60079E002E12D030000BB0F0BC95
:1015E000BB46B246A946A046F0BD334B984200D850
:1015F00086E70020A7E7304B984295D90020A2E764
:10160000D024802524066D020A200021656102F0A5
:1016100059FCA56102F074FE802500900191AD0295
:1016200008E002F06DFE009A019B801A99410029A2
:10163000D3DC24D063682B42F3D002F061FED025C6
:101640008024029003912D06A40208E002F058FEC7
:10165000029A039B801A99410029BEDC13D06B6863
:101660002342F3D102F04CFE029B039CC01AA1411D
:1016700003003A21180003F0EBFA0600ADE70E4B29
:101680009842D7D9A9E70C4B9842E8D9A5E707AA11
:1016900076E708AA86E709AB9BE706AA63E708ABEB
:1016A00097E707AA7EE706AA6AE707AB91E706AACB
:1016B00078E706AB8DE7C04690650000F0B5CE46F2
:1016C000474680B5CA4C8BB02378002B0BD101283C
:1016D00035D0052810D006281DD008284FD8C54B76
:1016E00080001B589F466378092B01D900F03CFC11
:1016F000C14A9B00D3589F46FFF7D8FE01381D28EA
:1017000025D9FFF771FA0BB0C0BCB946B046F0BDA1
:10171000FFF7AEFBF7E7FFF7C9FE01381D2816D922
:10172000FFF7D0FAEFE7FFF739FBECE7FFF7E8F94F
:10173000E9E7FFF76FF9E6E7FFF7F6F8E3E7FFF70A
:10174000B5FE01381D2802D9FFF778F8DBE7AB4872
:1017500005F07AFEAA4805F077FE0223FF332380C6
:1017600002F0CEFD0023A74A8018594102000B1E4B
:1017700002DA0122A44B5242A260E360C3E7FFF702
:1017800001F8C0E702F0BCFDA268E368121A8B41C1
:10179000002BB8DC01D1002AB5D19C4805F054FEDD
:1017A00007A800F037FD07A800F07EFD98492061EA
:1017B00003F0FDFD03E09749281C03F0FBFD002129
:1017C000051C03F03DFE0028F5D104E0281C9149DA
:1017D00003F0EDFD051C8F49281C03F03FFE002897
:1017E000F4D1656102F08CFD00238B4A80185941C9
:1017F00002000B1E02DA0122834B5242A261E36116
:1018000002F07EFD206261624620FFF79FFB2069A7
:1018100003F08EFE060060690F0003F089FE7F4D25
:101820003B00009001913200280005F091FE022358
:10183000637068E702F064FDA269E369121A8B41E4
:10184000002B00DCA5E302F05BFD226A636A121A3A
:101850008B41002B00DD56E702D1002A00D052E771
:1018600002F04EFD00236E4A8018594102000B1E03
:1018700002DA0122644B524207A82262636200F03E
:10188000C9FC07A800F010FD6369011C061C181CA8
:10189000984603F08CFD6349051C03F0E7FD002822
:1018A00046D05C49281C03F082FD5E49051C03F00C
:1018B000DDFD0028F5D180216B005B08C905181CEF
:1018C000994603F0C3FD002800D1FFE2301C03F06D
:1018D0002FFE060048460F0003F02AFE02900391F7
:1018E000404603F025FE504D0090019132003B0030
:1018F000280005F02DFEFEF745FF4C4805F0A4FD3D
:10190000FEF79CFF02F0FCFC0023494A8018594175
:1019100002000B1E02DA01223B4B5242E36003231A
:10192000A2606370EFE6281C3A4903F043FD051CF2
:101930004049281C03F084FD0028F4D1BBE702F0E5
:10194000DFFCA268E368121A8B41002B00DDDAE6A7
:1019500002D1002A00D0D6E6374805F075FD07A869
:1019600000F058FC07A800F09FFC2949206101E025
:101970002849281C03F01EFD0021051C03F060FD12
:101980000028F5D104E0281C224903F010FD051CB5
:101990002049281C03F062FD0028F4D1656102F0A3
:1019A000AFFC00231C4A8018594102000B1E02DACA
:1019B0000122154B5242A261E36102F0A1FC2062B8
:1019C00061624620FFF742FB206903F0B1FD06008B
:1019D00060690F0003F0ACFD184D3B0000900191D1
:1019E0003200280005F0B4FD042363708BE6C04686
:1019F00040130020DCB6011000B70110DC96011086
:101A00000C970110400D0300FFFFFF7F3C97011072
:101A10000000B4420000B443C0E1E4005897011054
:101A200050C3000000003443AC9701105C980110D3
:101A3000801A0600000034C374980110A0980110A9
:101A400002F05EFCA269E369121A8B41002B00DCF4
:101A5000CBE202F055FC226A636A121A8B41002B1A
:101A600000DD50E602D1002A00D04CE602F048FC2E
:101A70000023C54A8018594102000B1E02DA0122D8
:101A8000C24B524207A82262636200F0C3FB07A860
:101A900000F00AFC6369011C061C181C984603F040
:101AA00086FCBB49051C03F0E1FC00284ED0B94977
:101AB000281C03F07CFCB649051C03F0D7FC002869
:101AC000F5D180216B005B08C905181C994603F00D
:101AD000BDFC002800D1F9E1301C03F029FD06000F
:101AE00048460F0003F024FD02900391404603F0A6
:101AF0001FFDA94D0090019132003B00280005F028
:101B000027FDFEF73FFEFFF7D1FC0500A3482900A3
:101B100005F01EFD1E2D00D872E2A14805F094FCD0
:101B200002F0EEFB00239F4A8018594102000B1E71
:101B300002DA0122954B5242E3600523A2606370F2
:101B4000E1E5281C934903F035FC051C9649281C47
:101B500003F076FC0028F4D1B3E702F0D1FBA268D1
:101B6000E368121A8B41002B00DDCCE502D1002A7C
:101B700000D0C8E58D4805F067FC07A800F04AFBD7
:101B800007A800F091FB8A49206101E08149281CE7
:101B900003F010FC0021051C03F052FC0028F5D1D5
:101BA00004E0281C7B4903F002FC051C7949281C31
:101BB00003F054FC0028F4D1656102F0A1FB00237E
:101BC0007C4A8018594102000B1E02DA01226F4B39
:101BD0005242A261E36102F093FB206261624620FF
:101BE000FFF734FA206903F0A3FC060060690F00D8
:101BF00003F09EFC704D3B000090019132002800E4
:101C000005F0A6FC082363707DE502F079FBA2696C
:101C1000E369121A8B41002B00DCAFE102F070FB8C
:101C2000226A636A121A8B41002B00DD6BE502D138
:101C3000002A00D067E502F063FB0023524A8018B7
:101C4000594102000B1E02DA0122504B524207A8F2
:101C50002262636200F0DEFA07A800F025FB6769E4
:101C6000011C061C381C03F0A2FB4949051C03F0AB
:101C7000FDFB002845D04749281C03F098FB444948
:101C8000051C03F0F3FB0028F5D180216B005B08F5
:101C9000C905181C994603F0D9FB002800D115E1AD
:101CA000301C03F045FC050048460E0003F040FCE4
:101CB00002900391381C03F03BFC2A000090019134
:101CC0003300354805F044FCFEF75CFD3B4805F069
:101CD000BBFBFEF7B3FD02F013FB0023384A80186C
:101CE000594102000B1E02DA0122284B5242E360E6
:101CF0000923A260637006E5281C264903F05AFBFD
:101D0000051C2949281C03F09BFB0028F4D1BCE7E3
:101D100002F0F6FAA268E368121A8B41002B00DD8C
:101D2000F1E402D1002A00D0EDE4FEF72BFD2548B6
:101D300005F08AFB00232380E5E402F0E1FAA268C3
:101D4000E368121A8B41002B00DDDCE402D1002A8B
:101D500000D0D8E41C4805F077FB07A800F05AFA39
:101D600007A800F0A1FA1249206103F020FB03E06C
:101D70000849281C03F01EFB0021051C03F060FB32
:101D80000028F5D127E0C04650C30000FFFFFF7FC9
:101D9000000034430000B443AC970110D098011008
:101DA00004990110400D0300000034C38499011010
:101DB0000000B442C0E1E400A0980110A099011015
:101DC000A0252600CC99011044990110281CAC498B
:101DD00003F0EDFA051CAA49281C03F03FFB00287C
:101DE000F4D1656102F08CFA0023A64A80185941AB
:101DF00002000B1E02DA0122A34B5242A261E361F0
:101E000002F07EFA206261624620FFF79FF82069A7
:101E100003F08EFB060060690F0003F089FB9B4D09
:101E20003B00009001913200280005F091FB062351
:101E3000637068E402F064FAA269E369121A8B41E4
:101E4000002B00DCB0E002F05BFA226A636A121A2F
:101E50008B41002B00DD56E402D1002A00D052E471
:101E600002F04EFA00238A4A8018594102000B1EE4
:101E700002DA0122844B524207A82262636200F018
:101E8000C9F907A800F010FA6369011C061C181CA8
:101E9000984603F08CFA7F49051C03F0E7FA002806
:101EA0005BD07749281C03F082FA7A49051C03F0BD
:101EB000DDFA0028F5D180216B005B08C905181CEC
:101EC000994603F0C3FA002800D0C0E048467249A2
:101ED00003F0CCFA00284DD14846704903F0C6FA09
:101EE000002800D0ABE048466D4903F0BFFA002857
:101EF00000D1A8E01E2398461F000021281C03F0F3
:101F00009FFA002800D090E00021281C03F0AEFAD0
:101F1000002801D1FFF7F7FB3800FFF797F8301CD6
:101F200003F006FB06000F005E4D4346484604934F
:101F300003F0FEFA02900391606903F0F9FA3200AF
:101F4000009001913B00280005F002FBFFF7DBFB4E
:101F5000281C4B4903F02EFA051C5349281C03F09A
:101F60006FFA0028F4D1A6E7FEF70CFC00232370DB
:101F7000FFF7C9FB462346279846BEE7002B02D150
:101F8000002A00D04AE6494805F05EFAFEF7FAFB5F
:101F90009CE6002B02D1002A00D054E4434805F00F
:101FA00053FAFEF7EFFBA8E4002B02D1002A00D081
:101FB00049E73E4805F048FAFEF7E4FB3C4805F0E7
:101FC00043FAFEF73BFC02F09BF90023394A8018E4
:101FD000594102000B1E02DA01222B4B5242E360F0
:101FE0000723A2606370FFF78EFB002B02D1002A4B
:101FF00000D02EE52D4805F027FAFEF7C3FB82E559
:102000002D4805F021FA02F07BF900232B4A8018B5
:10201000594102000B1E02DA01221B4B5242E360BF
:102020000123A2606370FFF76EFB3800FEF78EFF9E
:10203000301C03F07DFA224D06000F0075E72D23BA
:102040002D27984659E7142398461F0055E7301C62
:1020500003F06EFA060048460F0003F069FA02909A
:102060000391404603F064FA164D0090019132004E
:102070003B00280005F06CFAFEF784FB9EE7C046A3
:102080000000B443C0E1E400FFFFFF7F5897011058
:1020900050C30000000034430000F04100007041D4
:1020A0000000A04020980110000034C38897011060
:1020B00060990110801A06001C990110400D030060
:1020C000E4970110AC97011030B52C4C87B020007C
:1020D0002B4916F001FE03211A2000F025FE0321F2
:1020E0001B2000F021FE002201211A2000F036FE04
:1020F000002201211B2000F031FE00256A46214B01
:1021000019219382200005AA0223009516F00CFEE7
:102110006A461D4B19219382200005AA02230095CF
:1021200016F002FEC0236A465B0193821E2105AAB7
:1021300002232000009516F0F7FD02236A461E21B7
:102140009382200005AA009516F0EEFD642001F0B0
:102150002FFF0E4805F078F9C0220D4B12060292AF
:10216000039380220B4B920500920193C0220A4BED
:1021700012060A4805F0ECF907B030BD281300201C
:10218000801A06002057000023080000049A01105E
:10219000F38BA23F85EBB13FE045A73F449A011086
:1021A000F0B587B06A46A823D3730F22184EA73B19
:1021B000040000936A441921300016F0B5FD002395
:1021C00004AD2A00192100933000063316F0B6FD45
:1021D0000023E85E03F050F9E221890503F001F9DC
:1021E0000223EF5E2060380003F046F9E221890502
:1021F00003F0F7F80423EE5E6060300003F03CF972
:10220000E221890503F0EDF8A06007B0F0BDC046FB
:1022100028130020F0B587B06A460323D3730F223A
:102220001B4E023B040000936A441E21300016F04E
:102230007BFD002304AD2A001E21009330000633ED
:1022400016F07CFD2888AF88C0BA03F015F9114953
:1022500003F0B3F8104903F0AAF8FFBA2060380081
:1022600003F00AF90B4903F0A8F80C4903F09FF8B2
:102270006E886060F6BA300003F0FEF8084903F09B
:102280009CF8084903F093F8A06007B0F0BDC04681
:102290002813002000808944062F3A3D295C8F3D99
:1022A000000075449E5F143DD0B50400006803F043
:1022B0003FF906000F00606803F03AF932003B0076
:1022C00002F0E4FF00220B4B02F021FF0A4A0B4B05
:1022D00002F003FF02F0CAFF0021041C03F0B0F873
:1022E000002804D0201C064903F064F8041C201CBC
:1022F000D0BDC04600806640182D4454FB210940E3
:102300000000B443D0B50400806803F011F9060062
:102310000F00606803F00CF932003B0002F0B6FFDA
:102320000022054B02F0F3FE044A054B02F0D5FEF5
:1023300002F09CFFD0BDC04600806640182D44547A
:10234000FB210940F8B580231B069C460400006869
:10235000604403F0EDF8060060680F00011C03F014
:1023600040F8A568041C291C281C03F03AF8011C3D
:10237000201C03F01FF803F0DBF802F07FFF0200DF
:102380000B003000390002F081FF0022044B02F004
:10239000BEFE044A044B02F0A0FE02F067FFF8BD47
:1023A00000806640182D4454FB21094070B500237D
:1023B000B42601242C4DF60108C5200003F05CF87A
:1023C000F221890503F00DF803F0B2F8274A284BF3
:1023D00002F09DFE0022274B02F07FFE02F046FF36
:1023E00003F0ACF8013401C5B442E6D12100224823
:1023F00005F0AEF8E121214C4902200001F0CEFFAA
:10240000002301220821200002F058F8C022236B8B
:10241000120213401A4A01211360200002F08AF8C8
:102420000221042000F080FC0221052000F07CFC49
:10243000A369DB0607D41022A3691A42FCD12368E2
:10244000A3691A42F8D0E1210E48490205F080F84C
:1024500001F056FF0C4BF022186059605023F02118
:102460000A4805F075F870BD70F70020182D445427
:10247000FB21094000806640609A01100080034003
:10248000309003408C9A011048F60020BC9A01104D
:10249000F0B5042189B0002000F046FC6421394ADF
:1024A000394B3A4813615160394909684B401B0464
:1024B00038491B0C0B60012312689343364A1360A2
:1024C0000022364B05F044F89620C00001F070FD64
:1024D0002021334A93691942FCD1A523202113609E
:1024E0002F4A93691942FCD150230B2710252C4CFD
:1024F000136001AE6F442B49294802F049F80028C7
:102500003ED0A3691D42FCD1236833700136BE4220
:10251000F1D103AE37001025214C2249204802F0AA
:1025200037F8002808D0A3691D42FCD123683B700E
:10253000013708AB9F42F0D12021194A9369194213
:10254000FCD1A52320211360154A93691942FCD1BF
:1025500013271025124C11606F441249104802F0E5
:1025600017F8002807D0A3691D42FCD123683370F7
:102570000136BE42F1D10C4804F066FF09B0F0BD4F
:1025800003AED9E7000005400F270000F49A0110C0
:102590000C0005400C10054000100540000059409B
:1025A0000080034020A10700109B0110064B10B5CE
:1025B0000A681860054B06481A600122054B064957
:1025C0001A7004F0C5FF10BDEC750220E8750220FA
:1025D000289B011080AD02208D130000F0B54E46FF
:1025E0004546DE465746E0B50026CA4DCA4C8BB07C
:1025F000FA21C848890001F0CBFF102200281ED123
:10260000FA239B009C46FA2366445B019E42EFD36B
:1026100001F076FE0191C14900900A684B68009C68
:10262000019DA41A9D41002D00DD35E100D12FE16F
:102630000BB0F0BCBB46B246A946A046F0BD1100A7
:10264000AB6919401A42FAD12B682278D8B2002A15
:102650000BD101328107C90F13409942C8D0B04B4A
:1026600022701870AF4B1A60C2E7AE4A17687B1C25
:1026700098461360AA4B9C46D8554346042BB7DDB9
:102680006346012718788307DB0F0740BB4200D160
:10269000ABE163468508D8789F7884465E781879E0
:1026A00063460002184311602170B1D0092DAFD9E3
:1026B00002F0E2FEFA21890502F093FE9A49824671
:1026C000041C02F0CBFE0028A2D09849201C02F086
:1026D000BDFE00289CD09649201C02F0B1FE0028C7
:1026E00096D1944B94491A68944B101C1C689346DD
:1026F00002F063FE16F05CFC8F4905000590201C7B
:1027000002F05BFE16F054FC7835A1460690EF2DE2
:1027100000D97DE77824241AEF2C00D978E7FF014F
:102720007008384302F0A8FEF221890502F059FE34
:1027300002F0FEFE824B06000F001868814902F08D
:1027400050FE02F0F5FE804A804B02F0C6FC02000B
:102750000B003000390002F0BBFC02F087FD852140
:10276000C90502F03EFE7A4902F02EFF16F020FC69
:10277000002803DAB423DB019C466044B4235B01E8
:10278000C618B423DB019E4201DB724BC618724FA0
:102790008000C159504602F024FE494602F00AFE6C
:1027A000B600F1598146504602F01BFE594602F030
:1027B00001FE614902F001FE16F0FAFB78239C4607
:1027C000844467465C4906004846079702F0F5FDD9
:1027D00016F0EEFB0390EF2F00D919E778231B1AB0
:1027E0000893EF2B00D913E705990120721AD3172C
:1027F000D2185A409146B14200DB4042039B069FEB
:10280000F91ACB17CA185A40CB1793465A1A5A408E
:10281000039B012104929F4200DC49424A465B46E9
:10282000D31A4E4A8446904608004946EF2D23D8D5
:10283000EF2C21D822019146121B12014244575716
:10284000023F642F00DCF4E064274A46121B1201A9
:102850000992099A7FB242445755079AAA420BD16E
:10286000089AA24200D1CEE0049F5A00974207DDA9
:1028700024185B18EF2CDDD9049F5A00974204DC22
:102880005F466544DB1B8A42D0DC5B182418CDE729
:10289000334B9C4200D8CBE6009B019C0B604C6004
:1028A000304B1B78002B00D1C2E62F4B00931B68E6
:1028B000002B00D1BCE62D4B1A88934601321A80BA
:1028C000264B9A4600239946A022B5214B46362036
:1028D0009200C900DCB207F083FF051E00D187E03B
:1028E0005022436857461A700F3A5A700C329A7049
:1028F0000532DA705A461A71120A5A712822DA71B0
:10290000B522D2001E0090469C71083698440024DF
:1029100038E0C0460080034086AD022048F6002023
:1029200020670220B0750220000048420000FA45EE
:102930000000F042D0A302200000A042D4A3022055
:10294000CCA3022000003443182D4454FB2109403D
:102950000000B44680BCFFFF70F700204015002047
:10296000DF22020080AD0220EC7502205EAD022065
:102970006421D80102F044F97F30C0B230550134EF
:10298000F02C10D03B57002BF2DC7F20002BF5D031
:10299000D8016421C01A02F033F97F30C0B230553B
:1029A0000134F02CEED1F036F0374645AFD1009B24
:1029B00029001868254A264B0CF050FD0400280019
:1029C00008F086F8002C18D10021782001F07AFA5E
:1029D000B421C9004B4652468C46013362449946A5
:1029E0009246282B00D06FE722E611602170FFE5A8
:1029F0004946184804F0ACFD1AE64A46210016483C
:102A000004F0A6FD14E65046144902F027FD002804
:102A100000D0FDE5059BB34212D04B4612371B1B7D
:102A20001B013A1C7FB24344642F00DD64225A55D7
:102A3000EEE53A00643200DB07E764277F4204E7F3
:102A4000069B039A9342E8D1E2E5C046E87502206E
:102A50008D130000549B01107C9B011000C0DA45CF
:102A6000D0231B061B68AC4A9900F0B5DE468B46A6
:102A700051585A4253412F2257464E4645465B42D3
:102A800093439A46A54BE0B59C4683B0002601913E
:102A9000E244002938D0A24B99465246F308083345
:102AA0009B009D580123340098460836002D22D003
:102AB0000F212000294001342D09002919D04B464F
:102AC0005A469A580300C240203BDB171340424647
:102AD00013420CD107220F000240920097403A00A7
:102AE000C308904F3C339B00DA51019B9847002D5F
:102AF00001D0B442DCD3202ECFD103B0F0BCBB4612
:102B0000B246A946A046F0BD854E5F4600210F2380
:102B1000B346CC0822005046083292001258002AD0
:102B200000D1D0E0180010408046100913421AD09E
:102B30005D46ED59A94620256D42AC468C4465465C
:102B4000ED17AC464D46CD40A94665464E4635404C
:102B50000126354204D14646724D3C34A4006651EC
:102B6000002800D1AFE01C000440A446140A034230
:102B70001AD0481C80465846C059464681464D46A4
:102B80000800F5401F38C01728400125284208D109
:102B900065462D01AC46F0086646624D3C3080002B
:102BA0004651002C00D18EE0180020408446100BC6
:102BB000234211D08C1CA0465C46E4594646A146EF
:102BC0004D460C00F5401E3CE4172C4001252C42DC
:102BD00000D182E0002876D01C000440A446140CEA
:102BE000034210D0C81C80465846C059464681460C
:102BF0004D460800F5401D38C017284001252842E1
:102C000075D0002C5FD0180020408046100D234264
:102C10000ED00C1DA4466546414CE459EC40A1463B
:102C20000C004D461C3CE40F2C426AD000284AD0D0
:102C30001C000440A446140E034218D0481D8046D0
:102C400045463748C059E840814608004D461B3884
:102C5000C00F284209D165462D05AC464046664660
:102C6000C008304D3C3080004651002C2BD018005D
:102C700020408446120F23422AD029488C1D8146C9
:102C8000C059E0408046080045461A38C00F284227
:102C900006D1E0086446234D3C30240680004451B0
:102CA000002A10D04846C059CC1DE0408446080098
:102CB00065461938C00F284205D1E0083C30194C50
:102CC0001207800002510831202900D021E714E7C3
:102CD000002AF8D012488146E4E765462D02AC464A
:102CE000F40866460F4D3C34A400665172E7654611
:102CF0002D03AC46F00866460A4D3C308000465134
:102D00007FE745462D04A84664464646E408054D3F
:102D10003C34A400665189E7386702203041014005
:102D200034AA022000400140094A83009A1810B5D5
:102D300014684022544080322240064CC000A44611
:102D400063441A60044B9C466044416010BDC04619
:102D500004C0014004D0014000400140074B800006
:102D6000C3181B68C90092000A435A400C23134041
:102D7000034A9446604403607047C04604C0014063
:102D800004D001408000002905D0064B9C46022358
:102D9000604403607047044B9C4602236044036018
:102DA000F8E7C04604E0014004F00140D0231B06D0
:102DB0001B6830B50500584243412F205B428343D6
:102DC0000E48EC08844607202840800081402000FF
:102DD0000B4D3C3063448000A40041511B19002A74
:102DE00005D08022920194466344196030BDC02210
:102DF0009201944663441960F8E7C04630410140AF
:102E000000400140F8B545469846D0231B06DE46F3
:102E10001C689B462B4B57469A46A3004E46994644
:102E2000E0B5534616004A469B5807000D00002B9C
:102E300034D04346002B3FD053464A464146995032
:102E4000D0231B061C6863425C412F22072063428B
:102E500093431D4A38409446FA081100800085408B
:102E60003C311A486344890092000D509B18002E93
:102E70000ED0802292019446634401210D201D60F2
:102E800000F06EF9F0BCBB46B246A946A046F8BDBC
:102E9000C0229201944663441D60F3E74346002B31
:102EA000D1D0534641460D2099500022084900F0E8
:102EB000B9F95B461C68C6E70D20054900F0ACFA7D
:102EC000BAE7C04638670220304101400040014067
:102ED000612A0010D023F0B5C6461B0698461B6831
:102EE0000C4F9B001600FA5804000D0000B510426C
:102EF00009D1290014430D203200FC5000F092F952
:102F000080BCB846F0BD01F04BFD43461B689B00FA
:102F1000FA58EEE734AA022010B504000D2000F0A4
:102F20007BFAD0231B061B6802499B005A58A24318
:102F30005A5010BD34AA02200123D0228340120629
:102F400093629361094A83009A18116840225140A4
:102F500080320A400649C0008C4663441A60054B23
:102F60009C460523604443607047C04604C001404E
:102F700004D00140004001408023DB051868000FA9
:102F80007047C0460FB400B5084883B004F05CFA3F
:102F9000049B002B07D005A91800019104F0AAF8A2
:102FA000034804F051FA012004F0BCF8A09B011082
:102FB000789B0110EFF3108072B6034A1368002B60
:102FC000FCD0BFF35F8F70472C0100D0BFF35F8F41
:102FD0000022024B1A6080F3108870472C0100D049
:102FE00070B5EFF3108C72B60D4D2B68002BFCD032
:102FF000BFF35F8F0724CB08C618C05C01230C40C9
:10300000A3401C000440034207D118433070BFF3B3
:103010005F8F2C608CF3108870BD1000FFF7B2FF3B
:103020002C0100D0F8B54746CE46884680B5EFF370
:10303000108C72B61C4D2C68002CFCD0BFF35F8F37
:103040009A4222D807210126894602E001329342A2
:1030500018D34D4637001540AF40D4080119045D20
:103060002742F3D110003C430C70BFF35F8F002266
:103070000D4B1A608CF3108800280EDBC0BCB946DB
:10308000B046F8BD01204042EFE7BFF35F8F002359
:103090002B608CF31088012040424346002BEDD07A
:1030A0000898FFF76FFFC0462C0100D030B5EFF352
:1030B000108C72B60A4C2368002BFCD0BFF35F8FD4
:1030C000072301220B409A40CD08435D93434355AB
:1030D000BFF35F8F002323608CF3108830BDC046A0
:1030E0002C0100D0044A1078431CDBB2172B00D906
:1030F000102313707047C0460012002010B5064B15
:10310000064C82B00100009318221F232000FFF715
:1031100089FF02B010BDC046B09B01105867022065
:103120000021044B044ABFF35F8F02C39342FAD1DC
:103130007047C046000100D0800100D0054B064A10
:103140001360064A136053609360D3601361536148
:10315000936170478080808000E400E004E400E038
:103160001F2318401E3B8340002905D0C021044A7C
:103170004900535013607047802201498B50FAE791
:1031800000E100E001228240034B1B6813405A1EFD
:103190009341D8B27047C04600E100E0012383406C
:1031A000014A13607047C04600E200E0064B103051
:1031B0009B688000C358054A00209B1A2F229A4220
:1031C0004041C0B27047C04600ED00E0041200204C
:1031D00070B50D00EFF3108672B60F4A1368002B1E
:1031E000FCD0BFF35F8F0D4B10309B6884001B59E0
:1031F0000B4A934203D09D4201D001F0D1FB074B13
:103200009B681D51BFF35F8FBFF35F8F0022024B9E
:103210001A6086F3108870BD240100D000ED00E034
:10322000C1010010F0B557464E46DE464546E0B5B2
:1032300085B0060000911700EFF3108B72B66A4A52
:103240001368002BFCD0BFF35F8F0025674B5D57E1
:103250009A46002D00DAA9E06B00654C01935B19DA
:103260009B009846A146C1444B4652469B79103676
:103270001370604BB6009B6899590B1B2F2B33D9E9
:103280005D4B994200D0ACE0019B42469C465B4BB3
:103290006544AD0063535A4B0232A218043B9B1A9B
:1032A0001B05584A5B0D651913436B80564B012172
:1032B000AB80FF23AB71009BEF71AB604B460B43C0
:1032C00019004C4B9B689951BFF35F8FBFF35F8F21
:1032D0000022454B1A608BF3108805B0F0BCBB464A
:1032E000B246A946A046F0BD01200A008243D37928
:1032F0008C46BB4231D84546130044491B1B5B41F9
:103300005943090D3D4B63533D4B02356519043B51
:103310005B1B1B053B4D5B0D2B43AA464D466B804B
:103320000425AC465546E044131F44441B1B1B05B3
:103330005B0D1D434B46997100999D8099604946EC
:10334000DF71334B01431360BBE75800C0188000A6
:103350002018C179B9422FD902000623D356002B79
:10336000F3DA02932B4B61460393131D9A46042311
:103370005B429C46E14450464B461B1A1B055B0DC5
:103380009C46204B95719846634640460343938084
:10339000019B5A199200039BA418A380029B1C4A0C
:1033A000A371009B2260E771A3608AE701F0F8FA3D
:1033B000002553465D574FE7908802934005131D43
:1033C0009A46031561469C464046D4446346043001
:1033D0002018181AE0230005400D1B021843039023
:1033E000C5E701F0DDFA4FE7240100D07DAD0220F2
:1033F0000412002000ED00E0C101001000A1FFFF59
:103400003412002000E0FFFF01BDFFFFAAAA000068
:103410000148804701BD0000F0B5DE4657464E46E4
:103420004546E0B50C0083B0EFF3108872B6634AEE
:103430001368002BFCD0BFF35F8F614B61499A6822
:10344000030010339F00D55901938D4243D0A5420C
:1034500054D05D4EAA1B2F2A3DD85C4B9B461B685F
:10346000994601231A009C4682404B4613401F2276
:1034700099466346024093409A4680225B465046F6
:103480009850BFF35F8FEFF305839B46002B37D037
:10349000019B5B4501D001F083FA01232A009A4386
:1034A0009068844208D176E04B005B189B00F318CB
:1034B0009868844236D01A00062151560029F3DA62
:1034C000844254D04B46002B27D0C02251463F4B5C
:1034D0005200995019603A4B9B68DD51BFF35F8FE2
:1034E000BFF35F8F0022354B1A6088F3108803B05A
:1034F000F0BCBB46B246A946A046F0BD0D00EAE7C7
:103500002A0063469A4390688442D5D1062010561B
:10351000130000280ADA0D0031E0802351462B4ABF
:10352000D150D8E706201856002821DB4200111898
:10353000890074188B46A1689960E179D9710621D8
:1035400061569971002924DBA488F11A64052415B9
:103550005C44091909051E4C490D21439980131833
:103560001C4A9B001178F31899711070AAE7130098
:103570005946002914D1FF3191711749918015499D
:103580000A789A71154A9B1B5B415A43120D0A70C7
:1035900098E71149E2E70620105613000028C5DA23
:1035A0000F4A1049D21A083A5002400D014399803F
:1035B0000D4952080A43DA8084E7C046240100D04E
:1035C00000ED00E0C10100100412002000E100E065
:1035D00000E0FFFF7DAD022001BDFFFFAAAA0000B1
:1035E0003E12002000F0FFFF00F8FFFF10B5830837
:1035F000040003202040FF24054AC0009446844074
:1036000081409B0063441A68A2430A431A6010BDBC
:1036100000E400E070B501240443EFF30581EFF30B
:10362000108C72B6214A1368002BFCD0BFF35F8F59
:103630001F4B05001F4AED1A6D416A43120D1E4DC6
:103640008900AE6852B27658A6421CD0062159565F
:1036500091421CD012215956914222D01E21595616
:10366000914220D02A2159560324914210D0134B65
:1036700019781A708171BFF35F8F00220B4B1A60AB
:103680008CF3108870BDAB680D4C5C50EFE70024E4
:103690006100091989005B18FF2199710949998016
:1036A000E5E70124F4E70224F2E7C046240100D054
:1036B00004120020AAAA000000ED00E07DAD022067
:1036C000C101001001BDFFFF1F2110B5091A0248FA
:1036D000FFF7ECFC10BDC0468BAD022010B5084BC7
:1036E000084C82B001000093002205232000FFF760
:1036F00099FC002801DB1F23181A02B010BDC04638
:10370000CC9B01108BAD022070B504000E0015009B
:10371000FFF7E8FC0100200000F006F8A680E58035
:10372000BFF35F8F70BDC046024B9C466144890069
:10373000016070474000003470B5114C114DAC422F
:103740000FD2FF262368002B0CD0FFF7CBFC010023
:103750002000FFF7E9FFA680BFF35F8F0834AC427B
:10376000F0D370BDFFF7BEFC01002000FFF7DCFFC7
:103770002671BFF35F8F0834AC42E3D3F1E7C04654
:10378000381300204013002010B50400FFF7AAFCF6
:1037900001002000FFF7C8FFFF232371BFF35F8FF5
:1037A00010BDC04610B50400FFF79CFC01002000CE
:1037B000FFF7BAFFFF23A380BFF35F8F10BDC046A2
:1037C00010B504000120FFF799FC034BC3189B00C0
:1037D0002360BFF35F8F10BD40000034034B9C4655
:1037E000614489000160BFF35F8F7047400000347F
:1037F0000A4B1968EFF3108072B60A68002AFCD0F1
:10380000BFF35F8F1B68BFF35F8F00221A6080F3E6
:10381000108840BF002000217047C04658AB0220EE
:10382000F0B5DE4657464E464546E0B587B0EFF365
:103830000583032201251A40954091008846A94638
:10384000B14B03925C58B14B1D60B14B04934B4696
:10385000B04843630823E55E002D37DAA3881BB226
:10386000002B00DBADE0A379002B00D0EEE00823B5
:10387000E15E002920DB4B0062695B18DB00D31896
:103880009E68DD68731C00D10DE1A248010041442F
:10389000826A0B69B71A9B1A9F4215D30123026AE9
:1038A000039883401A420FD09A4800F021FD8D42C0
:1038B00002DCCCD18642CAD940BF07B0F0BCBB46BF
:1038C000B246A946A046F0BD0E61EDE762696B0005
:1038D00092465B19DB009A4453469E68DF6800F00D
:1038E00007FD8F42BADC00D1FFE0002F00DAE4E0F0
:1038F0005246534652691B699346049A934200D13B
:10390000D5E052460821605E5288000459461043B3
:103910009847009001910099019A0B001000134301
:1039200000D1CAE013000A00B61A9F41002806DB46
:10393000784800F0DDFC009E019F36184F41534649
:103940009E60DF6000229A5E002A00DA86E753005C
:1039500099186069C900411802938B68C9689B4631
:10396000B94200DD7AE702D1B34200D976E70823F5
:103970009C46A444059565462281A446029B2C00E2
:1039800006E053009918C90041188D68C968AB4614
:103990009B18DB00C318B94206DC00D1AFE01C0065
:1039A0000023E25E002AECDA230064469C4653467C
:1039B0001A806346059D1D80A3881BB2002B00DA88
:1039C00051E72269EFF3108172B61368002BFCD027
:1039D000BFF35F8F0123A7885B42A3803FB22369B7
:1039E000BFF35F8F00221A6081F31088002F00DA86
:1039F00039E72300083322009A4666697B00DB1909
:103A0000DB00F318996850468C460824115FDD6886
:103A1000002910DB029306E0AB4240D00023E15EB8
:103A20002000002906DB4C006418E4003419E36828
:103A3000AB42F1DD029B078000201F5E1980002F42
:103A4000DCDA1400A379002B00D110E70023A37166
:103A500026000823E15E08364B1C00D12CE7B44653
:103A6000656903E084464B1C00D100E74B005B18FE
:103A7000DB00E8180A00E95E43881BB2002BF1DA8C
:103A800001267642F7178660C7600826A35F934237
:103A9000E9D063461980238903802281E3E7A36884
:103AA0006345BBD9C6E76B1C00D0EEE6FCE65B467F
:103AB00058461B69984700281BD153461B8822692A
:103AC0002381EFF3108372B611680029FCD0BFF395
:103AD0005F8F514662880A8022696580BFF35F8FDD
:103AE0000021116083F31088B8E6864200D8FCE616
:103AF000B4E65B461A685B68009201930BE7B34536
:103B000000D84CE750E7C046BCA302203C700540FB
:103B1000213800100040054070B52E4C2569002D5D
:103B200004D00A212C48FFF7FFFD70BD2B4E032166
:103B3000300000F0D3FBE660FFF7D4FA284B0322F5
:103B40009C46D02322701B061B6801216370254B05
:103B50006044A3600F2380002061022063806369BA
:103B60004942A18019800231198647311D8358527C
:103B700018315A5275325C399952183201319952C2
:103B800018320131995218320131995208351832E0
:103B90009D5202311832995218320131995218321D
:103BA000013199521832013199521832013199522A
:103BB0001832013199520C4B0C49DC6001303562EE
:103BC000FFF706FB01210320FFF7CAFA084B1D602F
:103BD000A7E7C0464C12002058AB02200040054029
:103BE00040000034FFFF1000BCA302202138001069
:103BF00038600540004870474C120020F8B51F009F
:103C000008AB1B7804001600002B08D100F078FBED
:103C100032003B00121A8B41002B00DA52E022697D
:103C2000EFF3108072B61368002BFCD0BFF35F8FE8
:103C30000223E15E63694A005218D2009B18226990
:103C4000002936DB1D886580BFF35F8F0025156076
:103C500080F31088069A9E60DF601A61079A5A61A5
:103C60005A8801325204520C101C002A1FD082B212
:103C70005880080410432669EFF3108772B6326843
:103C8000002AFCD0BFF35F8FA2881A80A18023692D
:103C9000BFF35F8F00221A6087F310880A492378E8
:103CA0008C4601329A40E36863441A60F8BD0120F3
:103CB000DDE7BFF35F8F0023136080F310880120DE
:103CC0004042F3E70020F1E73C20000070B501001E
:103CD0000469EFF3108C72B620680028FCD0BFF3A3
:103CE0005F8F02200D5E4C6968004019C0002418E7
:103CF0000869002D36DB26884E80BFF35F8F0026D3
:103D000006608CF31088E3606388049801332061B7
:103D10005B0405985B0CA26060611A1C002B1FD02D
:103D200093B22804628018430A69EFF3108C72B6CC
:103D30001368002BFCD0BFF35F8F8B8823808D80AE
:103D40000B69BFF35F8F00221A608CF310880B7829
:103D500001329A40CB6808498C4663441A6070BDB2
:103D60000122DDE7BFF35F8F002303608CF310882F
:103D700001204042F3E7C0463C20000010B54389D3
:103D80000A1493421ADD53009B184269DB00D318D2
:103D90000469EFF3108C72B62268002AFCD0BFF3DE
:103DA0005F8F5A88090494B2090C8A4208D00369CB
:103DB000BFF35F8F00221A608CF31088002010BDC3
:103DC0008022120214435C80012302698371BFF3D5
:103DD0005F8F002111608CF31088044902788C46B3
:103DE0009340C268012062441360E8E73C20000071
:103DF00040787047F0B506000F0006246442E517CE
:103E0000C646A4197D4100B582B08D4214D811D0A8
:103E100000F076FA22002B00121A8B41002B15DCE1
:103E2000002B44D03000390000F0A8FA02B080BC6A
:103E3000B846F0BD8442EBD90024002500F060FABA
:103E400022002B00121A8B41002BE9DD00F058FAFA
:103E500022002B00121A8B41002B0ADB0023019356
:103E6000144B2200009314482B00FFF72FFF013062
:103E7000D8D0A04629000024104A1148536A99421C
:103E800004D8956A4545CDD29942CBD10568EFF368
:103E9000108C72B62B68002BFCD0BFF35F8F0368C9
:103EA000BFF35F8F1C608CF3108820BFE6E7002A09
:103EB000B8D0CBE7F13700104C120020004005408D
:103EC00058AB0220F0B5C64600B582B004000D0024
:103ED00000F016FA24184D41002D02DA01242F4D6E
:103EE000644206267642F71736196F41AF4214D85E
:103EF00011D000F005FA32003B00121A8B41002B62
:103F000015DC002B46D02000290000F037FA02B063
:103F100080BCB846F0BDA642EBD90026002700F0D1
:103F2000EFF932003B00121A8B41002BE9DD00F063
:103F3000E7F932003B00121A8B41002B0ADB002309
:103F40000193174B3200009316483B00FFF7BEFE6B
:103F50000130D8D000233900B0469C46124A13489D
:103F6000536A994204D8966A4645CCD29942CAD13E
:103F70000668EFF3108772B63368002BFCD0BFF3EE
:103F80005F8F0368BFF35F8F66461E6087F31088FC
:103F900020BFE5E7002AB6D0C9E7C046FFFFFF7F94
:103FA000F13700104C1200200040054058AB0220B1
:103FB000F0B5C64600B582B0040000F0A1F9FA22BF
:103FC00006000F00200000230021920001F0D2F92A
:103FD0008019794104000D1E02DA01242E4D64423D
:103FE00006267642F71736196F41AF4214D811D022
:103FF00000F086F932003B00121A8B41002B15DCD1
:10400000002B46D02000290000F0B8F902B080BC97
:10401000B846F0BDA642EBD90026002700F070F9A3
:1040200032003B00121A8B41002BE9DD00F068F9E9
:1040300032003B00121A8B41002B0ADB0023019354
:10404000164B3200009316483B00FFF73FFE01304D
:10405000D8D000233900B0469C46124A1248536A11
:10406000994204D8966A4645CCD29942CAD106688C
:10407000EFF3108772B63368002BFCD0BFF35F8F6D
:104080000368BFF35F8F66461E6087F3108820BF0A
:10409000E5E7002AB6D0C9E7FFFFFF7FF137001040
:1040A0004C1200200040054058AB0220F0B55746A6
:1040B0004E46DE464546E0B506000F0085B0EFF3FC
:1040C000058399468B46002B12D0384900204B6A55
:1040D000BB4206D38A6ADB1B591E8B41B242404168
:1040E000184305B0F0BCBB46B246A946A046F0BD99
:1040F0002F4B9A46DB68984653461B7840460393FD
:1041000000F0F6F84246039B040004339B009B58E2
:104110000D001B1A39003000001BA941894510DC35
:104120000DD020BF214A0020536A5B45D9D3926A43
:10413000DB1B591E8B41B24240411843D1E78342F9
:10414000EFD900F0DDF832003B00121A8B41002B52
:104150001ADB00230193174B3200009350463B00BB
:10416000FFF7B4FD011E0FDD104B5A6A5A451BD3F1
:104170009B6AB34216D35046FFF700FE0B4A00205D
:10418000536A5B45ADD3D2E7084A0020536A5B45CA
:10419000A7D30020926ADB1BB24240415A1E9341D2
:1041A00018439EE75A45E6D120BFE4E700400540AA
:1041B0004C120020F1370010F0B5CE4647461100F2
:1041C00080B583B004009C460C9D194300D16CE07F
:1041D0006146DB170193009353401E00019B4B4047
:1041E0001F0000980199361A8F4163460A996B6047
:1041F0000B9BAC6029612A606B6100F081F880192B
:104200007941002902DA0120314940422269EFF365
:10421000108972B61368002BFCD0BFF35F8F0223A6
:10422000E65E636972009219D2009B18226990467B
:10423000002E42DB1A886280BFF35F8F0022474660
:104240003A6089F31088234A9860D9601A615A88C5
:104250005D6101325204520C111C002A2BD088B22D
:104260003204024359802069EFF3108772B6016867
:104270000029FCD0BFF35F8FA1881980A680236935
:10428000BFF35F8F0021196087F3108812482378ED
:104290008446013199400120E36863441960EA6073
:1042A00003B0C0BCB946B046F0BD002301260027CC
:1042B00001229C4699E70121D1E7BFF35F8F0023DC
:1042C000136089F31088012200205242E7E7C046BC
:1042D000FFFFFF7F213800103C20000010B5024A8C
:1042E0000248FEF77DFE10BDE89B01105C670220CE
:1042F0000300416A0A00986A596A8A42FAD17047F3
:10430000034B596A0A00986A596A9142FAD1704778
:104310000040054070B504000D00174A536A1900AB
:10432000966A536A8B42FAD13000190024184D4125
:10433000AB4216D813D0104B2A005B6A9D4203D9BA
:104340000D494B6A9342FCD3934207D10A4A02E0DB
:10435000516A994202D1916AA142F9D370BDA64235
:10436000E9D9054B5B6A1C005A1CEFD001220124DD
:104370006442E5175242E3E700400540064A536AAB
:104380009942FCD807D1044B02E05A6A914202D10B
:104390009A6A9042F9D8704700400540F8B5040089
:1043A00006200D0000F0F4F9002844D0374B3849BE
:1043B000E3185A1E93418022120494465B429B0DDF
:1043C000344A9B0563441360334A136018000A683B
:1043D0009043FBD12D4B314AE31859424B41802188
:1043E0005B0049000620995200F0D2F92900C00074
:1043F00000F02EFC0130C3091ED140270122626269
:10440000A362266BF30722D4E36A254B0620E51846
:1044100000232B60266300F0BBF93900800000F018
:1044200017FC7023E26A5A400E3313402B601D4B79
:1044300023630323A364F8BD1B4A93421ED90023C0
:104440001A4A1B4F6262A362266BF307DCD5194B35
:10445000144AE3181A60656AA36A0620AD01ED18D4
:1044600000F096F9144900F0F3FBAD0201002800BA
:1044700000F0EEFB0021FFF74DFFC5E74006800E80
:104480009F011A003F180300B9E7C0460080FCBF37
:1044900008C0004000E0004000F0004038AD0220BD
:1044A0002C10000001030000FEFF0000FFFF0000D1
:1044B000C0FF3F00303000004E0E00000539013AC9
:1044C000F8B5D2004C0105001443002B06D0013B87
:1044D0005A4253419B00234302241C432E6BF30793
:1044E00008D46E23EA6A624013400E4AAA18136089
:1044F0002E63F8BD0C4B0D4AEB181A606F6AAB6A5D
:104500000620BF01FF1800F043F9094900F0A0FBA5
:10451000BF020100380000F09BFB0021FFF7FAFE0C
:10452000DFE7C0462C10000030300000010300001F
:104530004E0E0000F8B5066B04000D01F30708D419
:10454000E36A5D4010231D400D4BE3181D60266398
:10455000F8BD0C4B0C4AC3181A60476A836ABF0146
:104560000620FF1800F014F9084900F071FBBF02A3
:104570000100380000F06CFB0021FFF7CBFEDFE705
:104580002C10000030300000010300004E0E00002F
:10459000074A30B51024956A03E0936A5B1B8B428F
:1045A00004D883691C42F8D1012030BD0020FCE70B
:1045B00000400540F8B5DE464E4657464546E0B554
:1045C0008B4605000A991800160000F041FB0A9B73
:1045D0006C001F02324B64199C46A400644463685B
:1045E00081469F4200D967602B1FDBB29846012BA2
:1045F00030D9C02380229B01E31812011A60294B95
:10460000AD0059599A4600291BD17301E026226852
:1046100053401E40802342465B01E3181E60012A7E
:1046200030D9802380229B01E31812011A6053467F
:104630004A4667605A51F0BCBB46B246A946A046FE
:10464000F8BD586900F004FB013043001B18033B20
:10465000FDD2DAE75B46012BCBD1C02303229B01BD
:10466000E3181A60023AA3681A42FCD07301E026EC
:104670002268AD0053401E4080230A4A5B019246E7
:10468000E3181E605A462168514003220A401A600E
:1046900001225B469A40A3681A42FCD0C1E7C0469B
:1046A0000080004064670220F0B546464F46D6467B
:1046B000C0B51F00344B44009C462418A400644439
:1046C000636888461600FF2B02D880235B00636076
:1046D000031FDBB29A46012B30D9C02380229B01F5
:1046E000E31812011A60294B85005959994600298F
:1046F0001BD17301E026226853401E40802352469E
:104700005B01E3181E60012A30D9802380229B01BF
:10471000E31812011A6080235B0063604B465F510F
:10472000E0BCBA46B146A846F0BD586900F090FA20
:10473000013043001B18033BFDD2DAE74346012B4F
:10474000CBD1C02303229B01E3181A60023AA3686D
:104750001A42FCD07301E0262268850053401E40B7
:1047600080230A4A5B019146E3181E604246216895
:10477000514003220A401A60012342469340A26836
:104780001342FCD0C1E7C0460080004064670220AD
:10479000014B8000C058704764670220F8B50400E0
:1047A00021481E0017000D0000F052FA01003800E9
:1047B00000F04EFA069B36041B031E432368002BB1
:1047C00020DB1A4B1A49E3185A1E934180229201AA
:1047D00094465B421B0B174A1B0363441360164A43
:1047E00013601F000A689743FBD1144B2560E21841
:1047F0002123A06013602368002BFCDA0823E66005
:104800001360F8BD3F2322681340AB42D9D1A3689F
:104810001B051B0D8342D4D1EE22E368D202134064
:10482000B342CED1EDE7C046001BB7000040FDBF4C
:1048300008C0004000E0004000F0004004300000EC
:1048400010B580241C4BE4051C6000281AD00123FD
:104850001A4C18431A4BDC611A4C44401C625962D2
:1048600098628021144BC9051960174817490860E0
:10487000E021C9041960002A07D18022144B1206D6
:104880001A6010BD0E4BD861EBE753019B1A9B00D9
:104890009A18802312015B049A4209D213000D4931
:1048A0000B60074B5A608022094BD2051A60E8E77B
:1048B000094B1A00F3E7C04600B00540D3C007B06B
:1048C000008005402D3FF84FFCFF0100082001400B
:1048D00000A00540E4750220FFFFFF008023024A8C
:1048E0009B000B43D362704700800540002310B546
:1048F0000100988A1B8B984710BDC046162310B53F
:104900000100188802331B88984710BDF8B5474648
:10491000CE4680B50F1E18D01423994604330400E8
:104920000025012698464B461888434621681B8877
:10493000984701C4431E984101350640AF42F2D169
:104940003000C0BCB946B046F8BD0126F8E7C04605
:10495000002370B504000D00988A05491B8B984709
:1049600003000020002C01DB0130A0402900984703
:1049700055420000AA23064A1B0113608D235B00E9
:10498000D3600449044B19605368002BFCDA70476C
:104990000040024000B0FA00006002407047C0468C
:1049A00010B50148FEF7EEFA0C9C011070B5074DEA
:1049B000074EB54209D20024013E761BB60808CD49
:1049C000984723000134B342F9D170BD80900110A3
:1049D000BC900110054B064A06491A60064A074B6F
:1049E0001A6010000B689843FBD1704700E000404C
:1049F000BFCDFBFE08C00040FE7F3C0000F0004041
:104A0000044BDB6C002B03D18022034BD2021A60D3
:104A10007047C046000011504C201150044A054B0D
:104A20001A60054A1368DB018033FBD17047C0462A
:104A3000FFFFFF0100F0004008C000404022034B90
:104A40009A675A671A67DA667047C04600F00140F5
:104A500010B5FEF765FB10BDF8B52749274C284D6A
:104A6000641AA6103200302E00D93022280092009D
:104A700000F0C0FEBC2C3BD830202F232C1964073B
:104A8000204A801BE40F9B1B052B16D93700002CF6
:104A900002D0B300771CEA50001B33199B00410879
:104AA000EB18C900C9181A605A6008339942FAD144
:104AB000012303421CD09843C619B300EA50731C6B
:104AC0002F2E15D09B00EA50B31C2E2E10D09B0029
:104AD000EA50F31C2D2E0BD09B00EA50331D2C2ED8
:104AE00006D09B00EA50731D2B2E01D09B00EA508C
:104AF000054B9D60F8BDC04600010010C0010010CC
:104B000000000020C101001000ED00E0002310B5FE
:104B1000294C82B0A367FFF72DFF0122274B1A60B3
:104B2000636C012BFCD10322254B1A60224A936B44
:104B3000012BFCD1013300930121224A2248043386
:104B4000FFF72CFE052301210093204A2048FFF7A0
:104B500025FE0022022104201E4BFFF7A5FD0022A6
:104B6000012105201C4BFFF79FFD0022002107209B
:104B70001A4BFFF799FD002200210820174BFFF781
:104B800093FD8023DB000093002200210920134BBA
:104B9000FFF710FD0022104B00210620FFF784FDD7
:104BA0000420FFF7F5FD0E4900F052F80100002047
:104BB000FFF794FE02B010BD008000403CB0004002
:104BC00030B00040002F685900800240008C8647BA
:104BD00000C00240001BB70040597307006CDC02A4
:104BE00040420F0001480421014B18477012002079
:104BF0000D490010014B9B681847000070120020FF
:104C0000124A936F9B0815D29066D166002905D091
:104C1000FFE7FFE7FFE7516F106F704704B5802192
:104C20000906C2175140002800D0C84314F0D0F93B
:104C3000002104BDF0B5146E556E576F166FFFF767
:104C4000E3FF1466556657671667F0BD000000D095
:104C5000114A936F9B0813D210665166002905D044
:104C6000FFE7FFE7FFE7516F106F704704B50028BB
:104C700001D00020C04314F0ABF9002104BDC046B0
:104C8000F0B5146E556E576F166FFFF7E5FF14669B
:104C9000556657671667F0BD000000D094464A4A33
:104CA000926F9208624601D228E0C046F0B5464EA7
:104CB000346E756E776F366F00F020F89446424A76
:104CC00014665566576716676246F0BD94463E4ABD
:104CD000926F9208624601D254E0C046F0B53A4E57
:104CE000346E756E776F366F00F04CF89446364A26
:104CF00014665566576716676246F0BD002B24DBC5
:104D000011D000293EDA00B5C943404200D101313B
:104D100000F038F8C943404200D10131DB43524230
:104D200000D1013300BD002AEBD1002801D10029B8
:104D300005D00020C90FC90701D1C043410800B503
:104D400014F026F90022002300BD00B500290ADB7B
:104D5000DB43524200D1013300F014F8C943404212
:104D600000D1013100BDC943404200D10131DB43D4
:104D7000524200D1013300F005F8DB43524200D12A
:104D8000013300BD002923D1002B18D1002A0CD0FB
:104D9000BC460D4F38667A6600210023FFE7FFE727
:104DA000FFE77A6F386F67467047002801D00748E1
:104DB000010000B514F0ECF80022002300BD020051
:104DC0000B00002000217047000000D0FFFFFFFF14
:104DD000002B00D0BFE0130C28D1002AE7D080B40C
:104DE000114F39667A66FFE7FFE730B4040C7B6F3A
:104DF000396F1B0423433B667A66FFE7FFE7FFE753
:104E0000C04684B27B6F3D6F1B0423433B667A66CA
:104E1000FFE7FFE7C04600232C042D0C7A6F386FA4
:104E200000196941B0BC7047000000D0F0B594464D
:104E30000025140E01D112020835140F01D1120100
:104E40000435940F01D192000235D40F01D15200E4
:104E50000135D40B0134254F7C66254C3C660E0C85
:104E600093B2FFE7FFE7FFE73C6F6643360C77033B
:104E7000BE467343DF0B5B04C01AB941130C734386
:104E8000DB18C91ACE086643360CB64493B2734396
:104E90001F0F1B01C01AB941130C73431F0B1B05D5
:104EA000C01AB941860D8F023E436643360C092D68
:104EB00024DB520A7243801A7703460A6643360C93
:104EC00016235B1BDE40DF40BF1964466643821B2E
:104ED0007046043506330100D940A840C01900D3FC
:104EE0000131A24206D20023F0BD0000000000D034
:104EF000FFFFFFFF121B0130F3D3F1E709277F1BF0
:104F0000FE406446A2B27243801A00D20139220CDC
:104F10007243130C1204821A99410B007046043537
:104F200013370100F940A840801900D30131002B4C
:104F300002D1A2420AD2F0BD013000D30131121BCE
:104F4000FAD2013BF8D1A24200D2F0BD013000D329
:104F50000131121BF7E7F0B51C0C00D080E00CB457
:104F600000251C0A04D11B02160E33431202083519
:104F70001C0B04D11B01160F3343120104359C0B8B
:104F800004D19B00960F334392000235DC0B02D113
:104F900092185B4101351C00971864410134464F5B
:104FA0007C66464C3C660E0CFFE7FFE7FFE7C04619
:104FB0003C6F6643360C7703BE4697B27743C01BFF
:104FC00000D20139C01B00D201399FB27743C91BFF
:104FD000C91B170C77437E04FF0B801BB941CE0819
:104FE0006643360C0C2D33DBB644120B1F053A43D7
:104FF0001B0B97B27743C01B00D201399FB2774396
:10500000C91B170C77433E043F0C801BB941860D2A
:105010008F023E43664329277F1BFE400C3D7746A7
:10502000AF40BF1930BCA2B2ABB272437343801A17
:105030009941220C7243130C1204801A9941020008
:105040000B000137001BA941F9D2781E0021F0BDE9
:105050000C277F1BFE4077467F0BAF40FF19E0E730
:1050600000245D1C07D0144F7D663966FFE7FFE71B
:10507000FFE7FFE73C6F95B29EB265436643401B76
:10508000B141150C1E0C6543664336042F0C3E439C
:105090002D04401BB141994204D202000B002000B4
:1050A0000021F0BD01D19042F7D3801A994101341B
:1050B0009942F2D3F6E70000000000D0FFFFFFFFA7
:1050C00048404140484018B4134B5B68019308BD09
:1050D00018B4114B1B68019308BD94460F4A926F98
:1050E000920805D2624618B40B4BDB68019308BDE9
:1050F0000A4AF0B5146E556E576F166F6246FFF789
:10510000F2FF064A1466556657671667F0BD18B475
:10511000014B9B68019308BD58F60020000000D0A9
:10512000FFB550404240504059404B40594000E08C
:10513000FFB5154F4C00640D03D0BC4204D10C03E5
:1051400014D80020090D09055C00640D03D0BC4291
:1051500004D11C030AD800221B0D1B0501264B405D
:1051600009D44B4003D58B4200D18242FFBD994206
:10517000FCD19042FFBD0B43DB1803431343F5D032
:10518000C9434918FFBD0000FF07000000B5FFF745
:10519000CFFF804100BDC04600B5FFF7C9FF01D970
:1051A000002000BD012000BD00B5FFF7B9FF01D907
:1051B000002000BD012000BD00B5FFF7B1FF804118
:1051C00000BD012040054A00121804D85A001218E8
:1051D00001D80020704701207047000000210028FE
:1051E00005D17047C1174840401AFAD0C90713B516
:1051F000064B1B6898470CBC441CA2401005120BC0
:105200000349091B09051943114310BD54AA022083
:105210001F04000010B54C00620D8023D218DB0083
:10522000D21A5B057E2A10DD9E3A13DACC170903E9
:10523000490819435242D140640001341532202AF2
:1052400005DAD0400843604310BD002010BD084679
:10525000604310BDC80FC018013810BD18B4024B10
:105260005B6A019308BD000058F6002018B4024B99
:10527000DB6F019308BD000058F6002018B4024B04
:105280009B69019308BD000058F6002018B4024B3A
:105290009B6D019308BD000058F6002010B5014831
:1052A000FDF770FE189C0110132370B51D78012DB9
:1052B00019D014DD1D48FFF721FB06001C48FFF73D
:1052C0001DFB1C4C80223100200000F093FA022DBF
:1052D00006D01948FFF70AFB184B186070BD154C33
:1052E000174BA364F5E7174B124C23606360A36070
:1052F000E36023616361A361E36123626362A3628C
:10530000E36223636363A363E36323646364A3646B
:10531000E36423656365A365E36523666366A3664B
:10532000E36623676367A367E367D9E75344000035
:105330005346000058F600204C33000054AA0220C7
:10534000495300109D52001007B5604601880A0AB3
:105350000230DF2AFAD1C9B2820804D30288408819
:105360000004104300E00068014A5050039007BD5C
:1053700058F6002051434343C9188C46110C83B2A0
:105380004B4310B4040C614392B280B25043624369
:105390001C041B0C001910BC59411304120CC0183A
:1053A00051416144704700004840414048400E4B25
:1053B0005B6818470C4B1B6818470C4A936F9B0897
:1053C00002D2094BDB681847F0B5146E556E576F63
:1053D000166FFFF7F6FF054A14665566576716679E
:1053E000F0BD014B9B68184758AA0220000000D06E
:1053F00007B548404140484001E0C04607B542007B
:10540000120E03D0FF2A03D1420218D8C00DC005E6
:105410004A00120E03D0FF2A03D14A020FD8C90D49
:10542000C9050122414005D4414001D5814207BD53
:10543000884207BD0143491801D0C043001807BD89
:1054400000B5FFF7DBFF804100BDC04600B5FFF7A8
:10545000D5FF01D9002000BD012000BD00B5FFF738
:10546000C7FF01D9002000BD012000BD00B5FFF736
:10547000BFFF804100BD0000C10FC90700D54042F9
:10548000002817D0F44603B40B4B1B68984706BCA2
:1054900081409E384042803107D20B0607D0490038
:1054A000490AC0051043084360470130F8E7490A3C
:1054B0008902F5E77047000054AA022041000A0E55
:1054C00080231B067E2A0BDD9E3A0BDAC1174002B1
:1054D000400818435242D0404900013148437047C8
:1054E00000207047C00FC01801387047C0420DD36C
:1054F00000B540004008002100F00EF8002801D45B
:10550000404200BD8020000600BD0000014BDB6969
:105510001847000058AA0220014B5B6A1847000098
:1055200058AA0220014B1B6B1847000058AA022002
:10553000014BDB6F1847000058AA02204100090EFA
:10554000862902DA044B1B6C1847044900B500F0A9
:105550003DF902BC8E46F5E758AA0220DB0FC94090
:1055600010B50148FDF70EFDE0970110132310B5AB
:1055700010481C78FFF7C2F90100012C0AD003DDA6
:1055800080220D4800F036F90C48FFF7AFF90C4BBC
:10559000186010BD084C5422200000F02BF92200A6
:1055A000084980322368002B00D1216004349442E2
:1055B000F8D1E9E75346000058AA02204C33000016
:1055C00054AA022061550010F8B5FF24CE46474684
:1055D000C20D031CC80D224080B50440FF2A45D0EF
:1055E000002C43D0D80F8046002A09D103000020A8
:1055F000002B01D080200006C0BCB946B046F8BDE3
:10560000181CA242F8DB80265B02490236045F0ABE
:10561000490A3743151B0E43A2422AD00120F1113B
:105620004042FFF715FB1D2181462A000C2D00DDAD
:105630000C2248467B124343881A034197400133AA
:105640005B107343AD1AFF1A002DEEDCBE4213DC73
:10565000BF1BBE4200DCBF1B4346002B00D07F4275
:1056600096213800091BFFF75DFFC5E7FF20C00545
:10567000C2E7B742F0DBEEE7002FEDDABF19EBD55A
:10568000BF19E9E7F0B546464F46D646C0B5FF26F6
:10569000C50DCB0D354088461700041C1E40002A5E
:1056A00001D000231360FF2D5DD0002E5BD0002DB4
:1056B0005CD0201CFF2E51D03300013BB246AB42E0
:1056C0004CDC802109048946E20F6402640A0C4321
:1056D00041464E464902490A0E43B146AB4247D0C5
:1056E0005346ED1A002A4CD06442002D58DD4B463B
:1056F0000120D9114042FFF7ABFA1D2300219C463F
:105700002A000C2D00DD0C226646631294404343B0
:10571000B61A334126004C46914001335B105C437E
:105720005918341BAD1A002DEADCA1453FDC4B466D
:10573000E41AA14548DCE41A023163004B452BDC36
:105740003DD04346002B00DA4942002F00D039609B
:10575000962153462000C91AFFF7E4FEE0BCBA4682
:10576000B146A846F0BDFF20C005F7E70020F5E7E9
:10577000B442F3DD7300002A1CD1AA460121E41AC9
:10578000DFE7002DB3DC0021B44205DBA41B0121BF
:1057900063009E4200DBD4D14B460131E41AD0E7CE
:1057A00000214B46E4180DD54C440239C5E7002CC6
:1057B000C3DAF6E70121AA461C1B4942C1E7CB0721
:1057C000BFD5E9E70139B8E70131B6E710B50022E6
:1057D000FFF758FF10BDC04601480421014B184790
:1057E000801200200D490010014B1B681847000073
:1057F00080120020014B5B681847000080120020D7
:105800009A4200D2885470477047C046F8B5574650
:10581000DE464E464546E0B599460A9B07009A4645
:105820000D9B884693460B9C9B073BD10C9B9C424F
:105830003DD21E1B0B9415000C005E442A004B4603
:10584000013521002020B847B542F7D1A0460B9C76
:10585000002C20D0454636195346321B013C185DBA
:1058600029004B46B847002CF6D12B00350098464E
:105870000D9B9B070FD55B46EC1A0C9BA3420AD9E4
:10588000464698462A004B46310020200134B8474E
:1058900001354445F6D32800F0BCBB46B246A946C4
:1058A000A046F8BD16001500002CD3D1E0E7160085
:1058B0001500002CCED1EEE7F0B54546DE46574642
:1058C0004E46E0B585B09C4610AB1B78149F9346BE
:1058D00098460F9C129E139DBB074CD4002D42D1BD
:1058E000B44248D201233B4099460E9B013B9A4665
:1058F000302304E0524601341355A64201D9202C2E
:10590000F8D14B46002B00D183E00E9B013B99461A
:105910003023A54205D82EE04A4601341355AC4247
:1059200029D0202CF8D1FB060CD57B0554D4A642F7
:1059300063D0A54261D0119B102B50D0022B57D0C1
:10594000202C32D1202301930E9B5A4600930397BB
:1059500063460295FFF75AFF05B0F0BCBB46B2465E
:10596000A946A046F0BD01233B40994601233B4296
:105970002AD1B442B9D3FB061CD57B05DBD4002C5D
:10598000D5D1119B102B5BD0119B022B6BD03023F8
:1059900001240E9A13704346002B10D17B073ED58D
:1059A0002B260E9A631C1655CDE7230001343026B2
:1059B0000E9AD654202CC5D04346002BEED02D266F
:1059C0000E9A631C1655BEE74346002B2FD0013DAF
:1059D000B44200D289E798E7119B102BB2D1BB06E5
:1059E00037D5202CAED058230E9A13550134A7E793
:1059F000202CA7D02300013407E0631E012CC0D067
:105A0000119A102A31D0022AD1D162260E9AD65488
:105A100096E7FB06CED57B0500D488E78BE723000D
:105A20003E0790D520260E9A013316558BE70C239E
:105A30003B405A1E9341ED1AB44200D255E764E749
:105A4000BB060ED478230E9A0224137030235370B1
:105A5000A1E7202C00D175E778230E9A1355013465
:105A60006EE75823EFE76033EDE70E9AA61E9146E6
:105A70004E44BA0602D55822327098E77822327026
:105A800095E7C04610B5002800D110BD01F092FC8A
:105A9000FBE7C0460B0010B5002802D049681B6820
:105AA000984710BDF0B55746DE464E464546E0B530
:105AB00095B083460F00924698461E9A1F9B100091
:105AC0001900209EFFF77DFB002800D0EAE11E9818
:105AD0001F990122C54B5242FFF758FB002800D006
