:020000041000EA
:10000000002008205D0100101B0100101D010010E0
:100010001101001011010010110100101101001058
:100020001901001019010010190100101F01001022
:10003000110100101901001021010010230100100E
:100040001101001011010010110100101101001028
:100050001101001011010010110100101101001018
:100060001101001011010010110100101101001008
:1000700011010010110100101101001011010010F8
:1000800011010010110100101101001011010010E8
:1000900011010010110100101101001011010010D8
:1000A00011010010110100101101001011010010C8
:1000B00011010010110100101101001011010010B8
:1000C00011010010110100101101001011010010A8
:1000D0001101001011010010110100101101001098
:1000E0001101001011010010110100101101001088
:1000F0001101001011010010110100101101001078
:100100001101001011010010110100101101001067
:10011000EFF30580103800BE00BE00BE00BE00BE7A
:1001200000BE00BEF2EB88712C1605104C160510AF
:10013000A001001090A31AE7D3DEFFFF42012110B7
:10014000FF010000CC270500793512AB4FF000000D
:100150001E49086006C881F3088810474FF05040D8
:10016000006810B14FF00000F2E70DA40ECC00299A
:1001700002D000F012F8F9E71549164A002000E015
:1001800001C19142FCD11449884714498847144958
:10019000884700BEFDE701C901C29A42FBD3704700
:1001A0004C16051020010020D8130020042905104A
:1001B0000000082000000820042905100010082075
:1001C00000100820000000007047000008ED00E06B
:1001D000D813002024AB02207D650010D10300104D
:1001E00041650010F8B500BF064B0749C91A8910D0
:1001F00048BF0131491003D0044B0BB101481847E7
:10020000704700BFD8130020D81300200000000062
:1002100008B5054B1BB105490548AFF30080BDE8A3
:100220000840FFF7E1BF00BF0000000010A202205D
:10023000F05B011070B506460D461446104615F0E9
:1002400045FCA84208D12A462146304615F08EFBCF
:10025000B0FA80F0400970BD0020FCE7002A75D09C
:1002600070B5144655685689394A31462846FFF715
:10027000E1FF002851D1374A31462846FFF7DAFF1F
:10028000002851D1344A31462846FFF7D3FF0028D1
:100290004CD1324A31462846FFF7CCFF002847D1DF
:1002A0002F4A31462846FFF7C5FF002842D12D4A84
:1002B00031462846FFF7BEFF00283DD12A4A314685
:1002C0002846FFF7B7FF002838D1284A314628468C
:1002D000FFF7B0FFA0BB264A31462846FFF7AAFF2A
:1002E00080BB244A31462846FFF7A4FF60B3224B67
:1002F0001B784BB9214806F05BFA01F04BFE1E4B10
:1003000001221A70002009E01D4806F051FA01F0A0
:1003100075FE0020184B187000E0052001F05CFA13
:1003200020460AF06FFC70BD0620F7E70720F5E7CE
:100330000820F3E70120F1E70220EFE70320EDE7D3
:100340000420EBE70020E9E70020E7E7704700BF63
:10035000F05B0110005C0110105C0110205C0110CA
:10036000305C0110385C0110F85B0110085C011072
:10037000445C01104C5C011016AB02205C5C011067
:10038000705C011030B587B001F042F80C4B18607A
:1003900003AC204601F0C4FA684601F00DFB684644
:1003A00001F06EFB074B1860204601F099FB064BED
:1003B0001860204601F0B8FB044B186007B030BD50
:1003C000188F01201C8F0120208F0120248F0120F5
:1003D0002DE9F84306F0E8F94FF4FA6003F096F8D7
:1003E000584806F0E5F911F03DFD00284AD111F01A
:1003F00033FC43F69823544A5449554811F0E2FC23
:10040000002845D1534B1868043011F0CBF9014650
:10041000514806F0FDF90EF087FB504C2060504D1E
:100420002946504811F0BAF841F28D324E49206801
:100430000EF0FAF900224D4920680EF053FB01F04E
:1004400043FA00F0B7F800F0CFFF00F0A1FB01F095
:100450004BFD41F28D322946206800F085FB41F2C8
:100460008D322946206801F031FD03F03BF9054645
:10047000884603F037F904460F4603F033F9064681
:10048000894630E03A4806F093F90120BDE8F88348
:10049000384806F08DF9F8E701F0C0FD29E000F0DA
:1004A000A3FB03F01FF9344D451941F10008B8F1E1
:1004B000000F25DA4FF0FF356FF0004820E0FFF71E
:1004C00061FF03F00FF94CF25033C41841F10007FB
:1004D000002F1CDA4FF0FF346FF0004717E0322096
:1004E000002103F001F811F0D9FB244B1B78002BFD
:1004F000D2D103F0F7F8854268EB01010029CEDB89
:1005000003F0F0F8844267EB01010029D7DB1B4BB5
:100510001B78002BE3D003F0E5F8864269EB01017C
:100520000029DCDA01F0FEFD03F0DCF8144E861938
:1005300041F10009B9F1000FD1DA4FF0FF366FF049
:100540000049CCE7805C011004004000BC5C011055
:10055000C85C011004A20220F05C0110D8AA02209D
:10056000DC8E01200C5D01101C9E01105D0200104C
:10057000A85C0110D45C011020A1070016AB02207A
:10058000E022020000EB80008000084B034410468C
:1005900041B11004064A19684840024003F58053EF
:1005A0001A6070474FF6FF72F5E700BF0C800A40F3
:1005B0000000FFFF30B587B001AC3F4D0FCD0FC439
:1005C0002B682360002410E006AB03EB840353F890
:1005D000145C284601F07EFF4FF0010343EC4450C9
:1005E0004FF0000343EC40500134042CECDD0124B7
:1005F0000F2344EC40300421082001F07BFE04214D
:10060000092001F077FE04210A2001F073FE042185
:100610000B2001F06FFE0423284A1360284D2B6045
:1006200028480523036028490B600023274A1360EC
:10063000274A1460274A1360274B1C60274B41F65A
:1006400069021A661A665A675A6710225A655A650D
:100650009A669A661B6DDB432340214A13652A681C
:1006600002EB8202930003F1804303F52822126813
:10067000D243224003F529231A60026802EB82026A
:10068000930003F1804303F528221268D2432240ED
:1006900003F529231A600A6802EB8202930003F132
:1006A000804303F528221268D243224003F5292310
:1006B0001A6007B030BD00BF48960110DCA80220C8
:1006C000E0A80220E4A80220E8A80220B4840120C7
:1006D000B8840120BC840120C084012000800A402D
:1006E00000900A4008B500220D4B19680D4B1868A0
:1006F000FFF748FF00220C4B19680C4B1868FFF7F6
:1007000041FF00220A4B19680A4B1868FFF73AFFAD
:100710000022094B1968094B1868FFF733FF08BD21
:10072000B4840120DCA80220B8840120E0A80220C3
:10073000BC840120E4A80220C0840120E8A8022093
:1007400008B541F669020E4B19680E4B1868FFF7A1
:1007500019FF00220C4B19680C4B1868FFF712FFA9
:1007600041F669020A4B19680A4B1868FFF70AFF3D
:100770000022094B1968094B1868FFF703FF08BDF1
:10078000B4840120DCA80220B8840120E0A8022063
:10079000BC840120E4A80220C0840120E8A8022033
:1007A00008B500220E4B19680E4B1868FFF7EAFED9
:1007B00041F669020C4B19680C4B1868FFF7E2FE12
:1007C00000220B4B19680B4B1868FFF7DBFE41F654
:1007D0006902094B1968094B1868FFF7D3FE08BD79
:1007E000B4840120DCA80220B8840120E0A8022003
:1007F000BC840120E4A80220C0840120E8A80220D3
:1008000008B500220E4B19680E4B1868FFF7BAFEA8
:1008100041F669020C4B19680C4B1868FFF7B2FEE1
:1008200041F669020A4B19680A4B1868FFF7AAFEDD
:100830000022094B1968094B1868FFF7A3FE08BD91
:10084000B4840120DCA80220B8840120E0A80220A2
:10085000BC840120E4A80220C0840120E8A8022072
:1008600008B541F669020E4B19680E4B1868FFF780
:1008700089FE00220C4B19680C4B1868FFF782FEAA
:1008800000220B4B19680B4B1868FFF77BFE41F6F3
:100890006902094B1968094B1868FFF773FE08BD18
:1008A000B4840120DCA80220B8840120E0A8022042
:1008B000BC840120E4A80220C0840120E8A8022012
:1008C00008B500220E4B19680E4B1868FFF75AFE48
:1008D00000220D4B19680D4B1868FFF753FE41F6C7
:1008E00069020B4B19680B4B1868FFF74BFE00228F
:1008F000094B1968094B1868FFF744FE08BD00BF93
:10090000B4840120DCA80220B8840120E0A80220E1
:10091000BC840120E4A80220C0840120E8A80220B1
:1009200008B541F669020E4B19680E4B1868FFF7BF
:1009300029FE00220C4B19680C4B1868FFF722FEA9
:1009400000220B4B19680B4B1868FFF71BFE0022A7
:10095000094B1968094B1868FFF714FE08BD00BF62
:10096000B4840120DCA80220B8840120E0A8022081
:10097000BC840120E4A80220C0840120E8A8022051
:1009800008B500220E4B19680E4B1868FFF7FAFDE8
:1009900000220D4B19680D4B1868FFF7F3FD00227C
:1009A0000B4B19680B4B1868FFF7ECFD41F6690219
:1009B000094B1968094B1868FFF7E4FD08BD00BF33
:1009C000B4840120DCA80220B8840120E0A8022021
:1009D000BC840120E4A80220C0840120E8A80220F1
:1009E00008B500220E4B19680E4B1868FFF7CAFDB8
:1009F00041F669020C4B19680C4B1868FFF7C2FDF1
:100A000000220B4B19680B4B1868FFF7BBFD002247
:100A1000094B1968094B1868FFF7B4FD08BD00BF02
:100A2000B4840120DCA80220B8840120E0A80220C0
:100A3000BC840120E4A80220C0840120E8A8022090
:100A400010B50446642800D964240022134B1968A9
:100A5000134B1868FFF796FD41F6690303FB04F496
:100A6000104B83FB0423E417C4EB6314A4B22246A7
:100A70000D4B19680D4B1868FFF784FD22460C4B8F
:100A800019680C4B1868FFF77DFD00220A4B1968A6
:100A90000A4B1868FFF776FD10BD00BFB484012033
:100AA000DCA802201F85EB51B8840120E0A80220B9
:100AB000BC840120E4A80220C0840120E8A8022010
:100AC00010B5642800D9642041F6690303FB00F0E7
:100AD000114B83FB0023C017C0EB6314A4B2224662
:100AE0000E4B19680E4B1868FFF74CFD00220D4B9A
:100AF00019680D4B1868FFF745FD00220B4B19686C
:100B00000B4B1868FFF73EFD22460A4B19680A4B4B
:100B10001868FFF737FD10BD1F85EB51B484012025
:100B2000DCA80220B8840120E0A80220BC840120B7
:100B3000E4A80220C0840120E8A8022011F0080FD8
:100B400003D01C2802D0022805D07047044A13683D
:100B5000013313607047034A136801331360F4E7ED
:100B6000B0AA0220B4AA0220054B18600968054B00
:100B70001960054B1A80054B01221A70704700BF9F
:100B8000ACAA0220A8AA02200AAB022021AB0220B4
:100B9000F8B51C2001F09EFC1C25002646EC4450B4
:100BA00032460121284601F0C1FB022001F092FCEF
:100BB000022446EC444032460121204601F0B6FBB7
:100BC000074B01220821284601F02AFC01220821B6
:100BD000204601F0DBFB034805F0EAFDF8BD00BF4D
:100BE0003D0B0010185D01102DE9F04F2DED0C8B21
:100BF00097B002F077FD06460F467B4B18685968A0
:100C000050EA010300F0DD80301A67EB0101B0F516
:100C10007A7F71F10003C0F2D78003F0CDFD6EA39F
:100C2000D3E9002303F0BEF904460D466E4B1E6067
:100C30005F606E4BD3F800A000221A606C4BD3F8B3
:100C400000901A606B4BD3F800806B4B93ED00DA89
:100C50006A4BD3ED008A6A4B93ED008A504603F04D
:100C60005BFA06460F460022664B03F09BF92246CC
:100C70002B4603F097F90022634B03F06DF941EC2A
:100C80001C0B57A3D3E900233046394603F064F91F
:100C900006460F4622462B4603F084F941EC190B19
:100CA000DFF888B132463B46DBE9000103F02CF95E
:100CB000CBE90001484603F02FFA06460F46002212
:100CC000504B03F06FF922462B4603F06BF90022DC
:100CD0004D4B03F041F941EC1A0B41A3D3E900233A
:100CE0003046394603F038F906460F4622462B4671
:100CF00003F058F941EC1B0B444C32463B46D4E917
:100D0000000103F001F9C4E900011DEE100A14F01E
:100D10001FFF04460D4618EE900A14F019FF064610
:100D20000F4618EE100A14F013FF41EC180BCDE932
:100D30000201CDE9006722462B464146344805F0C2
:100D400067FD344B1B78002B3ED0304BD3E900239A
:100D5000CDE914238DED12BB8DED10ABCDF838909D
:100D6000DBE90023CDE90C238DED0A9B8DED08CB4B
:100D7000CDF818A08DED048BCDE90267CDE90045D3
:100D80004346254A4FF4C071244805F0B1FB0446A0
:100D90004FF4207281B2362009F07EFF054698B1EB
:100DA00022461E49406814F01BFE1D4B1B881D4A3D
:100DB00029461D4800680DF041FE284609F022FF33
:100DC00002E0094B1E605F6017B0BDEC0C8BBDE804
:100DD000F08F00BFAFF300800000000080842E4140
:100DE00033333333096EEC3FD0150020B0AA022014
:100DF000B4AA0220188F01201C8F0120208F01200F
:100E0000248F01200000544000004E40C0150020F7
:100E1000485D011021AB0220785D011004A9022079
:100E20000AAB0220A8AA0220ACAA0220B815002012
:100E30004FF0010CBCF1040F1CDC10B411E0591C84
:100E400040F82120013B002B03DB50F82320A24275
:100E5000F5D8013340F823400CF1010CBCF1040F2C
:100E600004DC50F82C400CF1FF33ECE780685DF8AF
:100E7000044B70478068704770B510244FF0010331
:100E800043EC40400A20002102F02EFB4FF000030B
:100E900043EC404002F026FC04460D464FF0504320
:100EA0005E6816F400360CD102F01CFC001B61EBEE
:100EB000050146F29153984271F10001EEDB304694
:100EC00070BD02F00FFC06460D464FF050435B68C4
:100ED00013F4003F0CD002F005FC801B61EB050110
:100EE00046F29153984271F10001EEDB0026E6E7ED
:100EF00002F0F8FB861BE2E710B5044602F0F2FBB5
:100F0000E20E63011B1B62F10002920042EA93723F
:100F10009B001B1942F10002D20042EA5372DB002F
:100F20001B1842EB0102002A03DB04498B60CA60F4
:100F300010BD4FF0FF336FF00042F6E7D8130020EA
:100F400008B502F0CFFB064B9A68DB68121A63EB18
:100F50000103012A73F10003B4BF0120002008BD82
:100F6000D81300200000000030B52DED028B85B0B5
:100F700000259FED318AF0EE488A25E001AC20463D
:100F800000F01AFD204600F07BFD14F0E1FD28A3DF
:100F9000D3E9002302F0E0FF0022284B03F002F81F
:100FA00003F09AF8044603F032FF07EE900A78EE59
:100FB000A78A204603F028FF07EE900A38EE278A1A
:100FC0000A2002F0A3FA0135092DD7DDF2EE047AEA
:100FD00088EEA77A17EE101AC8EE277A17EE900A55
:100FE00004F060F807EE100ADFED157A67EE277A55
:100FF00017EE900A14F0ACFD0DA3D3E9002302F024
:10100000D1FF03F069F807EE900AF5EEC07AF1EE31
:1010100010FA05D417EE900A05B0BDEC028B30BD76
:101020009FED087A77EE877AF4E700BFAFF3008090
:10103000182D4454FB210940000000000080664048
:10104000000034430000B44310B50C4805F0B0FB79
:101050000B4C012323706370002384F83030FFF7BA
:1010600083FF206114F074FD02460B46054805F02D
:10107000CFFBC820FFF740FF10BD00BF1C5E011072
:10108000D8130020585E011030B52DED028B83B0CF
:1010900007EE900A03E09FED417A77EE877AF5EE4E
:1010A000C07AF1EE10FAF6D403E09FED3C7A77EEC9
:1010B000C77A9FED3A7AF4EEC77AF1EE10FAF4DAD5
:1010C000374BC3ED057A02F00DFB364BC01841F1EA
:1010D0000001002914DB324CA061E16102F002FB47
:1010E000C4E90801304BD3E90023C4E90A23FFF720
:1010F0003BFF08EE100AD4ED057A77EEC87A08E0D7
:101100004FF0FF306FF00041E5E79FED247A77EE76
:10111000C77A9FED267AF4EEC77AF1EE10FAF4DC86
:1011200003E09FED1E7A77EE877A9FED217AF4EE49
:10113000C77AF1EE10FAF4D4F5EEC07AF1EE10FAB7
:1011400017D44620FFF7BCFC154B586914F000FD7E
:1011500004460D4618EE100A14F0FAFCCDE9000121
:1011600022462B46134805F053FB03B0BDEC028B1F
:1011700030BD4620FFF764FC094B586914F0E8FCC9
:1011800004460D4618EE100A14F0E2FCCDE9000109
:1011900022462B46084805F03BFBE6E70000B44337
:1011A000D8130020404B4C00E0970110000034435E
:1011B000000034C3AC5E01107C5E011030B52DED33
:1011C000048B87B002F08EFA7B4B9A69DB69121AA6
:1011D00063EB0103012A73F1000310DB02F082FAD2
:1011E000754B1A6A5B6A121A63EB0103012A73F1E9
:1011F00000030BDB002007B0BDEC048B30BD6F4853
:1012000005F0D6FAFFF76EFA0120F4E702F06AFA69
:101210004CF25033C01841F10001002910DB664C3C
:101220002062616203AD284600F0C6FB284600F04C
:1012300027FC08EE900A94ED058A38EE688A08E0EB
:101240004FF0FF306FF00041E9E7DFED5D7A38EEF7
:10125000678ADFED5C7AB4EEE78AF1EE10FAF4DC2F
:1012600003E0DFED577A38EE278ADFED577AB4EEE8
:10127000E78AF1EE10FAF4D4B0EEC89AF0EE007AF4
:10128000B4EEE79AF1EE10FA42D84B4A936AD26A6A
:1012900013430DD002F026FA474B9A6ADB6A121A02
:1012A00063EB0103012A73F100031EDB0020A2E7B8
:1012B00019EE100A14F04CFC02460B46434805F0A8
:1012C000A7FAFFF70FFA02F00DFA414BC01841F1EF
:1012D0000001002904DB384B9862D96200208AE7BC
:1012E0004FF0FF306FF00041F5E718EE900A14F070
:1012F0002FFC04460D4619EE100A14F029FCCDE926
:10130000000122462B46334805F082FA012072E79D
:10131000294A936AD26A134318D1F3EE0E7AB4EED7
:10132000E79AF1EE10FA21DD4624B5EEC08AF1EE1F
:1013300010FA1DD42046FFF7C3FBF0EE007AB4EE9E
:10134000E79AF1EE10FA2BDC002054E719EE100AB0
:1013500014F0FEFB02460B461F4805F059FA1F4BDE
:10136000D3E90001144BC3E90A01D6E72D24DCE7D9
:101370002046FFF765FBF0EE007AB4EEE79AF1EE57
:1013800010FA01DC002036E719EE100A14F0E0FB39
:1013900002460B460094124805F03AFA00202AE76C
:1013A00019EE100A14F0D4FB02460B4600940D48C7
:1013B00005F02EFA00201EE7D8130020E05E011091
:1013C0000000B44300003443000034C3045F011044
:1013D00020A10700345F0110685F0110E097011041
:1013E000985F0110B85F011010B5102001F072F87D
:1013F00010234FF0010242EC44304FF0000444EC63
:101400004030112001F066F8112344EC443010BD47
:1014100010B586B0002408E006AA02EB840242F868
:10142000143C142002F072F80134042C09DCFFF79C
:1014300023FD03460028EFD0094AA2FB00235B09E5
:10144000EAE701A8FFF7F4FC08B106B010BDFFF70A
:1014500013FD0028F9D0024BA3FB00304009F4E74C
:1014600009CB3D8D38B52DED048BB64B93ED049A29
:101470009FEDB58A39EE488A03E0DFEDB47A38EEA5
:10148000278AB5EEC08AF1EE10FAF6D403E0DFED5C
:10149000AF7A38EE678ADFEDAD7AB4EEE78AF1EE27
:1014A00010FAF4DADFEDA88A79EE288A03E0DFED9E
:1014B000A77A78EEA78AF5EEC08AF1EE10FAF6D494
:1014C00003E0DFEDA27A78EEE78ADFEDA07AF4EEB2
:1014D000E78AF1EE10FAF4DA9A4B5B78013B0C2BB9
:1014E00000F22981DFE813F00D0024003A004F00DC
:1014F000700085009B00B100C300D400EA00020127
:101500001801FFF71DFD10B9BDEC048B38BD18EEB6
:10151000100A14F01DFB02460B468D4805F078F9C1
:1015200018EE100AFFF7B0FD864B02225A70EBE767
:10153000FFF744FE0028E7D0864805F039F9FFF7A9
:10154000FFF84FF4C870FFF7D7FC7E4B93F83020BC
:10155000013283F8302003225A70D5E7FFF7F0FC00
:101560000028D1D019EE100A14F0F2FA02460B4608
:10157000794805F04DF919EE100AFFF785FD714B1A
:1015800004225A70C0E7FFF719FE0028BCD0FFF70D
:101590003FFF04460146714805F03AF91E2C09D96F
:1015A0006F4805F005F9C820FFF7A6FC654B05223A
:1015B0005A70A9E76B4805F0FBF8C820FFF79CFCC0
:1015C000604B01225A709FE7FFF7BAFC00289BD0BE
:1015D00018EE100A14F0BCFA02460B46624805F0F9
:1015E00017F918EE100AFFF74FFD564B06225A70F6
:1015F0008AE7FFF7E3FD002886D05C4805F0D8F8BD
:10160000FFF79EF84FF4C870FFF776FC4D4B93F848
:101610003020013283F8302007225A7074E7FFF738
:101620008FFC00283FF470AF19EE100A14F090FA06
:1016300002460B464E4805F0EBF819EE100AFFF78C
:1016400023FD404B08225A705EE7FFF7B7FD0028E4
:101650003FF45AAF474805F0ABF8FFF771F840F692
:10166000C410FFF749FC374B09225A704CE7FFF7CB
:1016700067FC00283FF448AF3F4805F099F8FFF7B2
:1016800031F8C820FFF738FC2E4B0A225A703BE78E
:10169000FFF756FC00283FF437AF18EE900A14F01D
:1016A00057FA02460B46354805F0B2F818EE900A94
:1016B000FFF7EAFC234B0B225A7025E7FFF77EFD6C
:1016C00000283FF421AF1F4D95F830104FF4C87437
:1016D00001FB04F422462A4805F09AF8FFF730F897
:1016E0002046FFF709FC0C236B700DE7FFF728FC81
:1016F00000283FF409AF19EE100A14F029FA024647
:101700000B46204805F084F819EE100AFFF7BCFCE0
:101710000C4B0D225A70F7E6FFF750FD00283FF4FE
:10172000F3AEFEF7DFFF184805F042F8054B002244
:101730001A705A70E8E6FEF7D5FF024B00221A70C5
:10174000E2E600BFD81300200000B4420000B4431A
:10175000D85F0110FC5F01101C6001104060011097
:10176000586001106C60011088600110AC600110BD
:10177000C8600110F06001101461011028610110AF
:101780004C61011078610110A061011008B50138A9
:1017900007281DD8DFE800F004070A0D10131619FA
:1017A000FEF7CEFF08BDFEF7FBFFFBE7FFF728F8CB
:1017B000F8E7FFF755F8F5E7FFF782F8F2E7FFF7EC
:1017C000AFF8EFE7FFF7DCF8ECE7FFF709F9E9E737
:1017D000FEF788FFE6E7000010B50C4B1B7893B9C5
:1017E0000446012803D0052801D0062804D1FFF7BC
:1017F0000FFE01381D2803D92046FFF7C7FF10BD93
:10180000FFF722FCFBE7FFF72DFEF8E7D8130020D7
:1018100008B50B490B4808F0F9F803211A2000F02D
:1018200069FD03211B2000F065FD002201211A2023
:1018300000F07CFD002201211B2000F077FD08BD97
:10184000801A06005C13002070B584B020238DF848
:101850000C3057238DF80D3003AE194D0024009441
:10186000022332461921284608F0FAF823238DF87E
:101870000C3008238DF80D300094022332461921D4
:10188000284608F0EDF88DF80C4018238DF80D303F
:101890000094022332461E21284608F0E1F8022374
:1018A0008DF80C308DF80D40009432461E212846EC
:1018B00008F0D6F8642001F029FE04B070BD00BF26
:1018C0005C1300200000000000B585B0FFF7A0FF0A
:1018D000FFF7BAFF104804F06BFF09A3D3E9002318
:1018E000CDE9022308A3D3E90023CDE9002308A30F
:1018F000D3E90023094804F08BFF05B05DF804FB31
:10190000000000C0F38BA23F0000002085EBB13F38
:10191000000000C0E045A73FBC610110FC61011060
:1019200030B587B00446A8238DF80F30204D012331
:1019300000930DF10F021921284608F091F80023B9
:101940000093062304AA1921284608F095F89DF86B
:1019500011301B021BB29DF81020134306EE903A83
:101960009DF813301B021BB29DF81220134307EEA3
:10197000103A9DF815301B021BB29DF8142013433A
:1019800007EE903AF8EEE66A9FED0A6A66EE866A1E
:10199000C4ED006AB8EEC77A27EE067A84ED017AC4
:1019A000F8EEE77A67EE867AC4ED027A07B030BDCA
:1019B0005C1300200000803830B587B00446032354
:1019C0008DF80F30274D012300930DF10F021E21DA
:1019D000284608F045F800230093062304AA1E2198
:1019E000284608F049F89DF810301B021BB29DF8FC
:1019F0001120134307EE903A9DF812301B021BB2E0
:101A00009DF8132013439DF81420120212B29DF882
:101A100015100A43F8EEE77ADFED136A87EEA67A2F
:101A2000DFED127A77EE677AC4ED007A07EE902A3E
:101A3000F8EEE77A87EEA67ADFED0D7A77EE677A31
:101A4000C4ED017A07EE903AF8EEE77ADFED096A25
:101A500087EEA67ADFED087A77EE677AC4ED027A30
:101A600007B030BD5C13002000808944062F3A3D4A
:101A7000295C8F3D000075449E5F143D000000000E
:101A800070B54668006814F063F804460D463046A9
:101A900014F05EF822462B4602F082FD00220E4B27
:101AA00002F05AFA0AA3D3E9002302F07BFA02F00B
:101AB00013FB07EE900AF5EEC07AF1EE10FA02D4AD
:101AC00017EE900A70BD9FED057A77EE877AF7E7FB
:101AD000182D4454FB210940008066400000B443A7
:101AE00070B54668806814F033F804460D463046F9
:101AF00014F02EF822462B4602F052FD0022084B2D
:101B000002F02AFA04A3D3E9002302F04BFA02F010
:101B1000E3FA70BDAFF30080182D4454FB21094057
:101B2000008066400000000070B5D0ED007AF1EE54
:101B3000677A17EE906AD0ED017A27EEA77AD0ED9A
:101B4000027A67EEA77A77EE277A17EE900A13F0FB
:101B5000FFFF02F075FA04460D46304613F0F8FF19
:101B600022462B4602F01CFD0022074B02F0F4F93E
:101B700003A3D3E9002302F015FA02F0ADFA70BD19
:101B8000182D4454FB2109400080664010B483B0F6
:101B900000210DF1070209E0836913F0100FFBD15A
:101BA0000468134603F8014B01311A460029F3D0AB
:101BB0009DF8070003B05DF8044B704700EB800010
:101BC0008000084B0344104641B11004064A1968CE
:101BD0004840024003F580531A6070474FF6FF7289
:101BE000F5E700BF0C800A400000FFFF2DE9F04739
:101BF0001F46131A002BB8BF5B4282420DDD4FF027
:101C000001087D1A002DB8BF6D426C428F4207DD7E
:101C10004FF00109A3EB050C1CE04FF0FF38F0E793
:101C20004FF0FF39F6E76FF0630EC1EB011A174E64
:101C300006EB0A1606F800E0904223D04FEA4C0E5D
:101C4000B4EB4C0F02DCACEB050C4044734501DBFC
:101C50009C444944EF28EFD80029EDDBEF29EBDC69
:101C6000C1EB011E094E06EB0E1616F900E0AEF1AF
:101C7000020E1EF1640FD6DBBEF1640FD5DD4FF00E
:101C8000640ED2E7B942D9D1BDE8F087288F012090
:101C900082B0A5238DF804308DF80500002101AA3B
:101CA0000BE0084B9B6913F0200FFAD1134613F891
:101CB000010B044A106001311A460129F1D902B022
:101CC000704700BF0080074010B52DED028B08EE75
:101CD000100A0421002000F00DFB104C42F20F739B
:101CE000236164236360DFED0E7A28EE278A9FED7F
:101CF0000D7AC8EE077AFCEEE77A17EE903A9AB2C0
:101D000000210846FFF75AFF2368DB4303F0010375
:101D1000054A1360BDEC028B10BD00BF00800A4075
:101D2000003C1C460000C84200900A4038B52DED2A
:101D3000028B08EE100A07EE901A14461D46DFEDDE
:101D4000128AC7EEA87A17EE900A13F0F5FE7830E3
:101D50002060C8EE287A17EE900A13F0EDFEC0F16D
:101D6000780028602368EF2B05D8002807DBEF28D0
:101D700007DD002000E00020BDEC028B38BD002014
:101D8000FAE70120F8E700BF0000A04210B52DEDF2
:101D9000028B84B008EE101ADFED427AB4EEE78AC7
:101DA000F1EE10FA03D504B0BDEC028B10BD08EEC5
:101DB000900A144602AB03AA3B4909683B480068F5
:101DC000FFF7B4FF0028EED0394B93ED007ADFED3A
:101DD000397A27EE277ADFED386AC7EE267A77EE72
:101DE000A87A36499FED367A67EE877A17EE900A21
:101DF00002F024FE13F0A0FE002842DB00F5B453ED
:101E0000B3F5B44F01DBA0F587432E4A02EB830301
:101E1000D3ED007A02EB8002D2ED006A68EE277AF9
:101E2000224B93ED007A28EE268A1F4BD3ED006AF1
:101E30006B4601AA78EE266A16EE901A77EE877A3C
:101E400017EE900AFFF772FF0028ACD0009B019AB2
:101E500002990398FFF7CAFE002CA4D00199039BB6
:101E6000994211D0009BC3EB0310174A02EB0012FA
:101E70005256123212F1640F0BDB642A0BDD64221E
:101E800009E000F5B440B9E7009A029B9A42E9D113
:101E900089E76FF06302C3EB03130B4800EB0313F6
:101EA0005A5480E70000F04258A2022054A20220B7
:101EB00050A2022000003443DB0F49400000B4462A
:101EC00000008042D8150020288F0120034B1860A5
:101ED0000968034B1960034B1A807047587402203D
:101EE0005C740220FEAA022010B5002418E007EE60
:101EF000904AF8EEE77A9FED1F7A67EE877A9FEDBA
:101F00001E7A67EE877A9FED1D7AC7EE877A17EE05
:101F1000900A02F079FF1A4B03EB84031860013436
:101F2000B4F5B44FE3DB174C4FF4E131204601F038
:101F300091FC002301220821204601F05CFC236B68
:101F400003F44043104A13630121204601F069FC69
:101F50000221042000F0CEF90221052000F0CAF988
:101F60004FF461420021094813F0B2FC084804F024
:101F70001FFC10BD0000803CDB0F494000003443D3
:101F8000D81500200080074000900740288F0120CE
:101F90001862011008B51648FFF796FE4FF49660D8
:101FA00001F0B4FA2520FFF773FE642001F0AEFAC9
:101FB00002E01048FFF7EAFD0E4B9B6913F0100F8B
:101FC000F7D04020FFF764FE4FF4FA6001F09EFA6C
:101FD00002E00848FFF7DAFD064B9B6913F0100F8B
:101FE000F7D02020FFF754FE034804F0E1FB08BDC2
:101FF0000000C842008007403462011008B5252067
:10200000FFF746FE322001F081FA0020FFF75CFE68
:10201000014804F0CDFB08BD4C62011008B518E082
:1020200000F00103C0F34002934212D0354B187008
:102030000123354A1360354A13700AE00023324AFF
:102040001360324A137004E000232F4A13602F4AB2
:1020500013702F4B9B6913F0100F52D12C48FFF7D0
:1020600095FD2A4B1B78002BDAD027490A68531CB0
:102070000B6024498854042BEBDD0B7803F001013D
:10208000C3F340029142D9D09A081E4988784B7810
:102090005B0843EAC01307EE903AF8EEE77A9FED4B
:1020A0001D7A67EE877A0879CB7843EA002307EE3A
:1020B000103AB8EEC77AF5EE006A27EE267A002BC2
:1020C000C2D0002AC0D0DFED146AB4EEE67AF1EE99
:1020D00010FAB9DDDFED116AB4EEE67AF1EE10FA2E
:1020E000B2D5DFED0F6AB4EEE67AF1EE10FAB4BFC6
:1020F0000122002217EE101A17EE900AFFF746FE93
:10210000A2E708BD94840120287402201DAB0220A0
:10211000008007400000803C000048420000FA4573
:1021200000C0DA453B4B1B68002B71D03A4B1B8833
:10213000002B6DD02DE9F04383B0384BB3F80090FD
:1021400009F101021A80002441E0002B18DB7F23F3
:1021500002F8013B0131EF291EDCC0EB001E304BC1
:1021600003EB0E135B56002BEFDDDB012D4F87FBDE
:10217000038EDB17C3EB6E13DBB27F33DBB2E7E713
:10218000C3EBC313274F87FB038EDB17C3EB6E1321
:10219000DBB27F33DBB2DBE70CF1010CBCF1030FE8
:1021A00003DC0CEB05000021D5E71B4B1B881E4A06
:1021B0003146184800680CF041FC304608F022FD1A
:1021C0004FF4FA60002101F095FA0134E4B23B2C9F
:1021D0001BD8164B0093ADF804908DF806403C23B5
:1021E0008DF80730A5004FF420724FF4727136203D
:1021F00008F052FD064640B142686B4603CB1060C2
:10220000516008324FF0000CC8E703B0BDE8F0831E
:10221000704700BF58740220FEAA0220F6AA0220CE
:10222000288F01201F85EB515C74022050414D52D4
:102230002DE9F8434FF050431F681B4B53F827809C
:102240001FB1DFF87090002624E0DFF86C90FAE709
:1022500024090135ECB106F10803AB4219D914F099
:102260000F01F5D0114B53F82730EB4013F0010F5D
:10227000EED105F007029200EB0801FA02F28C336E
:102280000B4840F82320B8F1000FE1D02846C047A2
:10229000DEE708361D2E05D8F3080C3359F8234025
:1022A0003546D7E7BDE8F883AC840120B8A8022002
:1022B00000800240908202404882024010B400F048
:1022C000070C4FEA8C0CC00801FA0CF100F18C0CE1
:1022D000074C44F82C1003EB80032AB103F500539C
:1022E00019605DF8044B704703F540531960F8E737
:1022F000008002400C4B03EB800253F8203083F047
:10230000400303F0C00302F5805CCCF80030C0004D
:1023100000F1804000F52030416002F540524FF45A
:1023200080731360704700BF0480034010B40C4CEE
:1023300004EB800C79B108237AB10422134354F8DA
:102340002020534003F00C030CF5805CCCF80030E7
:102350005DF8044B70470023EEE70022EEE700BF74
:102360000480034039B1084B03EB800303F50053AD
:1023700002221A607047044B03EB800303F54053BD
:1023800002221A60704700BF0480034070B5054602
:102390000C46164652B94FF050431B688BB10A4B9E
:1023A000324621462846FFF789FF70BD152000F010
:1023B00031FA0028EFD1054B054ABD21054804F04C
:1023C000C3F8054BECE700BF908202405C6201104D
:1023D000B4960110886201104882024038B5044664
:1023E0004FF050431D680C4B53F825304BB118B1DA
:1023F000094B43F8254038BD0849152000F064FB1F
:10240000F6E70028F7D0044B43F8250000220349E3
:10241000152000F03FFAEEE7AC84012031220010D5
:1024200070B505460E4614461846FFF7D7FF2246FC
:1024300031462846FFF7AAFF04B970BD01211520D7
:1024400000F0BEF9F9E7000010B54FF050431C68EA
:10245000094B53F82430034207D10343064840F8A0
:102460002430152000F016FA10BD044B044ADB217D
:10247000044804F069F800BFB8A80220D062011037
:10248000809601108862011010B54FF050431A6811
:102490000C4B53F8223003420ED00446152000F0B6
:1024A00013FB4FF050431968064A52F8213023EAD3
:1024B000040342F8213010BD034B044AEF210448C5
:1024C00004F042F8B8A80220FC6201105C960110EA
:1024D0008862011008B54FF0000242EC440042EC63
:1024E00040000521FFF706FF08BD00000FB400B54E
:1024F00083B0049C074804F05BF93CB105A9019145
:10250000204604F065F9044804F052F9012004F073
:1025100015F800BF28630110945F0110EFF31080DD
:1025200072B6064BD3E8CF1F01220029FAD1C3E8C7
:10253000412F0029F6D1BFF35F8F7047877F0120BD
:102540000023034AC2E88F3F80F31088704700BF22
:10255000877F012070B505460C461646FFF7DEFF63
:10256000E208A95C04F0070C012303FA0CF31942FA
:1025700005D1DBB20B43AB54FFF7E2FF70BD214640
:102580003046FFF7B3FFF8B506460D4614461F4622
:10259000FFF7C4FF00E00134BC420ED84FEAD40C70
:1025A00016F80C1004F0070301229A401142F2D1F0
:1025B000D2B20A4306F80C2001E04FF0FF34FFF7D7
:1025C000BFFF002C01DB2046F8BD002DFBD0069894
:1025D000FFF78CFF38B505460C46FFF79FFFE10873
:1025E0006A5C04F007040123A3401A4205D022EAE2
:1025F00003026A54FFF7A4FF38BD034B034A33219B
:10260000034803F0A1FF00BF38630110CC9601100E
:1026100058630110054A1078431CDBB21370172B66
:1026200002D9134610221A70704700BFC012002052
:1026300000B583B00146054B00931F2318220448C0
:10264000FFF7A1FF03B05DF804FB00BFA06301101A
:10265000CC8401204FF0E022936843F00053936054
:1026600070470000002305E0044A1A440021C2E834
:102670008F1F01331F2BF7D9704700BF7C7F0120CC
:10268000064B9B68103043F82010BFF35F8F002388
:102690000349C1E88F3F82F31088704700ED00E0E6
:1026A000857F01200048704700E400E008B5FFF78F
:1026B000F9FF002304E04FF0803240F8042B01338F
:1026C0000C2BF8D962B608BD08B50388DA0A1C2AB3
:1026D00006D15B050BD45B15023300EB430008BD4C
:1026E000064B074A4FF48E71064803F02DFF03F5A1
:1026F000FF1303F5FF531F33EDE700BFBC63011069
:1027000028970110D463011008B5091A01F2FC7270
:1027100040F6FE739A4208D8081F11F0010F04D149
:10272000C0F34A0040F4604008BD034B034A4FF435
:102730008771034803F008FF1C6401101C97011007
:10274000D463011008B5091A04394B08090B0AD1E2
:10275000C1F30A0141F4704101806FEA43536FEA0B
:102760005353438008BD034B034A4FF48B71034816
:1027700003F0EAFE4C640110F8960110D4630110D6
:102780004209064B53F8223000F01F00012282401C
:1027900003EA0200003818BF0120704700E100E0A2
:1027A0003AB1064B00F1600243F8221043F82010C2
:1027B00070472030014B43F82010704700E100E0E3
:1027C00008B50A4600F01F03012199404009FFF7B0
:1027D000E7FF08BD00F01F0240090123934040308D
:1027E000014A42F82030704700E100E0024B9B684C
:1027F000103053F82000704700ED00E008B5FFF7F7
:10280000F5FF034BC01A2F288CBF0020012008BD04
:10281000C412002008B5FFF7E9FF30B1044A904226
:1028200001D0012008BD0020FCE70020FAE700BF2E
:102830001101001070B505460C46EFF3108672B614
:102840000F4BD3E8CF1F01220029FAD1C3E8412F53
:102850000029F6D1BFF35F8FFFF7C8FF094B9842FD
:1028600001D0A04205D1324621462846FFF708FF95
:1028700070BD054B054AED21054803F065FE00BF1C
:10288000857F0120110100105C6401105097011038
:10289000D46301102DE9F04F87B000911546EFF396
:1028A000108A72B67C4BD3E8CF1F01220029FAD1DF
:1028B000C3E8412F0029F6D1BFF35F8F774B93F91F
:1028C0000040002C44DB804604EB4407744B03EBD0
:1028D000870797F90610714A1170724A926800F1E1
:1028E000100152F82190A9EB03022F2A3ED96E4B1A
:1028F000994534D14FF42143ADF80C304FEA4409E7
:1029000004EB4400664E06EB800068490230FFF796
:10291000FBFEADF80E004BF60153ADF81030FF236F
:102920008DF812308DF81350009B0593A14406EBEF
:10293000890306AA12E9070083E8070047F00109A6
:10294000524649464046FFF79BFE07B0BDE8F08F70
:10295000574B584A4FF4BE71574803F0F5FD574B9B
:10296000544A40F28311544803F0EEFD29F0010B64
:10297000ABEB0303524AA2FB0312D20802EB420262
:10298000B3EB820F0FD15B460026DA79AA4212D947
:1029900093F90620002A0DDB02EB42021E46404B53
:1029A00003EB8203F1E7474B424A4FF4CA714248B6
:1029B00003F0CAFD1E46A6B344F60103ADF80C3081
:1029C0004FF48F43ADF80E3096F906B0BBF1000F0F
:1029D0001ADA4BF60150ADF810008DF812B08DF8F0
:1029E0001350009B05933946301DFFF78DFEB080D4
:1029F000B47104EB44042A4B03EB840306AA12E9E6
:102A0000070083E807009BE7301DFFF75DFE0146E6
:102A100004EB4402224B03EB8203181DFFF774FE04
:102A2000D9E74FF42143ADF80C306300019304EB78
:102A30004406DFF86C9009EB86061C49B01CFFF7D2
:102A400063FEADF80E005946301DFFF75DFEADF890
:102A500010004AF6AA235A464946521A5241534395
:102A60001B0D8DF812308DF81350009A0592019BC2
:102A7000234409EB830906AB13E9070089E8070043
:102A800044F60103ABF800304FF48F43ABF802304B
:102A900047F0010954E700BF857F012014AB0220F5
:102AA000C412002000ED00E011010010F41200201B
:102AB0009464011038970110D4630110BC640110B4
:102AC000ABAAAAAAE46401102DE9F04706460D4618
:102AD000EFF3108872B6504BD3E8CF1F01220029C4
:102AE000FAD1C3E8412F0029F6D1BFF35F8F4B4BDA
:102AF0009B6800F1100A53F82A70494B9F4207D097
:102B0000AF4200F087803C46464BFB1A2F2B06D97C
:102B1000424639463046FFF7B3FDBDE8F087FFF780
:102B20002FFE814600213046FFF74AFEBFF35F8F3C
:102B3000EFF30580C0B208B1824510D124F0010442
:102B40000021A268954212D094F90630002B0DDBCB
:102B500003EB43032146334C04EB8304F1E7324B90
:102B6000324A40F20221324803F0EEFC21469542FF
:102B700049D194F90650002D2BDB05EB4502294B7A
:102B800003EB82039A68A260DA79E27193F9063066
:102B9000A371002B10DA4BF60150A08005EB450223
:102BA000204B03EB8203234A117899711570494633
:102BB0003046FFF705FEABE705EB4503194800EB90
:102BC00083000430FFF780FD0146201DFFF79CFDC8
:102BD000E3E798B981B1FF238B714BF601538B80EA
:102BE000144A1378A3714AF6AA230E49641A644161
:102BF00063431B0D1370DAE7094FF1E70E49201DFF
:102C0000FFF7A0FDD3E70D4B084A4FF411710848B8
:102C100003F09AFC024F7BE7857F012000ED00E086
:102C200011010010C41200206865011008970110FE
:102C3000D463011014AB0220FE1200209C65011029
:102C400038B540F00104324BE31A2F2B31D8EFF3A3
:102C50000581C9B2002933D0EFF3108E72B62D4B27
:102C6000D3E8CF5F0122002DFAD1C3E8452F002D14
:102C7000F6D1BFF35F8F4AF6AA230246244D521BBA
:102C8000524153431B0D4FFA83FC234B9B6853F86F
:102C90002130A3421BD00023032B32D803EB430186
:102CA0001B4A02EB810292F90620624520D00133D3
:102CB000F2E71A4B1A4A40F27F211A4803F044FC0B
:102CC000194B174A40F28221164803F03DFC124B83
:102CD0009B68164A43F82120154B1A78827183F8B5
:102CE00000C000230B4AC2E88F3F8EF3108838BD26
:102CF000074A02EB8101FF248C714BF601538B8054
:102D0000EAE70C4B064A40F29321064803F01CFC0C
:102D1000C4120020857F012000ED00E0A4650110B1
:102D2000DC960110D4630110CC6501101101001074
:102D300014AB0220D865011000B583B00146074BE3
:102D40000093052300220648FFF71DFC002801DB45
:102D5000C0F1330003B05DF804FB00BFE065011073
:102D600023AB022070B504460E461546FFF752FC11
:102D70000146204600F006F8A680E580BFF35F8F8D
:102D800070BD0000014B0B44036070477C7F012045
:102D900010B50446FFF73EFC01462046FFF7F2FF60
:102DA000FF232371BFF35F8F10BD10B50446FFF7FB
:102DB00031FC01462046FFF7E5FFFF232371002386
:102DC0006371BFF35F8F10BD10B50D4C09E00D4B63
:102DD0000D4A1A210D4803F0B7FB2046FFF7D8FF34
:102DE00008340B4B9C4209D22368002BF5D0012BF1
:102DF000EDD12046FFF7D9FF0834F2E710BD00BF40
:102E0000D0130020FC650110909701101C66011082
:102E1000D8130020024B0B440360BFF35F8F704751
:102E20007C7F012010B504460120FFF701FC01461C
:102E30002046FFF7EFFF10BD0246EFF30583DBB23C
:102E4000103B990804D0034803F003031360704754
:102E50000148F9E700800B4000000B4010B4846A81
:102E6000A2EB040C0B1D50F823301B1B9C4504D314
:102E7000046A01238B401C4202D1043140F8212016
:102E80005DF8044B704741EA004070470D4B1A68EB
:102E9000EFF3108172B6D2E8CFCF0120BCF1000F62
:102EA000F9D1C2E84C0FBCF1000FF4D1BFF35F8F32
:102EB0001A680023C2E88F3F81F3108840BF0020CA
:102EC00000217047D8A802202DE9F04F85B003A853
:102ED000FFF7B2FF954B984214BF002301230399DB
:102EE00001EB8303924A52F823402378994206D19A
:102EF000054601228A4000F541535A602CE18D4B72
:102F00008D4A92218D4803F01FFBD4F8149006EBF4
:102F100046074FEAC70A09EBC707D7F808B0D7F842
:102F20000C80284600F0B4FBB0EB0B0061EB08030B
:102F3000002BC0F21A81B8F1000F64DB3B691A461E
:102F400000937F4B9A4230D0798889B2B4F9080057
:102F5000FFF799FF7969009B9847009001910099CC
:102F6000019A51EA02034ED01346002A29DABBEB3C
:102F7000010268EB0308BA60C7F80C8039F90A70DF
:102F8000002FC0F2F280D4F814E007EB47030EEBF9
:102F9000C3039968DB68511A68EB0303002BC0F286
:102FA000E480A4462CF8087F17E07A691369009240
:102FB0001046984738B3009A1368009353680193FA
:102FC000CDE7284600F064FB009B1A18019B43EBF9
:102FD0000108D0E79C463EF90B70002F0EDBBCF9D0
:102FE000003003EB43034FEAC30B0EEBC3039868B7
:102FF000D968101A68EB01010029EBDA29F80A7088
:10300000ACF80060B1E039F90A3023812369EFF3AD
:10301000108272B6D3E8CF0F01210028FAD1C3E89D
:10302000401F0028F6D1BFF35F8FB4F9023029F8B2
:103030000A30668021690023C1E88F3F82F310883F
:1030400093E02369EFF3108272B6D3E8CF0F01212A
:103050000028FAD1C3E8401F0028F6D1BFF35F8FE4
:10306000B4F804800FFA88F84FF6FF73A380216943
:103070000023C1E88F3F82F310881AE01F4630F921
:103080000A60002E0FDBB7F9003003EB43034FEA71
:10309000C30A00EBC3039968DA68BCEB01016EEB6D
:1030A0000202002AEADAA7F8008030F9098020F845
:1030B0000960B8F1000F5DDB606908EB48034FEA77
:1030C000C30900EBC303D3F808C0D3F80CE004F144
:1030D0000807B4F90860D4E70023A37104F1080CD1
:1030E000B4F9083010E04FF0FF384FF0FF39C0E975
:1030F0000289B4F90800984205D0ACF80020B4F970
:103100000800C85323811346B3F1FF3F35D06169EE
:1031100003EB4302D70001EBC20031F932204688AD
:1031200016F4004FDFD18446EDE700BF00800B406E
:1031300030A20220B0660110BC970110DC660110BD
:10314000C92E0010284600F0A3FA3F1A66EB0106CC
:10315000012F76F1000628DA039A01239340EB63EE
:10316000B4F90860002EBFF6D0AEA38813F4004F68
:103170003FF467AFA379002BAED1B4F90830002B30
:1031800013DB626903EB430302EBC3039F68DE6852
:10319000B6F1FF3F08BFB7F1FF3FD3D03A46334601
:1031A00003992846FFF75AFECCE740BF05B0BDE8BB
:1031B000F08F00BFF8B504460D4611460A4B984201
:1031C00010D000262E44012707FA05F52562304667
:1031D000FFF730FB39463046FFF7F2FA04F50154A9
:1031E0002560F8BD0426EDE700800B40F8B50446E5
:1031F0000E4617461D46C160FFF70CFA164B0344F6
:1032000023612770ABB263814FF050421278627035
:103210004FF6FF722281A280013B63804FF0000CC9
:1032200008E00CF1FF300CEB4C0E636923F83E0014
:103230000CF1010CAC45F4D3084B9E4214BF0023A3
:10324000012307EB8303064A42F82340054A394627
:103250003046FFF7AFFFF8BD7C7F012000800B40B8
:1032600030A20220C92E001008B5054B1B690BB116
:10327000034808BD034B044A6521044803F064F980
:103280000C1300201C670110A4970110DC660110CC
:10329000F8B504469E460069EFF3108172B6D0E897
:1032A000CF6F0125002EFAD1C0E8465F002EF6D17F
:1032B000BFF35F8FB4F90250666905EB4500C700A4
:1032C00006EBC000002D03DB36F907C0A4F802C0EE
:1032D0004FF0000C2369C3E88FCF81F31088654558
:1032E00033DB06990161079941618260C0F80CE007
:1032F000418889B20131C1F30E0101B90121418038
:103300002846FFF7C0FD2369EFF3108272B6D3E8B9
:10331000CFCF0121BCF1000FF9D1C3E84C1FBCF1A4
:10332000000FF4D1BFF35F8FA388F353A580216909
:103330000023C1E88F3F82F31088E36821780122DF
:103340008A4003F501535A60F8BD4FF0FF30FBE7A8
:1033500070B582B0064615461C469DF8203033B93C
:1033600000F0C0F9854264EB010100290ADB079BEC
:103370000193069B00932A4623463046FFF788FFB9
:1033800002B070BD0020FBE7F0B585B005460C46E5
:1033900016461F46FFF768FF9DF8283002930197F5
:1033A00000962A462346FFF7D3FF05B0F0BD03463B
:1033B0004089B0EB214F31DD10B50A14586902EB9A
:1033C000420200EBC2001A69EFF3108C72B6D2E829
:1033D000CF4F5FF0010E002CF9D1C2E844EF002C72
:1033E000F5D1BFF35F8F428892B289B28A420FD083
:1033F000002019690022C1E88F2F8CF3108830B1AA
:10340000DA681B780121994002F50153596010BD1B
:1034100042F40042428001209871EAE700207047A0
:1034200010B50446FFF720FF2146FFF7C0FF10BD8F
:1034300040787047F0B583B0EFF30583DBB2CBB9CA
:1034400004460D46861F41F1FF37B04271EB07037A
:1034500001D20026374600F045F9301A67EB010328
:10346000012873F1000308DA2046294600F04CF9E0
:1034700003B0F0BD1848FFF739F800230093174A4E
:1034800030463946FFF780FF002819DAECE7144B85
:103490001A68EFF3108172B6D2E8CFCF0120BCF1E9
:1034A000000FF9D1C2E84C0FBCF1000FF4D1BFF30B
:1034B0005F8F1A680023C2E88F3F81F3108820BF16
:1034C000084B5B6A9F42E2D8064A926AB242CBD26C
:1034D0009F42C9D1DBE700BF406701108D2E00106D
:1034E000D8A8022000000B4038B504460D4600F075
:1034F000F9F8201845EB0101002902DBFFF79AFFDC
:1035000038BD4FF0FF306FF00041F7E708B5C30E4C
:103510004101091A63F100039B0043EA917389009A
:10352000091843F10003DB00C80043EA5171FFF7BB
:10353000DBFF08BDF0B583B005460C46EFF305830D
:10354000DBB293B1384B5B6A8B4209D3364A926A3D
:10355000824208D28B4201D0012002E0002000E02C
:10356000002003B0F0BD0120FBE7FFF77DFEC76838
:103570000678384600F08CF82A1A64EB010104360C
:1035800057F826301B1A9A4271F1000112DB20BF56
:10359000254B5B6A9C4209D8234A926AAA4207D209
:1035A0009C4201D00120DCE70020DAE70020D8E7C8
:1035B0000120D6E7002300931C4A28462146FFF746
:1035C000E3FE002818DD184B5B6A9C4205D8164ABA
:1035D000926AAA4202D29C4200D120BFFFF720FF8C
:1035E000114B5B6A9C421BD80F4A926AAA4219D2BD
:1035F0009C4213D00120B4E70B4B5B6A9C4209D874
:10360000094A926AAA4207D29C4201D00120A8E747
:103610000020A6E70020A4E70120A2E70020A0E701
:1036200000209EE701209CE700000B408D2E00103B
:103630000048704700000B4010B50A4B1B6923B1CE
:103640000A210948FFF79EFB10BDFFF7F1FF044672
:10365000032100F00BF81023032221460148FFF755
:10366000C5FDEDE70C130020D8A8022010B5054ACF
:10367000054C064BA04214BF1846581CFEF76AFFC3
:1036800010BD00BF9067011000800B40D084012066
:103690000246436A906A1946536A9942FAD17047C2
:1036A000416A00E0416A9942FCD300E0416A9942D4
:1036B00002D1816A9142F9D3704770B5064614462B
:1036C0001D46FFF7E5FF021941EB0503824273EB4C
:1036D000010102D24FF0FF3213463046FFF7E0FF00
:1036E00070BD000008B50248FFF7D2FF08BD00BF5B
:1036F00000000B4008B502460B460248FFF7DDFF0D
:1037000008BD00BF00000B4008B502460B4602484A
:10371000FFF7C6FF08BD00BF00000B40074B9842F3
:103720000AD01A2301229A40054B1A60054B9B6868
:1037300032EA0303FAD170471B23F3E70080074006
:10374000003002400000024038B5046B14F0010F55
:1037500001D1204638BD00F5405340F201321A63D2
:10376000436A856A05EB8315AD02062000F006F971
:10377000044BA3FB0030C00AB5FBF0F00021FFF7BB
:10378000B9FFE6E7757B2B8F70B505460C461646EC
:10379000FFF7DAFFEB6A5C40344005F58153DC60EB
:1037A000286370BD70B505460C46062000F0E6F8AB
:1037B000C300B3FBF4F30133DC0907D04FF6FE720C
:1037C000944214D82646C3F3450400E001266E62F5
:1037D000AC62002211462846FFF7D6FF062000F013
:1037E000CDF8800004EB8614B0FBF4F070BD00242B
:1037F0004FF6FF76EBE708B5A1F1050C511EC900A5
:1038000041EA4C113BB141F00201012B01D00023F0
:1038100002E0042300E000236E221943FFF7B4FF07
:1038200008BD08B501B110211022FFF7ADFF08BD9A
:1038300049B10A22054B984214BF00200120044BD5
:1038400023F8102070474FF48072F3E700800740A0
:10385000D0AA022038B504460D46062000F08EF8A6
:10386000F8B1114B9C421DD01A22012393400F4AFC
:1038700013602046FFF752FF00212046FFF7D8FFD4
:1038800029462046FFF78EFFE36A83F0700303F0BA
:103890007E0304F58152D36040F201332363032396
:1038A000A36438BD1B22E0E70080074000200240EF
:1038B00070B51646049D00EB400C4FEA8C0C0CF1E1
:1038C000804C0CF5803CDCF80420AA4201D2CCF8F4
:1038D0000450A0F1040E5FFA8EFEBEF1010F28D94C
:1038E0000CF540524FF4006414601E4A52F8202038
:1038F00042B11C4C6469B4FBF2F4013404EB44049F
:10390000033CFDD2DCF8002082EA461202F0E0021D
:103910000CF580542260BEF1010F16D90CF500524F
:103920004FF400611160CCF804500E4A42F8203088
:1039300070BD0129D4D10CF5405203241460DCF889
:10394000082012F0010FFAD0DCE7DCF800204A4032
:1039500002F003022260DCF8084001228A4014428F
:10396000F9D0DBE7D884012010B582B04FF4803461
:103970000094FFF79DFF02B010BD0000014B53F80B
:1039800020007047D884012070B5049C344DB5FBED
:10399000F1FC344D1544344EB54237D8B2FBFCF53A
:1039A000A5F1100EBEF5987F36D803F1FF3EBEF1AB
:1039B000060F37D804F1FF3EBEF1060F32D8BCEB3C
:1039C000121F35D8240344EA03440368002B35DB77
:1039D000264B984242D00E2301229A40244B1A6073
:1039E00003F580531A60234B9B6832EA0303FAD134
:1039F0000160856000F540520432212313600368A2
:103A0000002BFCDAC4600823136070BD1A4B1B4AFC
:103A100011211B4802F098FD1A4B184A1921184829
:103A200002F092FD184B154A1C21154802F08CFD3E
:103A3000164B124A2321124802F086FD036803F058
:103A40003F038B42C4D18368C3F30B03AB42BFD1A6
:103A5000C36803F4EE23A342BAD1D6E70F23BBE732
:103A6000001BB70080E84BD380F8A93200800540E6
:103A70000020024000000240B4670110E8970110E6
:103A8000046801104C68011068680110B4680110E6
:103A9000024B1A68024B5A60704700BF60740220E4
:103AA00000800D4008B5164B4FF080421A60A3F518
:103AB0004123144A9A6051B103F540234FF0E0626C
:103AC0001A6048B9104B4FF000421A6008BD0C4B09
:103AD0004FF0E0621A60F4E74FF47A7303FB00F0F2
:103AE0000A4B1860B0F1807F02D36FF07F421A60FA
:103AF000FFF7CEFF044B4FF080421A60E6E700BFAD
:103B000000B00D40F3FFFF0100A00D4060740220E3
:103B100010B50C4B4FF080441C6070B140F00103B5
:103B200009480A4CC4610A4C5C40046241628362E9
:103B300000211046FFF7B6FF10BD034B0021D961ED
:103B4000F6E700BF00B00D4000800D40D3C007B0C5
:103B50002D3FF84F054A00EB400302EB8303596009
:103B600000EB40008000012313507047008010409C
:103B70002DE9F04105460E46174698460023DB8A9C
:103B8000002242E800F212F4800F0BD1102144F21F
:103B900052209847044643463A4631462846A047B5
:103BA000BDE8F081042144F2522098470446F2E730
:103BB00008B50023DB8A002242E800F212F4800FED
:103BC00002D11021984708BD04219847FBE708B5AA
:103BD000031E04DB41F020003AB141F030010A46F7
:103BE0000A214FF48170FFF7C3FF0146F7E710B5D4
:103BF00086B004460023DA8A002343E800F313F476
:103C0000800F0DD1102145F2473090470346102216
:103C1000052101A89847052815D0002006B010BD41
:103C2000042145F2473090470346F0E75A1C06A9A5
:103C300001EB820151F8141C44F823101346032BA6
:103C4000F4D90120EAE70023F9E70000034BD3F899
:103C50002838002BFAD0BFF35F8F704700000E406A
:103C6000002207E0054B13449B00BFF35F8F002148
:103C700019600132072AF5D9704700BF038203108B
:103C800008B5FFF7EDFF08BD074B4FF42A621A6035
:103C90004FF48D72DA6003F50053044A1A60024B48
:103CA0005B68002BFBDA70470080044000B0FA002C
:103CB00010B5044602E054F8043B9847014B9C427F
:103CC000F9D310BDE85B01107047000008B5024849
:103CD000FFF7EEFF08BD00BFA85B0110064B074AC7
:103CE0001A6003F58053064A1A60064B9A68044B23
:103CF0009343FAD1704700BF002002407F3BEFEFB3
:103D0000F6FFF30300000240054BDB6CB3F5004FF8
:103D100000D07047034B4FF48022DA64F9E700BF0C
:103D200000001150002011504FF0E022D2F8881D01
:103D3000034B0B43C2F8883D10EE3004704700BFC0
:103D400003033000054B6FF060421A60044B9B6820
:103D5000DB4333F06043F9D1704700BF00300240CD
:103D60000000024008B545F25320FFF721FF03464B
:103D70000420984708BD08B545F25320FFF718FF07
:103D800003460120984708BD08B5FEF76BFC08BD47
:103D900010B50C490C4A521A92101446442A28BFF6
:103DA00044229200094811F01BFE04E0084A074B28
:103DB00043F824200134432CF8D9044A054B9A6077
:103DC00010BD00BF00000010100100100000002016
:103DD0001101001000ED00E038B50420FFF7CEFD22
:103DE000064BA3FB0035AD0C002404E02946E0B2ED
:103DF000FFF7B0FE0134052CF8DD38BD83DE1B4330
:103E000030B583B0264B0022C3F88420FFF73CFF77
:103E1000244B0122DA63224B5B6C012BFBD1214B3B
:103E200003221A631E4B9B6B012BFBD102240094CF
:103E300005231D4A01211D48FFF7A6FD0525009514
:103E40002B461B4A01211B48FFF79EFD1A4B0022FF
:103E500021460420FFF788FD184C2346002201214B
:103E60002846FFF781FD164D2B46002211460820FB
:103E7000FFF77AFD2B46002211460920FFF774FD5B
:103E80002346002211460620FFF76EFD234600223E
:103E900011460720FFF768FDFFF79EFF03B030BD16
:103EA0000000014000300140002F6859000005402B
:103EB000008C864700800540001BB70080D1F008C9
:103EC000006CDC0286B003B451FC0804CDE90201A9
:103ED00051FC0904CDE9040151EC0A04CDE90601C5
:103EE00003BCF047BDE800504EEC00C4BDE80050F4
:103EF0004EEC01C4BDE800504EEC02C400BD000011
:103F000000B5FFF7DFFF02E010FE30F4F8D441EC1B
:103F1000100443EC112400EE010410EE010480EEC5
:103F2000200451EC1004704700B5FFF7CBFF02E00E
:103F300010FE30F4F8D441EC100443EC112400EEF0
:103F4000010410EE210480EE200451EC300470478F
:103F500000B5FFF7B7FF02E010FE30F4F8D410B55B
:103F600041EC100443EC112451EC040453EC0524FF
:103F7000A0FB024C5FF0000EE0FB03CEE1FB02CEA3
:103F80004CEC20440024E1FB03E444EC30E480EEFC
:103F9000200451EC5004BDE81040704700B5FFF715
:103FA00091FF02E010FE30F4F8D441EC100443EC31
:103FB000112451EC2104A0FB01126FEA820252FB92
:103FC000100052FB12F252FB1000A0EBD07C53EC1D
:103FD00004245CFB13F153EC1524A1FB022001FB2C
:103FE000030053EC4424A2EB000050FB1CF24FEA08
:103FF000111312EB017043EBE27140EA515020EAD9
:10400000915020F0070053EC7524A0FB023C53ECC8
:10401000752400FB03CC01FB02CC53EC0424ACEB75
:10402000824C40EA5C70A0F1010041EC400480EE5B
:10403000200451EC7004704700B5FFF743FF02E025
:1040400010FE30F4F8D441EC100420EE010453ECDF
:104050004124A2FB0201A1FB03014FEAC101A1F12E
:10406000004162FB1122A2FB0201A1FB0301000F30
:1040700040EB011151FB12F0A2EB6002A2FB030125
:104080004FEA5101A1FB01305CEC6404A0EB030397
:1040900053FB12F301EB23714FEA031323F0FF03E9
:1040A00043F08003A3FB03C201FB01FCE1FB032CF3
:1040B000E1FB032CACEB000C43EA1C63A3F10B0304
:1040C00041EC503480EE200451EC9004704700BF66
:1040D00000B5FFF7F7FE02E010FE30F4F8D441EC33
:1040E000100480EE220410EEB204704700B5FFF712
:1040F000E9FE02E010FE30F4F8D440EC700400EE6B
:10410000010410EE210480EE200451EC30047047CD
:1041100000B5FFF7D7FE02E010FE30F4F8D440EC13
:10412000600400EE010410EE210480EE200451EC46
:104130003004704700B5FFF7C5FE02E010FE30F412
:10414000F8D441EC800400EE010410EE010480EE8E
:10415000400410EE1304704700B5FFF7B3FE02E011
:1041600010FE30F4F8D441EC800400EE010410EEAF
:10417000010480EE400410EE3304704700B5FFF7F1
:10418000A1FE02E010FE30F4F8D441EC100443EC40
:10419000112400EE010410EE3004C0F300707047EB
:1041A00000B5FFF78FFE02E010FE30F4F8D443ECC8
:1041B000102441EC110400EE010410EE30F48CBF29
:1041C00001200020704700BF00B5FFF77BFE02E032
:1041D00010FE30F4F8D443EC102441EC110400EE4E
:1041E000010410EE30F42CBF01200020704700BF06
:1041F00000B5FFF767FE02E010FE30F4F8D441ECA2
:10420000100443EC112400EE010410EE30F42CBF36
:1042100001200020704700BF00B5FFF753FE02E009
:1042200010FE30F4F8D441EC100443EC112400EEFD
:10423000010410EE30F48CBF01200020704700BF55
:10424000404261EB410140F2F334B1FA81F20C2AB1
:104250000CD2153211FA02F3C2F12002D04021FA39
:1042600002F12244584141EB0251704769B1C2F159
:104270002B0230FA02F3C2F1200291409040194320
:10428000A4EB020201EB0251704701004FF0000065
:10429000A4F12004D9D170470B5C7325A974F503F0
:1042A00029B5FA010015FC7FEB2FAA0054D9440C64
:1042B000C8D221061F60DA7F3663E842CFD3D91314
:1042C0003C5EEA09F0889D7F2FC46D04D9860A1CE4
:1042D0001F17FE0DD09E3B7FA79B50EC3EF5EB23B6
:1042E000BCE7E611C7EFBD7ED21C9C03B212F12BD6
:1042F00046F5DC1549771E7ECA057A3DF493F23304
:1043000014C0CB199CAC5F7DA0A0EF7A1D32193C84
:104310001D22C61D2F2F7D7CB50FFB1270EF504460
:10432000530CC1213522787B5C8D6B4745A0F14B46
:1043300018DC6A2516AD687AC14069576DD9EA5311
:10434000391636293C2D2F79DFEA4ED38942B35BEB
:10435000D639E02C2526E0776950EA31D907116477
:10436000C0D3C43070625876CB5667F3B3A2FD6BEE
:104370001C7E6834227AC7740EED7A2F3175E07393
:10438000CCE7FA3727111C73C08EC4FC0E79147C5D
:104390000EA7A33B8ECD417113B7043B8F7B548393
:1043A000D489D23EEBD8856F9A365B13D96F0B8CCC
:1043B000D4EA9442A3EF516D5F52CA4A26D339948E
:1043C000706E0A464005236B8340C441340B0E9C3B
:1043D0003DB0484907EFF168BF086DA3FD6179A4BE
:1043E00085F2B14C9D847A663616F8C8D247E5ABA3
:1043F0001E22A24F2F623664ADC9C8D0E1ADFEB314
:104400002470C35286AFA461730E73646A35FEBB19
:1044100028F0C555A3A3025FC6A58CB055B912C438
:104420000892BA58A394415C90005354372DB0CBF6
:1044300019F46E5BD88E9359367C8DA16E3CAAD34D
:1044400025022E5EFC32AF56D0C7A248F619FFDB1C
:104450003253F3607EED9253949AAD7AE1AD22E44B
:10446000CADF8E63C72B7350FF15EF19BD85FBEBB9
:10447000BB18FA65C7615C4DBD960F7E494B4CF485
:10448000F7816F68E617024AEB09EF1DFDBD4DFC91
:10449000C4D2B26A13E4B446D2F1000CBCF1200AD3
:1044A0004ADA63F31F51042F3CD2DAF1000A21FAF1
:1044B0000CF320FA0CF201FA0AF942EA0902C902E5
:1044C00051EA5051C002A2FB0394A2FB0395E3FB07
:1044D0006345A0FB0592A1FB0493E1FB6523A2FBCE
:1044E0000596A3FB0498E3FB65684FF0AA39A2FB8D
:1044F00009A40025E3FB0945641955F100054FF0B7
:104500003339A6FB0923B4EBC30465F10005B0EB16
:10451000440061EB4501A1EBD471CCF58064A4F1BA
:10452000180441E1DAF1000A11FA0AF430FA0CF049
:1045300031FA0CF1204371E0042F03D291EAC771E4
:10454000BDE8F08F63F31F518AF3060A31FA0AF0CF
:10455000002110E149085FEA300000220023002614
:104560004FF0804786E041F30A540020002114F107
:10457000010F43D1C3F6F07140E0C3F30A540020A9
:104580000021DCBB17F0040F38D017F0020F0CBF6E
:104590000637063F32E01000190051F40021704741
:1045A000012A43EB030C1CF5001FF4D8012841EB52
:1045B000010C1CF5001FF0D82DE9F04FCF0F21F0B2
:1045C00000411B0006D50A3723F000438B420AD86E
:1045D000063F02E08B4206D8063714001D00020099
:1045E0000B002000290043F30A5414F1010FBAD044
:1045F000C1F30A54002CC0D0FFF7D4FC4FEA11528B
:104600000123B2F57D723FF547AF63F31F510123DC
:1046100003FA02F3A0FB030401FB034180B40A0C7C
:10462000B2F5807F96D302FB02F348F65C14624336
:1046300041F227259B0B03FB1522B2F54C12520EBB
:104640005C4B03EB02133CCB5B085FEA3202A4FB3A
:1046500000C60027E4FB016716EBC57647EB55075C
:10466000A5FB00C05FF00008E5FB0108B0EBC470DB
:1046700068EB54018C0144EA9064FD0B94FBF5F463
:1046800004FB04F503EB842384FB05894FEA094A04
:104690004AEA184A5AFB15FA4FF0663C5AFB15FBDA
:1046A0005AFB1CFA44F6251CC0F2120C5BFB1CFBE7
:1046B0004FF0553CABEB2B3BAAEB0B0A12EB4A122B
:1046C00043EBEA63A8FB0C5A4FF0000BC9FB0CABA1
:1046D0001AEB0B0A4BEBEB7BB2EB0A0263EB0B031F
:1046E000E402A4FB005848BFA8EB00084FEAE879B1
:1046F000C4FB0189A4FB065A48BFAAEB060A4FEA8D
:10470000EA7BC4FB07AB16EB080647EB0907B0EBE7
:104710000A0061EB0B014FF0FF34BD0BB4FBF5F465
:10472000C50A55EA415554FB05F54FEAD60646EA57
:104730004776A5FB06B84FEAD70A48BFA8EB06089C
:1047400005FB0A8812EB057243EB2513A0EB08006A
:1047500080FB04895FEA983848EA894868FB1700BB
:1047600012EB680243EBE87304FB00F412EBE43055
:1047700043EBE47180BC49085FEA30004FEA87767A
:1047800080EAE67081EAE67146F21A12C1F2B402DA
:104790004EF65153C6F287434FEA9706E6FB0201F5
:1047A00006FB03114FF47D74FFF74FFD91EAC771CB
:1047B000BDE8F08F984200100022002950DA4042F4
:1047C00061EB4101C9B1B1FA81F30B3B17D4D3F1CD
:1047D000200C30FA0CFC9840994051EA0C011A4424
:1047E000524202F2324201EB025141F0004140F2EA
:1047F000FE739A4238BF704721E011467EE003F114
:10480000210310FA03FCA3F1010301FA03FCC3F135
:10481000200320FA03F021FA03F140EA0C00A3EB95
:10482000020202F2324214D050F1000041EB025178
:1048300041F0004140F2FE739A4238BF70474FF09A
:104840000001A8BFC7F6F0714FF0000070470021CB
:104850007047EBD350F1000020F00100E6E70022A2
:10486000B9B1B1FA81F30B3B16D4D3F1200C30FA75
:104870000CFC9840994051EA0C011A44524202F251
:10488000324201EB025140F2FE739A4238BF704748
:1048900020E0114600F066B803F1210310FA03FC92
:1048A000A3F1010301FA03FCC3F1200320FA03F092
:1048B00021FA03F140EA0C00A3EB020202F23242B9
:1048C00012D050F1000041EB025140F2FE739A42C7
:1048D00038BF70474FF00001A8BFC7F6F0714FF026
:1048E0000000704700217047EDD350F1000020F028
:1048F0000100E8E7002880F235804042B0FA80F3FA
:104900000B3B11D4984001EB0302524202F21242D7
:1049100000EB025141F000414FF0000040F2FE7305
:104920009A4238BF704713E0C3F1000330FA03FC2A
:10493000C3F120029040A3EB010202F212420CEB01
:10494000025141F0004140F2FE739A4238BF704775
:104950004FF00041A8BFCFF6F0714FF00000704754
:104960000021704760B3B0FA80F30B3B0FD498403E
:1049700001EB0302524202F2124200EB02514FF0ED
:10498000000040F2FE739A4238BF704710E05B426D
:1049900030FA03FCC3F120029040A3EB010202F2C3
:1049A00012420CEB025140F2FE739A4238BF70473C
:1049B0004FF00001A8BFC7F6F0714FF0000070473C
:1049C0000021704770B5002A23DDCC114FF0FF3570
:1049D000B5FBF4F5002416E04FF00C0E4FEA602C06
:1049E00005FB0CFCCEF11D064CFA06FC0CF1010C8B
:1049F0004FEA6C0C00FA0EF00CFB110004FA0EF4F6
:104A00006444A2EB0E02002A05DD0C2AE4DC964683
:104A1000E4E70025DEE7884201DB401A01348842E2
:104A200001DB401A0134002802DB03B11C6070BDB9
:104A3000013C4018F9D50844013CF6E738B5C0F30D
:104A4000C752C0F31603C1F3C755C1F31601FF2ABD
:104A500017D0C40F43F4000C41F40001A5B112B902
:104A6000ACB9002012E0AA4210DB0023521B6046C2
:104A7000FFF7A8FF04B14042C5F1960100F052F8DB
:104A800004E04FF0FF4001E04FF0FF4038BD4FF031
:104A90000040FBE70022002980F2A980404261EB40
:104AA0004101B1B3B1FA81F3083B16D4994010FA31
:104AB00003FCC3F1200320FA03F040EA0100A2EB5B
:104AC0000302C2F195021CEB0C0C40EBC25040F00B
:104AD000004020D0FE2A16D2704703F1210311FABC
:104AE00003FC5CEA000CC3F1210321FA03F0A3EB01
:104AF000020202F1B50240EBC25040F000400AD081
:104B0000FE2A38BF70474FF00040A8BFCFF6807034
:104B1000704711460AE028BF20F00100FE2A38BF86
:104B20007047F0E7002880F233804042B0FA80F30B
:104B3000083B0CD4984001EB0302C2F1950200EB54
:104B4000C25040F00040FE2A38BF704713E003F126
:104B5000210310FA03FCC3F1210320FA03F0A3EBB5
:104B6000010202F1950240EBC25040F0004008D033
:104B7000FE2A38BF70474FF00040A8BF40F0FF400A
:104B8000704728BF20F00100FE2A38BF7047F2E7C7
:104B900020B3B0FA80F3083B0AD4984001EB03023B
:104BA000C2F1950200EBC250FE2A38BF704711E0F7
:104BB00003F1210310FA03FCC3F1210320FA03F0EF
:104BC000A3EB010202F1950240EBC25007D0FE2A8E
:104BD00038BF7047ACBF4FF0FF400020704728BF80
:104BE00020F00100FE2A38BF7047F3E7002289B3A6
:104BF000B1FA81F3083B14D4994010FA03FCC3F1D5
:104C0000200320FA03F040EA0100A2EB0302C2F104
:104C100095021CEB0C0C40EBC2501ED0FE2A14D2A5
:104C2000704703F1210311FA03FC5CEA000CC3F1A5
:104C3000210321FA03F0A3EB020202F1B50240EBDB
:104C4000C2500AD0FE2A38BF7047ACBF4FF0FF40B9
:104C5000002070471146FFF79BBF28BF20F00100DE
:104C6000FE2A38BF7047F0E7000000000000000097
:104C700000000000DB60BE284A059193F4D5097F4F
:104C800070374D7D66A5D83610E4104FAFF2240280
:104C90004B1102EB830201F01F034FF001049C4013
:104CA000A4FB0034D568A5FB0456956805FB046693
:104CB000E5FB0356556805FB0366704700000000DE
:104CC000410201D150F0004050F480007047F0B52F
:104CD000012363F3DF50C1F109014FF07E07FFF7B5
:104CE000D5FFB30F53F100039C44B6EB8376B200BB
:104CF00028BF5242B2F1805F0BD20231FFF7C6FFEC
:104D000096EA260242F10002B2F1805F01D2023F30
:104D1000F3D50A4CA2FB0424B4FA84F29440240A8A
:104D2000A7EB020244EBC250C10DD1F17F01F60F97
:104D300000EBC673BDE8F04073E00000A2DA0FC9D3
:104D400011F1800FBCD030EACC7248BF0CF1020CDC
:104D500020F0004000EE100A0DA2F2EC032A22EE31
:104D6000802A11F1080FB9FE422AB0DDA2EE630AD3
:104D7000A2EE430A10EE103AFDEEC21AC3F3C75278
:104D8000782AA4D3D2F17F0111EE902A944448E00E
:104D900083F9223F7A7795B60010C93F07B5C0F373
:104DA000C751FF2925D000F032F8BDE80640CEF803
:104DB00000000ED2C9438CEAD17C63EEA02AE1EE5A
:104DC000032A73EE622A12EE900A80EACC70106019
:104DD00000BD8CEAD17C21EE232AA3EE602A8CEA66
:104DE000D37133EEC22A12EE100A80EAC17010604D
:104DF00000BD4102BDE80E4001D150F0004050F42A
:104E000080001060186070475FF0000C01E05FF0F8
:104E1000010CC0F3C751A1B3D1F17F0190D920EAB1
:104E2000CC7323F0004000EE100AC0F38440203021
:104E300030FA01F1834A51F10001B2EC024A02EB6F
:104E4000810202EBC102D2EC032A70EE620A20EE6C
:104E5000A01A5FEA5C0C61EE201A15D221EE041A4A
:104E600061EEA41A70EEE10A21EE232AA3EE602A75
:104E70008CEAD37133EEC22A12EE100A80EAC170B6
:104E8000704700F00040C7E761EEA41A70EEE10A37
:104E900021EE041A63EEA02AE1EE032A73EE622AE1
:104EA00012EE900A80EACC70704700BFAFF300802A
:104EB000C1FEFF3E25AA2A3E000000000000803F00
:104EC0000000000061C9FC3CCDE07F3F1CBFFC3C02
:104ED0007605813DFE7D7F3F9EEF803D090CBF3D05
:104EE0000FE37E3F22C5BE3DB624FF3D14047E3F46
:104EF000E27BFE3D13071F3E48EB7C3FA0631E3E56
:104F00006D30403E1D817B3F15103F3EA2AD603E9F
:104F1000CFDC793F3EE15E3E7B0D803EFA08783F74
:104F200096717D3E6E988F3E65FF753F68B88D3EE9
:104F3000F4E19F3E939E733FFD4B9D3EC654B03EB1
:104F4000AEF7703FB3DDAC3EC589BF3E604B6E3FF0
:104F50000A1ABB3E26C4CF3ECA356B3F631CCA3E0D
:104F6000F254E03E66D1673F0739D93EDDF0EF3EAF
:104F70004B66643F1641E73E312B003F8894603F0B
:104F80000FC3F53E07E4073FA2C55C3F2B99013FE5
:104F9000C51F103F8F7D583F65A1083F8AF6173F18
:104FA000B534543FCA310F3FE2FF1F3F599B4F3F7B
:104FB000D7C8153F4606283F6BCF4A3FC4371C3F32
:104FC0004130303FE0B9453FE49A223FA71D383FCA
:104FD000CA98403F20A6283F2FC73F3FAC763B3FB3
:104FE0004A562E3FDB13483FCCB6353F6B52343F19
:104FF00079C74F3F2F35303FD0B4393F52DD573F4F
:1050000070412A3F912D3F3F26CE5F3F9F3E243F78
:10501000C35D443FF125683F50C21D3F1C9D493F81
:10502000E13B703F4150173FBF7E4E3F7810783FC5
:1050300071ED103FAF06533FD4F47F3FA75A0A3FAC
:105040009B64573FB04E001051F48000704703D16D
:10505000B3F1FF4F3CD106E050F480007047FBD124
:10506000B3F1FF4F49D1013801391BE003F0004390
:10507000B2F5000F02D20BE002F0004243EC102A1E
:1050800080EE201A1EE003F00043B2F5000F04D2B8
:1050900041F07E5106E002F0004243EC102A80EE1F
:1050A000801A24E020F0004221F0004343EC102A53
:1050B0009A4214D880EE201AB3F5000FD6D3B2F579
:1050C000000FD9D3B3F1FF4FBED8B2F1FF4FBED21C
:1050D00000294CBFDFF82CC14FF0000C11E080EE2E
:1050E000801AB3F5000FCED3B2F5000FD3D3B3F1CE
:1050F000FF4FA9D8B2F1FF4FB1D2DFF804C191F050
:10510000004142A2F0EE411AFFEECD1A11EE903AA4
:105110005B0853F1000302EBC302D2ED012A22EE39
:10512000810A71EE620AF7EE002A32EE800A32D06E
:1051300080EE800A1268002948BF5242624400286B
:1051400048BF5242002A07D55242B2FA82F39A402F
:105150000BD0C3F5C07305E0B2FA82F39A4004D0D5
:10516000C3F18003120A42EBC35220EE001ADFEDB6
:10517000261A21EE001A90EA010F21EE211A02EE02
:10518000102A30EE410A54BF32EE000A32EE400AD5
:1051900010EE100A704780EE800A6246002848BF71
:1051A0005242002A07D55242B2FA82F39A400BD0FB
:1051B000C3F5C07305E0B2FA82F39A4004D0C3F19C
:1051C0008003120A42EBC35220EE001ADFED0E1AE2
:1051D00021EE001A90EA010F21EE211A02EE102AA8
:1051E00030EE410A54BF32EE000A32EE400A10EEB1
:1051F000100A10F0FF4F18BF704700F000407047D2
:10520000A9F6433251ED8764ABAAAA3E0000000024
:105210000000000023EEFF00BB01003DDC88FE0122
:105220002A997F3D700AFE020312C03D28D2FA037C
:105230006803003E70ABF504EAFD1F3EF856ED052D
:10524000DCDD3F3EA0CFE4062514603EE0D3D80766
:105250005D21803E6004C608A500903E7067B209DB
:105260009214A03E506D990A7713B03E106D7A0BE0
:10527000A0F4BF3EE03C590C9F01D03ED0EB330D73
:10528000BC1BE03EB07A080EBD1FF03E8061D50E1B
:1052900098EFFF3E80DEA10FBF0E083F009D631018
:1052A00031EC0F3FE0902611FD0C183FC014E011C7
:1052B0006500203FE0519612BE08283F00D44613F7
:1052C0007D0A303FC0C7EF132FEE373F6089981437
:1052D000320C403FC0A8371542EF473F60CCD41591
:1052E00030F64F3F80F26E163415583FC075FF16EA
:1052F0001EEF5F3FA01691174D18683FA05A1B186C
:105300002217703F6005A1187110783F6040211985
:1053100051F47F3F9A4200D288547047704720B1C1
:1053200008B50A684968904708BD704701460020E3
:1053300008E000EB8000531C0B60137803EB400384
:10534000A3F130000A681378303BDBB2092BF0D9A7
:1053500070472DE9F04F83B005460E4693461F4631
:10536000DDF830A00D9CDDF838900F9B13F0030F93
:1053700019D1A046019208E002F1010B3B463146EB
:105380002020A84708F101085A46C845F4D3DDF8A3
:1053900004B008E0013C02F101083B4631461AF82E
:1053A0000400A8474246002CF4D10F9B13F0020FD3
:1053B00009D1104603B0BDE8F08F541C3B4631467E
:1053C0002020A8472246A2EB0B034B45F5D3F0E77C
:1053D0002DE9F04385B099460C9D0D9C9DF83880D1
:1053E000DDF840E0119F129E16F0020F21D17FB12F
:1053F00016F0010F0CD0B8F1000F02D116F00C0F0F
:1054000006D0013F04E04FF0300C05F804C0013431
:10541000744501D21F2CF6D916F0010F09D0BC42F9
:1054200007D21F2C05D84FF0300C05F804C001340A
:10543000F2E716F0100F14D016F4806F04D11CB1EF
:10544000744522D0BC4220D00F9B102B33D00F9B31
:10545000022B3DD01F2C0ED84FF0300C05F804C0A5
:1054600001341F2C07D8B8F1000F39D04FF02D0CA4
:1054700005F804C0013403960297019400954B4649
:10548000FFF767FF05B0BDE8F083B4F1010C1DD054
:105490000F9B102B0ED064460F9B102BD7D116F00C
:1054A000200FD4D01F2CD2D84FF0580C05F804C0D0
:1054B0000134CFE7023C16F0200FEDD11F2CEBD8C2
:1054C0004FF0780C05F804C00134C3E76446BBE72D
:1054D0001F2CD0D84FF0620C05F804C00134B9E796
:1054E00016F0040F05D04FF02B0C05F804C0013462
:1054F000C1E716F0080FBED04FF0200C05F804C02D
:105500000134B8E7F0B591B0169C189D1B9E0CB9FC
:1055100026F0100616F4806E1DD064B34FF0000E16
:1055200019E016F0200F24D04127BC445FFA8CFC10
:10553000ACF10A0C5FFA8CFC0EF101070EF1400E83
:10554000EE440EF820CCB4FBF5FCAC4214D31F2F74
:1055500012D8BE466446B4FBF5FC05FB1C4C5FFA52
:105560008CFCBCF1090FDCD80CF1300C5FFA8CFC20
:10557000E2E76127D9E7274606961A9C0594199C0D
:10558000049403959DF85C400294019708AC009444
:10559000FFF71EFF11B0F0BD2DE9F04F95B0099057
:1055A0000A910B929846DDF878B0DDF87C90229D48
:1055B000239F269E5BEA090201D126F0100616F40D
:1055C000806424D05BEA09022FD000241FE016F08B
:1055D000200F28D041231344DBB20A3BDBB204F195
:1055E000010A04F150020DEB020404F8203C2A46A3
:1055F0003B465846494610F0B3FAAB4579EB0709EC
:1056000015D3BAF11F0F12D85446834689462A464D
:105610003B465846494610F0A3FAD2B2092AD6D8DA
:105620003032D3B2DBE76123D5E74FF0000A0696AC
:10563000259B0593249B049303959DF8803002934A
:10564000CDF804A00CAB009343460B9A0A99099835
:10565000FFF7BEFE15B0BDE8F08F000000000000AF
:105660002DE9F04F93B004460D4617461E46DDE97E
:105670001CAB52465B4650465946FEF783FD002858
:1056800040F0F3804FF0FF32AD4B50465946FEF7E5
:10569000C7FD002840F0E9804FF0FF326FF480131F
:1056A00050465946FEF780FD002840F0DE8000227B
:1056B000002350465946FEF777FD002840F0E6806B
:1056C000CDE906AB209B13F480630F9301D1062331
:1056D0001E93DDE9062310461946CDE90A01079B12
:1056E00052EA030100F0DC80C3F30A50C3F3130352
:1056F000904643F07F5949F44019A0F2FF30FEF77D
:10570000F9FC7DA3D3E90023FEF726FC7CA3D3E9B3
:105710000023FEF7F9FBCDE908010022894B404642
:105720004946FEF705FC78A3D3E90023FEF714FCF5
:1057300002460B46DDE90801FEF7E6FBFEF7FEFC3C
:105740000890FEF7D7FC8046894671A3D3E9002371
:10575000FEF702FC00227C4BFEF7D6FBFEF7EEFCC8
:105760000A906DA3D3E9002340464946FEF7F4FBB7
:10577000804689460A98FEF7BDFC69A3D3E9002359
:10578000FEF7EAFB02460B4640464946FEF7D0FBD1
:105790008046894602460B46FEF7DEFBCDE90C014A
:1057A0000A9B03F2FF3300210022CDE90A121B05F8
:1057B0000B9300230A9342464B4640464946FEF768
:1057C000A3FBCDE9100142464B4600204FF080413B
:1057D000FEF7AEFB8046894600225C4BDDE90C01FA
:1057E000FEF7E0FB00225A4BFEF78EFB02460B460B
:1057F000DDE90C01FEF7D6FB0022564BFEF784FBD9
:1058000002460B46DDE90C01FEF7CCFB02460B46D7
:1058100040464946FEF778FB02460B46DDE910019B
:10582000FEF7C0FB00224C4BFEF76EFBDDE90A23BE
:10583000FEF792FB80468946CDE90A89DDE9062319
:10584000FEF7EEFC50B1089B013B08930022404B51
:1058500040464946FEF7A6FBCDE90A01089B6333A3
:10586000C62B46D84FF004081EE0209B04931F9BD4
:1058700003931E9B0293CDE900AB33463A4629467B
:10588000204600F0FDF813B0BDE8F08F9FED267BB9
:105890008DED067BCDF818A00BF10043079311E7BF
:1058A000002308934FF00408209B13F4006F5FD08F
:1058B000DDE90A1213460B4313D01DA3D3E90023DD
:1058C000DDE90601FEF798FC002800F0B4801AA379
:1058D000D3E90023DDE90601FEF766FC002800F0AD
:1058E000AA801E9A089B9A4238DDD31A013B1E9368
:1058F00036E04FF00508D7E7FB799F501344D33FBC
:10590000B3C8608B288AC63F61436F63A787D23FC5
:1059100071A379094F930A401655B5BBB16B02408C
:10592000EF39FAFE422EE63F0000000000000000C2
:105930002D431CEBE2361A3F0000000080842E410C
:10594000FFFFEF7F0000F83F0000E03F00002C4029
:1059500000002440000018400000F03F00231E9388
:10596000209B43F4806320934FF00008CDF8208003
:105970001F9B984569D2A3EB0809209B13F00203F3
:105980000C9304D0B8F1000F01D04FF00009089B30
:105990003BB1DDE90A23DDE90601FEF703FBCDE9B2
:1059A00006010022002350465946FEF7FDFB002861
:1059B0004ED1209B23F400630493CDF80C901E9BE2
:1059C00002939DED067B8DED007B33463A462946DA
:1059D000204600F055F8B8F1000F3FF454AF209B7B
:1059E00013F0200F3CD04FF0450C00F10109334675
:1059F000024629466046A047089981EAE172A2EB77
:105A0000E1720523059308F1FF3304930023039308
:105A10000A230293CB0F0193009233464A4629464C
:105A20002046FFF76FFD0C9B002B3FF42CAF024686
:105A3000DDF87C901EE01E9B002B99D00F9B002B65
:105A400096D01E9B013B1E9392E74FF0000994E70E
:105A5000DDE90601024601F10043CDE90623A8E78E
:105A60004FF0650CC1E702F10108334629462020BA
:105A7000A0474246D31B4B45F5D3104603E700BF72
:105A80002DE9F04F2DED028B95B007900A919246CB
:105A90009B46DDE92089229D42464B4640464946C9
:105AA000FEF770FB002835D14FF0FF326FF4801302
:105AB00040464946FEF778FB00283AD14FF0FF32C6
:105AC000B14B40464946FEF7ABFB002840D1AAA3A4
:105AD000D3E9002340464946FEF7A2FB00284DD1FA
