:020000041000EA
:1000000000B5324B212058609868022188439860DF
:10001000D860186158612E4B002199600221596106
:100020000121F02299502B49196001219960352056
:1000300000F044F80222904214D00621196600F024
:1000400034F8196E01211966002018661A6600F04E
:100050002CF8196E196E196E052000F02FF8012189
:100060000842F9D1002199601B49196000215960AB
:100070001A491B48016001219960EB211966A021F2
:10008000196600F012F800219960164914480160C1
:100090000121996001BC002800D000471248134993
:1000A000086003C880F30888084703B5996A0420EC
:1000B0000142FBD001200142F8D103BD02B5186610
:1000C0001866FFF7F2FF186E186E02BD00000240BE
:1000D000000000180000070000035F00212200005C
:1000E000F4000018222000A00001001008ED00E03C
:1000F00000000000000000000000000074B24E7A12
:1001000000200420F7010010C3010010C5010010F9
:10011000C1010010C1010010C1010010C101001097
:10012000C1010010C1010010C1010010C701001081
:10013000C1010010C1010010C9010010CB01001065
:10014000CD010010CD010010CD010010CD01001037
:10015000CD010010CD010010CD010010CD01001027
:10016000CD010010CD010010CD010010CD01001017
:10017000CD010010CD010010CD010010CD01001007
:10018000CD010010CD010010CD010010CD010010F7
:10019000CD010010CD010010CD010010CD010010E7
:1001A000CD010010CD010010CD010010CD010010D7
:1001B000CD010010CD010010CD010010CD010010C7
:1001C00000BE00BE00BE00BE00BE00BEEFF3058054
:1001D000103800BEF2EB8871B00F0510D00F05107B
:1001E0003402001090A31AE700201F49086006C8D7
:1001F00081F3088810471D48006800282FD10DA4FE
:100200000ECC002902D000F012F8F9E71849194A7B
:10021000002000E001C19142FCD1174988471749ED
:1002200088471749884700BEFDE701C901C29A42C5
:10023000FBD37047D00F0510C0000020100F002026
:10024000201E05100000042000000420201E0510C0
:10025000001004200010042000000000704709482E
:1002600004F018FA0047000008ED00E0000000D09C
:10027000300F0020185E0020D533001095040010C8
:10028000913300105756000006005250ABB3605334
:100290003061011006005250861C030240610110BB
:1002A000060052505422A29D4C610110050052508C
:1002B000DE65F468201E0510F8B5C04610B5064C82
:1002C0002378002B07D1054B002B02D0044800E017
:1002D00000BF0123237010BDC010002000000000EB
:1002E000604A0110044B10B5002B03D003490448A9
:1002F00000E000BF10BDC04600000000C410002098
:10030000604A0110F8B5CE46474680B506000F009A
:1003100014F0A4FA8046380014F0A0FA814684460E
:10032000002828D080452CD300201AE094421ED10A
:100330000133634511D2C218B45CFA5C2100413923
:10034000C9B2192901D82034E4B21500413DEDB2FB
:10035000192DEBD82032D2B2E8E70123002B0BD1C4
:1003600001304B46C318434503D80023E1E700237F
:10037000F4E7002300E000231800C0BCB946B046F3
:10038000F8BD0023F8E70000F0B5A1B00E0014009E
:100390001F00002A1ED053891D1C7F2B00D97F25EA
:1003A000ADB22A006168684604F0D0FD00236A46B9
:1003B00053552E496846FFF7A5FF00280CD02C4B5B
:1003C00005221A702B4A3900300000F0B1FA2000E3
:1003D00008F04AF821B0F0BD27496846FFF792FFC0
:1003E000002803D0224B06221A70EBE72349684607
:1003F000FFF788FF002803D01D4B07221A70E1E7A2
:100400001F496846FFF77EFF002803D0184B0822DB
:100410001A70D7E71B496846FFF774FF002803D01E
:10042000134B01221A70CDE717496846FFF76AFFA0
:10043000002803D00E4B02221A70C3E71349684606
:10044000FFF760FF002803D0094B03221A70B9E7B9
:100450000F496846FFF756FF002803D0044B0422DB
:100460001A70AFE7024B00221A70ABE7604A011026
:10047000075E002089130000704A0110804A0110B5
:10048000904A0110A04A0110A84A0110684A0110C0
:10049000784A011010B504F0BDFEFA20C00002F049
:1004A00085F9324804F07AFE10F0D2F900284BD1D9
:1004B00010F09CF82E4C21002E4804F09FFE2E4B8D
:1004C0002E4A2F49200010F05BF9011E42D12D4821
:1004D00004F064FE2C4B186804300FF0DDF90100C5
:1004E0002A4804F08BFE00F071F800F093F82848D9
:1004F00004F054FE00F030FA00F006FB254804F04A
:100500004DFE0CF077FA244B1860002826D0234AC1
:1005100023490CF0CBF8011E24D1002221491E4BA7
:1005200018680CF045FA1D491F4804F067FE1F4982
:100530001F4804F063FE1F4804F030FE1E4B18787D
:10054000C0B200F05DFDF9E71C4804F027FE012071
:10055000404210BD1A4804F051FEF8E7194804F073
:100560001DFEF4E7184804F049FEF0E7B44A011014
:10057000EC4A0110F84A01103075000004004000F8
:10058000184B0110444B0110C0530020584B011070
:10059000604B0110804B0110CC5D002088130000DF
:1005A0007484011089030010D04B011089130000DE
:1005B000004C01102C4C0110075E0020D84A01109D
:1005C000244B01109C4B0110B84B011030B587B083
:1005D00001A90F480B00020013CA13C303CA03C3C7
:1005E00000240CE0A20001ABD558280000F0A8FEC2
:1005F0000123AB40D0221206536293610134042CD4
:10060000F0DDD0231B06802212025A6107B030BDF4
:100610005C4C0110D0231B06802252009A610132EB
:10062000FF329A618022D2009A61802212019A617F
:100630007047D0231B06802252005A610132FF32DC
:100640009A618022D2005A61802212019A61704719
:10065000D0231B06802252009A610132FF325A6178
:100660008022D2009A61802212015A617047D02301
:100670001B06802252009A610132FF325A618022A9
:10068000D2005A61802212019A617047D0231B0662
:10069000802252005A610132FF329A618022D200D8
:1006A0009A61802212015A617047D0231B06802272
:1006B00052009A610132FF329A618022D2005A615F
:1006C000802212019A617047D0231B0680225200BB
:1006D0005A610132FF329A618022D2009A618022EF
:1006E00012019A617047D0231B06802252009A6142
:1006F0000132FF329A618022D2009A618022120177
:100700005A617047D0231B06802252009A61013241
:10071000FF325A618022D2009A61802212019A61CE
:10072000704700000B0703D51C2802D0022805D013
:100730007047054A136801331360F9E7034A1368E9
:1007400001331360F4E7C046C05D0020C45D0020A3
:10075000F0B5D6464F464646C0B596B0634B1A68CC
:10076000914600221A60624B19688A461A60484610
:1007700004F0ACFA04000D0000225E4B04F023FAF2
:1007800002000B0004F01AFA00225B4B04F035FA69
:100790000E900F91594A5A4B2000290004F02DFA6F
:1007A00004000D0002000B0004F008FA10901191F3
:1007B000544E326873682000290004F0FFF90300EA
:1007C0000C001493159433607460504604F07EFA64
:1007D00004000D000022474B04F0F5F902000B0065
:1007E00004F0ECF90022444B04F007FA1290139144
:1007F000424A434B2000290004F0FFF904000D0099
:1008000002000B0004F0DAF906000F003E498846AA
:1008100022002B000868496804F0D0F944462060A3
:100820006160149B159C02930394109B119C009390
:1008300001940E9A0F9B4946344804F0DFFC43466E
:100840005C681B680293039400960197129A139BAD
:1008500051462F4804F0D2FC2E4804F09FFC2E4B4A
:100860001B78002B06D1012016B0E0BCBA46B14679
:10087000A846F0BD8021244B5C681B680C930D9446
:100880000A960B97129B139C089309945346069360
:100890001C4B5C681B6804930594109B119C02938D
:1008A00003940E9B0F9C009301944B461B4A4900F6
:1008B0001B4803F0BDFE0500A02281B29200362045
:1008C00007F01EFE041ECED02A001549406804F031
:1008D0003DFB144B1B88144A1068144A21000CF08D
:1008E0000AF8200007F0C0FDBDE7C046C05D00204B
:1008F000C45D00200000544000004E40333333B349
:100900007493E73F8810002090100020704C011075
:10091000B44C0110F84C0110135E0020FC4C011087
:10092000BC5C0020FA5D0020BC5D0020B85C0020AB
:10093000054B18600968054B1960054B1A80054B7B
:1009400001221A707047C046BC5D0020B85C0020D0
:10095000FA5D0020135E002010B584B01C2000F06A
:10096000EFFCD024240680235B05A3620022012132
:100970001C2000F0B9FB022000F0E2FC0423A3627B
:1009800000220121022000F0AFFB02221C211248AC
:1009900004F034FC114B012208211C2000F074FCEF
:1009A00001220821022000F05FFC0D4804F0F6FB54
:1009B00001F0BEFC0B4B0293002301930A4B009302
:1009C0000A4A002301F0FCFDFA214900084804F01E
:1009D00015FC04B010BDC046844D01102507001061
:1009E000B04D0110A81000205107001020A10700F1
:1009F000D04D011030B501250DE05A1C92008150F8
:100A0000013B002B03DB9A001158A142F5D80133BA
:100A10009B00C4500135042D03DCAB00C4586B1E91
:100A2000EFE7806830BD0000F8B5D02424068025AB
:100A30006D0265610A20002101F08CFEA56101F0C4
:100A400069FF04000D1E16DBD0231B065B685B0CE0
:100A5000012216001E401A4219D101F05BFF02006C
:100A60000B1E0EDB121BAB41002B3CDCECD1224BEE
:100A70009A42E9D937E0214B214A3F21214802F02F
:100A80008BFC1E4B1E4A3F211E4802F085FC01F0E4
:100A900041FF06000F1E15DBD0231B065B689B037E
:100AA0001CD501F037FF002912DB0C0003009B1B53
:100AB000BC411A00002C03DCEED10F4B9A42EBD95B
:100AC000002610E00D4B0E4A3F210E4802F064FC58
:100AD0000A4B0B4A3F210B4802F05EFC01F01AFF63
:100AE000002902DB861B3000F8BD044B044A3F217D
:100AF000044802F051FCC04690650000004E011011
:100B0000244F01101C4E011010B5102000F018FCED
:100B1000D024240680235B026362A361112000F0CD
:100B20000FFC80239B02A36210BD10B586B0002489
:100B300006E0A20001ABD050082001F037FE0134DE
:100B4000042C07DCFFF770FF0028F2D03A2103F0F5
:100B5000F5FDEEE701A8FFF74DFF002801D006B034
:100B600010BDFFF761FF0028F9D03A2103F0E6FD40
:100B7000F5E7000070B5CA4B5B78062B00D907E299
:100B80009B00C84AD3589F4601F0C4FE04000D1EC6
:100B900026DBC34B9A68DB68121BAB410120404245
:100BA000C117801859410B4300D4F6E1BC4B9B7828
:100BB000002B2BD1FFF75BFD01F0ACFE02000B1EFA
:100BC00014DBB948002112184B41002B14DB002B19
:100BD00016DBB3498A60CB60B14B02225A70DCE16C
:100BE000B24BB34A3F21B34802F0D6FBAF4BB04AF9
:100BF0003F21B04802F0D0FB01225242AE4BE6E763
:100C0000AA4BAB4A3F21AB4802F0C6FBFFF73EFDC3
:100C100001F080FE02000B1E0BDBA8480021121819
:100C20004B41002B0BDB002B0DDB9D498A60CB6019
:100C3000D2E79E4B9E4A3F219E4802F0ADFB012227
:100C400052429D4BEFE7994B994A3F21994802F058
:100C5000A3FB01F05FFE04000D1E21DB904B9A68A0
:100C6000DB68121BAB4101204042C117801859417B
:100C70000B4300D491E1FFF7DCFC01F04BFE0200D6
:100C80000B1E13DB8E48002112184B41002B13DB87
:100C9000002B15DB82498A60CB6003234B707CE11B
:100CA000824B834A3F21834802F076FB7F4B804A88
:100CB0003F21804802F070FB012252427E4BE7E761
:100CC0007A4B7B4A3F217B4802F066FB01F022FE13
:100CD00004000D1E26DB724B9A68DB68121BAB41C9
:100CE00001204042C117801859410B4300D454E100
:100CF0006B4B9B78002B2BD1FFF7C8FC01F00AFE51
:100D000002000B1E14DB6F48002112184B41002B10
:100D100014DB002B16DB62498A60CB60604B042237
:100D20005A703AE1614B624A3F21624802F034FB5B
:100D30005E4B5F4A3F215F4802F02EFB0122524288
:100D40005D4BE6E7594B5A4A3F215A4802F024FBD3
:100D5000FFF78DFC01F0DEFD02000B1E0BDB5A4895
:100D6000002112184B41002B0BDB002B0DDB4C49F3
:100D70008A60CB60D2E74D4B4D4A3F214D4802F08F
:100D80000BFB012252424C4BEFE7484B484A3F21B4
:100D9000484802F001FB01F0BDFD04000D1E21DBFF
:100DA0003F4B9A68DB68121BAB4101204042C117E0
:100DB000801859410B4300D4EFE0FFF72BFC01F002
:100DC000A9FD02000B1E13DB4048002112184B4105
:100DD000002B13DB002B15DB31498A60CB60052328
:100DE0004B70DAE0314B324A3F21324802F0D4FAFC
:100DF0002E4B2F4A3F212F4802F0CEFA01225242B9
:100E00002D4BE7E7294B2A4A3F212A4802F0C4FA32
:100E100001F080FD04000D1E5EDB214B9A68DB684B
:100E2000121BAB4101204042C117801859410B43AE
:100E300000D4B2E0FFF779FE0400194B9B78002B39
:100E400050D12349164BDA782300224804F0D6F912
:100E50001E2C59D8124AD3780133DBB2D370132B2E
:100E600006D91300927851424A419A700022DA70F2
:100E70000B4B01225A70FFF7CDFB01F04BFD020036
:100E80000B1E31DBFA208000002112184B41002B91
:100E900030DB002B32DB02498A60CB607DE0C0464C
:100EA000300F0020B44E011010090500004E011053
:100EB000244F01101C4E0110FFFFFF7F70640800DB
:100EC00020A10700A0D90800604F0500C0D4010090
:100ED000884E0110904E0110304B314A3F2131486D
:100EE00002F05AFA3049ADE72C4B2D4A3F212D48EC
:100EF00002F052FA012252422C4BCAE7274B284AF1
:100F00003F21284802F048FA294B06225A70FFF781
:100F100090FB01F0FFFC02000B1E0BDB25480021BB
:100F200012184B41002B0BDB002B0DDB20498A6094
:100F3000CB6032E0194B1A4A3F211A4802F02CFAD2
:100F400001225242194BEFE7144B154A3F21154835
:100F500002F022FA01F0DEFC04000D1E12DB144B3D
:100F60009A68DB68121BAB4101204042C117801810
:100F700059410B4311D5FFF74DFB0D4B00221A7061
:100F80005A700AE0054B064A3F21064802F004FA6F
:100F9000FFF740FB064B00221A7070BD004E011097
:100FA000244F01101C4E0110804E0110FFFFFF7FE7
:100FB000300F002010EB090010B508281BD8800066
:100FC0000E4B1B589F46FFF734FB10BDFFF740FB4D
:100FD000FBE7FFF74CFBF8E7FFF758FBF5E7FFF7F8
:100FE00064FBF2E7FFF770FBEFE7FFF77CFBECE752
:100FF000FFF788FBE9E7FFF70DFBE6E7D04E0110AE
:1010000010B50400FFF791FD254B1B78002B43D151
:10101000012C07D0052C0ED0062C01D0002302E0B5
:10102000013300E00123002B01D01E2805D9200048
:10103000FFF7C2FF10BD0123F5E70100194804F0D6
:10104000DDF8174B01221A705A7000229A70DA707C
:10105000FFF7E0FA01F05EFC02000B1E0CDBFA2049
:101060008000002112184B41002B0BDB002B0DDB05
:101070000B498A60CB60DDE70B4B0C4A3F210C48E3
:1010800002F08AF9012252420A4BEFE7064B074A67
:101090003F21074802F080F9FFF76CFDCAE7C04620
:1010A000300F0020F44E0110004E0110244F0110AB
:1010B0001C4E0110FFFFFF7F10B58300084A9446C5
:1010C00063441C6840226240C024144080225201C4
:1010D00013431C60C000034B9C466044416010BD3C
:1010E00004C001400040014080000B4B9C4660441E
:1010F00000290DD00823002A0CD0042213430268D3
:1011000053400C2213408022520110430360704769
:101110000023F0E70022F1E704C00140002909D0D4
:101120008000094B9C46604480239B0118430223A6
:10113000036070478000044B9C466044C0239B01C1
:10114000184302230360F4E704C0014070B50400B3
:10115000D0231B061D68AA000C4BD358002B0AD0C5
:10116000002803D0AD00094BEC5070BD08490D209C
:1011700000F088FBF6E70028F7D0AD00034BE850FD
:10118000002203490D2000F063FAEEE75417002017
:10119000A912001070B5D0231B061B689D00094CD6
:1011A0002C59204207D19B002043064C18510D209A
:1011B00000F04EFA70BD044B044ACC21044802F002
:1011C000EBF8C046445A00203C4F01101450011067
:1011D000684F011010B50400D0231B061B689B004C
:1011E0000A4A9B5818420BD00D2000F04BFBD0232D
:1011F0001B061B6805499B005A58A2435A5010BD54
:10120000034B044AD621044802F0C6F8445A002091
:10121000C44F0110F04F0110684F01100723034025
:101220009B00C00899403C308000014BC150704782
:1012300000400140F8B507000C0016001D00FFF744
:10124000EDFFFB089B00ED1807203840800084402C
:10125000002E04D080239B011D432C60F8BDC023C9
:101260009B011D432C60F9E710B5D0231B061B68BA
:10127000002B03D0024BFFF7DDFF10BD014BFAE757
:10128000304101400041014070B514001D00FFF7DE
:10129000EBFF2800FFF75AFF002C00D170BD0121A1
:1012A0000D2000F081F9F9E7F0B5D6464F464646E5
:1012B000C0B5D0231B061F68BA001D4BD3589846F3
:1012C000002F03D01B4B9946002623E01A4B99466A
:1012D000FAE724090135002C1BD033000833AB4258
:1012E00017D90F231A00224092462342F1D0BB00A7
:1012F000124A9A580123AB401342EAD151462800C2
:10130000FFF78CFF4346002BE3D051462800C0472F
:10131000DFE708361D2E06D8F30808339B004A463F
:101320009C583500D7E7E0BCBA46B146A846F0BDA8
:10133000541700203041014000410140445A002030
:1013400010B501238340D0221206936293610521D8
:10135000FFF7B2FE10BD0000034B1B6802201840CF
:10136000431E9841C0B2704700C00640EFF31080A2
:1013700072B6034B1B68002BFBD0BFF35F8F704727
:101380002C0100D0BFF35F8F024B00221A6080F364
:10139000108870472C0100D0F8B506000C0015002D
:1013A000FFF7E4FFE308F718F15C0722224001236E
:1013B00093400B4205D1DBB20B433B70FFF7E2FFDA
:1013C000F8BD2100280002F081F8F0B583B00600D6
:1013D000019114001F00FFF7C9FF00E00134BC4277
:1013E0000CD8E308F518F35C0721214001228A405C
:1013F0001A42F3D1D2B21A432A7001E001246442A6
:10140000FFF7C0FF002C02DB200003B0F0BD019B02
:10141000002BF9D0089802F059F8000070B50500CB
:101420000C00FFF7A3FFE308EE18EA5C07210C406D
:101430000123A340134204D09A433270FFF7A2FF66
:1014400070BD034B034A2C31034801F0A5FFC04691
:1014500048500110C850011068500110002307E0E7
:10146000054A9A189200BFF35F8F00211160013383
:101470001F2BF5D97047C04640000034054A10784C
:10148000431CDBB21370172B02D9130010221A7001
:101490007047C046B80D002000B583B00100044B72
:1014A00000931F2318220348FFF78FFF03B000BDEE
:1014B000D850011064170020074B9B681030800043
:1014C0001950BFF35F8FBFF35F8F044B002119608A
:1014D00082F310887047C04600ED00E0240100D080
:1014E0001F23181A7047000010B5091A081F0A4B6D
:1014F0009C466144094A914208D8C30706D440106B
:101500004005400D064B184380B210BD054B064AFE
:10151000A321064801F040FFFC070000FE0F000079
:1015200000E0FFFFF450011080530110245101101E
:1015300010B5091A04394C08090B08D14905490DA1
:10154000064A11430180064B2343438010BD054BDF
:10155000054AAB21054801F01FFFC04600F0FFFF20
:1015600000F8FFFF80510110545301102451011065
:1015700001238340034A10681840431E9841C0B2BB
:101580007047C04600E100E0002904D0034B18601A
:10159000034B18607047034B1860FBE780E200E0E4
:1015A00000E100E080E100E010B501238340180075
:1015B000FFF7EAFF10BD000001238340014A1360DA
:1015C0007047C04600E200E0024B9B68103080008C
:1015D000C058704700ED00E010B5FFF7F5FF002898
:1015E00005D0054BC01A2F2803D8012010BD0020BC
:1015F000FCE70020FAE7C046BC0D002070B50400EF
:101600000D00EFF3108672B60C4B1B68002BFBD05D
:10161000BFF35F8F2000FFF7D7FF094B984201D03F
:10162000A84205D1320029002000FFF745FF70BD18
:10163000044B054A8621054801F0AEFE240100D086
:10164000CD01001090510110B4530110245101102C
:10165000F0B5DE4657464E464546E0B589B0814670
:1016600001911500EFF3108A72B6744B1B68002BC2
:10167000FBD0BFF35F8F724B0027DF57002F40DB9B
:101680007C00E419A4006F4824180622A2566C4B73
:101690001A706D4B9A684B4610339B00D35898468E
:1016A0001E001B1A2F2B38D9684B98452FD105AE39
:1016B000674B33807B009B46D8198000614B98466E
:1016C000404402306349FFF70FFF7080624BB380E4
:1016D000FF23B371F571019B07935F44BF0047443B
:1016E0000ECE0EC701231C43A04652464146484633
:1016F000FFF7E2FE09B0F0BCBB46B246A946A046E1
:10170000F0BD564B564AD721564801F045FE564B80
:10171000534ADE21534801F03FFEC04340440C21B0
:1017200003F00CF8002912D101239E43B346330085
:101730000026DA79AA4211D90621595600290CDB74
:101740004A00521892001E003E4B9B18F1E7474B8F
:10175000434AEA21434801F01FFE1E00002E3AD002
:1017600005AB434A1A80813A5A800623F356029306
:10177000002B17DA3F4805AB9B469880029A9A7176
:10178000DD71019A0792301D2100FFF7ADFEB08098
:10179000B7717B00DB199B002A4FFF185B4607CB14
:1017A00007C7A2E77800C0198000264BC018043094
:1017B000321DB388D90A1C2907D15B05591502319E
:1017C00049005118FFF790FED5E72B4B2B4AB1216A
:1017D000244801F0E1FD05AE1D4B33807B000293F0
:1017E000D8198000174A9046020042440392901C88
:1017F0001849FFF779FE7080039A101D5946FFF7CC
:1018000073FEB0801E4B5A464146521A5241534312
:101810001B0DB371F571019A0792029B9C466744B8
:10182000BF0047440ECE0EC7114B5A461380813B72
:10183000538001231C43A04657E7C046240100D033
:10184000085E0020BC0D002000ED00E0CD0100107E
:1018500000A1FFFFEC0D002001BDFFFFC8510110EA
:101860009C53011024510110F05101101852011025
:101870000148000001BD00008C5201108C53011082
:10188000AAAA0000F0B5CE46474680B583B0060050
:101890000D00EFF3108872B6564B1B68002BFBD07F
:1018A000BFF35F8F544B9A6834001034A300D758AD
:1018B000524B9F4207D0AF4200D198E00197504B66
:1018C000FB1A2F2B09D9424639003000FFF7F4FDEF
:1018D00003B0C0BCB946B046F0BD3000FFF748FECB
:1018E000814600213000FFF75FFEBFF35F8FEFF30B
:1018F0000581002901D08C4211D10123019C9C4318
:101900000022A368AB4212D00622A256002A0DDBA9
:1019100053009B189B002200394CE418F1E7362154
:10192000384B394AFF31394801F036FD2200AB42CD
:1019300056D106256557002D38DB6B005B199A00E0
:101940002F4B9B189A68A260DA79E27106229A56A8
:10195000A2719B795BB2002B0FDA2D48A0806B003F
:101960005B199B00264AD3182A4A11789971157081
:1019700049463000FFF718FEA5E7201D6B005B19F4
:101980009B001F4A9B181A1D9B88D90A1C2907D146
:101990005B055B15023359005118FFF7A5FDDDE724
:1019A0001D4B1E4AB121194801F0F6FC002912D145
:1019B000002A0ED0FF239371194B9380154A137898
:1019C000A371184B0E49641A644163431B0D1370D5
:1019D000CEE70A4FF2E7201D1349FFF7A9FDC7E73D
:1019E0006A21124B084AFF31084801F0D5FC034F29
:1019F00069E7C046240100D000ED00E0CD010010F1
:101A0000BC0D0020A45201106C5301102451011090
:101A100001BD0000085E00208C5201108C530110A3
:101A200001BDFFFFAAAA0000F60D0020D852011048
:101A300010B5032304009C43064A9446644422687C
:101A40001840C000FC3383409A43130081400B438D
:101A5000236010BD00E400E070B5012101432E4B6E
:101A6000CB1A2F2B28D8EFF30583002B2BD0EFF3C5
:101A7000108C72B6294A1268002AFBD0BFF35F8F20
:101A8000274A0400244D641B64416243120D54B282
:101A9000244A92689B00D2588A421BD00022032A13
:101AA00032D853009B189B001B49CB189B795BB223
:101AB000A3421FD00132F2E7C7211B4B1B4A49004A
:101AC0001B4801F069FC92211A4B184AFF31184853
:101AD00001F062FC134A92681749D150174B1A78EB
:101AE00082711C70BFF35F8F0C4B00221A608CF365
:101AF000108870BD0D005300991889006918FF26E1
:101B00008E710F4A8A80E9E7D1210E4B074A4900BE
:101B1000074801F041FCC046BC0D0020240100D064
:101B2000AAAA000000ED00E0E052011038530110B5
:101B30002451011008530110CD010010085E00204F
:101B400001BDFFFF145301100022044B02E00449C1
:101B500002C30132072AFAD97047C04600E400E008
:101B60008080808010B5FFF7BBFC01000148FFF7C3
:101B700055FC10BD155E002000B583B00100064B7A
:101B80000093052300220548FFF71FFC002801DB16
:101B90001F23181A03B000BD1C530110155E00204E
:101BA00070B504000E001500FFF768FC010020006E
:101BB00000F006F8A680E580BFF35F8F70BD0000DF
:101BC000024B9C466144890001607047400000342C
:101BD00010B50400FFF752FC01002000FFF7F0FFF2
:101BE000FF232371BFF35F8F10BD10B50400FFF713
:101BF00045FC01002000FFF7E3FFFF2323710023D2
:101C00006371BFF35F8F10BD034B9C466144890035
:101C10000160BFF35F8F70474000003410B50400CF
:101C20000120FFF739FC01002000FFF7EDFF10BD98
:101C300010B50C00CB68834207D108000B699847A8
:101C4000002809D02068616810BD5221054B064A62
:101C5000FF31064801F0A0FB0023E36000200021D3
:101C6000F2E7C04608550110A45701101C55011099
:101C700070B505000C00080000F028FF094920009D
:101C800000F068FEFFF7FAFB074B9C4660448000BB
:101C900068602C75D0231B061B786B75A400034B62
:101CA000E55070BDB51F001040000034D85300202F
:101CB0000A4B1A68EFF3108172B61368002BFCD040
:101CC000BFF35F8F054B1B68BFF35F8F00221A6065
:101CD00081F3108840BF002000217047685C00201D
:101CE00010B5002922D003681B7B99421ED8174BE0
:101CF0009C466144090183689C4661440C684968BC
:101D0000002A19D003681B7B9A4215D883680F48B4
:101D10008446624412019A18106853680200012038
:101D20008B4201D80ED00020C0B210BD084B094A2A
:101D30003C21094801F030FB054B064A3C2106488E
:101D400001F02AFBA242EFD8EDE7C046FFFFFF0FEC
:101D5000705501100C5801101C55011010B50029C8
:101D60001ED0037B99421BD84B005B18033B0468D1
:101D7000A4466344002919D0002A1DD0914221D0E5
:101D8000002A25D0047BA24222D804685000801883
:101D9000033820188170197800291FD11A7010BDDE
:101DA000104B114A6821114801F0F6FA104B114A04
:101DB0006F310E4801F0F0FA0F4B0E4A70210B48BC
:101DC00001F0EAFA0D4B0B4A7121084801F0E4FAE0
:101DD000044B054A6821054801F0DEFA41701A708B
:101DE000DDE7C0469455011078580110B055011038
:101DF0001856011054580110245601103056011085
:101E000070B506000D001400002914D0002A14D06B
:101E1000806873689847002806D0220029003000A7
:101E2000FFF79CFF280007E02A0021003000FFF7A1
:101E300095FF200000E0100070BD0800FCE70000E6
:101E4000F0B583B00500009201930AAB1C780BAB90
:101E50001F78002C26D003685A7B944207D10123B7
:101E6000002B19D1002C3BD1200003B0F0BD002C79
:101E70000CD01A7B944209D81A6863001B19033BE3
:101E8000D3189B78002BEBD00123E9E73E4B3F4A68
:101E900068213F4801F080FA3E4B3F4A67213F48A6
:101EA00001F07AFA03689C7B002CDBD012D01A7BFD
:101EB00094420FD862001219033A19688C466244A2
:101EC00051789973002900D1D9730023937053700E
:101ED0001370C7E72C4B2D4A68212D4801F05CFA9E
:101EE000002C3AD02B681B7B9C4236D82C4BE31835
:101EF0001B01AA6894466344009A1A60019A5A60CA
:101F0000089A9A60099ADA602E68002C2BD030D09B
:101F1000337B9C422DD863001B19033B32689446E7
:101F2000634400229A705A701A70717B220030004C
:101F3000FFF766FF7073844200D095E7287D009A12
:101F4000019B00F04FFD061E01D0002F17D00C9B07
:101F5000002B00D188E71E7086E7124B124A3C2105
:101F60000E4801F019FA114B114AA521084801F059
:101F700013FA054B054A6821054801F00DFA286857
:101F8000210000F067FFE2E7945501107858011036
:101F9000B055011048560110845801101C5501100D
:101FA000FFFFFF0F705501100C580110185501105C
:101FB00068580110F0B5DE4657464E464546E0B536
:101FC0008BB00990002308938200B54BD658370098
:101FD00052E0B44BB44A3F21B44801F0DDF9B44BB0
:101FE000B44A3C21B44801F0D7F9002901D10028B6
:101FF00069D10021404600F023FFA04219D12A6890
:102000006B6806920793AB689846EB689A4643461E
:10201000002B14D0002C18D03B681B7B9C4214D89A
:10202000631EFA68D35C08931B02184338610020D2
:1020300015E0A24BA24A8E219F4801F0ADF9A14BB9
:102040009F4A92219C4801F0A7F9994B9E4A412151
:10205000994801F0A1F900239A46984600207B6830
:10206000BFF35F8F00221A6086F310884346002B6F
:1020700032D1002800D10CE100F04CFC02000B1E14
:10208000A7DB00200021069007917868EFF3108607
:1020900072B601680029FCD0BFF35F8F39688846AB
:1020A0004C7B002CD7D09AD0097B8C4297D887499B
:1020B00065182D01B9688C46654428686968801ADE
:1020C0009941002991DD2A686B68099800F08AFC23
:1020D00000239A469846C2E7089B1B022343994671
:1020E00051461800C04705000E007A68EFF3108BC8
:1020F00072B6136859424B41D9B2002BF9D1BFF3E4
:102100005F8F002E1EDB002E46DD3B69002B47D083
:102110004B456DD100F0FEFB02000B1E6EDB521929
:102120007341002B70DB002B72DB00210491013125
:102130000391029451460191414600913800FFF706
:102140007FFE4CE03B69002BDDD04B4514D1069A55
:10215000079B521BB341002B14DB002B16DB002125
:10216000049101310391029451460191414600913D
:102170003800FFF765FE32E0554B514AA1214E4829
:1021800001F00AF901225242524BE6E7454B464A1A
:102190003F21464801F000F9002E01D1002DB4D1B5
:1021A0003B68002C50D05A7B944237D10121002942
:1021B0004AD1DA7B002A4DD19A7B002A03D1DA7BFF
:1021C000002A5AD19C73DC73002C5CD03B681B7BCB
:1021D0009C4258D8FA68013C135D01331355002323
:1021E0003B617A68BFF35F8F13608BF3108843E71E
:1021F000374B334AA421304801F0CEF8294B2A4A04
:102200003F212A4801F0C8F801225242314B8AE7A7
:10221000244B254A3F21254801F0BEF8002C0DD063
:102220001A7B94420AD862001219033A186884464D
:1022300062449278002ABAD00121B8E7264B274A97
:102240006821274801F0A8F8264B274AF6212448A0
:1022500001F0A2F8002A0AD0197B8A4207D851005F
:102260008A18033A19688C4662445470A4E71A4BE2
:102270001A4A68211A4801F08FF81C4B1A4AFB21B0
:10228000174801F089F80A4B0F4A41210A4801F02A
:1022900083F80BB0F0BCBB46B246A946A046F0BDE1
:1022A000D8530020004E0110D85701101C4E0110C9
:1022B000705501100C5801101C550110705601107A
:1022C000F05701108856011030580110FFFFFF0F22
:1022D00094560110FFFFFF7F9455011078580110AC
:1022E000B0550110D056011044580110F456011099
:1022F00010B50C4B5B68002B04D00A210A48FFF78D
:102300005FFC10BD074C2300084A1021206800F034
:10231000A7FC032000F0F2FA03212000FFF7A8FC3D
:10232000EBE7C046040E0020685C0020E11C0010B2
:1023300010B5064B5B68002B01D0044810BD044B60
:10234000044A5E21044801F027F8C046040E00202C
:1023500008570110185801101C550110F0B5DE4641
:1023600057464E464546E0B58BB0804616001F00E6
:10237000149B9A46159B994616AB1B789B461F23C8
:1023800002AA9446634400221A702BE0002809D068
:1023900042461268127B904204D8421E4146C968E8
:1023A0008A5C41E0404B414A4121414800F0F4FF42
:1023B00007984CE0361BAF41002F07DB002F11DAE6
:1023C0003C4B3D4A3F213D4800F0E6FF0126764266
:1023D0003B4FF3E7374B384A3F21384800F0DCFFEA
:1023E000002F4FDB43465A68EFF3108472B6136830
:1023F00059424B41D9B20791002BF8D1BFF35F8FFF
:102400001F3302AA94466344049300230393029368
:102410004B4601935346009332003B004046FFF782
:102420000FFD031EB2D1020041464968BFF35F8F22
:1024300000250D6084F31088002B29D01F2302A9EA
:102440008C4663441B78002BB2D112021043002B40
:1024500020D05B46002B1DD04946D04704000D001C
:1024600003000B431DD00029A4DB00F053FA060043
:102470000F1EAFDB36196F41002FB1DA012676420D
:102480000F4FADE70B4B0C4A3F210C4800F084FF87
:10249000012040420BB0F0BCBB46B246A946A04664
:1024A000F0BD0798F6E7C04670550110305801108E
:1024B0001C550110004E0110D85701101C4E011080
:1024C000FFFFFF7FF8B50400002900D162E04268F9
:1024D000EFF3108572B6136858424341D8B2002B0F
:1024E000F9D1BFF35F8FCBB22268567BB3421BD1C9
:1024F0000120002848D0206988422BD0090AC9B29F
:10250000002B2ED02068007B83422AD8581EE66814
:10251000305C88422BD000206368BFF35F8F0022BD
:102520001A6085F31088F8BD002B0DD0167BB342DE
:102530000AD85E00F618033E1768BC466644B678B3
:10254000002ED6D00120D4E7134B144A682114483A
:1025500000F022FF2C21134B134AFF31134800F0E7
:102560001BFF134B134A4121104800F015FF1900BF
:10257000100000F06FFC0028CED199210E4B0A4AC2
:1025800049000A4800F008FF23698B42C4D10023A8
:102590002361C1E70020C6E7945501107858011067
:1025A000B05501102C570110C05701101C550110D7
:1025B000705501103058011050570110407D704780
:1025C000F0B585B00700100019000C9E13000B43F6
:1025D00001D101200021B7600A9B33613060716036
:1025E0000B9B7361CA1713005040040051400D004B
:1025F000A41A9D4100F08EF902000B1E12DB121985
:102600006B41002B14DB002B16DB0121029101969C
:102610000C4900913800FFF7A1FEF060C043C00FE5
:1026200005B0F0BD084B094A3F21094800F0B4FE4F
:1026300001225242074BE6E7034B044A3F2104487C
:1026400000F0AAFE311C0010004E0110D8570110F6
:102650001C4E0110FFFFFF7FF0B587B006000F0092
:10266000EFF30583002B1FD106246442E517A4195C
:102670007D418D4202D803D1844201D90024002536
:10268000002D14DB0494059500F044F902000B1EA4
:1026900013DBA41A9D41002D17DC14D03000390043
:1026A00000F044F907B0F0BD234800F00FFF234BC2
:1026B000234A3F21234800F06FFE204B204A3F2150
:1026C000204800F069FE002CE8D0FFF731FE00231F
:1026D000029301931C4B0093049A059BFFF73EFE67
:1026E000002818DADAE7002300E00023002BD5D118
:1026F000164B1A68EFF3108172B61368002BFCD0EA
:10270000BFF35F8F114B1B68BFF35F8F00221A600E
:1027100081F3108820BF0499059A0D4B5B6A9A4299
:10272000E3D80B48806A884203D29A42DBD0012367
:10273000DCE70123DAE7C04654570110004E0110D0
:10274000D85701101C4E0110B11C0010685C00200D
:102750000040054070B504000D0000F0DBF80200F9
:102760000B1E0ADB200029008018594100290ADBD2
:1027700000290CDBFFF770FF70BD084B084A3F21B2
:10278000084800F009FE012040420749F0E7034BEA
:10279000034A3F21034800F0FFFDC046004E0110F0
:1027A000D85701101C4E0110FFFFFF7F10B5FA2211
:1027B00092000023002102F057FBFFF7CBFF10BD72
:1027C00070B584B005000C00EFF30583002B1ED11B
:1027D000FFF7AEFD002302930193224B00932A00E2
:1027E0002300FFF7BBFD061E23DD20BFFFF7A0FD82
:1027F0003100FFF767FE1C4B5B6A9C422DD81A4ADA
:10280000926AAA422CD29C4225D0012026E0164B87
:102810005B6A994209D8144A926A824207D2994265
:1028200001D001201AE0002018E0002016E001206D
:1028300014E00D4B5B6A9C4209D80B4A926AAA428B
:1028400007D29C4201D0012008E0002006E00020D1
:1028500004E0012002E0002000E0002004B070BD90
:102860000120FBE7B11C00100040054070B5EFF3FC
:1028700005801038EFF3108C72B61A4B1B68002BD2
:10288000FBD0BFF35F8F01221300834016494B63D7
:1028900016490B60164909780C00C440224214D036
:1028A000114A546A8200134D5259944206D3820051
:1028B000114C125999430E4B197007E00A4A031D37
:1028C0009B0099589950002200E00022BFF35F8FCF
:1028D000044B002119608CF31088002A00D0904727
:1028E00070BDC046280100D0004005403C70054046
:1028F000145E0020845C00202C15002010B501001F
:10290000024A0348FEF748FD10BDC046A858011012
:10291000015E0020044B5B6A034A906A1900536A07
:102920009942F9D17047C04600400540084B5B6AA8
:1029300001E0074B5B6A8B42FBD301E0044B5B6A0F
:102940008B4203D1024B9B6A8342F7D37047C04648
:102950000040054070B504000D00EFF3108672B61C
:102960001B4B1B68002BFBD0BFF35F8F002D1CD0CF
:102970002000FEF729FE174B83420BD019002000E0
:10298000FEF73CFE01212000FEF70EFE0123A340CE
:10299000114A1360A400114BE550BFF35F8F0C4B3D
:1029A00000221A6086F3108870BDA2000B4B002134
:1029B000D1500122A2400A490B7893430B7005497C
:1029C0002000FEF75FFF00212000FEF7EDFDE4E7A9
:1029D000280100D06D280010386005402C1500201B
:1029E000145E0020F0B5DE4600B584B0040015008A
:1029F00001921E000293FFF78DFF03958E4202D8CD
:102A00004ED185424CD9EFF3108B72B6274B1B6821
:102A1000002BFBD0BFF35F8F254A17780125A54017
:102A2000EBB23B431370234B5D63221D920001996F
:102A3000D150A2002049029850501B6A2B4212D15B
:102A40001C4B1B6C2B4208D00020BFF35F8F174B31
:102A500000221A608BF3108823E0184B184AC52116
:102A6000184800F099FCFFF755FF8E4214D802D1A8
:102A7000039B834210D80E4B1B78BB420ED00D4BEC
:102A80001D625D631F2004400123A3400E4A1360B2
:102A9000074B1F701E38D8E70020D6E70120D4E787
:102AA000012004B080BCBB46F0BDC046280100D068
:102AB000145E002000400540845C0020CC580110CA
:102AC00050590110F058011080E200E0EFF3108C33
:102AD00072B60B4B1B68002BFBD0BFF35F8F01233B
:102AE0008340084A136208490A789A430A70BFF380
:102AF0005F8F034B00221A608CF310887047C0462A
:102B0000280100D000400540145E002010B50029C7
:102B10001ED0037B99421BD84B005B18033B046813
:102B2000A4466344002919D0002A1DD0914221D027
:102B3000002A25D0047BA24222D8046850008018C5
:102B4000033820188170197800291FD11A7010BD20
:102B5000104B114A6821114800F01EFC104B114A1D
:102B60006F310E4800F018FC0F4B0E4A70210B48D5
:102B700000F012FC0D4B0B4A7121084800F00CFCD0
:102B8000044B054A6821054800F006FC41701A70A4
:102B9000DDE7C04694550110745A0110B05501107C
:102BA00018560110605A01102456011030560110B9
:102BB00070B506000D001400002914D0002A14D0AE
:102BC000806873689847002806D0220029003000EA
:102BD000FFF79CFF280007E02A0021003000FFF7E4
:102BE00095FF200000E0100070BD0800FCE7000029
:102BF00010B50023437301338373037BC373012335
:102C0000027B9A4214D9002B0CD0027B934209D844
:102C10005A00D218033A01688C4662440133DBB291
:102C20005370EDE70B4B0C4A68210C4800F0B4FBE5
:102C3000002A09D0924207D8016853009A18033A33
:102C40008A180023537010BD024B034A68210348C1
:102C500000F0A2FB94550110745A0110B0550110F8
:102C600010B5017342608360FFF7C2FF10BD000022
:102C700070B50400081E00D170BD002934D0237B3C
:102C8000994231D84B005B18033B22689446634459
:102C90005A78002AF0D02DD0237B9A422AD85300AC
:102CA0009B18033B21688C4663445D780021597072
:102CB000002825D0237B984222D843001B18033BD1
:102CC00021688C4663440021597001002000FFF701
:102CD0006FFF060029002000FFF7CAFF0200310045
:102CE0002000FFF765FFC7E7084B094A682109483C
:102CF00000F052FB054B064A6821064800F04CFBE9
:102D0000024B034A6821034800F046FB945501102A
:102D1000745A0110B055011070B505000C00160072
:102D200000292FD034D0037B994231D84B005B1857
:102D3000033B0268944663445A78002A2ED19A785D
:102D4000002A31D11978FFF793FF0300002E0AD033
:102D5000EA7B002A2ED1AA7B002A03D1EA7B002A33
:102D60003BD1AC73EC73002B3DD1002C4FD02B7BAF
:102D70009C424CD82B6861000C19033C1C190023A1
:102D8000637070BD254B264A3821264800F004FBAD
:102D9000254B264A6821264800F0FEFA254B204A9A
:102DA0003A21204800F0F8FA234B1D4A3B211D48E8
:102DB00000F0F2FA002A0AD0297B8A4207D8510093
:102DC0008A18033A29688C4662445470C3E7164B4C
:102DD000164A6821164800F0DFFA184B104A4221C3
:102DE000104800F0D9FA002B0BD02A7B934208D868
:102DF00043001B18033B2A689446634400229A70E0
:102E0000B3E7094B094A6821094800F0C5FA064BA7
:102E1000064A6821064800F0BFFAC0466C59011006
:102E20004C5A01107459011094550110745A011034
:102E3000B0550110C8590110F0590110F456011095
:102E400070B504000A00457B2900FFF765FF607339
:102E5000280070BD70B50400002967D0437B8B4209
:102E60000ED0002911D0037B99420ED84B005B187D
:102E7000033B0268D0188378002B0CD1002056E069
:102E80000121FFF7DDFF012051E0294B294A68218C
:102E9000294800F081FA002B20D0227B93421DD8D4
:102EA0005A00D318033B2268D2182568EB5C8B428A
:102EB0001AD0002B1BD0227B934218D85A00D3186B
:102EC000033B2268D21853788B4216D0002BF0D1E6
:102ED0001A4B1B4A6B211B4800F05EFA144B154A33
:102EE0006821154800F058FA4378137007E0104B3A
:102EF000104A6821104800F04FFA437853700023BD
:102F00008370437001222000FFF706FF0200617BFF
:102F1000814205D02000FFF74BFE6073012006E0E0
:102F2000094B074A7121074800F036FA002070BDAE
:102F300094550110745A0110B0550110145301102A
:102F4000345A011074590110145A0110F8B5DE46B4
:102F500057464E464546E0B505000F0092460A9A90
:102F6000934250D31A0E91461E020A9A0023300053
:102F7000494601F021FC80466C006419A400304BE6
:102F80009C4664446368834200D260602B1FDBB2BE
:102F90009B46012B3DD9C0239B0123438022120174
:102FA0001A60AB00274A9958002907D0506901F0F0
:102FB000C5FB431C5800C0180338FDD253465A01C4
:102FC00023685A40E0231A4080235B0123431A60A0
:102FD0005A46012A28D980239B01234380221201CB
:102FE0001A6043466360424600233000494601F0C0
:102FF000E3FBAD00134B58510120F0BCBB46B24679
:10300000A946A046F8BD104B104A3321104800F0E5
:10301000C3F9012FBFD1C0239B01234303221A60B0
:10302000A368DB07FCD5C9E72168794003220A4081
:103030001A60A2680123BB401342FAD0CBE7C04616
:103040000080004068170020805A0110F45A0110D7
:10305000945A011030B583B00C2000F011F9FEF73E
:103060007BF900280DD0002304E099002D4A2E485A
:1030700088500133092BF8D92A4B2C4A5A6203B0E5
:1030800030BD2B4B00229A6700F06CF9294B0122CE
:103090001A60274B5B6C012BFBD1274B03221A6074
:1030A000234B9B6B012BFBD1013300930433234A49
:1030B0000121234800F054F805230093214A0121FF
:1030C000214800F04DF8214B0093002202210420FA
:1030D000FFF73CFF1E4D00952B000022012105202B
:1030E000FFF734FF104C009423000022002107203A
:1030F000FFF72CFF00942300002200210820FFF797
:1031000025FF0A4B00932300002200210920FFF72E
:103110001DFF00952B00002200210620FFF716FF5F
:10312000ADE7C04668170020006CDC021BB700004A
:10313000008000403CB0004030B00040002F685993
:1031400000800240008C864700C00240001BB70090
:10315000405973078000014BC05870476817002022
:10316000F0B5C64600B504000E0017001D00374834
:1031700001F0E4FA8046364BFA18364B9A4239D8B9
:103180000100380001F0DAFA0200103A98235B00DF
:103190009A4235D86B1E062B38D8069B013B062B6E
:1031A00034D83F09474537D32D04069B1A031543EE
:1031B0002368002B36DB284B9C4244D080225201EE
:1031C000264B1A60264B1A60264B9B6811009943C8
:1031D000FAD12660A060231DC02292011A43212348
:1031E00013602368002BFCDAE5600823136080BCC1
:1031F000B846F0BD1C4B1D4A11211D4800F0CCF80B
:103200001C4B1A4A19211A4800F0C6F81A4B174AE3
:103210001C21174800F0C0F8184B144A2321144809
:1032200000F0BAF822683F231340B342C3D1A36829
:103230001B051B0D8342BED1E368EE22D202134070
:10324000AB42B8D1D3E780229201B9E7001BB700A7
:1032500080E84BD380F8A93200C0024000E0004073
:1032600000F0004000C00040045B0110445C01100D
:10327000645B0110C05B0110DC5B0110285C011075
:1032800080239B000343014AD362704700800540BE
:10329000024B1A68024B5A607047C0462026002035
:1032A0000080054010B50200164B8020C005186054
:1032B000154B1648186000290AD0154BE021C904A7
:1032C0001960002A09D1124B802212061A6010BD23
:1032D0000C4BE021C9041960F3E753019B1A9800D5
:1032E000801800010B4B186080235B04984202D3C6
:1032F000084B094A1A60FFF7CBFF054B8022D20525
:103300001A60E4E700B0054008200140FCFF01001E
:1033100000A0054020260020FFFFFF0010B503009D
:1033200010000C4A8024E4051460002B0DD001220B
:103330001343094A094CD461094C5C401462516240
:1033400093620021FFF7AEFF10BD034B0022DA614C
:10335000F7E7C04600B0054000800540D3C007B085
:103360002D3FF84F064BAA2212011A602F22DA6075
:10337000044B054A1A60024B5B68002BFBDA70476E
:10338000004002400060024000B0FA0000BEFDE7CD
:1033900010B5FFF7FBFF000010B582B00C0019005C
:1033A000002A0CD0084B002A0BD001920093230076
:1033B0000200064801F022FF0120FFF7E7FF044B5F
:1033C000F1E7034AF1E7C046505C0110605C011070
:1033D000AC4D011070B52B4B2B4A1A602B4B2C4A6D
:1033E0001A602C4B9A682A4B9343FAD12A4C01E07D
:1033F00008CC9847294B9C42FAD3FFF72BFE234B6E
:10340000274A1A60234B9B68DB43DB01FAD1254B2B
:1034100040229A675A671A67DA66234C09E0234B01
:10342000234A87212348FFF7B7FF2000FEF7D0FB90
:103430000834214B9C4209D22368002BF5D0012B84
:10344000EDD12000FEF7D1FB0834F2E71B4CA16858
:103450001B4DC022280001F079FDA560EFF3058324
:10346000002B00D000BEFDF7F9FFFEF76DFBFEF765
:103470003FFF144C01E008CC9847134B9C42FAD311
:1034800070BDC04600E00040BFCDFBFE00F0004034
:10349000FE7F3C0000C00040F80E0020080F002016
:1034A000FFFFFF0100F00140F00E0020905C0110D2
:1034B000305D0110B05C0110F80E002000ED00E05E
:1034C00000000020080F0020100F00200FB400B5EE
:1034D00083B0084801F062FE049B002B07D005A9C9
:1034E0000191180001F06AFE034801F057FE012027
:1034F000FFF74CFF105D0110584C011010B501484A
:10350000FFF7E4FF205D01109A4200D28854704713
:10351000704710B5002802D00B684968984710BD65
:103520000100002007E083001B185B00501C0860AE
:103530001078C01830380A681378303BDBB2092B9A
:10354000F1D97047F0B5DE4657464E464546E0B5E0
:1035500083B093461F000C9B9A460D9C0E9B994688
:103560000F9B9B0703D0B8460F00060022E0019294
:10357000A34688464E46B9460700B44207D2551CBA
:103580004B4641462020B84701342A00F5E73D006C
:103590004F465C46019B9B46B1464646B8463700BF
:1035A0002E0007E0013C551C5346185D4346390088
:1035B000B0472A00002CF5D135003E0047460F9B4E
:1035C0009B0707D4100003B0F0BCBB46B246A94627
:1035D000A046F0BDB0464E46B9462F005D46531B8F
:1035E000B342EFD2541C4B4641462020B84722003C
:1035F000F5E7F0B5CE46474680B585B09446984687
:103600000C9D0D9C0EAB1B789946109A119B129E37
:10361000B7071CD4002B0CD0F7070AD54F46002F54
:1036200002D10C37374204D0013B02E030272F553E
:103630000134944201D21F2CF8D9F70707D59C42D8
:1036400005D21F2C03D830272F550134F5E7F70694
:1036500015D5770505D4002C03D0944224D09C4284
:1036600022D00F9A102A2BD00F9A102A30D00F9AFE
:10367000022A35D01F2C02D830222A5501341F2CA3
:1036800005D84A46002A31D02D222A550134039606
:1036900002930194009543466246FFF753FF05B03D
:1036A000C0BCB946B046F0BD621E012C06D00F9FCB
:1036B000102F01D01400D4E7023CD2E71400D0E769
:1036C000B206D1D41F2CCFD878222A550134D1E7A5
:1036D000B206CCD51F2CCAD858222A550134C9E7C6
:1036E0001F2CC7D860322A550134C3E7720703D5AF
:1036F0002B222A550134CAE73207C8D520222A5581
:103700000134C4E7F0B5DE4657464E464546E0B5BF
:1037100093B081468A46089209931CAB10CB1B7864
:103720009B461E9D219B9846002C03D110234246A8
:103730009A4390468023DB0046461E4042461A428A
:1037400012D0002C22D000260EE03033D9B2771CE4
:103750000AAB99552900200000F0F0FFAC4216D3C7
:103760001F2F14D83E0004002900200000F0E6FFBF
:10377000CBB2092BE9D94246920605D54121C91899
:10378000C9B20A39C9B2E2E76121F8E72700434626
:103790000693209B05931F9B049303955B4602931E
:1037A00001970AAB0093099B089A51464846FFF7D8
:1037B00020FF13B0F0BCBB46B246A946A046F0BD00
:1037C000F0B5DE4657464E464546E0B595B0089002
:1037D00009910A920B931E9E1F9C20AB1B789B465F
:1037E000229B9946239D269B9A463300234303D16F
:1037F000103352469A4392468023DB0057461F40BF
:1038000052461A4219D0330023432DD0002714E02A
:103810003033DAB27B1C98460CABDA554A462B00A3
:103820003000210000F0C8FFA5421FD819D0434640
:103830001F2B1BD8474606000C004A462B003000C1
:10384000210000F0B9FFD3B2092BE1D9524692060C
:1038500005D54122D218D2B20A3AD2B2DAE76122B1
:10386000F8E7B145E3D901E00023984653460693B3
:10387000259B0593249B04934B4603935B4602933D
:10388000434601930CAB00930B9B0A9A0999089845
:10389000FFF7AFFE15B0F0BCBB46B246A946A04646
:1038A000F0BD0000F0B5DE4657464E464546E0B551
:1038B00091B083468A460C9298461A9C08941B9DA8
:1038C000099522002B002000290001F0F0F90028C2
:1038D00000D0E5E001225242D74B2000290001F040
:1038E000E1F9002800D0DBE001225242D34B200056
:1038F000290001F0C1F9002800D0D1E00022002306
:10390000089E3000099D290001F0B6F9002800D07A
:10391000DDE008980999069007918023DB001E9A44
:103920001A400D921E9A1A4201D106231C93069842
:10393000079904000D000A000600024300D1D1E0FF
:10394000080D4005400DBE4CA44660440A03120B0E
:10395000BC4B13431F0001F0BDF9BB4ABB4B01F048
:103960004CF9BB4ABB4B01F029F904000D000022C1
:10397000B94B3000390001F01CF9B84AB84B01F0DE
:103980003CF902000B002000290001F017F901F0BA
:10399000B9F9814601F09EF904000D00B14AB24B1D
:1039A00001F02BF90022B14B01F008F901F0AAF95E
:1039B0000600AF4AAF4B2000290001F01EF90400B9
:1039C0000D00300001F086F9AB4AAC4B01F015F95F
:1039D00002000B002000290001F0EBF804000D00AC
:1039E00002000B0001F009F90A900B91A44BF318A7
:1039F00000261F0522002B002000290001F0DEF820
:103A00000E900F9122002B0000208021C90501F0AB
:103A1000D0F804000D0000229A4B0A980B9901F08F
:103A2000D2F80022984B01F0C9F802000B000A9866
:103A30000B9901F0C8F80022944B01F0BFF8020086
:103A40000B000A980B9901F0BEF802000B00200051
:103A5000290001F0B3F802000B000E980F9901F055
:103A6000B2F80022774B01F0A9F832003B0001F0D8
:103A7000C4F806000F0004000D00069A079B01F031
:103A800011F9002830D001235B429C46E14400221A
:103A90007D4B3000390001F096F804000D0023E062
:103AA0001E9B04931D9B03931C9B0293089A099BE6
:103AB0000092019343460C9A5146584600F0FCF898
:103AC00011B0F0BCBB46B246A946A046F0BD0023EB
:103AD000002406930794069680231B069C466544A3
:103AE00007951AE7002399464B466333C62B1ED829
:103AF00004261E9B1B0526D52B0023430FD0644AAA
:103B0000644B0698079901F0C5F8002879D0002287
:103B1000614B0698079901F0AFF8002871D01C9B03
:103B20004B4506DD4A46981A431E1C9303E00526C2
:103B3000DFE700231C938023DB001E9A1A431E92AA
:103B40000026002399461D9B9E4264D29F1B0223A0
:103B50001E9A1A400A921E9A134202D0002E00D0DA
:103B600000274B46002B07D022002B000698079910
:103B700001F029F80690079100220023089809997E
:103B800001F07AF8002848D1444B1E9A1340049360
:103B900003971C9B0293069B079C0093019443464A
:103BA0000C9A5146584600F087F8002E00D187E75E
:103BB0001E9B9B063DD54525441C434602005146AD
:103BC0002800D8474B46DA179B1853400522059228
:103BD000013E0496002203920A3202924A46D00F16
:103BE000019000934346220051465846FFF78AFD54
:103BF0000A9B002B00D163E702005F460C9E1D9DCF
:103C000054E01C9B002B9ED00D9B002B9BD01C9B3B
:103C1000013B1C9397E7002799E7069C079D22002C
:103C2000290080200006844661440B000692079319
:103C3000AAE76525C0E7C046FFFFEF7FFFFFEFFF64
:103C400001FCFFFF0000F03FFB799F501344D33F7E
:103C5000B3C8608B288AC63F0000F83F61436F639A
:103C6000A787D23F71A379094F930A400000E03F34
:103C70001655B5BBB16B0240EF39FAFE422EE63F56
:103C8000FF03000000002C4000002440000018400A
:103C90002D431CEBE2361A3F80842E41FFF7FFFFD5
:103CA000541C434651462020B8472200931BAB4288
:103CB000F6D3100004E7C046F0B5DE4657464E4640
:103CC0004546E0B595B00690079193469946209FEA
:103CD0001E9A1F9B1000190000F0E9FF002831D147
:103CE00001225242BF4B1E981F9900F0C5FF0028C9
:103CF00037D101225242BC4B1E981F9900F0D2FFCF
:103D000000283DD10022B94B1E981F9900F0CAFF30
:103D1000002850D10022B64B1E981F9900F0ACFF2E
:103D2000002848D1002200231E981F9900F0A4FF0C
:103D3000002850D100239846229B5B0500D4B6E0B2
:103D4000002458E0229B0393219B029303230193B9
:103D5000A84B00934B465A4607990698FFF7F2FB8B
:103D60000EE1229B0393219B029304230193A24B18
:103D700000934B465A4607990698FFF7E3FBFFE08E
:103D80000423229A1A4022990B4210D09B4B002AFE
:103D90000FD004222299039121990291019200935C
:103DA0004B465A4607990698FFF7CCFBE8E0944B40
:103DB000EDE70322EEE7229B0493219B03930297F6
:103DC0001E9B1F9C009301944B465A4607990698E8
:103DD000FFF768FDD4E01E9A1F9B0020002100F031
:103DE000E8FE1E901F9101239846A5E70CAB3022F8
:103DF0001A55013F01341F2C01D8092FF6D81E98FF
:103E00001F9900F07FFF050000F064FF02000B0027
:103E10001E981F9900F0CDFEFA007A4B9B181A6885
:103E20005B680A920B9300F0E8FE0890099100F09D
:103E30008DFF060000F04AFF02000B000898099968
:103E400000F0B7FE0890099100226F4B00F02AFFA6
:103E500000282ED00136300000F038FF02000B00A1
:103E60000A980B9900F00EFF002801D001350026BA
:103E7000002F2CD1280000F02DFF02000B001E980F
:103E80001F9900F096FE06000F0000225E4B00F026
:103E9000F3FE002846D100225B4B3000390000F0D1
:103EA00001FF00283ED1EB073CD501353AE006275B
:103EB00046E70022544B0898099900F0DDFE0028DF
:103EC000D6D1002E01D0F307D2D50136D0E7AA46CD
:103ED0001F2C11D8013F0A21300000F02FFC651C77
:103EE00030310CAB19550A21300000F027FC092EA7
:103EF0000ED906002C00EBE755461F2C0CD87B1E74
:103F0000002F09D00CAA302111551F000134F4E70D
:103F10002B0055461C00F0E71F2C03D80CAB2E22BB
:103F20001A5501341F2C10D80A21280000F0DEFB9E
:103F3000661C30310CAB19550A21280000F0D6FB65
:103F4000051E01D03400EDE734000323229A13400C
:103F5000012B1CD01F2C06D84346002B32D00CABB3
:103F60002D221A550134229B0393219B0293019425
:103F70000CAB00934B465A4607990698FFF7E2FAB6
:103F800015B0F0BCBB46B246A946A046F0BD219B89
:103F9000002B13D04346002B02D10C3313420FD019
:103FA000219B013B2193190003E00CAB30221A55F1
:103FB00001348C42CED21F2CF7D9CBE72199F8E7F8
:103FC0002199F6E7229B5B0704D50CAB2B221A55EF
:103FD0000134C8E7229B1B07C5D50CAB20221A551C
:103FE0000134C0E7FFFFEFFFFFFFEF7F65CDCD415D
:103FF00065CDCDC14C5D0110505D0110445D0110D7
:10400000405D0110385F01100000E03FF0B5DE4672
:1040100057464E464546E0B593B082468B4690469D
:104020001193002900D1EBE200275546119B187827
:10403000002800D1E7E2252809D07C1C43463A003D
:104040005946A847119B013311932700EEE701332E
:1040500011930024119A11780B00203BD8B210283C
:1040600003D88300D048C3589F460B00303BDBB2D7
:10407000092B2CD92A292FD000230A93119B1A78B7
:104080002E2A39D000239A46119A1378683BD9B268
:10409000122976D88B00C549CB589F4601231C4373
:1040A00001321192D6E702231C4301321192D1E76B
:1040B00004231C4301321192CCE708231C43013234
:1040C0001192C7E710231C4301321192C2E711A8D5
:1040D000FFF726FA0A90D1E71C9B1A1D1C9218685C
:1040E000002804DB0A90119B01331193C6E70223D9
:1040F0001C4343420A93F6E78022D20014435A1C21
:1041000011925A781300303BDBB2092B04D92A2ACA
:1041100007D000239A46B7E711A8FFF701FA8246B5
:10412000B2E71C9B1A1D1C921868002804DB82460B
:10413000119B01331193A7E70020F8E780235B0070
:104140002343511C119152786C2A01D01C0018E0B5
:10415000C0239B001C430131119112E080232343B3
:10416000511C11915278682A01D01C0009E0C0232B
:104170001C430131119104E080235B001C43013298
:104180001192119B18780300253BDAB2532A00D90B
:104190002CE29300864AD3589F4680239B001C4301
:1041A00001321192EDE780235B001C430132119232
:1041B000E7E7782809D0582838D06F2838D0622807
:1041C00038D010239C430A2600E01026582833D00C
:1041D000692803D0642801D00C229443630501D5DB
:1041E0000122944369282AD0642828D0A30500D549
:1041F0009FE0E30500D5B8E0630600D4CAE01C9A4E
:10420000111D1C911168FF220A4005940A9B04931A
:1042100053460393029600230193009243463A00CB
:1042200059462800FFF76EFA070027E01026CDE771
:104230000826CBE70226C9E720221443C8E7A305D6
:1042400020D4E30550D4630666D51C9A111D1C9139
:104250001168FF220A40D317D118594005940A9BD0
:104260000493534603930296D20F01920091434662
:104270003A0059462800FFF745FA0700119B013321
:104280001193D3E61C9BDA1D07218A4311000831E4
:104290001C91116853689C46DB170C930D930C9A84
:1042A0000D9B100048400E90624653400F930E98AD
:1042B0000F990C9A0D9B801A99410E900F910894BA
:1042C0000A9B07935346069304960023059363467F
:1042D000DA0F02920090019143463A0059462800B5
:1042E000FFF76EFA0700C9E71C9A111D1C911268AE
:1042F000D317D118594005940A9B0493534603934E
:104300000296D20F0192009143463A005946280086
:10431000FFF7F8F90700B1E7230605D51C9A111D30
:104320001C910023D25E96E71C9A111D1C91126805
:1043300091E71C9BDA1D07218A43110008311C916B
:1043400008940A9B0793534606930496002305930B
:104350000293136854680093019443463A00594607
:104360002800FFF72DFA070088E71C9A111D1C9101
:1043700005940A9B049353460393029600230193EA
:104380001368009343463A0059462800FFF7BAF9EC
:10439000070073E723060DD51C9A111D1C911268A6
:1043A0001204120C31E7C046585D01109C5D0110EB
:1043B000E85D01101C9A111D1C91126825E7462822
:1043C0001AD01C9B0733072293431A0008321C9211
:1043D00004940A9A0392524602925C681B68009306
:1043E000019443463A0059462800FFF765FC070050
:1043F000119B0133119319E620231C43E1E7672841
:1044000001D0472802D180231B011C43452801D03D
:10441000472801D120231C431C9B073307229343C9
:104420001A0008321C9204940A9A0392524602928D
:104430005C681B680093019443463A005946280083
:10444000FFF730FA0700119B01331193EEE50223C9
:104450001A002240924623421FD001241C9B1A1DA1
:104460001C927A1C9146187843463A005946A84750
:104470005346002B16D1119B013311934F46D5E5BE
:10448000561C434659462020B847230032005C1C86
:104490009D42F5D83D001700E0E701233A002F00C8
:1044A0000A9DF4E74A46A9460A9D06E0571C434682
:1044B00059462020C84734003A00661CA542F5D86A
:1044C0004D469146D7E71C9B1A1D1C921B689946C6
:1044D0005346002B00D1013B4E4601E0013613004C
:1044E0003278002A02D05A1E002BF7D14B46F21A1E
:1044F00010928023DB0026001E401C4203D0524550
:1045000001D95346109302231A0022400B922342F2
:1045100005D03A0037004C46A946554620E03A00FF
:10452000109B5F46B3462E0006E0551C43463900FB
:104530002020B04723002A005C1C0A999942F4D835
:1045400035005E46BB46109437004C46A94655469A
:1045500006E01D000134561C43465946C847320048
:104560002078002804D0002FF4D06B1E002DF0D14D
:1045700017004D460B9B002B03D1119B0133119368
:1045800054E50A9F109B06E0561C434659462020DE
:10459000A847230032005C1C9F42F5D81700ECE7C7
:1045A00021231C431C9B1A1D1C921B68009305941D
:1045B000082304935346039310230293002301938B
:1045C00043463A0059462800FFF79CF80700119B24
:1045D000013311932AE57C1C43463A0059462520B5
:1045E000A847119B0133119327001FE57C1C43460C
:1045F0003A005946A847119B01331193270015E54E
:104600000A4B9A4610E5AA46474502D343465A1E2E
:1046100000E03A00434659460020D047380013B026
:10462000F0BCBB46B246A946A046F0BD113500100D
:104630000CB410B584B00A0006AC08CC0394009406
:1046400001000448FFF7E2FC04B010BC08BC02B053
:104650001847C0460935001000B585B00290039197
:104660000121009313004A4202A90248FFF7CEFC41
:1046700005B000BD1335001001480421014B184757
:10468000300E0020B5460010014B9B681847000013
:10469000300E002010B5010018231B88142210884A
:1046A000984710BD10B5010018231B8816221088EA
:1046B000984710BDF0B5C64600B507000E000025AE
:1046C0000123984600E00135B5420AD2AC003C19FE
:1046D0002068FFF7DFFF20600028F4D10023984610
:1046E000F1E7404680BCB846F0BD0000124A936F27
:1046F0009B0815D29066D166002905D0FFE7FFE739
:10470000FFE7516F106F704704B580210906C2178B
:104710005140002800D0C84310F03AF9002104BDF0
:10472000F0B5146E556E576F166FFFF7E3FF146602
:10473000556657671667F0BD000000D0114A936FA9
:104740009B0813D210665166002905D0FFE7FFE7EA
:10475000FFE7516F106F704704B5002801D00020AB
:10476000C04310F015F9002104BDC046F0B5146E29
:10477000556E576F166FFFF7E5FF1466556657675E
:104780001667F0BD000000D094464A4A926F920826
:10479000624601D228E0C046F0B5464E346E756ED2
:1047A000776F366F00F020F89446424A14665566DB
:1047B000576716676246F0BD94463E4A926F92086C
:1047C000624601D254E0C046F0B53A4E346E756E82
:1047D000776F366F00F04CF89446364A146655668B
:1047E000576716676246F0BD002B24DB11D0002905
:1047F0003EDA00B5C943404200D1013100F038F83B
:10480000C943404200D10131DB43524200D1013360
:1048100000BD002AEBD1002801D1002905D00020DD
:10482000C90FC90701D1C043410800B510F0A0F875
:104830000022002300BD00B500290ADBDB43524201
:1048400000D1013300F014F8C943404200D10131D6
:1048500000BDC943404200D10131DB43524200D187
:10486000013300F005F8DB43524200D1013300BDB3
:10487000002923D1002B18D1002A0CD0BC460D4FA3
:1048800038667A6600210023FFE7FFE7FFE77A6FCB
:10489000386F67467047002801D00748010000B50F
:1048A00010F066F80022002300BD02000B0000207B
:1048B00000217047000000D0FFFFFFFF002B00D059
:1048C000BFE0130C28D1002AE7D080B4114F39661D
:1048D0007A66FFE7FFE730B4040C7B6F396F1B0487
:1048E00023433B667A66FFE7FFE7FFE7C04684B2F3
:1048F0007B6F3D6F1B0423433B667A66FFE7FFE750
:10490000C04600232C042D0C7A6F386F00196941C2
:10491000B0BC7047000000D0F0B594460025140EDE
:1049200001D112020835140F01D112010435940F80
:1049300001D192000235D40F01D152000135D40BC0
:104940000134254F7C66254C3C660E0C93B2FFE784
:10495000FFE7FFE73C6F6643360C7703BE467343C1
:10496000DF0B5B04C01AB941130C7343DB18C91A7F
:10497000CE086643360CB64493B273431F0F1B0137
:10498000C01AB941130C73431F0B1B05C01AB94160
:10499000860D8F023E436643360C092D24DB520AF6
:1049A0007243801A7703460A6643360C16235B1B54
:1049B000DE40DF40BF1964466643821B7046043503
:1049C00006330100D940A840C01900D30131A242EA
:1049D00006D20023F0BD0000000000D0FFFFFFFF63
:1049E000121B0130F3D3F1E709277F1BFE40644619
:1049F000A2B27243801A00D20139220C7243130C06
:104A00001204821A99410B007046043513370100D5
:104A1000F940A840801900D30131002B02D1A242F5
:104A20000AD2F0BD013000D30131121BFAD2013B92
:104A3000F8D1A24200D2F0BD013000D30131121BE7
:104A4000F7E7F0B51C0C00D080E00CB400251C0A80
:104A500004D11B02160E3343120208351C0B04D17D
:104A60001B01160F3343120104359C0B04D19B002C
:104A7000960F334392000235DC0B02D192185B4152
:104A800001351C00971864410134464F7C66464C42
:104A90003C660E0CFFE7FFE7FFE7C0463C6F66434E
:104AA000360C7703BE4697B27743C01B00D201395C
:104AB000C01B00D201399FB27743C91BC91B170C19
:104AC00077437E04FF0B801BB941CE086643360C4A
:104AD0000C2D33DBB644120B1F053A431B0B97B268
:104AE0007743C01B00D201399FB27743C91B170C13
:104AF00077433E043F0C801BB941860D8F023E4335
:104B0000664329277F1BFE400C3D7746AF40BF1907
:104B100030BCA2B2ABB272437343801A9941220CEB
:104B20007243130C1204801A994102000B000137E2
:104B3000001BA941F9D2781E0021F0BD0C277F1B74
:104B4000FE4077467F0BAF40FF19E0E700245D1C75
:104B500007D0144F7D663966FFE7FFE7FFE7FFE701
:104B60003C6F95B29EB265436643401BB141150C44
:104B70001E0C6543664336042F0C3E432D04401B38
:104B8000B141994204D202000B0020000021F0BD87
:104B900001D19042F7D3801A994101349942F2D35E
:104BA000F6E70000000000D0FFFFFFFF4840414053
:104BB000484018B4134B5B68019308BD18B4114BFF
:104BC0001B68019308BD94460F4A926F920805D264
:104BD000624618B40B4BDB68019308BD0A4AF0B576
:104BE000146E556E576F166F6246FFF7F2FF064A56
:104BF0001466556657671667F0BD18B4014B9B687D
:104C0000019308BD605A0020000000D0FFB550405D
:104C10004240504059404B40594000E0FFB5154FCD
:104C20004C00640D03D0BC4204D10C0314D8002006
:104C3000090D09055C00640D03D0BC4204D11C03BE
:104C40000AD800221B0D1B0501264B4009D44B40FE
:104C500003D58B4200D18242FFBD9942FCD19042E4
:104C6000FFBD0B43DB1803431343F5D0C943491879
:104C7000FFBD0000FF07000000B5FFF7CFFF804138
:104C800000BDC04600B5FFF7C9FF01D9002000BD37
:104C9000012000BD00B5FFF7B9FF01D9002000BD1C
:104CA000012000BD00B5FFF7B1FF804100BD01202C
:104CB00040054A00121804D85A00121801D80020E2
:104CC0007047012070470020704700000021002835
:104CD00005D17047C1174840401AFAD0C90713B52B
:104CE000064B1B6898470CBC441CA2401005120BD5
:104CF0000349091B09051943114310BD645B0020DA
:104D00001F04000010B54C00620D8023D218DB0098
:104D1000D21A5B057E2A10DD9E3A13DACC170903FE
:104D2000490819435242D140640001341532202A07
:104D300005DAD0400843604310BD002010BD08468E
:104D4000604310BDC80FC018013810BD18B4024B25
:104D50005B6A019308BD0000605A002010B501484D
:104D6000FEF7B4FB885F011070B513231C78012C8B
:104D700014D0012C14DC022C02DC1F4A1F4B9A6455
:104D80001F48FFF787FC1F4B186070BD99001E4835
:104D90001A4A885001331F2BF8D9EAE70023FAE7B3
:104DA0001A48FFF77FFC05001948FFF77BFC023823
:104DB00003789B007F2B19DD802229000F4800F02B
:104DC000C5F8022CD7D1134B1A88B5231B029A427F
:104DD00009D1114B1A88114B9A4204D1104B1A88F1
:104DE000104B9A42C7D00020FEF770FB0E4B0F4AC3
:104DF00032210F48FEF7D0FA354E0010605A0020DD
:104E00004C330000645B00205D4D001053440000F3
:104E10005346000054380000D838000049460000CE
:104E20009C38000059460000A05F01105860011036
:104E3000F45F011007B56046002800D100BE01886C
:104E40000A0A0230DF2AFAD1C9B2820804D30288E2
:104E500040880004104300E00068024A505003906C
:104E600007BD0000605A002051434343C9188C46D7
:104E7000110C83B24B4310B4040C614392B280B264
:104E8000504362431C041B0C001910BC594113040D
:104E9000120CC018514161447047000010B5014820
:104EA000FEF714FBAC4D011070B513231E781848A3
:104EB000FFF7F8FB0500012E11D0012E09DDAB1E16
:104EC0001B789B007F2B1DDD80222900114800F0FC
:104ED0003DF81148FFF7DEFB104B186070BD5422FF
:104EE00001000C4800F032F8002300E001331F2BD2
:104EF000E3D89A00074C1259002AF7D19A000848C3
:104F00001051F3E7074B084A42210848FEF744FADC
:104F100053460000685B00204C330000645B0020B7
:104F20009D4E00106C60011004610110A060011022
:104F300001480421014B1847400E0020B5460010DF
:104F4000014B1B6818470000400E0020014B5B68B6
:104F500018470000400E002010B5030008001100A3
:104F60001B68984710BD0000F8B507000D0016003B
:104F7000437D002B02D0002400200CE003681100C8
:104F8000280098472DE03B7D10E0022115483B6842
:104F90009847601C0134B44214DA002CF3DD2B195D
:104FA000013B1B780D3B5A425341DBB22A5D0A2A72
:104FB000F0D1002BEED1A042E7DA211A28183B6885
:104FC0009847E2E7B04203DA311A28183B6898475D
:104FD000002E06DDAD19013D2B780D3B5A425341A1
:104FE0003B75F8BD9461011070B505000368002B96
:104FF00016D00C4B1C6805E0290004C92000FFF7FF
:10500000B3FF2469002C09D02368002BF9D0064B8C
:105010001B68002BF0D0A342F3D1EDE700232B60F7
:1050200070BDC046E8210020F021002070B50500C9
:105030000C000B68802B05D021684B1C2360641882
:10504000257170BD0800FFF7CFFFF5E710B5FDF73C
:1050500061FC02000B1E0BDB0D48002112184B41B6
:10506000002B0BDB002B0DDB0A480FF0C1FC10BD41
:10507000094B0A4A3F210A48FEF78EF901225242A3
:10508000084BEFE7044B054A3F210548FEF784F93A
:1050900040420F00F00E0020004E01107C61011014
:1050A0001C4E0110FFFFFF7F10B502480FF058FCA7
:1050B00010BDC046F00E0020F0B5CE46474680B584
:1050C00083B006000D0090461C00FFF7BFFF81462D
:1050D0006B1C05D0002C08D0194F1A4B1C6807E038
:1050E00030000FF0BBFB0500F4E7174FF5E724692C
:1050F000002C17D02368002BF9D0144B1B68002B11
:1051000001D0A342F3D12A0031002000B847434622
:10511000002BECD06B46D91D0A230B700122200016
:10512000B847E4E74B46002B07D16B1E9D41E8B220
:1051300003B0C0BCB946B046F0BDFFF7B5FFF4E719
:10514000594F0010E8210020694F0010F021002085
:10515000094A01E010331A001368002B08D083427B
:10516000F8D1002907D1036913600023036102E02D
:10517000002900D010607047E821002010B5064BD0
:105180001C6801E098472469002C03D06368002B59
:10519000F8D1F8E710BDC046E821002070B5050041
:1051A0000FF05CFB04000023012201002800FFF740
:1051B00083FFFFF7E3FF200070BD000070B5A2B0D1
:1051C00004000E00FFF742FF0500002301933300A7
:1051D000220001A90848FFF73FFA040001A8FFF7E1
:1051E00003FFFFF7CBFF002D02D1200022B070BDDE
:1051F000FFF75AFFF9E7C0462D5000100FB400B575
:1052000083B004A901C90191FFF7D8FF03B008BC1E
:1052100004B0184710B500F037F910BD7047000012
:10522000014B00221A707047095E00204B79FF2B5A
:105230000CD18B79002B0BD1CB79012B0AD1082A09
:105240000AD98A78054B1A70092000E000207047BF
:105250000020FCE70020FAE70020F8E7095E0020C4
:105260000120704770B504000D000348FFF712FAE3
:1052700003002900200098475542000010B501297D
:1052800026D1117953791B020B43124909788B42BD
:1052900001D000201DE05378012B03D0022B10D049
:1052A000002016E09178D3781B021943DB0506D560
:1052B0004B0A012098407F231940FFF7D3FF0020BD
:1052C000F9E7642200210020FEF728F8012000E021
:1052D000012010BD095E00200123037000487047C3
:1052E0009861011010B50B784878000218438A784D
:1052F00012041043CB781B0603439622D20093423C
:1053000000D010BD00210800FFF7ACFF024B186071
:10531000024B19607047C0465C17002060170020E0
:1053200010B5024B1878FCF747F910BD0A5E002053
:1053300070B5134B1B68002B1DD0114B1968EFF390
:10534000108372B60A68002AFCD0BFF35F8F0C4945
:105350004B6000220B4802700968BFF35F8F0A6040
:1053600083F3108800240025074B1878FCF724F9F4
:105370002000290070BDFA24A4000025F4E7C046EF
:10538000D05300200C5E00200A5E002010B584B0CF
:1053900000212D480FF00CFB00283AD12B4B1B6845
:1053A000002B3ED0294B1968EFF3108272B60B68C0
:1053B000002BFCD0BFF35F8F24494A602448037858
:1053C00001246340DBB2012404700968BFF35F8FDE
:1053D0000020086082F31088002B22D0FCF7A8FF81
:1053E0000400FDF797FA02000B1E1CDBFA20800078
:1053F000002112184B41002B1BDB002B1DDB012170
:10540000029100210191134900912000FCF7A6FFB1
:1054100007E001200021404201F0F8F80A480FF0AF
:105420009FFA04B010BD0C4B0C4A3F210C48FDF70D
:10543000B3FF012252420B4BDFE7074B074A3F21E4
:105440000748FDF7A9FFC0466C5C0020D053002040
:105450000C5E002031530010004E01104462011018
:105460001C4E0110FFFFFF7F10B5054B1868002888
:1054700004D0044B1968002200F0EEFD10BDC046B8
:105480005C1700206017002010B584B0D0231B06E5
:105490001C68FCF74DFFFDF791F8A0422AD1324B72
:1054A0001B7801F09BFD3148FCF792FB0120FCF7D3
:1054B00063FBC0B22E4C20702E49FCF79FF8207879
:1054C0000121FCF771F80520FCF786F8041E17D0BF
:1054D000002229490520FCF7BBF8FBF7CFFF0100AC
:1054E0002648FCF791FB01212548FFF731FE2000FB
:1054F00004B010BD234B244AB2212448FDF74CFFD1
:10550000FCF716FF0400FDF705FA02000B1E1BDB7B
:10551000FA208000002112184B41002B1ADB002BCF
:105520001CDB012102910021019119490091200009
:10553000FCF714FFC443E40F082200210F48FFF7D3
:10554000FFFC002CD3D0CEE7124B134A3F21134867
:10555000FDF722FF01225242114BE0E70D4B0E4AAC
:105560003F210E48FDF718FFCC0F05106C5C0020A2
:105570000A5E00208D53001021530010D0530020EC
:10558000500E0020D852011034620110B061011099
:1055900031530010004E0110446201101C4E0110E6
:1055A000FFFFFF7F10B5002001F038FA10BD0000AA
:1055B00070B505000C00FFF7F5FF002845D000206E
:1055C00001F04EFA002843D0FDF7A4F902000B1EAB
:1055D00021DB2248002112184B41002B21DB002B3C
:1055E00023DB1F480FF004FA002834D0FFF7DAFF5E
:1055F000002804D0002001F033FA00281BD101203C
:105600000021404201F002F80324644214480FF0E4
:10561000A7F9200070BD134B134A3F211348FDF733
:10562000BBFE01225242124BD9E70E4B0E4A3F21DC
:105630000E48FDF7B1FE22002900002001F01CFAFF
:10564000041EE3D103246442E0E703246442E0E75C
:1056500003246442DDE703246442DAE740420F009A
:105660006C5C0020004E0110446201101C4E0110C1
:10567000FFFFFF7FF0B5C64600B580460C00FDF782
:1056800049F902000B1E0FDB3748002112184B416D
:10569000002B0FDB002B11DB34480FF0A9F9002899
:1056A00012D180BCB846F0BD314B324A3F2132485E
:1056B000FDF772FE01225242304BEBE72C4B2D4A94
:1056C0003F212D48FDF768FEFFF76CFF002849D108
:1056D0002B4B002000211860596024480FF040F93E
:1056E000DFE701200021404200F090FF002001F0A0
:1056F000D7F9FFF757FF0028EFD0002001F048FA54
:10570000002820D0A542E8DA661B002001F040FA0C
:105710000200864200DC3200002AE2D043465919DA
:10572000002001F019FA060001200021404200F09B
:105730006DFF002001F0B4F9AD19FDF7EBF8104B47
:1057400018605960DEE7FDF7E5F80D4B1E685F68ED
:105750000C4A002392197B419942BED8D2D1904283
:10576000D0D9BAE70025CDE740420F006C5C00209D
:10577000004E0110446201101C4E0110FFFFFF7F1C
:105780009810002020A1070000487047DC6201103B
:10579000004870478862011010B50400154B1B7853
:1057A000002B0ED0002C11D1134B144A5A80012328
:1057B00001335B001BB2C022920013430E480380EA
:1057C00010BD11210B4800F02DF8EBE7052C0ED889
:1057D000A4000B4BE4580023122BE9D8E25C002A0A
:1057E000E6D00133590004484252DBB2F4E700200E
:1057F000E6E7C046D05D00209421002009040000A7
:10580000F062011010B5024800F03CF810BDC0462F
:10581000585A002010B508220149FFF797FB10BD28
:10582000585A002010B5002901D000230AE0114B7E
:10583000114A1F311148FDF7AFFD00240DE037324A
:10584000C25401334A1E9A420FD90F2B0DD85A0861
:105850000B4CA25CDC07F0D40424224114000F227C
:105860002240092AEBDC3032EAE7C018002303703B
:1058700010BDC0460863011074630110106301106D
:10588000585A002070B588B0040004AD0026049674
:105890000922002105A8FFF753FB009609220021E9
:1058A00001A8FFF74DFB4B232B700D226946280002
:1058B0000FF04EF8002304E05A1D69468A5CE2545A
:1058C0000133072BF8DD08B070BD000002007F2017
:1058D0001040D209400080184001014BC0187047A9
:1058E000F421002010B5038B3F333F22934302295C
:1058F00015D0124C2268C260D31823609C0610D1C8
:105900000F4C6240634080246401A3420FD8890693
:10591000114380231B0619434368196010BD5B00C7
:10592000E7E7084B084A54210848FDF735FD084BC6
:10593000054A56210548FDF72FFDC046C8530020F3
:10594000000010501C650110506601104C650110DC
:10595000BC650110F8B505000E001400FFF7B6FF96
:105960007F232B40EF0985707A427A4142700022F2
:10597000C2700683C476012F0DD0DA0012498C461E
:1059800062448260826800211160002B09D143606B
:105990000E4BC360F8BDDA000D498C46624482604C
:1059A000F0E7012F09D0013BDB000A4A944663442B
:1059B00043602100FFF796FFECE7013BDB00064A5E
:1059C000944663444360F4E7840010500001105093
:1059D000800010500C0010500800105070B50C00E2
:1059E0001500FFF773FF2A00210000F00DF970BDCC
:1059F00010B5002804D101210520FBF7D5FD10BD0D
:105A0000D521034B034A49000348FDF7C5FCC046B6
:105A100004660110406601104C65011010B50028A5
:105A200005D1002200218020FFF7D8FF10BDDB2127
:105A3000024B034A49000348FDF7AEFC046601101F
:105A4000306601104C650110024B80225202DA646C
:105A50007047C0460020115070B5041E26D100F0DA
:105A6000ADF8164D0C23AB67FF2215490520FBF757
:105A7000EFFD402200211348FFF762FA0022402187
:105A80000020FFF767FF002240218020FFF762FF20
:105A90000EF0D6FF01232B6480239B05EB6490233B
:105AA000094AEA502000FFF7CFFF70BD8621074B5F
:105AB000074AFF310748FDF76FFCC0460000115050
:105AC000A5060020F421002010D00100046601107A
:105AD000646601104C6501100B785B0602D14B78AF
