:020000041000EA
:1000000000B5324B212058609868022188439860DF
:10001000D860186158612E4B002199600221596106
:100020000121F02299502B49196001219960352056
:1000300000F044F80222904214D00621196600F024
:1000400034F8196E01211966002018661A6600F04E
:100050002CF8196E196E196E052000F02FF8012189
:100060000842F9D1002199601B49196000215960AB
:100070001A491B48016001219960EB211966A021F2
:10008000196600F012F800219960164914480160C1
:100090000121996001BC002800D000471248134993
:1000A000086003C880F30888084703B5996A0420EC
:1000B0000142FBD001200142F8D103BD02B5186610
:1000C0001866FFF7F2FF186E186E02BD00000240BE
:1000D000000000180000070000035F00212200005C
:1000E000F4000018222000A00001001008ED00E03C
:1000F00000000000000000000000000074B24E7A12
:1001000000200420F7010010C3010010C5010010F9
:10011000C1010010C1010010C1010010C101001097
:10012000C1010010C1010010C1010010C701001081
:10013000C1010010C1010010C9010010CB01001065
:10014000CD010010CD010010CD010010CD01001037
:10015000CD010010CD010010CD010010CD01001027
:10016000CD010010CD010010CD010010CD01001017
:10017000CD010010CD010010CD010010CD01001007
:10018000CD010010CD010010CD010010CD010010F7
:10019000CD010010CD010010CD010010CD010010E7
:1001A000CD010010CD010010CD010010CD010010D7
:1001B000CD010010CD010010CD010010CD010010C7
:1001C00000BE00BE00BE00BE00BE00BEEFF3058054
:1001D000103800BEF2EB887104320510243205108D
:1001E0003402001090A31AE700201F49086006C8D7
:1001F00081F3088810471D48006800282FD10DA4FE
:100200000ECC002902D000F012F8F9E71849194A7B
:10021000002000E001C19142FCD1174988471749ED
:1002200088471749884700BEFDE701C901C29A42C5
:10023000FBD3704724320510C0000020E00E0020E0
:100240004440051000000420000004204440051034
:10025000001004200010042000000000704709482E
:1002600005F070FB0047000008ED00E0000000D042
:10027000000F0020DCA70220D5450010A9040010C3
:10028000954500105756000006005250ABB360531E
:10029000247C011006005250861C0302347C01109D
:1002A000060052505422A29D407C0110050052507D
:1002B000DE65F46844400510F8B5C04606480749B5
:1002C000091A8B10C90FC91810B5491003D0044B77
:1002D000002B00D0984710BDE00E0020E00E00205B
:1002E00000000000054B10B5002B03D00449054861
:1002F00000E000BFFFF7E2FF10BDC04600000000B5
:10030000D89C022058640110F8B5CE46474680B507
:1003100006000F0015F0CEFF8046380015F0CAFF2A
:1003200081468446002828D080452CD300201AE03E
:1003300094421ED10133634511D2C218B45CFA5CF9
:1003400021004139C9B2192901D82034E4B215007D
:10035000413DEDB2192DEBD82032D2B2E8E70123AE
:10036000002B0BD101304B46C318434503D8002363
:10037000E1E70023F4E7002300E000231800C0BCFD
:10038000B946B046F8BD0023F8E70000F0B5C64610
:1003900000B5A0B00D0014001E00002A22D0538921
:1003A0001F1C7F2B00D97F27BFB261683A006846C7
:1003B00006F0FCF800236A46D35531496846FFF73A
:1003C000A3FF002812D02F4B05221A702E4A3100AD
:1003D000280000F0BDFD3100280001F035FF2000AD
:1003E00009F0A2FB20B080BCB846F0BD27496846A2
:1003F000FFF78AFF002803D0224B06221A70E5E798
:1004000023496846FFF780FF002803D01D4B0722D1
:100410001A70DBE71F496846FFF776FF002803D014
:10042000184B08221A70D1E71B496846FFF76CFF8A
:10043000002803D0134B01221A70C7E717496846FA
:10044000FFF762FF002803D00E4B02221A70BDE7AF
:1004500013496846FFF758FF002803D0094B0322D1
:100460001A70B3E70F496846FFF74EFF002803D024
:10047000044B04221A70A9E7024B00221A70A5E768
:1004800058640110C9A70220891300006864011094
:100490007864011088640110AC6C0110986401103C
:1004A000446B01107064011030B587B006F01CFA7F
:1004B000FA20C00003F043FA5E4C200006F0D8F9A1
:1004C0005D4806F0D5F9200006F0D2F95B4806F049
:1004D000CFF911F049FD002800D097E011F04EFC53
:1004E000574C5848210006F0F3F95749574B584AE2
:1004F000200011F0FCFC011E00D08EE0554806F0F3
:10050000B7F9554B1868043010F0A4FC0100534BA8
:10051000180006F0DDF9524806F0AAF900F0F8F8E4
:1005200000F088F94F4806F0A3F900F025FD4E4889
:1005300006F09EF901F01EF84C4806F099F901F01A
:10054000ADF94B4806F094F901F0F4FD494806F086
:100550008FF90DF06FFD484B1860002861D04749B6
:10056000474A0DF0C7FB011E5FD14649424B0022AE
:1005700018680DF03DFD424C4348210006F0A8F9F3
:100580004248434906F0A4F94248434906F0A0F91D
:10059000424806F06DF901F043FE414806F068F963
:1005A000244D280006F064F93E4806F061F9280061
:1005B00006F05EF93C48210006F08AF93B4806F057
:1005C00057F93B4806F054F93A4B1878C0B201F09D
:1005D000F5F800F0E0FF384B186003AC200001F0A4
:1005E00083F9684601F0C2F9684601F011FA334B0D
:1005F0001860200001F03AFA314B1860200001F039
:1006000055FA304B186001F037FEDDE72E4806F052
:100610002FF90120404207B030BD2C4806F058F9B0
:10062000F7E72B4806F024F9F3E72A4806F050F9DB
:10063000EFE7C046A4640110D86401100C650110F6
:10064000446501105065011070650110307500009F
:1006500004004000A0650110C89C0220B465011090
:10066000CC650110F86501101C6601104866011088
:1006700068660110886601108CA7022008B8011076
:10068000881300008D030010E86601101467011044
:1006900089130000406701108D1300006C67011082
:1006A0008C670110A8670110DC6701100C6801104D
:1006B0003C680110C9A70220E0890120E4890120DB
:1006C000E8890120EC890120286501107C65011072
:1006D000AC660110CC66011083001B189B00094812
:1006E000844663441000002909D01004064A1968A2
:1006F0004840104080225201134318607047034A5B
:10070000F5E7C0460C0005400000FFFFFFFF0000BA
:1007100030B587B001A83A4B0200190038C938C279
:1007200009C909C200240CE0A20001ABD558280079
:1007300001F038FF0123AB40D022120653629361CF
:100740000134042CF0DDD0231B06802212025A61F2
:100750000421082001F0E2FD0421092001F0DEFD62
:1007600004210A2001F0DAFD04210B2001F0D6FD5E
:10077000244B04221A60244D2A6024480523036078
:10078000234C2360234B00211960234A012313606B
:10079000224A1160224A1360224A234911661166D7
:1007A00051675167102151655165916691661F4AE5
:1007B0001268190091431E4A11602A689100891835
:1007C0008A0018498C46624411681D008D438021BF
:1007D00049010A4315600268900080188200624453
:1007E00010681D0085430A43156022689000801838
:1007F000820062441068834311430B6007B030BD30
:10080000BCAD011098A502209CA50220A0A5022045
:10081000A4A50220387F01203C7F0120407F0120D9
:10082000447F012000000540691800005000054089
:100830005010054010B50E4B18680E4B1968002279
:10084000FFF74AFF0C4B18680C4B19680022FFF7A2
:1008500043FF0B4B18680B4B19680022FFF73CFF56
:10086000094B1868094B19680022FFF735FF10BDC6
:1008700098A50220387F01209CA502203C7F012002
:10088000A0A50220407F0120A4A50220447F0120D2
:1008900010B50F4B18680F4B19680F4C2200FFF76B
:1008A0001BFF0E4B18680E4B19680022FFF714FF50
:1008B0000C4B18680C4B19682200FFF70DFF0B4B0F
:1008C00018680B4B19680022FFF706FF10BDC046E1
:1008D00098A50220387F0120691800009CA50220FD
:1008E0003C7F0120A0A50220407F0120A4A502207A
:1008F000447F012010B50F4B18680F4B1968002278
:10090000FFF7EAFE0D4B18680D4B19680D4C2200DD
:10091000FFF7E2FE0C4B18680C4B19680022FFF73A
:10092000DBFE0B4B18680B4B19682200FFF7D4FE57
:1009300010BDC04698A50220387F01209CA502204A
:100940003C7F012069180000A0A50220407F012003
:10095000A4A50220447F012010B50F4B18680F4B4F
:1009600019680022FFF7B8FE0D4B18680D4B196887
:100970000D4C2200FFF7B0FE0C4B18680C4B1968A9
:100980002200FFF7A9FE0B4B18680B4B19680022D9
:10099000FFF7A2FE10BDC04698A50220387F0120B7
:1009A0009CA502203C7F012069180000A0A5022020
:1009B000407F0120A4A50220447F012010B50F4BE9
:1009C00018680F4B19680F4C2200FFF785FE0E4B7D
:1009D00018680E4B19680022FFF77EFE0C4B186852
:1009E0000C4B19680022FFF777FE0B4B18680B4B76
:1009F00019682200FFF770FE10BDC04698A50220BE
:100A0000387F0120691800009CA502203C7F01204E
:100A1000A0A50220407F0120A4A50220447F012040
:100A200010B50E4B18680E4B19680022FFF754FEE4
:100A30000C4B18680C4B19680022FFF74DFE0B4B4E
:100A400018680B4B19680B4AFFF746FE0A4B1868EB
:100A50000A4B19680022FFF73FFE10BD98A502203F
:100A6000387F01209CA502203C7F0120A0A5022008
:100A7000407F012069180000A4A50220447F0120C6
:100A800010B50E4B18680E4B19680E4AFFF724FE7E
:100A90000D4B18680D4B19680022FFF71DFE0C4B1B
:100AA00018680C4B19680022FFF716FE0A4B1868ED
:100AB0000A4B19680022FFF70FFE10BD98A502200F
:100AC000387F0120691800009CA502203C7F01208E
:100AD000A0A50220407F0120A4A50220447F012080
:100AE00010B50E4B18680E4B19680022FFF7F4FD85
:100AF0000C4B18680C4B19680022FFF7EDFD0B4BEF
:100B000018680B4B19680022FFF7E6FD094B1868BF
:100B1000094B1968094AFFF7DFFD10BD98A50220AF
:100B2000387F01209CA502203C7F0120A0A5022047
:100B3000407F0120A4A50220447F01206918000005
:100B400010B50E4B18680E4B19680022FFF7C4FD54
:100B50000C4B18680C4B19680C4AFFF7BDFD0C4B89
:100B600018680C4B19680022FFF7B6FD0A4B18688D
:100B70000A4B19680022FFF7AFFD10BD98A50220AF
:100B8000387F01209CA502203C7F012069180000CD
:100B9000A0A50220407F0120A4A50220447F0120BF
:100BA00070B50400642800D96424124B1868124BF5
:100BB00019680022FFF790FD104B1D68104B1E684E
:100BC00010486043642104F0E9FE84B22200310041
:100BD0002800FFF781FD0C4B18680C4B19682200A8
:100BE000FFF77AFD0A4B18680A4B19680022FFF7D5
:100BF00073FD70BD98A50220387F01209CA50220BE
:100C00003C7F012069180000A0A50220407F012040
:100C1000A4A50220447F012070B5642800D9642077
:100C2000124B1D68124B1E68124B5843642104F08E
:100C3000B5FE84B2220031002800FFF74DFD0E4BB7
:100C400018680E4B19680022FFF746FD0C4B186818
:100C50000C4B19680022FFF73FFD0B4B18680B4B3C
:100C600019682200FFF738FD70BDC04698A5022024
:100C7000387F0120691800009CA502203C7F0120DC
:100C8000A0A50220407F0120A4A50220447F0120CE
:100C9000090703D51C2802D0022805D07047054A51
:100CA000136801331360F9E7034A136801331360D3
:100CB000F4E7C0467CA7022080A70220F0B5DE46FC
:100CC00057464E464546E0B5A3B07C4B1A68914660
:100CD00000221A607A4B19688B461A60794B1B68A0
:100CE0009846794B1B681693784B1A682092784B7C
:100CF00019688A46484605F041F904000D000022B3
:100D0000744B05F0B8F802000B0005F0AFF80022B4
:100D1000714B05F0CAF818901991704A704B200079
:100D2000290005F0C2F804000D0002000B0005F0D8
:100D30009DF81A901B916B4F22002B003868796840
:100D400005F094F838607960584605F017F904000A
:100D50000D0000225F4B05F08EF802000B0005F03D
:100D600085F800225C4B05F0A0F81C901D915B4AB1
:100D70005B4B2000290005F098F804000D000200EC
:100D80000B0005F073F81E901F91574E22002B00A8
:100D90003068716805F06AF830607160169805F087
:100DA000B3FA16901791209805F0AEFA04000D00E2
:100DB000504605F0A9FA0A000100209121924B4803
:100DC0000291039200940195169A179B414605F0F3
:100DD0007FFD47483A687B68029203931A991B9AF1
:100DE00000910192189A199B494605F071FD4148FE
:100DF00032687368029203931E991F9A00910192C0
:100E00001C9A1D9B594605F063FD3B4805F030FDDB
:100E10003A4B1B78002B07D1012023B0F0BCBB4616
:100E2000B246A946A046F0BD354AC02135482E4BF2
:100E30001E685F68149615971E9E1F9F1296139743
:100E40001C9E1D9F109611975B460E93254B1E68A6
:100E50005F680C960D971A9E1B9F0A960B97189E1B
:100E6000199F089609974B460693209E219F04964A
:100E7000059702940395169B179C00930194434693
:100E8000490004F02BFD0500A02281B2920036201B
:100E900008F096FE041EBFD040681A492A0005F0EB
:100EA00085FB194B1B88194A1949086821000DF068
:100EB00042F8200008F038FEAEE7C0467CA70220CA
:100EC00080A70220E0890120E4890120E88901202F
:100ED000EC8901200000544000004E40333333338E
:100EE000096EEC3F70100020781000206C68011033
:100EF000A4680110E86801102C690110D7A702202E
:100F000030690110F8A50220BCA70220F4A5022038
:100F100078A70220F0B5C64600B584B004000E00E4
:100F200017001D0002F05EFB8046E117FA229200D6
:100F30000023200005F00AF902000B00029501973A
:100F40000096404602F068FC04B080BCB846F0BD94
:100F5000054B18600968054B1960054B1A80054B55
:100F600001221A707047C04678A70220F4A502201B
:100F7000BCA70220D7A7022010B51C2001F012FB4D
:100F8000D024240680235B05A362002201211C20BB
:100F900001F0DCF9022001F005FB0423A36200222A
:100FA0000121022001F0D2F90F4802221C2105F094
:100FB0008FFC0E4B012208211C2001F097FA012220
:100FC0000821022001F082FA094805F051FC094B82
:100FD0000949FA24640000222000FFF79BFF07481C
:100FE000210005F075FC10BDF0690110910C001096
:100FF0001C6A011098100020BD0C00103C6A011002
:1010000030B501250DE05A1C92008150013B002BA8
:1010100003DB9A001158A142F5D801339B00C4505C
:101020000135042D03DCAB00C4586B1EEFE780686C
:1010300030BD000010B5002B02DB0260436010BD24
:10104000024B034A03483F2103F0A8FA6C6A0110DF
:101050001CAE0110886A011010B582B0040002F0C5
:10106000FFFC02000B006846FFF7E4FF009A019BBB
:1010700022606360200002B010BD000070B582B035
:10108000D024240680256D0265610A20002102F02B
:1010900049FCA5616846FFF7DFFF009C019DD02356
:1010A0001B065A6880239B0216001E401A420DD16F
:1010B0006846FFF7D1FF009A019B121BAB41002B42
:1010C00022DCECD1124B9A42E9D91DE06846FFF7C9
:1010D000C3FF009C019DD0231B065B689B030ED5BC
:1010E0006846FFF7B9FF009A019B121BAB41002B2A
:1010F00003DCF0D1064B9A42EDD9002604E06846A5
:10110000FFF7AAFF009E361B300002B070BDC0463C
:101110009065000000B583B06846FFF79DFF00981A
:101120000199074B9A68DB68121A8B4101204042F3
:10113000C117801859410B43D80F03B000BDC046FA
:10114000000F002070B582B0060014001D00FA22C6
:10115000920000230698002104F0F8FF02000B0023
:1011600012196B41002B09DB6846FFF763FF009AF9
:10117000019B32607360300002B070BD01225242A8
:10118000004BF1E7FFFFFF7F70B584B0050002AEB2
:101190003000FFF761FF029A039B054C0095300079
:1011A000FFF7D0FF029A039BA260E36004B070BD1A
:1011B000000F002010B5074805F05AFB064805F05F
:1011C00057FB064B01221A705A70C820FFF7DCFF4C
:1011D00010BDC046EC6A01101C6B0110000F00200E
:1011E000F0B589B005AC200000F0C0FB200000F095
:1011F0000FFC264B1861264904F0C5FF041C04E0CF
:101200002449201C04F0C2FF041C0021201C05F00E
:1012100003F80028F4D104E01E49201C04F0B3FFB9
:10122000041C1C49201C05F005F80028F4D1174DBA
:101230006C6102AC2000FFF70FFF029A039B164976
:1012400000912000FFF77EFF029A039BAA61EB61E9
:101250002000FFF701FF029A039B2A626B6246207F
:10126000FFF79EFC28696D6905F04EF806000F0037
:101270000A4C281C05F048F80090019132003B0010
:10128000200005F025FB09B0F0BDC046000F00208E
:101290000000B4420000B443983A00004C6B0110C7
:1012A000F0B589B005AC200000F060FB200000F034
:1012B000AFFB264B1861264904F068FF041C04E0CC
:1012C0002449201C04F062FF041C0021201C04F0AF
:1012D000A3FF0028F4D104E01E49201C04F053FFB2
:1012E000041C1C49201C04F0A5FF0028F4D1174D54
:1012F0006C6102AC2000FFF7AFFE029A039B164917
:1013000000912000FFF71EFF029A039BAA61EB6188
:101310002000FFF7A1FE029A039B2A626B6246201F
:10132000FFF77AFC28696D6904F0EEFF06000F00F4
:101330000A4C281C04F0E8FF0090019132003B00A9
:10134000200005F0C5FA09B0F0BDC046000F00202E
:101350000000B4420000B443983A00007C6B0110D6
:10136000F0B5CE46474680B58DB006A8FFF774FEAF
:1013700006980799744B9A69DB691C0013001B1AC5
:101380008C411A00002C14DD06A8FFF765FE0698B4
:1013900007996D4B1A6A5B6A1C0013001B1A8C417B
:1013A0001A00002C10DD00200DB0C0BCB946B046BC
:1013B000F0BD002C01D1002AE6D1644805F058FAAE
:1013C000FFF738FA0120EFE7002C01D1002AEAD11B
:1013D00006AD2800FFF740FE069A079B5A4C3221C3
:1013E00000912800FFF7AEFE069A079B2262636217
:1013F00009AD280000F0BAFA280000F009FB051C2E
:101400006669011C301C04F0BEFE041C04E0504957
:10141000201C04F0B8FE041C4E49201C04F012FFEE
:101420000028F4D104E04A49201C04F0AFFE041C5B
:101430004949201C04F0F0FE0028F4D16000430864
:1014400098468021C905181C04F0ECFE002813D131
:101450004249404604F0F6FE002826D14049404665
:1014600004F0F0FE00282FD13E49404604F0EAFE89
:1014700000282BD01E2719E0281C04F045FF04008B
:101480000D00394F404604F03FFF02900391301C9D
:1014900004F03AFF0090019122002B00380005F083
:1014A00017FAFFF7C7F901207EE746270021201C25
:1014B00004F0B2FE00280BD10021201C04F0C2FE73
:1014C000002823D100206FE72D27EFE71427EDE751
:1014D0003800FFF765FB1C4B5B699946281C04F03C
:1014E00013FF04000D00214E0497404604F00CFF4A
:1014F00002900391484604F007FF009001912200FA
:101500002B00300005F0E4F900204DE73800FFF72C
:1015100083FB0D4B5B699946281C04F0F5FE040023
:101520000D00134E0497404604F0EEFE0290039126
:10153000484604F0E9FE0090019122002B003000A3
:1015400005F0C6F900202FE7000F0020AC6B01105A
:101550000000B44300003443000034C30000F041F5
:10156000000070410000A040D06B0110086C011019
:10157000446C011010B5102001F014F8D02424069A
:1015800080235B026362A361112001F00BF88023CA
:101590009B02A36210BD10B586B0002406E0A20035
:1015A00001ABD050142002F0CAF90134042C07DC3E
:1015B000FFF764FD0028F2D03A2104F017FAEEE7B5
:1015C00001A8FFF71DFD002801D006B010BDFFF7F0
:1015D00055FD0028F9D03A2104F008FAF5E700009B
:1015E00010B5564B5B78092B00D9A0E09B00544AFC
:1015F000D3589F46FFF78EFD002800D110BD5148FB
:1016000005F036F9FFF7ECFD4C4B02225A70F5E776
:101610000020FFF7A5FE0028F0D04B4805F028F980
:10162000FFF736F9C8204000FFF7AEFD434B032219
:101630005A70E3E7FFF76EFD0028DFD0434805F05E
:1016400017F9FFF72DFE3D4B04225A70D6E7012013
:10165000FFF786FE0028D1D0FFF79DFF04003C482D
:10166000210005F035F91E2C09D93A4805F000F99A
:10167000C820FFF789FD314B05225A70BEE7364876
:1016800005F0F6F8C820FFF77FFD2C4B01225A70B9
:10169000B4E7FFF73FFD0028B0D0304805F0E8F888
:1016A000FFF79EFD254B06225A70A7E70020FFF7A3
:1016B00057FE0028A2D02A4805F0DAF8FFF7E8F82C
:1016C000C8204000FFF760FD1C4B07225A7095E7C9
:1016D000FFF720FD002800D190E7224805F0C8F868
:1016E000FFF7DEFD154B08225A7087E70120FFF750
:1016F00037FE002800D181E71B4805F0B9F8FFF755
:10170000C7F81A48FFF740FD0C4B09225A7075E7DD
:10171000FFF700FD002800D170E7FFF78BF81448B1
:1017200005F0A6F8054B00221A705A7066E7FFF71D
:1017300081F8024B00221A7060E7C046000F0020BB
:10174000D0AD0110806C01109C6C0110B46C0110C4
:10175000E06C0110146D01102C6D0110546D01101E
:10176000706D0110946D0110B06D0110C40900007E
:10177000DC6D011010B508281BD880000E4B1B58DB
:101780009F46FFF785F810BDFFF7B4F8FBE7FFF7BA
:10179000E3F8F8E7FFF712F9F5E7FFF741F9F2E7A9
:1017A000FFF76EF9EFE7FFF79BF9ECE7FFF7C8F9F2
:1017B000E9E7FFF73FF8E6E7F8AD011010B50400E0
:1017C0000C4B1B78002B11D1012803D0052801D028
:1017D000062804D1FFF7DFFE01381D2803D92000B9
:1017E000FFF7C8FF10BDFFF7E5FCFBE7FFF7F8FECA
:1017F000F8E7C046000F002010B50B480B4914F065
:101800005BFC03211A2000F089FD03211B2000F05E
:1018100085FD002201211A2000F098FD00220121FF
:101820001B2000F093FD10BDB00E0020801A0600B2
:1018300070B584B003AC2023237037336370164D2A
:1018400000260096553B22001921280014F060FC68
:10185000232323701B3B63700096063B2200192153
:10186000280014F055FC2670182363700096163B70
:1018700022001E21280014F04BFC02232370667006
:10188000009622001E21280014F042FC642002F081
:1018900056F804B070BDC046B00E002000B585B04B
:1018A000FFF7AAFFFFF7C4FF0A4804F0E1FF0A4868
:1018B000C0221206094B0292039380229205084B24
:1018C00000920193C0221206064B05F001F805B004
:1018D00000BDC046146E0110546E0110F38BA23F80
:1018E00085EBB13FE045A73FF0B587B005000F227B
:1018F0006A44A82313701C4CA73B009319212000B5
:1019000014F006FC04AE00230093063332001921C4
:10191000200014F009FC7078000200B233781843FC
:10192000F7783F023FB2B3781F437479240224B2A0
:1019300033791C4304F08CFCE221890504F03DFC62
:101940002860380004F084FCE221890504F035FCAD
:101950006860200004F07CFCE221890504F02DFC85
:10196000A86007B0F0BDC046B00E0020F0B587B04B
:1019700006000F226A44032313701F4C023B00939E
:101980001E21200014F0C4FB04AF00230093063393
:101990003A001E21200014F0C7FB3878000200B284
:1019A0007B781843BC78240224B2FB781C433D7931
:1019B0002D022DB27B791D4304F04AFC0F4904F03F
:1019C000E8FB0F4904F0DFFB3060280004F040FC26
:1019D0000A4904F0DEFB0B4904F0D5FB70602000DF
:1019E00004F036FC084904F0D4FB084904F0CBFBB2
:1019F000B06007B0F0BDC046B00E00200080894442
:101A0000062F3A3D295C8F3D000075449E5F143DD2
:101A100070B54668006804F077FC04000D00301CC7
:101A200004F072FC22002B0004F000FB00220B4BA0
:101A300004F03BFA0A4A0B4B04F01DFA04F0E6FAF4
:101A4000041C002104F0E8FB002801D1201C70BD1B
:101A50000549201C04F09AFB041CF7E7008066404F
:101A6000182D4454FB2109400000B44370B546686A
:101A7000806804F049FC04000D00301C04F044FCB4
:101A800022002B0004F0D2FA0022054B04F00DFADC
:101A9000044A054B04F0EFF904F0B8FA70BDC046F3
:101AA00000806640182D4454FB21094070B50400A5
:101AB000066880231B069C4666444068011C04F0AF
:101AC0007CFB051CA068011C04F077FB011C281C92
:101AD00004F05CFB04F018FC04F0A0FA04000D0014
:101AE000301C04F011FC22002B0004F09FFA0022AD
:101AF000044B04F0DAF9044A044B04F0BCF904F096
:101B000085FA70BD00806640182D4454FB210940C1
:101B100082B000226B46D91D06E08369DB06FCD447
:101B200003680B7001320131002AF6D06B46D87978
:101B300002B0704783001B189B0009488446634429
:101B40001000002909D01004064A196848401040C6
:101B500080225201134318607047034AF5E7C046DC
:101B60000C0005400000FFFFFFFF0000F0B5DE465F
:101B700057464E464546E0B583B09C46161AF317C5
:101B8000F6185E40824211DD0123984663465F1AD3
:101B9000FC173B1963400193FC17E71B67408C451A
:101BA00008DD01239946019BF41A1EE001235B42E4
:101BB0009846EBE701235B429946F4E764235B42D6
:101BC0009A461A4D0B015B1A1B019B465D44534616
:101BD0002B54904220D06500AF4202DC019BE41AF6
:101BE0004044AE4201DBA4194944EF28F1D8002952
:101BF000EFDBEF29EDDC0D4D0B015B1A1B019A4663
:101C000055442D56AB1E9A466433D7DB5346642B9E
:101C1000D7DD64239A46D4E76145DCD103B0F0BC3C
:101C2000BB46B246A946A046F0BDC046F089012099
:101C300082B001AAA52313705070002108E0064B62
:101C40009B699B06FBD41078034B1860013101326D
:101C50000129F4D902B070470080034070B5041C1C
:101C60000421002000F05AFB104D114B2B6164231E
:101C70006B601049201C04F0A0FA0F4904F089FAA7
:101C800004F036FB82B200210020FFF753FF2A68E0
:101C900001239343094A1360201C04F035FB020022
:101CA0000B00074804F014FE70BDC046000005405C
:101CB0000F270000003C1C460000C84200100540F1
:101CC000706E011010B5002B02DB0260436010BD86
:101CD000024B034A03483F2102F060FC6C6A01108A
:101CE00034AE0110886A011010B582B0040001F012
:101CF000B7FE02000B006846FFF7E4FF009A019B65
:101D000022606360200002B010BD0000F0B5C6463E
:101D100000B580460E001700002406E043461D195A
:101D20000848FFF7F5FE28700134B44206DA39009E
:101D3000044802F0FDF90028F0D100E0012080BC49
:101D4000B846F0BD0080034000B589B05020FFF7D1
:101D50006FFF074A072106A8FFF7D8FF002801D127
:101D600009B000BD024A142101A8FFF7CFFFF7E731
:101D700020A1070000B583B02020FFF759FF034AD8
:101D800007216846FFF7C2FF03B000BD20A107008E
:101D9000F8B507000E0015000024FA235B019C42F1
:101DA00059D2FA2189002D4802F0C2F9002804D145
:101DB000FA239B009C466444EFE72848FFF7A8FEFF
:101DC000274B1B78002B0DD1012202408307DB0F2C
:101DD0009A42E2D0234B1870234B01221A60204B09
:101DE0001A70DAE720490A68531C0B601D498854B1
:101DF000042BD2DD0B78012119409A07D20F9142B2
:101E000023D09B082B70174CA3786078DB01400827
:101E1000184304F01DFAF221890504F0CEF9386068
:101E20002379E4781B021C43200004F011FAFA2104
:101E3000890504F0C2F930600B4B00221A60084B90
:101E40001A70631E9C41E0B2F8BD074B00221A6075
:101E5000034B1A70A1E70020F6E7C046008003405C
:101E6000D3A702201C7F0120F06E022070B50E1C4B
:101E700014001D000F4904F08CF914F075FA783045
:101E800020600C49301C04F084F914F06DFA7822BB
:101E9000101A28602368EF2B05D8002805DBEF28EF
:101EA00005DD002000E0002070BD0020FCE70120DF
:101EB000FAE7C0460000A042F0B587B0041C0D1C34
:101EC00001924349281C04F0A7F9002801D007B06B
:101ED000F0BD404B1968404B186804AB05AAFFF7EA
:101EE000C5FF0028F3D03D4B3D49186804F065F963
:101EF00004F00AFA3B4A3C4B03F0BDFF06000F001A
:101F0000201C04F001FA32003B0003F0AFFF04F0A4
:101F10007DF88521C90504F050F9344904F094FA9C
:101F200014F022FA031E41DBB42252019A18B421A4
:101F3000C9018A4201DB2E4A9A182E489200115894
:101F40009B001E58281C04F038F9234B196804F034
:101F50001DF9041C311C281C04F02FF91D4B1968B5
:101F600004F014F9011C02AB03AA201CFFF77EFF4A
:101F70000028ACD0029B039A04990598FFF7F6FD60
:101F8000019B002BA3D00398059B984212D0029C82
:101F9000194B2201121B12019B181B5612331A00F7
:101FA00064320CDB642B0CDD64230AE0B423DB0118
:101FB000C318B9E7029A049B9A42E8D187E76423E1
:101FC0005B420D4A2101091B0901521813547EE797
:101FD0000000F042109D02200C9D0220089D02206E
:101FE00000003443182D4454FB2109400000B4463E
:101FF00080BCFFFFB0100020F0890120F0B5DE4664
:1020000057464E464546E0B585B0414B1B78002B00
:102010000FD0404B1B68002B0BD03F4B1A889346C8
:1020200001321A800023994648E03C48494604F0B2
:102030004FFC05B0F0BCBB46B246A946A046F0BD79
:10204000002815DB7F20287001340135EF2C18DCC7
:10205000334B3201921B12019B1818570028EFDDF9
:10206000C001642103F09AFCC0B27F30C0B2EAE73D
:10207000C301181A642103F091FCC0B27F30C0B2D2
:10208000E1E70137052F03DC4346FE180024DDE7B6
:10209000244A204B1868244B564631000BF04BFF66
:1020A0000400300007F040FD002C2BD178200021E7
:1020B00001F038FC4B460133DBB299464B46272BE7
:1020C000B7D802AB194A02925A469A80494699718A
:1020D0002822DA7101914B004B445B009846A02204
:1020E000B5219200C900362007F06AFD824600281B
:1020F0009BD04568082202A9280004F057FA083549
:102100000027BFE70A48019A210004F0E1FB90E7AD
:10211000CDA70220286F0220AAA702208C6E0110F2
:10212000F0890120246F02208D13000050414D5290
:10213000B46E011010B582B0002418E0200004F045
:1021400087F8F221890504F038F804F0DDF82A4A0E
:102150002A4B03F0AAFE0022294B03F08CFE03F069
:1021600055FF04F0D7F8274BA20098500134B42350
:10217000DB019C42E2DBB4212348C90104F0A8FB47
:10218000E121224C4902200001F090FF00230122AE
:102190000821200001F058FF236BC02212021340D7
:1021A0001B4A13600121200001F064FF022104207A
:1021B00000F0B4F80221052000F0B0F802E0134866
:1021C000FFF7A6FC114B9B69DB06F8D5E12111480E
:1021D000490204F07DFB104C6846FFF785FD009A2C
:1021E000019B226063600D485023F022F02104F02F
:1021F0006FFB02B010BDC046182D4454FB210940AE
:1022000000806640B0100020D86E011000800340AE
:1022100030900340046F011088100020346F0110CB
:1022200010B50748FFF71AFD9620C00001F087FBA4
:10223000FFF78AFDFFF79EFD024804F019FB10BD71
:102240000000C8426C6F011010B5064B18600A6898
:10225000054B1A60054B01221A700548054904F028
:1022600037FB10BD286F0220246F0220CDA702206B
:10227000846F01108D13000030B587B00F226A44BF
:1022800004A905A8FFF784FD002811D00F236B4493
:102290001B78092B0CD9049C1B49201C03F0CAFF96
:1022A000002805D01949201C03F0BCFF002811D1DB
:1022B0006846FFF719FD00980199154B1A685B688D
:1022C00004000D00A41A9D412200002D15DC11D040
:1022D00007B030BD01250F49201C03F0ABFF0028DB
:1022E00000D1002501235D40EAB20598211CFFF7CB
:1022F000E3FDDDE7084B9A42EAD9054B18605960C7
:10230000FFF77CFEE4E7C046000048420000FA45C3
:102310008810002000C0DA45DF22020010B58300DB
:10232000084A944663441A6840246240803414404A
:102330008022520113431C60C000034B9C46604442
:10234000416010BD04C001400040014080000B4BC3
:102350009C46604400290DD00823002A0CD004229A
:102360001343026853400C221A4080235B0103434D
:102370001A6070470023F0E70022F1E704C0014033
:10238000002909D08000094B9C46604480239B01B2
:10239000034302221A6070478000044B9C4660444D
:1023A000C0239B01034302221A60F4E704C00140EA
:1023B00070B50400D0231B061D680D4BAA00D3582E
:1023C000002B0AD0002803D0094BAD00EC5070BDA3
:1023D00008490D2000F090FBF6E70028F7D0044BE9
:1023E000AD00E850034900220D2000F07DFAEEE731
:1023F000307F01200D25001070B5D0231B061B680F
:10240000094C9D002C59204207D1074D9B000443E5
:102410005C510D2000F068FA70BD044B044A054879
:10242000CC2102F0BBF8C04670A30220B06F0110AF
:1024300070AE0110DC6F011010B50400D0231B0634
:102440001A680B4B9200D35818420BD00D2000F0A5
:1024500053FBD0231B061B6805499B005A58A24317
:102460005A5010BD034B044A0448D62102F096F896
:1024700070A30220387001104CAE0110DC6F011007
:10248000072303409B00C00899403C308000014B6B
:10249000C150704700400140F8B507000C0016001D
:1024A0001D00FFF7EDFFFB089B00ED1807203840EB
:1024B00080008440002E04D080239B012B431C60AD
:1024C000F8BDC0239B012B431C60F9E710B5D02356
:1024D0001B061B68002B03D0024BFFF7DDFF10BD6E
:1024E000014BFAE7304101400041014070B5140052
:1024F0001D00FFF7EBFF2800FFF75AFF002C00D16B
:1025000070BD01210D2000F09BF9F9E7F0B5D6462A
:102510004F464646C0B5D0231B061F681D4BBA0068
:10252000D3589846002F03D01B4B9946002623E032
:102530001A4B9946FAE724090135002C1BD03300C9
:102540000833AB4217D90F231A0022409246234288
:10255000F1D0134BBA00D2580123AB401342EAD159
:1025600051462800FFF78CFF4346002BE3D051462D
:102570002800C047DFE708361D2E06D8F3080833C9
:102580009B004A469C583500D7E7E0BCBA46B146A6
:10259000A846F0BD307F012030410140004101409C
:1025A00070A3022010B501238340D022120693624B
:1025B00093610521FFF7B2FE10BD0000034B1B68BD
:1025C00002201840431E9841C0B2704700C0064028
:1025D000EFF3108072B6034B1B68002BFBD0BFF3E8
:1025E0005F8F70472C0100D0BFF35F8F024B00223A
:1025F0001A6080F3108870472C0100D0F8B50600EF
:102600000C001500FFF7E4FFE308F718F15C072260
:102610002240012393400B4205D1DBB20B433B70B8
:10262000FFF7E2FFF8BD2100280002F04FF8F0B5F7
:1026300083B00600019114001F00FFF7C9FF00E0FE
:102640000134BC420CD8E308F518F35C07212140A3
:1026500001228A401A42F3D1D2B21A432A7001E011
:1026600001246442FFF7C0FF002C02DB200003B00E
:10267000F0BD019B002BF9D0089802F027F800006C
:1026800070B505000C00FFF7A3FFE308EE18EA5C45
:102690000721214001238B40134204D09A4332701A
:1026A000FFF7A2FF70BD034B034A0448332101F03A
:1026B00075FFC04664700110A4AE01108470011053
:1026C000002307E0054A9A189200BFF35F8F0021AC
:1026D000116001331F2BF5D97047C046400000340C
:1026E000054A1078431CDBB21370172B02D9130074
:1026F00010221A707047C046700D002010B582B0CD
:102700000100054C054B00931F2318222000FFF702
:102710008EFF02B010BDC046507F0120E470011052
:10272000074B9B68103080001950BFF35F8FBFF3D9
:102730005F8F044B0021196082F310887047C046F8
:1027400000ED00E0240100D01F23181A704700009C
:1027500010B50388DA0A1C2A05D15B055B15023324
:102760005B00C01810BD034B034A0448B12101F0BF
:1027700015FFC0460071011008AF0110187101105B
:1027800010B5091A0B1F0A4A88180A4A904208D83D
:10279000C90706D45B105B055B0D0748184380B280
:1027A00010BD064B064A0748A32101F0F7FEC046BC
:1027B000FC070000FE0F000000E0FFFF7471011035
:1027C000FCAE01101871011010B5091A04394A083D
:1027D000090B08D14905490D064B0B430380064BF5
:1027E0001343438010BD054B054A0648AB2101F059
:1027F000D5FEC04600F0FFFF00F8FFFFA4710110F6
:10280000D0AE01101871011001238340034A1068F3
:102810001840431E9841C0B27047C04600E100E036
:10282000002904D0034B1860034B18607047034B1A
:102830001860FBE780E200E000E100E080E100E0FA
:1028400010B5012383401800FFF7EAFF10BD000018
:1028500001238340014A13607047C04600E200E054
:10286000024B9B6810308000C058704700ED00E0BC
:1028700010B5FFF7F5FF002805D0054BC01A2F282B
:1028800003D8012010BD0020FCE70020FAE7C04675
:10289000740D002070B504000D00EFF3108672B6C1
:1028A0000C4B1B68002BFBD0BFF35F8F2000FFF7A2
:1028B000D7FF094B984201D0A84205D13200290028
:1028C0002000FFF72DFF70BD044B054A0548862107
:1028D00001F064FE240100D0CD010010B47101109C
:1028E00030AF011018710110F0B5DE4657464E4664
:1028F0004546E0B589B0814601911500EFF3108A95
:1029000072B66D4B1B68002BFBD0BFF35F8F6B4B18
:1029100000269E57002E41DB7400A419A4006848CD
:1029200024180622A256654B1A70664B9A684B46CD
:1029300010339B00D35898461F00181A2F2839D9F6
:10294000614B984530D105AF604B3B8060497300C7
:102950009B46981980005A4B984640440230FFF736
:102960000FFF78805B4BBB80FF23BB71FD71019B28
:10297000079333005B449B00434407CF07C3012305
:102980001C43A046524641464846FFF7C9FE09B0DF
:10299000F0BCBB46B246A946A046F0BD4E4B4F4ADE
:1029A0004F48D72101F0FAFD4E4B4C4A4C48DE21EE
:1029B00001F0F4FD01380C2103F018F8002912D1C0
:1029C00001239F43BB463B000027DA79AA4211D975
:1029D0000621595600290CDB4A005218920038494A
:1029E0001F008B18F1E7404B3C4A3D48EA2101F0BB
:1029F000D5FD1F00002F2ED005AB3C4A1A80813A2E
:102A00005A800623FB560293002B17DA384805AB91
:102A10009B469880029A9A71DD71019A0792381D3F
:102A20002100FFF7ADFEB880BE71254B72009219F0
:102A300092009B185A4613CA13C3A3E7381DFFF729
:102A400087FE01007000801980001D4BC018043003
:102A5000FFF796FEDBE705AF1C4B3B801C4973007C
:102A600002939B199B00164A90461A004244039217
:102A7000901CFFF785FE7880039A101D5946FFF7DA
:102A80007FFEB8801B4B5A464146521A524153436F
:102A90001B0DBB71FD71019A0792029B9B199B0054
:102AA000434407CF07C3114B5A461380813B5380E1
:102AB00001231C43A04665E7240100D0CAA70220D9
:102AC000740D002000ED00E0CD01001000A1FFFF1B
:102AD000A40D002001BDFFFFEC71011018AF011023
:102AE00018710110147201103C72011001480000AD
:102AF00001BD0000AAAA0000F0B5CE46474680B549
:102B000083B006000D00EFF3108872B64F4B1B68C0
:102B1000002BFBD0BFF35F8F4D4B9A68340010340D
:102B2000A300D7584B4B9F4207D0AF4200D18BE058
:102B30000197494BFB1A2F2B09D942463900300027
:102B4000FFF7EEFD03B0C0BCB946B046F0BD3000A3
:102B5000FFF75AFE814600213000FFF771FEBFF3F8
:102B60005F8FEFF30581002901D08C4211D1012341
:102B7000019C9C430020A368AB4212D00622A256BF
:102B8000002A0DDB53009B189B00334A2000D41809
:102B9000F1E7324B324A36213248FF3101F0FEFC78
:102BA0002000AB4249D106256557002D2BDB2A4B6F
:102BB0006A00521992009B189A68A260DA79E27151
:102BC0009B795BB2A371002B0FDA2748A080224BC0
:102BD0006A00521992009B18244A11789971157055
:102BE00049463000FFF72CFEA7E768004019800037
:102BF000194BC0180430FFF7ABFD0100231D18006E
:102C0000FFF7BEFDE2E7002912D100280ED0FF2316
:102C10008371174B838015490B78A3710E4A154BAE
:102C2000A41A644163431B0D0B70D9E7094FF2E707
:102C30001149201DFFF7C8FDD2E7104B084A6A2151
:102C40000848FF3101F0AAFC024F76E7240100D0CA
:102C500000ED00E0CD010010740D0020B0720110F5
:102C6000E8AE01101871011001BD0000CAA70220D2
:102C700001BDFFFFAAAA0000AE0D0020E472011002
:102C800010B5032304009C43064A9446644422681A
:102C90001840C000FC3383409A43130081400B432B
:102CA000236010BD00E400E070B5012202432E4B0A
:102CB000D31A2F2B28D8EFF30583002B2BD0EFF35B
:102CC000108C72B6294909680029FBD0BFF35F8FC9
:102CD000254C274905002D1B6D416943090D4CB258
:102CE000244989689B00C95891421BD000210329BF
:102CF00032D81D4B4A00521892009B189B795BB248
:102D0000A3421FD00131F2E71B4B1C4AC7211C48CC
:102D1000490001F043FC1B4B184A92211848FF312F
:102D200001F03CFC134A92681749D150174B1A78AE
:102D300082711C70BFF35F8F0C4B00221A608CF302
:102D4000108870BD084B4A005518AD005D19FF266C
:102D5000AE710F4AAA80E9E70E4B084AD121084814
:102D6000490001F01BFCC046740D0020240100D076
:102D7000AAAA000000ED00E0EC720110B4AE011050
:102D80001871011014730110CD010010CAA70220A0
:102D900001BDFFFF207301100022044B02E0044933
:102DA00002C30132072AFAD97047C04600E400E0A6
:102DB0008080808010B5FFF7C7FC0100024B18002F
:102DC000FFF75EFC10BDC046D9A7022010B582B047
:102DD0000100074C074B0093052300222000FFF75A
:102DE00026FC002801DB1F23181A02B010BDC046C4
:102DF000D9A702202873011070B504000E00150039
:102E0000FFF76EFC0100200000F006F8A680E580C8
:102E1000BFF35F8F70BD0000024B9C466144890088
:102E2000016070474000003410B5002B02DB0260E7
:102E3000436010BD024B034A03483F2101F0AEFB43
:102E40006C6A011088AF0110886A011070B582B0F9
:102E5000060014001D00FA229200002306980021AB
:102E600003F074F902000B0012196B41002B09DB0F
:102E70006846FFF7D9FF009A019B3260736030000B
:102E800002B070BD01225242004BF1E7FFFFFF7F0D
:102E900010B582B0040000F0E3FD02000B006846AC
:102EA000FFF7C2FF009A019B22606360200002B01E
:102EB00010BD30B585B004000D0002A8FFF7E8FF93
:102EC000029A039B00952000FFF7C0FF200005B089
:102ED00030BD10B50400FFF703FC01002000FFF730
:102EE0009BFFFF232371BFF35F8F10BD10B504005C
:102EF000FFF7F6FB01002000FFF78EFFFF23237191
:102F000000236371BFF35F8F10BD0000034B9C462D
:102F1000614489000160BFF35F8F70474000003457
:102F200010B504000120FFF7E9FB01002000FFF7C6
:102F3000EDFF10BD084B5B6A994209D8064A926AB8
:102F4000824207D2994201D0012002E0002000E035
:102F5000002070470120FCE70040054010B5002923
:102F60000AD003681B7B8B4206D38068054B9C46C6
:102F700061440901401810BD034B044A04483C2138
:102F800001F00CFBFFFFFF0FEC730110C8B0011044
:102F900010740110F8B504001700FFF7DFFF066892
:102FA000456839002000FFF7D9FF02684368012017
:102FB000AB4201D802D00020C0B2F8BDB242FBD86B
:102FC000F9E7000010B5002B02DB0260436010BD82
:102FD000024B034A03483F2101F0E0FA6C6A0110FA
:102FE00094B00110886A011010B582B004000498F2
:102FF000059912184B41002B09DB6846FFF7E2FFE9
:10300000009A019B22606360200002B010BD012283
:103010005242014BF1E7C046FFFFFF7F10B5002988
:1030200008D0037B8B4205D300684B005B18033B41
:10303000C01810BD024B034A0348682101F0AEFAE4
:103040006474011070B001108074011010B5437BDE
:103050008B4201D1012010BDFFF7E0FF8378002BE8
:1030600001D10020F7E70120F5E770B50400857B6A
:10307000002D01D1280070BD2900FFF7CFFF437854
:10308000A373002B00D1E37300238370437003709C
:10309000F0E70000F8B506000C001500FFF7BEFFD2
:1030A0000700002C0DD0002D11D0AC4215D0290006
:1030B0003000FFF7B3FF84703B78002B13D13D70D5
:1030C000F8BD0A4B0A4A0B486F2101F067FA0A4B18
:1030D000074A0848702101F061FA084B044A054884
:1030E000712101F05BFA43703D70E9E7E87401106B
:1030F0004CB0011080740110F474011000750110BF
:1031000070B506000D001400002914D0002A14D058
:10311000436880689847002806D0220029003000C4
:10312000FFF7B8FF280007E02A0021003000FFF772
:10313000B1FF200000E0100070BD0800FCE70000B7
:1031400070B504000D1E0CD0FFF768FF00238370DC
:1031500043700370617B2A002000FFF7D1FF60738A
:1031600070BD034B034A0448A52101F017FAC0467D
:103170006075011060B001108074011070B504001A
:103180000D1E0FD0FFF762FF00280BD1E17B002955
:103190000ED1A37B002B03D1E37B002B0DD1A573B4
:1031A000E57370BD084B094A0948F62101F0F6F9AC
:1031B0002000FFF733FF4570EBE7064B034A044856
:1031C000FB2101F0EBF9C046187501103CB001106D
:1031D000807401103C75011010B5002907D00368F8
:1031E0001B7B8B4203D3C0680139401810BD034BD1
:1031F000034A0448412101F0D1F9C046EC730110A3
:1032000028B001101074011010B50C00CB68834277
:1032100007D10B6908009847002809D02068616829
:1032200010BD064B064A52210648FF3101F0B6F99F
:103230000023E36000200021F2E7C0465075011032
:10324000DCAF01101074011070B505000C0008000F
:1032500000F000FD0949200000F040FCFFF740FAB3
:10326000074B9C466044800068602C75D0231B0689
:103270001B786B75034BA400E55070BD95330010AF
:1032800040000034F89C02200A4B1A68EFF31081CA
:1032900072B61368002BFCD0BFF35F8F054B1B6821
:1032A000BFF35F8F00221A6081F3108840BF0020B7
:1032B0000021704794A5022010B582B0040000F0F0
:1032C000CFFB02000B006846FFF77CFE009A019BD3
:1032D00022606360200002B010BD70B584B00400AD
:1032E00016001D0002A8FFF7E7FF029A039B009655
:1032F00001952000FFF778FE200004B070BD0000AB
:10330000F0B583B0070001921D000AAB1C780BAB2F
:103310001E78002C0BD000682100FFF797FE0028D4
:1033200009D0194B194A1A48672101F037F900688A
:10333000FFF79BFE0400002C02D1200003B0F0BD7B
:1033400021003800FFF70AFE019B03604560089BDF
:103350008360099BC36038682100FFF7F1FEA0423B
:10336000EBD1387D019A2B0000F000FC051E01D046
:10337000002E04D00C9B002BDFD01D70DDE73868D9
:10338000210000F0ADFDF5E7647501107CB001107F
:1033900010740110F0B5DE4657464E464546E0B57E
:1033A0008FB00021794B8200D6588A460B9083E07B
:1033B00039003000FFF7D2FD814602684368121BD6
:1033C000AB41002B09DD4B461A685B680B9800F097
:1033D000CDFB0023994600248AE0002B01D1002A6E
:1033E000F1D10021584600F071FD0500B84215D119
:1033F0004B465C681B68089309944B469C68DB68E5
:103400009946002C10D039003000FFF7E5FE037814
:103410009A461B021D433561002069E05C4B5D4A02
:103420005D488E2101F0BAF85C4B5A4A5A48922105
:1034300001F0B4F83369002B00D177E0AB4219D129
:1034400006980799002342428B4100920193089A03
:10345000099B0CA8FFF7C8FD0C9A0D9B0021049155
:103460000131039102974946019100943000FFF722
:1034700047FF16E04A4B474A4748A12101F08EF822
:10348000069A079B002B01D1002A52D130683900DF
:10349000FFF774FE39003000FFF79EFE037801331A
:1034A0000370002333617268BFF35F8F136088F38A
:1034B00010880120002862D00CA8FFF7FDFE0C9CAC
:1034C0000D9D00220023089209937268EFF3108883
:1034D00072B61368002BFCD0BFF35F8F33689B4636
:1034E0005F7B002F00D063E7002399460024002073
:1034F0007368BFF35F8F00221A6088F31088002C76
:10350000D8D053461D023D4349462800A0470690A7
:1035100007917268EFF3108872B61368002BFCD025
:10352000BFF35F8F079B002B00DA83E7079B002B1D
:10353000A6DD3369002BA9D0AB421AD10CAD28000F
:10354000FFF7BAFE0C9A0D9B06980799009001911F
:103550002800FFF749FD0C9A0D9B002104910131D1
:10356000039102974946019100943000FFF7C8FE8D
:1035700097E70B4B074A0848A42101F00FF80FB05A
:10358000F0BCBB46B246A946A046F0BDF89C02205E
:103590008C750110ACB0011010740110A4750110ED
:1035A000B075011010B50C4B5B68002B04D00B48B4
:1035B0000A21FFF731FC10BD074C094A206823009F
:1035C000102100F0EEFB032000F03EFA0321200062
:1035D000FFF73AFEEBE7C046BC0D002094A50220A1
:1035E000952F001010B5064B5B68002B01D00448E6
:1035F00010BD044B044A05485E2100F0CFFFC046D1
:10360000BC0D0020EC75011010B0011010740110F9
:10361000F0B5DE4657464E464546E0B58FB005004C
:1036200090460793189B9A46199B99461AAB1B78AC
:103630000993272304AA9446634400221A70CB46B8
:1036400023E001002800FFF7C7FD00783FE008985D
:10365000002B62D0099B002B5FD05946D047060053
:103660000F0003000B435FD0002945DB0AAC2000AC
:10367000FFF722FE0A9A0B9B009601972000FFF7A6
:10368000B3FC0A9B98460B9B07936A68EFF310897B
:1036900072B6136859424B41D9B20891002BF8D148
:1036A000BFF35F8F273304AA944663440493002337
:1036B000039302935B460193534600934246079B54
:1036C0002800FFF71DFE0690041EBAD106986B680D
:1036D000BFF35F8F0021196089F31088002C1AD086
:1036E000272304AA944663441B78002BAFD1000221
:1036F000069A02431000ABE700237242BB410092DE
:1037000001934246079B0AA8FFF76EFC0A9B984666
:103710000B9B0793B9E7012040420FB0F0BCBB46BA
:10372000B246A946A046F0BD0898F6E7F0B5C646F1
:1037300000B584B00500884616001F000AAB1C784F
:10374000FFF750FF0294019700962A004346FFF7C7
:103750005FFF04B080BCB846F0BD0000F0B5C646BF
:1037600000B505000C1E42D04268EFF3108772B618
:103770001368002BFCD0BFF35F8FE6B22B6898462E
:1037800031001800FFF762FC00282AD02B69A34201
:1037900013D0240AE4B231002800FFF71DFD03789E
:1037A000A34211D000206B68BFF35F8F00221A6024
:1037B00087F3108880BCB846F0BD0E4B0E4A2C2112
:1037C0000E48FF3100F0EAFE3100404600F088FB71
:1037D0000028E8D10A4B084A99210848490000F01E
:1037E000DDFE2B69A342DED100232B61DBE7002045
:1037F000E0E7C04610760110F8AF01101074011018
:103800003476011010B50400FFF7ECFE2100FFF73D
:10381000A5FF10BD407D7047F0B587B005001000D2
:1038200019000E9C13000B4301D101200021A5605B
:103830000C9B2361206061600D9B6361CE17370094
:103840007040020071400B00921BBB4104A8FFF7BF
:1038500044FD049A059B01210291019404490091C1
:103860002800FFF7D5FEE060C043C00F07B0F0BDF1
:103870000932001030B587B004000D00EFF3058366
:10388000002B20D106225242D31712196B418B42D2
:1038900002D803D1824201D90022002304A8FFF7F5
:1038A00091FB02A8FFF708FD02980399049A059B73
:1038B000121A8B41002B0BDC08D02000290000F0ED
:1038C000DBF807B030BD144800F000FF002AF4D048
:1038D000124A0498059900230093FFF727FF002858
:1038E00013DAEAE70E4B1A68EFF3108172B6136829
:1038F000002BFCD0BFF35F8F094B1B68BFF35F8FBA
:1039000000221A6081F3108820BF04980599FFF700
:1039100011FB0028E6D0D0E738760110893200107C
:1039200094A5022000B583B002000B006846FFF7A3
:10393000D4FC00980199FFF79DFF03B000BD10B5BE
:10394000FA2292000023002102F000FCFFF7EAFFB8
:1039500010BD000030B583B005000C00EFF3058307
:10396000002B0FD10B4A00230093FFF7DFFE002846
:103970000BDD20BFFFF746FF28002100FFF7DAFA32
:1039800003B030BDFFF7D6FAFAE728002100FFF7B1
:10399000D1FAF5E78932001010B5002B02DB026086
:1039A000436010BD024B034A03483F2100F0F6FD7F
:1039B0006C6A0110FCB00110886A011070B5EFF359
:1039C00005801038EFF3108C72B6194B1B68002B72
:1039D000FBD0BFF35F8F01221300834015494B6377
:1039E00015490B60154909780C00C440224213D0D8
:1039F000104A546A124A8500AA58944205D3114AC3
:103A0000AA580E4C9943217007E00A4A031D9B00F7
:103A100099589950002200E00022BFF35F8F044BB9
:103A2000002119608CF31088002A00D0904770BDE7
:103A3000280100D0004005403C700540D8A7022076
:103A4000C0A50220007D012010B50100024A034BF1
:103A50001800FEF7D3FD10BD88760110C3A7022021
:103A6000044B5B6A034A906A1900536A9942F9D180
:103A70007047C04600400540084B5B6A01E0074BB9
:103A80005B6A8B42FBD301E0044B5B6A8B4203D140
:103A9000024B9B6A8342F7D37047C0460040054003
:103AA000F0B583B004000D00FFF7DAFF06000F0049
:103AB00022002B0092197B41994202D804D19042F6
:103AC00002D901225242D3176846FFF765FF0098DA
:103AD0000199FFF7D1FF03B0F0BD000070B50400FD
:103AE0000E00EFF3108572B61B4B1B68002BFBD04A
:103AF000BFF35F8F002E1CD02000FEF7B1FE174BE6
:103B000083420BD019002000FEF7C4FE01212000E3
:103B1000FEF796FE0123A340114A1360114BA40047
:103B2000E650BFF35F8F0C4B00221A6085F31088BC
:103B300070BD0C4BA2000021D1500122A2400A49C5
:103B40000B7893430B7005492000FEF7D5FF002149
:103B50002000FEF775FEE4E7280100D0BD39001013
:103B600038600540007D0120D8A70220F0B5DE4670
:103B700000B584B00400150001921E000293FFF707
:103B80006FFF03958E4202D84ED185424CD9EFF398
:103B9000108B72B6274B1B68002BFBD0BFF35F8FD7
:103BA000254A17780125A540EBB23B431370234B00
:103BB0005D63221D92000199D150214AA100029813
:103BC00088501B6A2B4212D11C4B1B6C2B4208D015
:103BD0000020BFF35F8F174B00221A608BF3108811
:103BE00023E0184B184A1948C52100F0D7FCFFF70D
:103BF00037FF8E4214D802D1039B834210D80E4B5C
:103C00001B78BB420ED00D4B1D625D631F2222400C
:103C1000012393400E4A1360074B1F700120D8E721
:103C20000020D6E70120D4E7012004B080BCBB46C9
:103C3000F0BDC046280100D0D8A7022000400540B2
:103C4000C0A50220AC760110E0B00110D0760110C2
:103C500080E200E0EFF3108C72B60B4B1B68002B78
:103C6000FBD0BFF35F8F01238340084A13620849EA
:103C70000A789A430A70BFF35F8F034B00221A60E1
:103C80008CF310887047C046280100D000400540E2
:103C9000D8A7022010B5002908D0037B8B4205D39A
:103CA00000684B005B18033BC01810BD024B034A71
:103CB0000348682100F072FC6474011054B10110D3
:103CC00080740110F8B506000C001500FFF7E2FF44
:103CD0000700002C0DD0002D11D0AC4215D02900CA
:103CE0003000FFF7D7FF84703B78002B13D13D7075
:103CF000F8BD0A4B0A4A0B486F2100F04FFC0A4BF3
:103D0000074A0848702100F049FC084B044A05485E
:103D1000712100F043FC43703D70E9E7E874011045
:103D200040B1011080740110F4740110007501108D
:103D300070B506000D001400002914D0002A14D01C
:103D4000436880689847002806D022002900300088
:103D5000FFF7B8FF280007E02A0021003000FFF736
:103D6000B1FF200000E0100070BD0800FCE770B556
:103D700005000023437301338373037BC373012462
:103D800006E021002800FFF785FF0134E4B244700B
:103D9000297BA142F5D82800FFF77CFF0023437060
:103DA00070BD10B5017342608360FFF7E0FF10BD86
:103DB000F0B5C64600B505000C1E03D1200080BC3E
:103DC000B846F0BDFFF766FF4678002EF6D031000A
:103DD0002800FFF75FFF47780023984643702100D3
:103DE0002800FFF757FF43464370320021002800A8
:103DF000FFF79EFF040039002800FFF7D9FF0200FB
:103E000021002800FFF794FF0400D7E7F0B5C6466D
:103E100000B504000D001700002927D0FFF73AFF76
:103E20004378002B28D18378002B2BD101782000F8
:103E3000FFF7BEFF06008046002F0AD0E17B002975
:103E400026D1A37B002B03D1E37B002B25D1A573C7
:103E5000E5734346002B26D129002000FFF71AFF07
:103E600000234370300080BCB846F0BD114B124AAD
:103E70001248382100F092FB114B0F4A0F483A21AB
:103E800000F08CFB0F4B0C4A0C483B2100F086FBEA
:103E90002000FFF7FFFE4570D3E70B4B064A0748AB
:103EA000422100F07BFB31002000FFF7F3FE0023EE
:103EB0008370D1E7307701102CB1011038770110F1
:103EC0008C770110B47701103C75011070B50400B7
:103ED0000A00457B2900FFF799FF6073280070BD39
:103EE00070B506000C1E40D0437B8B4207D0FFF715
:103EF000D1FE05008178002906D1002036E001219D
:103F0000FFF7E4FF012031E03000FFF7C3FE017846
:103F1000A1420DD03000FFF7BDFE4178A1420AD08A
:103F20000029F7D1124B134A13486B3100F036FBCE
:103F30006B78037001E06B7843700023AB706B709B
:103F4000012221003000FFF761FF0200717B8142F6
:103F500005D03000FFF7ECFE7073012006E0074B40
:103F6000044A0548712100F019FB002070BDC046CD
:103F70002073011014B1011038770110D8770110A7
:103F800070B5046BE30701D4200070BD020030322D
:103F9000C0239B0113430A4A1A60456A836AAD0134
:103FA000ED18AD02062000F0D7F9064901F01EFD1C
:103FB0000100280001F01AFD0021FFF771FDE3E781
:103FC000010300004E0E000070B504000E00150045
:103FD000FFF7D6FF22002C32E36A5E403540802393
:103FE0005B0113431D60206370BD000070B50500C8
:103FF0000C00062000F0B0F9C000210001F0F6FC32
:10400000C60908D00E4B9E4216D87F2303400133C9
:1040100034005E0800E001246C62AE6200220021E0
:104020002800FFF7D1FF062000F096F98000A101DB
:10403000891901F0DBFC70BD0026024CECE7C0469C
:10404000FEFF0000FFFF000010B505394901013AED
:10405000D2000A43002B07D002210A43012B01D0D2
:10406000002102E0023100E0002111436E22FFF73F
:10407000ABFF10BD10B5002900D010211022FFF7B2
:10408000A3FF10BD002909D00A22064B9C466044BC
:1040900043425841044B4000C252704780225200B4
:1040A000F3E7C0460080FCBF84A7022070B505007E
:1040B0000C00062000F050F9061E27D0174B9D4239
:1040C00026D08022D203164B1A60164B1A60164B6C
:1040D0009B6811009943FAD100212800FFF7D2FF15
:1040E00021002800FFF782FF06000023012208219B
:1040F0002800FFF7A9FF2A002C3280239B011343DD
:1041000010221A60094B2B630323AB64300070BD8F
:1041100080221204024B1A60D7E7C0460080034099
:1041200000E0004000F0004000C00040010300003B
:10413000064B9A6A8369DB0606D5044B9B6A9B1A79
:104140008B42F7D9002000E0012070470040054075
:10415000F8B5DE4657464E464546E0B506000F0028
:1041600015000A9A934250D31A0E92461B029846A3
:104170000A9A00234046514601F076FC81467400BD
:10418000A419A4002F4B9C4664446368834200D268
:104190006060331FDBB29B46012B3CD9C0239B01DF
:1041A0002343802212011A60274BB200D158002904
:1041B00007D0586901F01AFC013043001B18033B7B
:1041C000FDD26D0123685D40E0222A4080235B011F
:1041D00023431A605A46012A28D980239B0123438E
:1041E000802212011A604B4663604A460023404613
:1041F000514601F039FC144BB60098510120F0BC37
:10420000BB46B246A946A046F8BD104B104A11481D
:10421000332100F0C3F9012FC0D1C0239B012343F8
:1042200003221A60A368DB07FCD5CAE7216879403E
:1042300003220A401A60A3680125BD401D42FAD03E
:10424000CBE7C04600800040547F0120F877011082
:1042500060B101100C78011030B583B00C2000F073
:1042600011F9FEF7ABF900280DD0002304E02E4A27
:1042700099002E4888500133092BF8D92A4B2C4A33
:104280005A6203B030BD2B4B00229A6700F06CF9E4
:10429000294B01221A60274B5B6C012BFBD1274B6A
:1042A00003221A60234B9B6B012BFBD1013300933C
:1042B0000433234A0121234800F054F805230093D6
:1042C000214A0121214800F04DF8214B00930022A2
:1042D00002210420FFF73CFF1E4D00952B00002219
:1042E00001210520FFF734FF104C00942300002229
:1042F00000210720FFF72CFF00942300002200215B
:104300000820FFF725FF0A4B00932300002200211D
:104310000920FFF71DFF00952B0000220021062039
:10432000FFF716FFADE7C046547F0120006CDC02AA
:104330001BB70000008000403CB0004030B000409F
:10434000002F685900800240008C864700C0024060
:10435000001BB70040597307014B8000C0587047DD
:10436000547F0120F0B5C64600B504000E001700CA
:104370001D00374801F03AFB8046364BFA18364BA1
:104380009A4239D80100380001F030FB0200103A9F
:1043900098235B009A4235D86B1E062B38D8069BB3
:1043A000013B062B34D83F09474537D32D04069BE4
:1043B0001B031D432368002B36DB284B9C4244D053
:1043C00080235B01264A1360264A1360264A9268BE
:1043D00019009143FAD12660A060221DC0239B01E1
:1043E000134321221A602268002AFCDAE5600822C1
:1043F0001A6080BCB846F0BD1C4B1D4A1D481121F7
:1044000000F0CCF81C4B1A4A1A48192100F0C6F8E3
:104410001A4B174A17481C2100F0C0F8184B144AD1
:104420001448232100F0BAF822683F231340B34216
:10443000C3D1A3681B051B0D8342BED1E368EE22E6
:10444000D2021340AB42B8D1D3E780239B01B9E736
:10445000001BB70080E84BD380F8A93200C00240AF
:1044600000E0004000F0004000C000406C78011007
:1044700070B10110CC780110287901104479011035
:104480009079011080239B000343014AD362704757
:1044900000800540024B1A68024B5A607047C046C4
:1044A000206F02200080054010B5174B8022D205F6
:1044B0001A60164B164A1A6000290AD0154BE022E2
:1044C000D2041A60002809D1124B802212061A6009
:1044D00010BD0D4BE022D2041A60F3E743011B1A12
:1044E0009B00181800010C4B186080235B04984255
:1044F00002D3094B094A1A60FFF7CCFF054B802213
:10450000D2051A60E4E7C04600B00540082001402B
:10451000FCFF010000A00540206F0220FFFFFF000C
:1045200010B5030010000C4A8024E4051460002B31
:104530000DD001221343094A094CD461094C5C4057
:104540001462516293620021FFF7AEFF10BD034B6E
:104550000022DA61F7E7C04600B005400080054060
:10456000D3C007B02D3FF84F064BAA2212011A60A4
:104570002F22DA60044B054A1A60024B5B68002B5D
:10458000FBDA7047004002400060024000B0FA00D1
:1045900000BEFDE710B5FFF7FBFF000030B583B0AC
:1045A0000D001900002A0BD0074B084C0192009314
:1045B0002B000200200002F08BF90120FFF7E8FF3A
:1045C000034B1A00F1E7C046AC790110BC79011029
:1045D000046C011070B52B4B2B4A1A602B4B2C4AE4
:1045E0001A602C4B9A682A4B9343FAD12A4C01E06B
:1045F00008CC9847294B9C42FAD3FFF72DFE234B5A
:10460000274A1A60234B9B68DB43DB01FAD1254B19
:1046100040229A675A671A67DA66234C09E0234BEF
:10462000234A24488721FFF7B9FF2000FEF751FCF9
:104630000834214B9C4209D22368002BF5D0012B72
:10464000EDD12000FEF752FC0834F2E71B4DA968BB
:104650001B4CC022200001F0A9FFAC60EFF30583E2
:10466000002B00D000BEFEF72BF8FEF795FBFEF7FF
:1046700099FF144C01E008CC9847134B9C42FAD3A5
:1046800070BDC04600E00040BFCDFBFE00F0004022
:10469000FE7F3C0000C00040C80E0020D80E002065
:1046A000FFFFFF0100F00140C00E0020EC79011077
:1046B0007CB101100C7A0110C80E002000ED00E062
:1046C00000000020D80E0020E00E00200FB400B53E
:1046D00083B0084802F0CCF8049B002B07D005A952
:1046E0000191180002F0D4F8034802F0C1F801204B
:1046F000FFF74EFF6C7A0110B06E011010B5014843
:10470000FFF7E4FF7C7A01109A4200D28854704788
:10471000704710B5002802D00B684968984710BD53
:104720000100002007E083001B185B00501C08609C
:104730001078C01830380A681378303BDBB2092B88
:10474000F1D97047F0B5DE4657464E464546E0B5CE
:1047500083B093461F000C9B9A460D9C0E9B994676
:104760000F9B9B0717D0B8460F00060022E0551C90
:104770004B4641462020B84701342A00B442F6D3C4
:104780003D004F465C46019B9B46B1464646B846B7
:1047900037002E000EE00192A34688464E46B946E9
:1047A0000700EBE7013C551C5346185D43463900B2
:1047B000B0472A00002CF5D135003E0047460F9B3C
:1047C0009B0711D4100003B0F0BCBB46B246A9460B
:1047D000A046F0BD541C4B4641462020B84722005D
:1047E000531BB342F6D3EDE7B0464E46B9462F0011
:1047F0005D46F5E7F0B5CE46474680B585B09446B0
:1048000098460C9D0D9C0EAB1B789946109A119BF7
:10481000129EB7071CD4002B0CD0F7070AD54F46C1
:10482000002F02D10C37374204D0013B02E0302781
:104830002F550134944201D21F2CF8D9F70707D520
:104840009C4205D21F2C03D830272F550134F5E7A1
:10485000F70612D5770505D4002C03D0944221D059
:104860009C421FD00F9A102A2FD00F9A022A36D0BE
:104870001F2C0AD830222A5501341F2C05D84A464D
:10488000002A32D02D222A55013403960293019436
:10489000009543466246FFF755FF05B0C0BCB946D8
:1048A000B046F0BD621E012C17D00F9F102F0BD009
:1048B00014000F9A102AD8D1B206D6D51F2CD4D8FE
:1048C00058222A550134D3E7023CB206F1D41F2CFA
:1048D000EFD878222A550134CAE71400C2E71F2C0A
:1048E000D3D860322A550134C2E7720703D52B2290
:1048F0002A550134C9E73207C7D520222A55013489
:10490000C3E7F0B5DE4657464E464546E0B593B0A0
:1049100081468A46089209931CAB10CB1B789B46B4
:104920001E9D219B9846002C03D1102342469A439A
:1049300090468023DB0046461E4042461A4218D06D
:10494000002C22D0002614E0424692061BD54121BD
:10495000C918C9B20A39C9B2771C0AAB99552900DE
:10496000200001F043F8AC4210D31F2F0ED83E00B8
:1049700004002900200001F039F8CBB2092BE3D85C
:104980003033D9B2E8E76121E2E7270043460693D6
:10499000209B05931F9B049303955B46029301970D
:1049A0000AAB0093099B089A51464846FFF722FF3D
:1049B00013B0F0BCBB46B246A946A046F0BDF0B568
:1049C000DE4657464E464546E0B597B00A900B91F5
:1049D0000C929A46209B9946219F22AA13789B46C7
:1049E000249B0993259C289B98464A463A4302D12A
:1049F0001032934398468022D200454615404346E4
:104A000013420AD04A463A4341D000252E0053466D
:104A10000D934D46099B9A4621E02E0053460D9377
:104A20004D46099B9A461AE04246920623D54122FA
:104A3000D218D2B20A3AD2B2731C99460EAB9A552A
:104A4000524623002800390001F00EF8BC4220D85D
:104A500013D04B461F2B16D84E4605000F0052466A
:104A600023002800390000F0FFFFD3B2092BDBD868
:104A70003033DAB2E0E76122DAE7AA45E9D94E46F7
:104A80000D9B9A4608E04E460D9B9A4604E0002690
:104A900002E04E460D9B9A4643460693279B05939C
:104AA000269B0493099B03935B46029301960EABEE
:104AB000009353460C9A0B990A98FFF79BFE17B088
:104AC000F0BCBB46B246A946A046F0BDF0B5DE46F6
:104AD00057464E464546E0B591B0804689460C9211
:104AE0009A461A9C1B9D22002B002000290001F0F1
:104AF00036FA002800D0F2E001225242D54B2000C5
:104B0000290001F027FA002800D0E8E001225242F3
:104B1000D14B2000290001F007FA002800D0DEE088
:104B2000002200232000290001F0FEF9002800D017
:104B3000EAE0069407958023DB001E9A1A400D9246
:104B40001E9A1A4201D106231C9306980799020067
:104B50000B000892099303000A00024300D1DFE032
:104B6000080D4005400DBD4EB4466044079E32031B
:104B7000120B1E00BA4B13431F0001F003FAB94A8F
:104B8000B94B01F092F9B94AB94B01F06FF90890AD
:104B900009910022B74B3000390001F062F9B64AA2
:104BA000B64B01F082F902000B000898099901F058
:104BB0005DF901F0FFF9834601F0E4F906000F000A
:104BC000AF4AB04B01F071F90022AF4B01F04EF942
:104BD00001F0F0F90890AD4AAD4B3000390001F01A
:104BE00064F906000F00089801F0CCF9A94AAA4B15
:104BF00001F05BF902000B003000390001F031F9DF
:104C000006000F0002000B0001F04FF90A900B9113
:104C1000089BA24A9446634400210022089109920D
:104C20001B0509930023089332003B003000390034
:104C300001F01CF90E900F9132003B000020802102
:104C4000C90501F00EF906000F000022944B0A98E6
:104C50000B9901F010F90022924B01F007F90200C4
:104C60000B000A980B9901F006F900228E4B01F017
:104C7000FDF802000B000A980B9901F0FCF8020005
:104C80000B003000390001F0F1F802000B000E9823
:104C90000F9901F0F0F80022714B01F0E7F8089A43
:104CA000099B01F002F906000F0008960997069A81
:104CB000079B01F04FF900280BD001235B429C4673
:104CC000E3440022774B3000390001F0D4F808901B
:104CD00009915B466333C62B45D8042623E01E9B0F
:104CE00004931D9B03931C9B0293009401955346D0
:104CF0000C9A4946404600F0FBF811B0F0BCBB46A8
:104D0000B246A946A046F0BD0021002206910792B6
:104D1000069480231B069C46AC44634607930AE72F
:104D200000239B4604261E9B1B0528D5089A099B39
:104D3000190011430FD05D4A5D4B0698079901F0A9
:104D400001F900287AD000225A4B0698079901F001
:104D5000EBF8002872D01C9B5B4506DD5A469B1A77
:104D6000013B1C9303E00526DDE700231C93802311
:104D7000DB001E9A1A431E92002600239B461D9BB1
:104D80009E4265D29F1B02231E9A1A400A921E9AC7
:104D9000134202D0002E00D000275B46002B07D024
:104DA000089A099B0698079901F065F80690079103
:104DB000002200232000290001F0B6F8002800D0CE
:104DC0007CE03D4B1E9A1340049303971C9B029377
:104DD000069B079C0093019453460C9A4946404613
:104DE00000F086F8002E00D187E71E9B9B0671D548
:104DF0004525441C5346020049462800C0475A46F0
:104E0000D317D2185A4005230593013E0496002378
:104E100003930A3302935B46DB0F019300925346E0
:104E2000220049464046FFF76CFD0A9B002B00D14B
:104E300063E7020047460C9E1D9D53E01C9B002B20
:104E40009DD00D9B002B9AD01C9B013B1C9396E799
:104E5000002798E7FFFFEF7FFFFFEFFF01FCFFFF59
:104E60000000F03FFB799F501344D33FB3C8608BE1
:104E7000288AC63F0000F83F61436F63A787D23F8F
:104E800071A379094F930A400000E03F1655B5BB66
:104E9000B16B0240EF39FAFE422EE63FFF030000FD
:104EA00000002C4000002440000018402D431CEB63
:104EB000E2361A3F80842E41FFF7FFFF069C079DD4
:104EC0002200290080200006844661440B000692DF
:104ED000079376E765258CE7541C53464946202006
:104EE000B8472200931BAB42F6D3100005E7C0463B
:104EF000F0B5DE4657464E464546E0B595B00690BD
:104F0000079193469946209F1E9A1F9B10001900F7
:104F100001F025F8002831D101225242BC4B1E98E5
:104F20001F9901F001F8002837D101225242B94BF4
:104F30001E981F9901F00EF800283DD10022B64BB3
:104F40001E981F9901F006F800284AD10022B34BA1
:104F50001E981F9900F0E8FF002842D1002200238C
:104F60001E981F9900F0E0FF00284AD100239846C0
:104F7000229B5B0500D4B0E0002452E0229B039307
:104F8000219B029303230193A54B00934B465A4662
:104F900007990698FFF7D6FB08E1229B0393219B14
:104FA0000293042301939F4B00934B465A46079963
:104FB0000698FFF7C7FBF9E0229B5B070ED59A4BDB
:104FC00004222299039121990291019200934B4668
:104FD0005A4607990698FFF7B5FBE7E0934B032283
:104FE000EFE7229B0493219B039302971E9B1F9C38
:104FF000009301944B465A4607990698FFF766FDC1
:10500000D4E01E9A1F9B0020002100F02AFF1E9072
:105010001F9101239846ABE70CAB30221A55013F94
:1050200001341F2C01D8092FF6D81E981F9900F0C3
:10503000C1FF050000F0A6FF02000B001E981F999B
:1050400000F00FFF7A4BFA009B181A685B680A920F
:105050000B9300F02AFF0890099100F0CFFF0600A3
:1050600000F08CFF02000B000898099900F0F9FE8F
:105070000890099100226F4B00F06CFF00282ED0A1
:105080000136300000F07AFF02000B000A980B99FD
:1050900000F050FF002801D001350026002F2CD150
:1050A000280000F06FFF02000B001E981F9900F00F
:1050B000D8FE06000F0000225E4B00F035FF0028EE
:1050C00046D100225B4B3000390000F043FF00283E
:1050D0003ED1EB073CD501353AE006274CE70022EC
:1050E000544B0898099900F01FFF0028D6D1002ED4
:1050F00001D0F307D2D50136D0E7AA461F2C11D82C
:10510000013F0A21300000F071FC651C30310CAB0E
:1051100019550A21300000F069FC092E0ED906004D
:105120002C00EBE755461F2C0CD87B1E002F09D016
:105130000CAA302111551F000134F4E72B0055460D
:105140001C00F0E71F2C03D80CAB2E221A5501349B
:105150001F2C10D80A21280000F020FC661C3031DA
:105160000CAB19550A21280000F018FC051E01D0CF
:105170003400EDE734000323229A1340012B1CD0A6
:105180001F2C06D84346002B32D00CAB2D221A55CB
:105190000134229B0393219B029301940CAB009357
:1051A0004B465A4607990698FFF7CCFA15B0F0BC63
:1051B000BB46B246A946A046F0BD219B002B13D0AA
:1051C0004346002B02D10C3313420FD0219B013BED
:1051D0002193190003E00CAB30221A5501348C42A4
:1051E000CED21F2CF7D9CBE72199F8E72199F6E722
:1051F000229B5B0704D50CAB2B221A550134C8E760
:10520000229B1B07C5D50CAB20221A550134C0E7E1
:10521000FFFFEFFFFFFFEF7F65CDCD4165CDCDC136
:10522000987A01109C7A01108C7A0110947A0110FE
:1052300028B301100000E03FF0B5DE4657464E4669
:105240004546E0B593B007008A469346119300297E
:1052500000D12CE3002508E06C1C5B462A00514677
:10526000B847119B013311932500119B1878002832
:1052700000D11EE32528EFD101331193002318003C
:1052800020E00123184301321192012418E0022387
:10529000184301321192012412E004231843013211
:1052A000119201240CE008231843013211920124C9
:1052B00006E01023184301321192012400E000247B
:1052C000002C09D0119A1378203BD9B21029F6D8B6
:1052D0008B00C449CB589F468146119B1A78130016
:1052E000303BDBB2092B10D92A2A13D00B94119B27
:1052F0001A782E2A20D0119A1378683BD9B2122935
:1053000065D88B00B849CB589F4611A8FFF708FA1B
:105310000B90ECE71C9B1A1D1C921B68002B04DBF6
:105320000B93119B01331193E1E70222010011431A
:1053300089465B420B93F4E78022D2004946114331
:1053400089465A1C11925A781300303BDBB2092B64
:105350000BD92A2ACFD11C9B1A1D1C921C68002C29
:1053600008DB119B01331193C5E711A8FFF7D8F9AA
:105370000400C0E70024F4E780235B0049460B43A8
:10538000511C119151786C2901D099461FE0C0231E
:105390009B004946194389460232119217E0802347
:1053A00049460B43511C11915178682901D0994607
:1053B0000DE0C0234946194389460232119206E0A6
:1053C00080235B0049461943894601321192119BA3
:1053D000187867281CD8252800D25EE20300253BF8
:1053E000DAB2422A00D958E29300804AD3589F4645
:1053F00080239B0049461943894601321192E6E712
:1054000080235B0049461943894601321192DEE749
:10541000782800D941E2692800D23EE20200693AC8
:10542000D2B201239340724A134210D11A0600D51A
:105430000CE25B0500D430E21C9B1A1D1C921E6816
:10544000002C00D0BAE101225242330096E16F28CD
:1054500042D005D8582841D0622803D1022606E060
:1054600078283DD010234A469A4391460A26582868
:1054700038D0692805D0642803D00C224B469343CA
:1054800099464B465A0502D501229343994669280D
:105490002DD064282BD04B469A0500D5AAE0DA051A
:1054A00000D5C2E05A0600D4D3E01C9A111D1C910D
:1054B0001168FF220A404B4605930B9B049303940B
:1054C00002960023019300925B462A005146380061
:1054D000FFF717FA05002AE00826C8E71026C6E7F6
:1054E0001026C4E720224B4613439946C1E74B469A
:1054F0009A0520D4DA0551D45A0666D51C9A111D96
:105500001C911168FF220A40D017111841404B46E8
:1055100005930B9B049303940296D20F0192009182
:105520005B462A0051463800FFF7EBF90500119B56
:105530000133119399E61C9A073207218A4311001F
:1055400008311C91116853689C46DB170C930D932E
:105550000C9A0D9B100048400E900D9B61464B40ED
:105560000F930E980F990C9A0D9B801A99410E90EB
:105570000F914B4608930B9B0793069404960023C8
:1055800005936346DA0F0292009001915B462A0070
:1055900051463800FFF713FA0500C8E71C9A111DA1
:1055A0001C911268D0171118414005930B9B04936E
:1055B00003940296D20F019200915B462A00514655
:1055C0003800FFF79EF90500B1E71A0605D51C9AC9
:1055D000111D1C910023D25E96E71C9A111D1C918F
:1055E000126891E78CB10110D0B101101CB201100A
:1055F000419000001C9A073207218A4311000831AC
:105600001C9108930B9B0793069404960023059323
:10561000029353681268009201935B462A00514638
:105620003800FFF7CCF9050081E71C9A111D1C9189
:1056300005930B9B04930394029600230193136834
:1056400000935B462A0051463800FFF75AF90500DF
:105650006DE71A0606D51C9A111D1C9112681204DA
:10566000120C28E71C9A111D1C91126823E746288A
:105670001AD01C9B0733072293431A0008321C924E
:105680004A4604920B9A039202941A685B6800924D
:1056900001935B462A0051463800FFF729FC0500BC
:1056A000119B01331193E0E520234A461A439146AA
:1056B000DFE7672801D0472804D180231B014A4631
:1056C0001A439146452801D0472803D120234A4652
:1056D0001A4391461C9B0733072293431A00083252
:1056E0001C924A4604920B9A039202941A685B68D1
:1056F000009201935B462A0051463800FFF7E6F915
:105700000500119B01331193AFE502234E461E4065
:105710004A4613421ED001241C9B1A1D1C926A1C6F
:10572000904618785B462A005146B847002E14D19F
:10573000119B01331193454697E5551C5B46514635
:105740002020B84723002A005C1C0B999942F4D80A
:105750001500E1E701232A00F6E7424606E0561C61
:105760005B4651462020B8472C003200651C0B9B3D
:10577000A342F4D89046DBE701330A0019780029E8
:1057800002D0511E002AF7D19B1B8022D20049462D
:10579000114088464946114202D0A34200D9230055
:1057A000022249461140109149460A4208D02A0077
:1057B000250099463B004746984626E0220044E6ED
:1057C000A1462A005146B2460E0006E0551C5B4633
:1057D00031002020B84723002A005C1C0B99994215
:1057E000F4D8150022004C46330056469A4691469E
:1057F0002A0025003B004746984606E01D0001367A
:10580000541C5B465146C04722003078002804D023
:10581000002FF4D06B1E002DF0D115004B464746EB
:10582000109A002A03D1119B013311931DE50B9EA1
:105830002A0006E0551C5B4651462020B84723004D
:105840002A005C1C9E42F5D81500ECE721234A464D
:105850001A4313001C9A111D1C911268059308230A
:1058600004930394083302930023019300925B4650
:105870002A0051463800FFF744F80500119B013318
:105880001193F2E46C1C5B462A0051462520B84770
:10589000119B013311932500E7E46C1C5B462A0041
:1058A0005146B847119B013311932500DDE40A4F9F
:1058B000D0E45D450DD35B465A1E5B465146002041
:1058C000B847280013B0F0BCBB46B246A946A04674
:1058D000F0BD2A00F1E7C046114700100CB430B506
:1058E00085B00A0008AC08CC0394054D0094010073
:1058F0002800FFF7A1FC05B030BC08BC02B0184777
:105900000947001010B584B00C0002A902904C6049
:1059100001240448009313006242FFF78DFC04B099
:1059200010BDC0461347001001480421014B184721
:10593000F00D002065590010014B9B6818470000CE
:10594000F00D002010B5010018231B8814221088C8
:10595000984710BD10B5010018231B881622108827
:10596000984710BDF0B5C64600B507000E000025EB
:105970000123984600E00135B5420AD2AC003C193B
:105980002068FFF7DFFF20600028F4D1002398464D
:10599000F1E7404680BCB846F0BD0000124A936F64
:1059A0009B0815D29066D166002905D0FFE7FFE776
:1059B000FFE7516F106F704704B580210906C217C9
:1059C0005140002800D0C84310F0DEFC002104BD87
:1059D000F0B5146E556E576F166FFFF7E3FF146640
:1059E000556657671667F0BD000000D0114A936FE7
:1059F0009B0813D210665166002905D0FFE7FFE728
:105A0000FFE7516F106F704704B5002801D00020E8
:105A1000C04310F0B9FC002104BDC046F0B5146EBF
:105A2000556E576F166FFFF7E5FF1466556657679B
:105A30001667F0BD000000D094464A4A926F920863
:105A4000624601D228E0C046F0B5464E346E756E0F
:105A5000776F366F00F020F89446424A1466556618
:105A6000576716676246F0BD94463E4A926F9208A9
:105A7000624601D254E0C046F0B53A4E346E756EBF
:105A8000776F366F00F04CF89446364A14665566C8
:105A9000576716676246F0BD002B24DB11D0002942
:105AA0003EDA00B5C943404200D1013100F038F878
:105AB000C943404200D10131DB43524200D101339E
:105AC00000BD002AEBD1002801D1002905D000201B
:105AD000C90FC90701D1C043410800B510F034FC1B
