:020000041000EA
:1000000000B5324B212058609868022188439860DF
:10001000D860186158612E4B002199600221596106
:100020000121F02299502B49196001219960352056
:1000300000F044F80222904214D00621196600F024
:1000400034F8196E01211966002018661A6600F04E
:100050002CF8196E196E196E052000F02FF8012189
:100060000842F9D1002199601B49196000215960AB
:100070001A491B48016001219960EB211966A021F2
:10008000196600F012F800219960164914480160C1
:100090000121996001BC002800D000471248134993
:1000A000086003C880F30888084703B5996A0420EC
:1000B0000142FBD001200142F8D103BD02B5186610
:1000C0001866FFF7F2FF186E186E02BD00000240BE
:1000D000000000180000070000035F00212200005C
:1000E000F4000018222000A00001001008ED00E03C
:1000F00000000000000000000000000074B24E7A12
:1001000000200420F7010010C3010010C5010010F9
:10011000C1010010C1010010C1010010C101001097
:10012000C1010010C1010010C1010010C701001081
:10013000C1010010C1010010C9010010CB01001065
:10014000CD010010CD010010CD010010CD01001037
:10015000CD010010CD010010CD010010CD01001027
:10016000CD010010CD010010CD010010CD01001017
:10017000CD010010CD010010CD010010CD01001007
:10018000CD010010CD010010CD010010CD010010F7
:10019000CD010010CD010010CD010010CD010010E7
:1001A000CD010010CD010010CD010010CD010010D7
:1001B000CD010010CD010010CD010010CD010010C7
:1001C00000BE00BE00BE00BE00BE00BEEFF3058054
:1001D000103800BEF2EB8871541705107417051023
:1001E0003402001090A31AE700201F49086006C8D7
:1001F00081F3088810471D48006800282FD10DA4FE
:100200000ECC002902D000F012F8F9E71849194A7B
:10021000002000E001C19142FCD1174988471749ED
:1002200088471749884700BEFDE701C901C29A42C5
:10023000FBD3704774170510C0000020700E00201B
:1002400024250510000004200000042024250510AA
:10025000001004200010042000000000704709482E
:1002600004F078FA0047000008ED00E0000000D03C
:10027000900E00200C5E0020E53300109904001061
:10028000A53300105756000006005250ABB3605320
:10029000A061011006005250861C0302B0610110DB
:1002A000060052505422A29DBC610110050052501C
:1002B000DE65F46824250510F8B5C04606480749F0
:1002C000091A8B10C90FC91810B5491003D0044B77
:1002D000002B00D0984710BD700E0020700E00203B
:1002E00000000000054B10B5002B03D00449054861
:1002F00000E000BFFFF7E2FF10BDC04600000000B5
:100300002C530020D04F0110F8B5CE46474680B59B
:1003100006000F0014F092FD8046380014F08EFDA8
:1003200081468446002828D080452CD300201AE03E
:1003300094421ED10133634511D2C218B45CFA5CF9
:1003400021004139C9B2192901D82034E4B215007D
:10035000413DEDB2192DEBD82032D2B2E8E70123AE
:10036000002B0BD101304B46C318434503D8002363
:10037000E1E70023F4E7002300E000231800C0BCFD
:10038000B946B046F8BD0023F8E70000F0B5A3B0C9
:10039000019114001F00002A1ED053891D1C7F2BC1
:1003A00000D97F25ADB2616802AE2A00300004F0AA
:1003B000C1FE002373552E493000FFF7A5FF00282A
:1003C0000CD02C4B05221A702B4A3900019800F0F2
:1003D00033FB200008F06CF923B0F0BD274902A8D8
:1003E000FFF792FF002803D0224B06221A70EBE79A
:1003F000234902A8FFF788FF002803D01D4B0722DE
:100400001A70E1E71F4902A8FFF77EFF002803D01A
:10041000184B08221A70D7E71B4902A8FFF774FF90
:10042000002803D0134B01221A70CDE7174902A808
:10043000FFF76AFF002803D00E4B02221A70C3E7B1
:10044000134902A8FFF760FF002803D0094B0322DD
:100450001A70B9E70F4902A8FFF756FF002803D02A
:10046000044B04221A70AFE7024B00221A70ABE76C
:10047000D04F0110FB5D002089130000E04F0110F8
:10048000F04F0110005001101050011018500110D1
:10049000D84F0110E84F011030B587B004F0E8FFE5
:1004A000FA20C00002F06BFA414804F0A5FF10F0FA
:1004B0001FFB002868D110F025FA3E4C3E48210071
:1004C00004F0CAFF3D493E4B3E4A200010F0D3FAEB
:1004D000011E60D13C4804F08FFF3C4B186804308B
:1004E0000FF07CFA01003A4B180004F0B5FF00F061
:1004F00097F800F0B9F8374804F07EFF00F0B0FA42
:1005000000F0F0FB00F0F0FD334804F075FF0CF054
:1005100055FB324B1860002841D03149314A0CF06C
:10052000ADF9011E3FD130492C4B002218680CF068
:1005300023FB2E482B4904F08FFF2D482D4904F052
:100540008BFF2D4804F058FF2C4B1878C0B200F0F8
:1005500055FD00F0D8FB2A4B186003AC200000F0DA
:10056000E9FD684600F028FE684600F077FE254B5E
:100570001860200000F0A0FE234B1860200000F05F
:10058000BBFE224B1860DFE7214804F035FF012055
:10059000404207B030BD1F4804F05EFFF7E71E4839
:1005A00004F02AFFF3E71D4804F056FFEFE7C046CA
:1005B000245001105C500110685001108850011047
:1005C0003075000004004000B45001101C5300209E
:1005D000C8500110D0500110F0500110C05D002033
:1005E000589D0110881300008D0300104051011028
:1005F00070510110891300009C510110FB5D002017
:100600004021002044210020482100204C210020CE
:1006100048500110945001100C5101102851011044
:1006200030B587B001A80F4B0200190038C938C295
:1006300009C909C200240CE0A20001ABD55828006A
:1006400000F0D0FF0123AB40D02212065362936129
:100650000134042CF0DDD0231B06802212025A61E3
:1006600007B030BD38930110D0231B068022520002
:100670009A610132FF329A618022D2009A6180220F
:1006800012019A617047D0231B06802252005A61E2
:100690000132FF329A618022D2005A618022120117
:1006A0009A617047D0231B06802252009A61013262
:1006B000FF325A618022D2009A61802212015A616F
:1006C0007047D0231B06802252009A610132FF320C
:1006D0005A618022D2005A61802212019A617047C9
:1006E000D0231B06802252005A610132FF329A61E8
:1006F0008022D2009A61802212015A617047D02371
:100700001B06802252009A610132FF329A618022D8
:10071000D2005A61802212019A617047D0231B06D1
:10072000802252005A610132FF329A618022D20047
:100730009A61802212019A617047D0231B068022A1
:1007400052009A610132FF329A618022D2009A618E
:10075000802212015A617047D0231B06802252006A
:100760009A610132FF325A618022D2009A6180225E
:1007700012019A6170470000090703D51C2802D0B6
:10078000022805D07047054A136801331360F9E762
:10079000034A136801331360F4E7C046B45D0020D8
:1007A000B85D0020F0B5DE4657464E464546E0B5FA
:1007B000A3B07C4B1A68914600221A607A4B1968E4
:1007C0008B461A60794B1B689846794B1B681693C9
:1007D000784B1A682092784B19688A46484604F08C
:1007E000D5FA04000D000022744B04F04CFA02000C
:1007F0000B0004F043FA0022714B04F05EFA1890EB
:100800001991704A704B2000290004F056FA040038
:100810000D0002000B0004F031FA1A901B916B4F8F
:1008200022002B003868796804F028FA3860796073
:10083000584604F0ABFA04000D0000225F4B04F0B0
:1008400022FA02000B0004F019FA00225C4B04F0BB
:1008500034FA1C901D915B4A5B4B2000290004F088
:100860002CFA04000D0002000B0004F007FA1E90A1
:100870001F91574E22002B003068716804F0FEF97A
:1008800030607160169804F0F7FB1690179120986D
:1008900004F0F2FB04000D00504604F0EDFB0A00EA
:1008A0000100209121924B480291039200940195FE
:1008B000169A179B414604F0CFFD47483A687B687B
:1008C000029203931A991B9A00910192189A199B0C
:1008D000494604F0C1FD41483268736802920393AF
:1008E0001E991F9A009101921C9A1D9B594604F073
:1008F000B3FD3B4804F080FD3A4B1B78002B07D139
:10090000012023B0F0BCBB46B246A946A046F0BDCC
:10091000354AC02135482E4B1E685F6814961597DE
:100920001E9E1F9F129613971C9E1D9F1096119737
:100930005B460E93254B1E685F680C960D971A9EBA
:100940001B9F0A960B97189E199F089609974B466E
:100950000693209E219F0496059702940395169B6B
:10096000179C009301944346490003F0BFFE050025
:10097000A02281B29200362007F0E6FE041EBFD00E
:1009800040681A492A0004F0D5FB194B1B88194A04
:100990001949086821000CF092F8200007F088FE41
:1009A000AEE7C046B45D0020B85D002040210020C5
:1009B00044210020482100204C2100200000544008
:1009C00000004E40333333B37493E73FF00F002001
:1009D000F80F0020CC5101100452011048520110B0
:1009E0008C520110075E002090520110305C0020F4
:1009F000EE5D00202C5C0020B05D0020F0B5C64606
:100A000000B584B004000E0017001D0001F00AFEBE
:100A10008046E117FA2292000023200004F09EFA9B
:100A200002000B00029501970096404601F014FF6A
:100A300004B080BCB846F0BD054B18600968054B92
:100A40001960054B1A80054B01221A707047C04689
:100A5000B05D00202C5C0020EE5D0020075E0020D1
:100A600010B51C2000F0BEFDD024240680235B05B9
:100A7000A362002201211C2000F088FC022000F06B
:100A8000B1FD0423A36200220121022000F07EFCBC
:100A90000F4802221C2104F0DFFC0E4B012208212A
:100AA0001C2000F043FD01220821022000F02EFD51
:100AB000094804F0A1FC094B0949FA24640000220A
:100AC0002000FFF79BFF0748210004F0C5FC10BD84
:100AD00050530110790700107C53011010100020B2
:100AE000A50700109C53011030B501250DE05A1CDC
:100AF00092008150013B002B03DB9A001158A14268
:100B0000F5D801339B00C4500135042D03DCAB0044
:100B1000C4586B1EEFE7806830BD000010B5002B95
:100B200002DB0260436010BD024B034A03483F21D1
:100B300002F03CFCCC530110A0930110E8530110CB
:100B400010B582B0040001F099FF02000B00684666
:100B5000FFF7E4FF009A019B22606360200002B06F
:100B600010BD000070B582B0D024240680256D022F
:100B700065610A20002101F0F5FEA5616846FFF7D6
:100B8000DFFF009C019DD0231B065A6880239B0237
:100B900016001E401A420DD16846FFF7D1FF009A99
:100BA000019B121BAB41002B22DCECD1124B9A4271
:100BB000E9D91DE06846FFF7C3FF009C019DD023E3
:100BC0001B065B689B030ED56846FFF7B9FF009ACA
:100BD000019B121BAB41002B03DCF0D1064B9A4268
:100BE000EDD9002604E06846FFF7AAFF009E361BF9
:100BF000300002B070BDC0469065000000B583B003
:100C00006846FFF79DFF00980199074B9A68DB68DB
:100C1000121A8B4101204042C117801859410B43E1
:100C2000D80F03B000BDC046900E002070B582B052
:100C3000060014001D00FA229200002306980021ED
:100C400004F08CF902000B0012196B41002B09DB38
:100C50006846FFF763FF009A019B326073603000C3
:100C600002B070BD01225242004BF1E7FFFFFF7F4F
:100C700070B584B0050002AE3000FFF761FF029A44
:100C8000039B054C00953000FFF7D0FF029A039BB1
:100C9000A260E36004B070BD900E002010B5002883
:100CA00006D1FFF71DFD87208000FFF7E1FF10BD93
:100CB000FFF707FD3E20FF30FFF7DAFFF7E7000000
:100CC00010B5074B01221A705A7098700021D97024
:100CD0001A745974FFF7C8FC0120FFF7C9FF10BD53
:100CE000900E002010B5102000F07CFCD0242406CB
:100CF00080235B026362A361112000F073FC8023F8
:100D00009B02A36210BD10B586B0002406E0A200CD
:100D100001ABD050142001F032FE0134042C07DC6A
:100D2000FFF720FF0028F2D03A2103F067FDEEE73D
:100D300001A8FFF7D9FE002801D006B010BDFFF7CB
:100D400011FF0028F9D03A2103F058FDF5E7000023
:100D500010B582B08F4B5B780B2B00D913E19B0051
:100D60008D4AD3589F46FFF749FF002823D0894B6F
:100D70005B7C002B0DD1874B9B78002B10D1FFF7AC
:100D8000A0FC3E20FF30FFF773FF824B02225A7017
:100D900011E0FFF796FC3E20FF30FFF769FFF4E714
:100DA000FFF79EFC87208000FFF762FFEDE7FFF76B
:100DB00025FF002801D102B010BDFFF764FCFA2026
:100DC0004000FFF755FF734B03225A70F3E7FFF71C
:100DD00015FF0028EFD06F4B5B7C002B09D0FFF78D
:100DE0007FFC87208000FFF743FF6A4B04225A7084
:100DF000E1E7684B9878FFF751FFF6E7FFF7FEFE53
:100E00000028D8D0FFF730FC7820FFF731FF614B86
:100E100005225A70CFE7FFF7F1FE0028CBD0FFF78D
:100E200072FF04005B4B5B7C002B24D05B49594B69
:100E30009B78002B21D15A4A564BDB7859480094B5
:100E400004F00AFB1E2C1AD8524AD3780133DBB2C5
:100E5000D370132B06D91300927851424A419A70ED
:100E60000022DA704B4B01225A70FFF7FDFB012084
:100E7000FFF7FEFE9FE74C49D9E74C4ADCE7454BBC
:100E80001B7C002B0ED1434B5B7C002B14D0414BC1
:100E900000225A7406325A70FFF7F5FB4448FFF7F8
:100EA000E7FE88E73B4B09225A70FFF70AFC3E2019
:100EB000FF30FFF7DDFE7EE7364B06225A70FFF764
:100EC000E2FB3B48FFF7D4FE75E7FFF797FE0028EB
:100ED00000D170E72F4B0A225A70FFF7D4FBC820CD
:100EE0004000FFF7C5FE66E7FFF788FE002800D147
:100EF00061E7284B0B225A70FFF7F2FB8720800036
:100F0000FFF7B6FE57E7FFF779FE002800D152E75A
:100F1000204B07225A70FFF7B6FB9620C000FFF760
:100F2000A7FE48E7FFF76AFE002800D143E7FFF776
:100F30009BFB184B08225A70FFF796FB0120FFF726
:100F400097FE38E7FFF75AFE002800D133E7FFF796
:100F5000C7FB87208000FFF78BFE0E4B01229A70A3
:100F60000021D97019745A7403325A7023E7FFF7BD
:100F700045FE002800D11EE7FFF776FB054B002257
:100F80001A705A7017E7FFF76FFB024B00221A70B6
:100F900011E7C046900E00204C9301104C540110F4
:100FA0006454011074540110585401106C54011011
:100FB0008A02000010B508281BD880000E4B1B5871
:100FC0009F46FFF760FB10BDFFF76CFBFBE7FFF7E9
:100FD00078FBF8E7FFF784FBF5E7FFF790FBF2E714
:100FE000FFF79CFBEFE7FFF7A8FBECE7FFF7B4FB8D
:100FF000E9E7FFF739FBE6E77C93011010B5040041
:10100000FFF781FE0D4B1B78002B14D1012C03D070
:10101000052C01D0062C01D11E2803D92000FFF792
:10102000C9FF10BD064B0100180004F015FA00209E
:10103000FFF746FEF5E7FFF78BFEF2E7900E002084
:10104000A054011010B50B480B4913F0F9FD032112
:101050001A2000F083F903211B2000F07FF9002201
:1010600001211A2000F092F9002201211B2000F03A
:101070008DF910BD400E0020801A060070B584B0B6
:1010800003AC2023237037336370164D002600967F
:10109000553B22001921280013F0FEFD2323237065
:1010A0001B3B63700096063B22001921280013F0B9
:1010B000F3FD2670182363700096163B22001E2154
:1010C000280013F0E9FD02232370667000962200C9
:1010D0001E21280013F0E0FD642001F050FC04B054
:1010E00070BDC046400E002000B585B0FFF7AAFFD6
:1010F000FFF7C4FF0A4804F07FF90A48C02212062D
:10110000094B0292039380229205084B00920193AF
:10111000C0221206064B04F09FF905B000BDC04680
:10112000D054011010550110F38BA23F85EBB13F55
:10113000E045A73FF0B587B005000F226A44A82319
:1011400013701C4CA73B00931921200013F0A4FD41
:1011500004AE00230093063332001921200013F05F
:10116000A7FD7078000200B233781843F7783F0289
:101170003FB2B3781F437479240224B233791C43FD
:1011800003F058FFE221890503F01FFF28603800B3
:1011900003F050FFE221890503F017FF686020008B
:1011A00003F048FFE221890503F00FFFA86007B0B4
:1011B000F0BDC046400E0020F0B587B006000F22FB
:1011C0006A44032313701F4C023B00931E2120002E
:1011D00013F062FD04AF0023009306333A001E2192
:1011E000200013F065FD3878000200B27B781843C8
:1011F000BC78240224B2FB781C433D792D022DB229
:101200007B791D4303F016FF0F4903F0CAFE0F4917
:1012100003F0C1FE3060280003F00CFF0A4903F020
:10122000C0FE0B4903F0B7FE7060200003F002FF20
:10123000084903F0B6FE084903F0ADFEB06007B000
:10124000F0BDC046400E002000808944062F3A3D84
:10125000295C8F3D000075449E5F143D70B5466863
:10126000006803F009FF04000D00301C03F004FFC8
:1012700022002B0003F0E2FD00220B4B03F01DFDCA
:101280000A4A0B4B03F0FFFC03F0C8FD041C0021CD
:1012900003F0CAFE002801D1201C70BD0549201CA6
:1012A00003F07CFE041CF7E700806640182D4454D0
:1012B000FB2109400000B44370B54668806803F024
:1012C000DBFE04000D00301C03F0D6FE22002B00D4
:1012D00003F0B4FD0022054B03F0EFFC044A054B7C
:1012E00003F0D1FC03F09AFD70BDC046008066405B
:1012F000182D4454FB21094070B504000668802372
:101300001B069C4666444068011C03F05EFE051CFB
:10131000A068011C03F059FE011C281C03F03EFECE
:1013200003F0AAFE03F082FD04000D00301C03F060
:10133000A3FE22002B0003F081FD0022044B03F0EA
:10134000BCFC044A044B03F09EFC03F067FD70BD37
:1013500000806640182D4454FB21094010B58300DD
:10136000084A944663441A6840246240803414401A
:101370008022520113431C60C000034B9C46604412
:10138000416010BD04C001400040014080000B4B93
:101390009C46604400290DD00823002A0CD004226A
:1013A0001343026853400C221A4080235B0103431D
:1013B0001A6070470023F0E70022F1E704C0014003
:1013C000002909D08000094B9C46604480239B0182
:1013D000034302221A6070478000044B9C4660441D
:1013E000C0239B01034302221A60F4E704C00140BA
:1013F00070B50400D0231B061D680D4BAA00D358FE
:10140000002B0AD0002803D0094BAD00EC5070BD72
:1014100008490D2000F090FBF6E70028F7D0044BB8
:10142000AD00E850034900220D2000F07DFAEEE700
:10143000A01600204D15001070B5D0231B061B68A8
:10144000094C9D002C59204207D1074D9B000443B5
:101450005C510D2000F068FA70BD044B044A054849
:10146000CC2101F0A3FFC046B85900202C55011033
:10147000DC9301105855011010B50400D0231B0651
:101480001A680B4B9200D35818420BD00D2000F075
:1014900053FBD0231B061B6805499B005A58A243E7
:1014A0005A5010BD034B044A0448D62101F07EFF78
:1014B000B8590020B4550110B893011058550110C7
:1014C000072303409B00C00899403C308000014B3B
:1014D000C150704700400140F8B507000C001600ED
:1014E0001D00FFF7EDFFFB089B00ED1807203840BB
:1014F00080008440002E04D080239B012B431C607D
:10150000F8BDC0239B012B431C60F9E710B5D02325
:101510001B061B68002B03D0024BFFF7DDFF10BD3D
:10152000014BFAE7304101400041014070B5140021
:101530001D00FFF7EBFF2800FFF75AFF002C00D13A
:1015400070BD01210D2000F09BF9F9E7F0B5D646FA
:101550004F464646C0B5D0231B061F681D4BBA0038
:10156000D3589846002F03D01B4B9946002623E002
:101570001A4B9946FAE724090135002C1BD0330099
:101580000833AB4217D90F231A0022409246234258
:10159000F1D0134BBA00D2580123AB401342EAD129
:1015A00051462800FFF78CFF4346002BE3D05146FD
:1015B0002800C047DFE708361D2E06D8F308083399
:1015C0009B004A469C583500D7E7E0BCBA46B14676
:1015D000A846F0BDA0160020304101400041014066
:1015E000B859002010B501238340D022120693621F
:1015F00093610521FFF7B2FE10BD0000034B1B688D
:1016000002201840431E9841C0B2704700C00640F7
:10161000EFF3108072B6034B1B68002BFBD0BFF3B7
:101620005F8F70472C0100D0BFF35F8F024B002209
:101630001A6080F3108870472C0100D0F8B50600BE
:101640000C001500FFF7E4FFE308F718F15C072230
:101650002240012393400B4205D1DBB20B433B7088
:10166000FFF7E2FFF8BD2100280001F037FFF0B5D9
:1016700083B00600019114001F00FFF7C9FF00E0CE
:101680000134BC420CD8E308F518F35C0721214073
:1016900001228A401A42F3D1D2B21A432A7001E0E1
:1016A00001246442FFF7C0FF002C02DB200003B0DE
:1016B000F0BD019B002BF9D0089801F00FFF00004E
:1016C00070B505000C00FFF7A3FFE308EE18EA5C15
:1016D0000721214001238B40134204D09A433270EA
:1016E000FFF7A2FF70BD034B034A0448332101F00A
:1016F0005DFEC046E0550110109401100056011027
:10170000002307E0054A9A189200BFF35F8F00217B
:10171000116001331F2BF5D97047C04640000034DB
:10172000054A1078431CDBB21370172B02D9130043
:1017300010221A707047C046080D002010B582B004
:101740000100054C054B00931F2318222000FFF7D2
:101750008EFF02B010BDC046B016002060560110CA
:10176000074B9B68103080001950BFF35F8FBFF3A9
:101770005F8F044B0021196082F310887047C046C8
:1017800000ED00E0240100D01F23181A704700006C
:1017900010B50388DA0A1C2A05D15B055B150233F4
:1017A0005B00C01810BD034B034A0448B12101F08F
:1017B000FDFDC0467C560110749401109456011032
:1017C00010B5091A0B1F0A4A88180A4A904208D80D
:1017D000C90706D45B105B055B0D0748184380B250
:1017E00010BD064B064A0748A32101F0DFFDC046A5
:1017F000FC070000FE0F000000E0FFFFF0560110A4
:10180000689401109456011010B5091A04394A0859
:10181000090B08D14905490D064B0B430380064BC4
:101820001343438010BD054B054A0648AB2101F028
:10183000BDFDC04600F0FFFF00F8FFFF205701107C
:101840003C9401109456011001238340034A106810
:101850001840431E9841C0B27047C04600E100E006
:10186000002904D0034B1860034B18607047034BEA
:101870001860FBE780E200E000E100E080E100E0CA
:1018800010B5012383401800FFF7EAFF10BD0000E8
:1018900001238340014A13607047C04600E200E024
:1018A000024B9B6810308000C058704700ED00E08C
:1018B00010B5FFF7F5FF002805D0054BC01A2F28FB
:1018C00003D8012010BD0020FCE70020FAE7C04645
:1018D0000C0D002070B504000D00EFF3108672B6F9
:1018E0000C4B1B68002BFBD0BFF35F8F2000FFF772
:1018F000D7FF094B984201D0A84205D132002900F8
:101900002000FFF72DFF70BD044B054A05488621D6
:1019100001F04CFD240100D0CD0100103057011022
:101920009C94011094560110F0B5DE4657464E4681
:101930004546E0B589B0814601911500EFF3108A64
:1019400072B66D4B1B68002BFBD0BFF35F8F6B4BE8
:1019500000269E57002E41DB7400A419A40068489D
:1019600024180622A256654B1A70664B9A684B469D
:1019700010339B00D35898461F00181A2F2839D9C6
:10198000614B984530D105AF604B3B806049730097
:101990009B46981980005A4B984640440230FFF706
:1019A0000FFF78805B4BBB80FF23BB71FD71019BF8
:1019B000079333005B449B00434407CF07C30123D5
:1019C0001C43A046524641464846FFF7C9FE09B0AF
:1019D000F0BCBB46B246A946A046F0BD4E4B4F4AAE
:1019E0004F48D72101F0E2FC4E4B4C4A4C48DE21D7
:1019F00001F0DCFC01380C2102F000FF002912D1BB
:101A000001239F43BB463B000027DA79AA4211D944
:101A10000621595600290CDB4A0052189200384919
:101A20001F008B18F1E7404B3C4A3D48EA2101F08A
:101A3000BDFC1F00002F2ED005AB3C4A1A80813A16
:101A40005A800623FB560293002B17DA384805AB61
:101A50009B469880029A9A71DD71019A0792381D0F
:101A60002100FFF7ADFEB880BE71254B72009219C0
:101A700092009B185A4613CA13C3A3E7381DFFF7F9
:101A800087FE01007000801980001D4BC0180430D3
:101A9000FFF796FEDBE705AF1C4B3B801C4973004C
:101AA00002939B199B00164A90461A0042440392E7
:101AB000901CFFF785FE7880039A101D5946FFF7AA
:101AC0007FFEB8801B4B5A464146521A524153433F
:101AD0001B0DBB71FD71019A0792029B9B199B0024
:101AE000434407CF07C3114B5A461380813B5380B1
:101AF00001231C43A04665E7240100D0FC5D0020C3
:101B00000C0D002000ED00E0CD01001000A1FFFF52
:101B10003C0D002001BDFFFF6857011084940110A7
:101B20009456011090570110B85701100148000059
:101B300001BD0000AAAA0000F0B5CE46474680B518
:101B400083B006000D00EFF3108872B64F4B1B6890
:101B5000002BFBD0BFF35F8F4D4B9A6834001034DD
:101B6000A300D7584B4B9F4207D0AF4200D18BE028
:101B70000197494BFB1A2F2B09D9424639003000F7
:101B8000FFF7EEFD03B0C0BCB946B046F0BD300073
:101B9000FFF75AFE814600213000FFF771FEBFF3C8
:101BA0005F8FEFF30581002901D08C4211D1012311
:101BB000019C9C430020A368AB4212D00622A2568F
:101BC000002A0DDB53009B189B00334A2000D418D9
:101BD000F1E7324B324A36213248FF3101F0E6FB61
:101BE0002000AB4249D106256557002D2BDB2A4B3F
:101BF0006A00521992009B189A68A260DA79E27121
:101C00009B795BB2A371002B0FDA2748A080224B8F
:101C10006A00521992009B18244A11789971157024
:101C200049463000FFF72CFEA7E768004019800006
:101C3000194BC0180430FFF7ABFD0100231D18003D
:101C4000FFF7BEFDE2E7002912D100280ED0FF23E6
:101C50008371174B838015490B78A3710E4A154B7E
:101C6000A41A644163431B0D0B70D9E7094FF2E7D7
:101C70001149201DFFF7C8FDD2E7104B084A6A2121
:101C80000848FF3101F092FB024F76E7240100D0B3
:101C900000ED00E0CD0100100C0D00202C580110CB
:101CA000549401109456011001BD0000FC5D002009
:101CB00001BDFFFFAAAA0000460D002060580110D8
:101CC00010B5032304009C43064A944664442268EA
:101CD0001840C000FC3383409A43130081400B43FB
:101CE000236010BD00E400E070B5012202432E4BDA
:101CF000D31A2F2B28D8EFF30583002B2BD0EFF32B
:101D0000108C72B6294909680029FBD0BFF35F8F98
:101D1000254C274905002D1B6D416943090D4CB227
:101D2000244989689B00C95891421BD0002103298E
:101D300032D81D4B4A00521892009B189B795BB217
:101D4000A3421FD00131F2E71B4B1C4AC7211C489C
:101D5000490001F02BFB1B4B184A92211848FF3118
:101D600001F024FB134A92681749D150174B1A7897
:101D700082711C70BFF35F8F0C4B00221A608CF3D2
:101D8000108870BD084B4A005518AD005D19FF263C
:101D9000AE710F4AAA80E9E70E4B084AD1210848E4
:101DA000490001F003FBC0460C0D0020240100D0C7
:101DB000AAAA000000ED00E068580110209401106C
:101DC0009456011090580110CD010010FC5D0020C8
:101DD00001BDFFFF9C5801100022044B02E00449A2
:101DE00002C30132072AFAD97047C04600E400E076
:101DF0008080808010B5FFF7C7FC0100024B1800FF
:101E0000FFF75EFC10BDC046095E002010B582B031
:101E10000100074C074B0093052300222000FFF729
:101E200026FC002801DB1F23181A02B010BDC04693
:101E3000095E0020A458011070B504000E001500C2
:101E4000FFF76EFC0100200000F006F8A680E58098
:101E5000BFF35F8F70BD0000024B9C466144890058
:101E6000016070474000003410B5002B02DB0260B7
:101E7000436010BD024B034A03483F2101F096FA2C
:101E8000CC530110F4940110E853011070B582B0E6
:101E9000060014001D00FA2292000023069800217B
:101EA00003F05CF802000B0012196B41002B09DBF8
:101EB0006846FFF7D9FF009A019B326073603000DB
:101EC00002B070BD01225242004BF1E7FFFFFF7FDD
:101ED00010B582B0040000F0D1FD02000B0068468E
:101EE000FFF7C2FF009A019B22606360200002B0EE
:101EF00010BD30B585B004000D0002A8FFF7E8FF63
:101F0000029A039B00952000FFF7C0FF200005B058
:101F100030BD10B50400FFF703FC01002000FFF7FF
:101F20009BFFFF232371BFF35F8F10BD10B504002B
:101F3000FFF7F6FB01002000FFF78EFFFF23237160
:101F400000236371BFF35F8F10BD0000034B9C46FD
:101F5000614489000160BFF35F8F70474000003427
:101F600010B504000120FFF7E9FB01002000FFF796
:101F7000EDFF10BD084B5B6A994209D8064A926A88
:101F8000824207D2994201D0012002E0002000E005
:101F9000002070470120FCE70040054010B50029F3
:101FA0000AD003681B7B8B4206D38068054B9C4696
:101FB00061440901401810BD034B044A04483C2108
:101FC00001F0F4F9FFFFFF0F68590110349601107A
:101FD0008C590110F8B504001700FFF7DFFF066801
:101FE000456839002000FFF7D9FF026843680120E7
:101FF000AB4201D802D00020C0B2F8BDB242FBD83B
:10200000F9E7000010B5002B02DB0260436010BD51
:10201000024B034A03483F2101F0C8F9CC53011099
:1020200000960110E853011010B582B00400049826
:10203000059912184B41002B09DB6846FFF7E2FFB8
:10204000009A019B22606360200002B010BD012253
:102050005242014BF1E7C046FFFFFF7F10B5002958
:1020600008D0037B8B4205D300684B005B18033B11
:10207000C01810BD024B034A0348682101F096F9CD
:10208000E0590110DC950110FC59011010B5437B9B
:102090008B4201D1012010BDFFF7E0FF8378002BB8
:1020A00001D10020F7E70120F5E770B50400857B3A
:1020B000002D01D1280070BD2900FFF7CFFF437824
:1020C000A373002B00D1E37300238370437003706C
:1020D000F0E70000F8B506000C001500FFF7BEFFA2
:1020E0000700002C0DD0002D11D0AC4215D02900D6
:1020F0003000FFF7B3FF84703B78002B13D13D70A5
:10210000F8BD0A4B0A4A0B486F2101F04FF90A4B00
:10211000074A0848702101F049F9084B044A05486C
:10212000712101F043F943703D70E9E7645A0110F1
:10213000B8950110FC590110705A01107C5A011019
:1021400070B506000D001400002914D0002A14D028
:10215000436880689847002806D022002900300094
:10216000FFF7B8FF280007E02A0021003000FFF742
:10217000B1FF200000E0100070BD0800FCE7000087
:1021800070B504000D1E0CD0FFF768FF00238370AC
:1021900043700370617B2A002000FFF7D1FF60735A
:1021A00070BD034B034A0448A52101F0FFF8C04667
:1021B000DC5A0110CC950110FC59011070B50400D7
:1021C0000D1E0FD0FFF762FF00280BD1E17B002925
:1021D0000ED1A37B002B03D1E37B002B0DD1A57384
:1021E000E57370BD084B094A0948F62101F0DEF895
:1021F0002000FFF733FF4570EBE7064B034A044826
:10220000FB2101F0D3F8C046945A0110A8950110A3
:10221000FC590110B85A011010B5002907D0036805
:102220001B7B8B4203D3C0680139401810BD034BA0
:10223000034A0448412101F0B9F8C0466859011029
:10224000949501108C59011010B50C00CB68834295
:1022500007D10B6908009847002809D020686168F9
:1022600010BD064B064A52210648FF3101F09EF888
:102270000023E36000200021F2E7C046CC5A0110A1
:10228000489501108C59011070B505000C0008002C
:1022900000F0D0FC0949200000F010FCFFF740FAE4
:1022A000074B9C466044800068602C75D0231B0659
:1022B0001B786B75034BA400E55070BDD52300104F
:1022C000400000344C5300200A4B1A68EFF3108191
:1022D00072B61368002BFCD0BFF35F8F054B1B68F1
:1022E000BFF35F8F00221A6081F3108840BF002087
:1022F00000217047DC5B002010B582B0040000F0C4
:10230000BDFB02000B006846FFF77CFE009A019BB4
:1023100022606360200002B010BD70B584B004007C
:1023200016001D0002A8FFF7E7FF029A039B009624
:1023300001952000FFF778FE200004B070BD00007A
:10234000F0B583B0070001921D000AAB1C780BABFF
:102350001E78002C0BD000682100FFF797FE0028A4
:1023600009D0194B194A1A48672101F01FF8006873
:10237000FFF79BFE0400002C02D1200003B0F0BD4B
:1023800021003800FFF70AFE019B03604560089BAF
:102390008360099BC36038682100FFF7F1FEA0420B
:1023A000EBD1387D019A2B0000F0D0FB051E01D047
:1023B000002E04D00C9B002BDFD01D70DDE73868A9
:1023C000210000F07DFDF5E7E05A0110E8950110CD
:1023D0008C590110F0B5DE4657464E464546E0B5ED
:1023E0008FB00021794B8200D6588A460B9083E04B
:1023F00039003000FFF7D2FD814602684368121BA6
:10240000AB41002B09DD4B461A685B680B9800F066
:102410009DFB0023994600248AE0002B01D1002A6D
:10242000F1D10021584600F041FD0500B84215D118
:102430004B465C681B68089309944B469C68DB68B4
:102440009946002C10D039003000FFF7E5FE0378E4
:102450009A461B021D433561002069E05C4B5D4AD2
:102460005D488E2100F0A2FF5C4B5A4A5A489221E7
:1024700000F09CFF3369002B00D177E0AB4219D10B
:1024800006980799002342428B4100920193089AD3
:10249000099B0CA8FFF7C8FD0C9A0D9B0021049125
:1024A0000131039102974946019100943000FFF7F2
:1024B00047FF16E04A4B474A4748A12100F076FF04
:1024C000069A079B002B01D1002A52D130683900AF
:1024D000FFF774FE39003000FFF79EFE03780133EA
:1024E0000370002333617268BFF35F8F136088F35A
:1024F00010880120002862D00CA8FFF7FDFE0C9C7C
:102500000D9D00220023089209937268EFF3108852
:1025100072B61368002BFCD0BFF35F8F33689B4605
:102520005F7B002F00D063E7002399460024002042
:102530007368BFF35F8F00221A6088F31088002C45
:10254000D8D053461D023D4349462800A047069077
:1025500007917268EFF3108872B61368002BFCD0F5
:10256000BFF35F8F079B002B00DA83E7079B002BED
:10257000A6DD3369002BA9D0AB421AD10CAD2800DF
:10258000FFF7BAFE0C9A0D9B0698079900900191EF
:102590002800FFF749FD0C9A0D9B002104910131A1
:1025A000039102974946019100943000FFF7C8FE5D
:1025B00097E70B4B074A0848A42100F0F7FE0FB03D
:1025C000F0BCBB46B246A946A046F0BD4C53002025
:1025D000085B0110189601108C590110205B011046
:1025E0002C5B011010B50C4B5B68002B04D00B4822
:1025F0000A21FFF731FC10BD074C094A206823006F
:10260000102100F0BEFB032000F02CFA0321200073
:10261000FFF73AFEEBE7C046540D0020DC5B0020DC
:10262000D51F001010B5064B5B68002B01D0044885
:1026300010BD044B044A05485E2100F0B7FEC046B9
:10264000540D0020685B01107C9501108C5901101D
:10265000F0B5DE4657464E464546E0B58FB005001C
:1026600090460793189B9A46199B99461AAB1B787C
:102670000993272304AA9446634400221A70CB4688
:1026800023E001002800FFF7C7FD00783FE008982D
:10269000002B62D0099B002B5FD05946D047060023
:1026A0000F0003000B435FD0002945DB0AAC20007C
:1026B000FFF722FE0A9A0B9B009601972000FFF776
:1026C000B3FC0A9B98460B9B07936A68EFF310894B
:1026D00072B6136859424B41D9B20891002BF8D118
:1026E000BFF35F8F273304AA944663440493002307
:1026F000039302935B460193534600934246079B24
:102700002800FFF71DFE0690041EBAD106986B68DC
:10271000BFF35F8F0021196089F31088002C1AD055
:10272000272304AA944663441B78002BAFD10002F0
:10273000069A02431000ABE700237242BB410092AD
:1027400001934246079B0AA8FFF76EFC0A9B984636
:102750000B9B0793B9E7012040420FB0F0BCBB468A
:10276000B246A946A046F0BD0898F6E7F0B5C646C1
:1027700000B584B00500884616001F000AAB1C781F
:10278000FFF750FF0294019700962A004346FFF797
:102790005FFF04B080BCB846F0BD0000F0B5C6468F
:1027A00000B505000C1E42D04268EFF3108772B6E8
:1027B0001368002BFCD0BFF35F8FE6B22B689846FE
:1027C00031001800FFF762FC00282AD02B69A342D1
:1027D00013D0240AE4B231002800FFF71DFD03786E
:1027E000A34211D000206B68BFF35F8F00221A60F4
:1027F00087F3108880BCB846F0BD0E4B0E4A2C21E2
:102800000E48FF3100F0D2FD3100404600F058FB89
:102810000028E8D10A4B084A99210848490000F0ED
:10282000C5FD2B69A342DED100232B61DBE700202D
:10283000E0E7C0468C5B0110649501108C590110D3
:10284000B05B011010B50400FFF7ECFE2100FFF7AC
:10285000A5FF10BD407D7047F0B587B005001000A2
:1028600019000E9C13000B4301D101200021A5602B
:102870000C9B2361206061600D9B6361CE17370064
:102880007040020071400B00921BBB4104A8FFF78F
:1028900044FD049A059B0121029101940449009191
:1028A0002800FFF7D5FEE060C043C00F07B0F0BDC1
:1028B0004922001030B587B004000D00EFF3058306
:1028C000002B20D106225242D31712196B418B42A2
:1028D00002D803D1824201D90022002304A8FFF7C5
:1028E00091FB02A8FFF708FD02980399049A059B43
:1028F000121A8B41002B0BDC08D02000290000F0BD
:10290000C9F807B030BD144800F0E8FD002AF4D043
:10291000124A0498059900230093FFF727FF002827
:1029200013DAEAE70E4B1A68EFF3108172B61368F8
:10293000002BFCD0BFF35F8F094B1B68BFF35F8F89
:1029400000221A6081F3108820BF04980599FFF7D0
:1029500011FB0028E6D0D0E7B45B0110C9220010BB
:10296000DC5B002000B583B002000B006846FFF777
:10297000D4FC00980199FFF79DFF03B000BD10B58E
:10298000FA2292000023002102F0E8FAFFF7EAFFA2
:1029900010BD000030B583B005000C00EFF30583D7
:1029A000002B0FD10B4A00230093FFF7DFFE002816
:1029B0000BDD20BFFFF746FF28002100FFF7DAFA02
:1029C00003B030BDFFF7D6FAFAE728002100FFF781
:1029D000D1FAF5E7C922001070B5EFF30580103881
:1029E000EFF3108C72B6194B1B68002BFBD0BFF3B2
:1029F0005F8F01221300834015494B6315490B601B
:102A0000154909780C00C440224213D0104A546A78
:102A1000124A8500AA58944205D3114AAA580E4C6E
:102A20009943217007E00A4A031D9B009958995069
:102A3000002200E00022BFF35F8F044B00211960E9
:102A40008CF31088002A00D0904770BD280100D078
:102A5000004005403C700540085E0020F85B002007
:102A60007814002010B50100024A034B1800FEF74D
:102A7000E5FD10BD045C0110F55D0020044B5B6AB0
:102A8000034A906A1900536A9942F9D17047C046C7
:102A900000400540084B5B6A01E0074B5B6A8B42D4
:102AA000FBD301E0044B5B6A8B4203D1024B9B6A70
:102AB0008342F7D37047C0460040054070B504001C
:102AC0000E00EFF3108572B61B4B1B68002BFBD07A
:102AD000BFF35F8F002E1CD02000FEF7E1FE174BE6
:102AE00083420BD019002000FEF7F4FE01212000E4
:102AF000FEF7C6FE0123A340114A1360114BA40048
:102B0000E650BFF35F8F0C4B00221A6085F31088EC
:102B100070BD0C4BA2000021D1500122A2400A49F5
:102B20000B7893430B7005492000FFF705F800214F
:102B30002000FEF7A5FEE4E7280100D0D929001007
:102B40003860054078140020085E0020F0B5DE46AD
:102B500000B584B00400150001921E000293FFF737
:102B60008DFF03958E4202D84ED185424CD9EFF3AA
:102B7000108B72B6274B1B68002BFBD0BFF35F8F07
:102B8000254A17780125A540EBB23B431370234B30
:102B90005D63221D92000199D150214AA100029843
:102BA00088501B6A2B4212D11C4B1B6C2B4208D045
:102BB0000020BFF35F8F174B00221A608BF3108841
:102BC00023E0184B184A1948C52100F0EFFBFFF726
:102BD00055FF8E4214D802D1039B834210D80E4B6E
:102BE0001B78BB420ED00D4B1D625D631F2222403D
:102BF000012393400E4A1360074B1F700120D8E752
:102C00000020D6E70120D4E7012004B080BCBB46F9
:102C1000F0BDC046280100D0085E002000400540FD
:102C2000F85B0020285C0110489601104C5C0110F4
:102C300080E200E0EFF3108C72B60B4B1B68002BA8
:102C4000FBD0BFF35F8F01238340084A136208491A
:102C50000A789A430A70BFF35F8F034B00221A6011
:102C60008CF310887047C046280100D00040054012
:102C7000085E002010B5002908D0037B8B4205D3E5
:102C800000684B005B18033BC01810BD024B034AA1
:102C90000348682100F08AFBE0590110A496011056
:102CA000FC590110F8B506000C001500FFF7E2FF13
:102CB0000700002C0DD0002D11D0AC4215D02900FA
:102CC0003000FFF7D7FF84703B78002B13D13D70A5
:102CD000F8BD0A4B0A4A0B486F2100F067FB0A4B0C
:102CE000074A0848702100F061FB084B044A054878
:102CF000712100F05BFB43703D70E9E7645A0110FD
:102D000090960110FC590110705A01107C5A011064
:102D100070B506000D001400002914D0002A14D04C
:102D2000436880689847002806D0220029003000B8
:102D3000FFF7B8FF280007E02A0021003000FFF766
:102D4000B1FF200000E0100070BD0800FCE770B586
:102D500005000023437301338373037BC373012492
:102D600006E021002800FFF785FF0134E4B244703B
:102D7000297BA142F5D82800FFF77CFF0023437090
:102D800070BD10B5017342608360FFF7E0FF10BDB6
:102D9000F0B5C64600B505000C1E03D1200080BC6E
:102DA000B846F0BDFFF766FF4678002EF6D031003A
:102DB0002800FFF75FFF4778002398464370210003
:102DC0002800FFF757FF43464370320021002800D8
:102DD000FFF79EFF040039002800FFF7D9FF02002B
:102DE00021002800FFF794FF0400D7E7F0B5C6469E
:102DF00000B504000D001700002927D0FFF73AFFA7
:102E00004378002B28D18378002B2BD10178200028
:102E1000FFF7BEFF06008046002F0AD0E17B0029A5
:102E200026D1A37B002B03D1E37B002B25D1A573F7
:102E3000E5734346002B26D129002000FFF71AFF37
:102E400000234370300080BCB846F0BD114B124ADD
:102E50001248382100F0AAFA114B0F4A0F483A21C4
:102E600000F0A4FA0F4B0C4A0C483B2100F09EFAEC
:102E70002000FFF7FFFE4570D3E70B4B064A0748DB
:102E8000422100F093FA31002000FFF7F3FE002307
:102E90008370D1E7AC5C01107C960110B45C01102A
:102EA000085D0110305D0110B85A011070B50400C2
:102EB0000A00457B2900FFF799FF6073280070BD69
:102EC00070B506000C1E40D0437B8B4207D0FFF745
:102ED000D1FE05008178002906D1002036E00121CD
:102EE000FFF7E4FF012031E03000FFF7C3FE017877
:102EF000A1420DD03000FFF7BDFE4178A1420AD0BB
:102F00000029F7D1124B134A13486B3100F04EFAE7
:102F10006B78037001E06B7843700023AB706B70CB
:102F2000012221003000FFF761FF0200717B814226
:102F300005D03000FFF7ECFE7073012006E0074B70
:102F4000044A0548712100F031FA002070BDC046E6
:102F50009C58011064960110B45C0110545D01107E
:102F6000F8B5DE4657464E464546E0B506000F002A
:102F700015000A9A934250D31A0E92461B029846A5
:102F80000A9A00234046514601F076FC81467400BF
:102F9000A419A4002F4B9C4664446368834200D26A
:102FA0006060331FDBB29B46012B3CD9C0239B01E1
:102FB0002343802212011A60274BB200D158002906
:102FC00007D0586901F01AFC013043001B18033B7D
:102FD000FDD26D0123685D40E0222A4080235B0121
:102FE00023431A605A46012A28D980239B01234390
:102FF000802212011A604B4663604A460023404615
:10300000514601F039FC144BB60098510120F0BC38
:10301000BB46B246A946A046F8BD104B104A11481F
:10302000332100F0C3F9012FC0D1C0239B012343FA
:1030300003221A60A368DB07FCD5CAE72168794040
:1030400003220A401A60A3680125BD401D42FAD040
:10305000CBE7C04600800040B4160020745D01102C
:10306000B0960110885D011030B583B00C2000F0DF
:1030700011F9FEF7C3FA00280DD0002304E02E4A10
:1030800099002E4888500133092BF8D92A4B2C4A35
:103090005A6203B030BD2B4B00229A6700F06CF9E6
:1030A000294B01221A60274B5B6C012BFBD1274B6C
:1030B00003221A60234B9B6B012BFBD1013300933E
:1030C0000433234A0121234800F054F805230093D8
:1030D000214A0121214800F04DF8214B00930022A4
:1030E00002210420FFF73CFF1E4D00952B0000221B
:1030F00001210520FFF734FF104C0094230000222B
:1031000000210720FFF72CFF00942300002200215C
:103110000820FFF725FF0A4B00932300002200211F
:103120000920FFF71DFF00952B000022002106203B
:10313000FFF716FFADE7C046B4160020006CDC02B6
:103140001BB70000008000403CB0004030B00040A1
:10315000002F685900800240008C864700C0024062
:10316000001BB70040597307014B8000C0587047DF
:10317000B4160020F0B5C64600B504000E001700D6
:103180001D00374801F03AFB8046364BFA18364BA3
:103190009A4239D80100380001F030FB0200103AA1
:1031A00098235B009A4235D86B1E062B38D8069BB5
:1031B000013B062B34D83F09474537D32D04069BE6
:1031C0001B031D432368002B36DB284B9C4244D055
:1031D00080235B01264A1360264A1360264A9268C0
:1031E00019009143FAD12660A060221DC0239B01E3
:1031F000134321221A602268002AFCDAE5600822C3
:103200001A6080BCB846F0BD1C4B1D4A1D481121F8
:1032100000F0CCF81C4B1A4A1A48192100F0C6F8E5
:103220001A4B174A17481C2100F0C0F8184B144AD3
:103230001448232100F0BAF822683F231340B34218
:10324000C3D1A3681B051B0D8342BED1E368EE22E8
:10325000D2021340AB42B8D1D3E780239B01B9E738
:10326000001BB70080E84BD380F8A93200C00240B1
:1032700000E0004000F0004000C00040E85D0110A8
:10328000C0960110485E0110A45E0110C05E0110DE
:103290000C5F011080239B000343014AD3627047F7
:1032A00000800540024B1A68024B5A607047C046C6
:1032B0007C2500200080054010B5174B8022D205E8
:1032C0001A60164B164A1A6000290AD0154BE022E4
:1032D000D2041A60002809D1124B802212061A600B
:1032E00010BD0D4BE022D2041A60F3E743011B1A14
:1032F0009B00181800010C4B186080235B04984257
:1033000002D3094B094A1A60FFF7CCFF054B802214
:10331000D2051A60E4E7C04600B00540082001402D
:10332000FCFF010000A005407C250020FFFFFF00FE
:1033300010B5030010000C4A8024E4051460002B33
:103340000DD001221343094A094CD461094C5C4059
:103350001462516293620021FFF7AEFF10BD034B70
:103360000022DA61F7E7C04600B005400080054062
:10337000D3C007B02D3FF84F064BAA2212011A60A6
:103380002F22DA60044B054A1A60024B5B68002B5F
:10339000FBDA7047004002400060024000B0FA00D3
:1033A00000BEFDE710B5FFF7FBFF000030B583B0AE
:1033B0000D001900002A0BD0074B084C0192009316
:1033C0002B000200200002F047F80120FFF7E8FF81
:1033D000034B1A00F1E7C046285F0110385F011067
:1033E0007853011070B52B4B2B4A1A602B4B2C4A8B
:1033F0001A602C4B9A682A4B9343FAD12A4C01E06D
:1034000008CC9847294B9C42FAD3FFF72DFE234B5B
:10341000274A1A60234B9B68DB43DB01FAD1254B1B
:1034200040229A675A671A67DA66234C09E0234BF1
:10343000234A24488721FFF7B9FF2000FEF769FDE2
:103440000834214B9C4209D22368002BF5D0012B74
:10345000EDD12000FEF76AFD0834F2E71B4DA968A4
:103460001B4CC022200001F065FEAC60EFF3058329
:10347000002B00D000BEFEF743F9FEF7ADFCFFF7CE
:10348000B1F8144C01E008CC9847134B9C42FAD396
:1034900070BDC04600E00040BFCDFBFE00F0004024
:1034A000FE7F3C0000C00040580E0020680E002047
:1034B000FFFFFF0100F00140500E0020685F011087
:1034C000CC960110885F0110580E002000ED00E03E
:1034D00000000020680E0020700E00200FB400B520
:1034E00083B0084801F088FF049B002B07D005A992
:1034F0000191180001F090FF034801F07DFF0120C9
:10350000FFF74EFFE85F0110C851011010B50148E8
:10351000FFF7E4FFF85F01109A4200D28854704729
:10352000704710B5002802D00B684968984710BD55
:103530000100002007E083001B185B00501C08609E
:103540001078C01830380A681378303BDBB2092B8A
:10355000F1D97047F0B5DE4657464E464546E0B5D0
:1035600083B093461F000C9B9A460D9C0E9B994678
:103570000F9B9B0717D0B8460F00060022E0551C92
:103580004B4641462020B84701342A00B442F6D3C6
:103590003D004F465C46019B9B46B1464646B846B9
:1035A00037002E000EE00192A34688464E46B946EB
:1035B0000700EBE7013C551C5346185D43463900B4
:1035C000B0472A00002CF5D135003E0047460F9B3E
:1035D0009B0711D4100003B0F0BCBB46B246A9460D
:1035E000A046F0BD541C4B4641462020B84722005F
:1035F000531BB342F6D3EDE7B0464E46B9462F0013
:103600005D46F5E7F0B5CE46474680B585B09446B1
:1036100098460C9D0D9C0EAB1B789946109A119BF9
:10362000129EB7071CD4002B0CD0F7070AD54F46C3
:10363000002F02D10C37374204D0013B02E0302783
:103640002F550134944201D21F2CF8D9F70707D522
:103650009C4205D21F2C03D830272F550134F5E7A3
:10366000F70612D5770505D4002C03D0944221D05B
:103670009C421FD00F9A102A2FD00F9A022A36D0C0
:103680001F2C0AD830222A5501341F2C05D84A464F
:10369000002A32D02D222A55013403960293019438
:1036A000009543466246FFF755FF05B0C0BCB946DA
:1036B000B046F0BD621E012C17D00F9F102F0BD00B
:1036C00014000F9A102AD8D1B206D6D51F2CD4D800
:1036D00058222A550134D3E7023CB206F1D41F2CFC
:1036E000EFD878222A550134CAE71400C2E71F2C0C
:1036F000D3D860322A550134C2E7720703D52B2292
:103700002A550134C9E73207C7D520222A5501348A
:10371000C3E7F0B5DE4657464E464546E0B593B0A2
:1037200081468A46089209931CAB10CB1B789B46B6
:103730001E9D219B9846002C03D1102342469A439C
:1037400090468023DB0046461E4042461A4218D06F
:10375000002C22D0002614E0424692061BD54121BF
:10376000C918C9B20A39C9B2771C0AAB99552900E0
:10377000200001F043F8AC4210D31F2F0ED83E00BA
:1037800004002900200001F039F8CBB2092BE3D85E
:103790003033D9B2E8E76121E2E7270043460693D8
:1037A000209B05931F9B049303955B46029301970F
:1037B0000AAB0093099B089A51464846FFF722FF3F
:1037C00013B0F0BCBB46B246A946A046F0BDF0B56A
:1037D000DE4657464E464546E0B597B00A900B91F7
:1037E0000C929A46209B9946219F22AA13789B46C9
:1037F000249B0993259C289B98464A463A4302D12C
:103800001032934398468022D200454615404346E5
:1038100013420AD04A463A4341D000252E0053466F
:103820000D934D46099B9A4621E02E0053460D9379
:103830004D46099B9A461AE04246920623D54122FC
:10384000D218D2B20A3AD2B2731C99460EAB9A552C
:10385000524623002800390001F00EF8BC4220D85F
:1038600013D04B461F2B16D84E4605000F0052466C
:1038700023002800390000F0FFFFD3B2092BDBD86A
:103880003033DAB2E0E76122DAE7AA45E9D94E46F9
:103890000D9B9A4608E04E460D9B9A4604E0002692
:1038A00002E04E460D9B9A4643460693279B05939E
:1038B000269B0493099B03935B46029301960EABF0
:1038C000009353460C9A0B990A98FFF79BFE17B08A
:1038D000F0BCBB46B246A946A046F0BDF0B5DE46F8
:1038E00057464E464546E0B591B0804689460C9213
:1038F0009A461A9C1B9D22002B002000290001F0F3
:1039000036FA002800D0F2E001225242D54B2000C6
:10391000290001F027FA002800D0E8E001225242F5
:10392000D14B2000290001F007FA002800D0DEE08A
:10393000002200232000290001F0FEF9002800D019
:10394000EAE0069407958023DB001E9A1A400D9248
:103950001E9A1A4201D106231C9306980799020069
:103960000B000892099303000A00024300D1DFE034
:10397000080D4005400DBD4EB4466044079E32031D
:10398000120B1E00BA4B13431F0001F003FAB94A91
:10399000B94B01F092F9B94AB94B01F06FF90890AF
:1039A00009910022B74B3000390001F062F9B64AA4
:1039B000B64B01F082F902000B000898099901F05A
:1039C0005DF901F0FFF9834601F0E4F906000F000C
:1039D000AF4AB04B01F071F90022AF4B01F04EF944
:1039E00001F0F0F90890AD4AAD4B3000390001F01C
:1039F00064F906000F00089801F0CCF9A94AAA4B17
:103A000001F05BF902000B003000390001F031F9E0
:103A100006000F0002000B0001F04FF90A900B9115
:103A2000089BA24A9446634400210022089109920F
:103A30001B0509930023089332003B003000390036
:103A400001F01CF90E900F9132003B000020802104
:103A5000C90501F00EF906000F000022944B0A98E8
:103A60000B9901F010F90022924B01F007F90200C6
:103A70000B000A980B9901F006F900228E4B01F019
:103A8000FDF802000B000A980B9901F0FCF8020007
:103A90000B003000390001F0F1F802000B000E9825
:103AA0000F9901F0F0F80022714B01F0E7F8089A45
:103AB000099B01F002F906000F0008960997069A83
:103AC000079B01F04FF900280BD001235B429C4675
:103AD000E3440022774B3000390001F0D4F808901D
:103AE00009915B466333C62B45D8042623E01E9B11
:103AF00004931D9B03931C9B0293009401955346D2
:103B00000C9A4946404600F0FBF811B0F0BCBB46A9
:103B1000B246A946A046F0BD0021002206910792B8
:103B2000069480231B069C46AC44634607930AE731
:103B300000239B4604261E9B1B0528D5089A099B3B
:103B4000190011430FD05D4A5D4B0698079901F0AB
:103B500001F900287AD000225A4B0698079901F003
:103B6000EBF8002872D01C9B5B4506DD5A469B1A79
:103B7000013B1C9303E00526DDE700231C93802313
:103B8000DB001E9A1A431E92002600239B461D9BB3
:103B90009E4265D29F1B02231E9A1A400A921E9AC9
:103BA000134202D0002E00D000275B46002B07D026
:103BB000089A099B0698079901F065F80690079105
:103BC000002200232000290001F0B6F8002800D0D0
:103BD0007CE03D4B1E9A1340049303971C9B029379
:103BE000069B079C0093019453460C9A4946404615
:103BF00000F086F8002E00D187E71E9B9B0671D54A
:103C00004525441C5346020049462800C0475A46F1
:103C1000D317D2185A4005230593013E049600237A
:103C200003930A3302935B46DB0F019300925346E2
:103C3000220049464046FFF76CFD0A9B002B00D14D
:103C400063E7020047460C9E1D9D53E01C9B002B22
:103C50009DD00D9B002B9AD01C9B013B1C9396E79B
:103C6000002798E7FFFFEF7FFFFFEFFF01FCFFFF5B
:103C70000000F03FFB799F501344D33FB3C8608BE3
:103C8000288AC63F0000F83F61436F63A787D23F91
:103C900071A379094F930A400000E03F1655B5BB68
:103CA000B16B0240EF39FAFE422EE63FFF030000FF
:103CB00000002C4000002440000018402D431CEB65
:103CC000E2361A3F80842E41FFF7FFFF069C079DD6
:103CD0002200290080200006844661440B000692E1
:103CE000079376E765258CE7541C53464946202008
:103CF000B8472200931BAB42F6D3100005E7C0463D
:103D0000F0B5DE4657464E464546E0B595B00690BE
:103D1000079193469946209F1E9A1F9B10001900F9
:103D200001F025F8002831D101225242BC4B1E98E7
:103D30001F9901F001F8002837D101225242B94BF6
:103D40001E981F9901F00EF800283DD10022B64BB5
:103D50001E981F9901F006F800284AD10022B34BA3
:103D60001E981F9900F0E8FF002842D1002200238E
:103D70001E981F9900F0E0FF00284AD100239846C2
:103D8000229B5B0500D4B0E0002452E0229B039309
:103D9000219B029303230193A54B00934B465A4664
:103DA00007990698FFF7D6FB08E1229B0393219B16
:103DB0000293042301939F4B00934B465A46079965
:103DC0000698FFF7C7FBF9E0229B5B070ED59A4BDD
:103DD00004222299039121990291019200934B466A
:103DE0005A4607990698FFF7B5FBE7E0934B032285
:103DF000EFE7229B0493219B039302971E9B1F9C3A
:103E0000009301944B465A4607990698FFF766FDC2
:103E1000D4E01E9A1F9B0020002100F02AFF1E9074
:103E20001F9101239846ABE70CAB30221A55013F96
:103E300001341F2C01D8092FF6D81E981F9900F0C5
:103E4000C1FF050000F0A6FF02000B001E981F999D
:103E500000F00FFF7A4BFA009B181A685B680A9211
:103E60000B9300F02AFF0890099100F0CFFF0600A5
:103E700000F08CFF02000B000898099900F0F9FE91
:103E80000890099100226F4B00F06CFF00282ED0A3
:103E90000136300000F07AFF02000B000A980B99FF
:103EA00000F050FF002801D001350026002F2CD152
:103EB000280000F06FFF02000B001E981F9900F011
:103EC000D8FE06000F0000225E4B00F035FF0028F0
:103ED00046D100225B4B3000390000F043FF002840
:103EE0003ED1EB073CD501353AE006274CE70022EE
:103EF000544B0898099900F01FFF0028D6D1002ED6
:103F000001D0F307D2D50136D0E7AA461F2C11D82D
:103F1000013F0A21300000F071FC651C30310CAB10
:103F200019550A21300000F069FC092E0ED906004F
:103F30002C00EBE755461F2C0CD87B1E002F09D018
:103F40000CAA302111551F000134F4E72B0055460F
:103F50001C00F0E71F2C03D80CAB2E221A5501349D
:103F60001F2C10D80A21280000F020FC661C3031DC
:103F70000CAB19550A21280000F018FC051E01D0D1
:103F80003400EDE734000323229A1340012B1CD0A8
:103F90001F2C06D84346002B32D00CAB2D221A55CD
:103FA0000134229B0393219B029301940CAB009359
:103FB0004B465A4607990698FFF7CCFA15B0F0BC65
:103FC000BB46B246A946A046F0BD219B002B13D0AC
:103FD0004346002B02D10C3313420FD0219B013BEF
:103FE0002193190003E00CAB30221A5501348C42A6
:103FF000CED21F2CF7D9CBE72199F8E72199F6E724
:10400000229B5B0704D50CAB2B221A550134C8E761
:10401000229B1B07C5D50CAB20221A550134C0E7E3
:10402000FFFFEFFFFFFFEF7F65CDCD4165CDCDC138
:104030001460011018600110086001101060011078
:10404000789801100000E03FF0B5DE4657464E4636
:104050004546E0B593B007008A4693461193002980
:1040600000D12CE3002508E06C1C5B462A00514679
:10407000B847119B013311932500119B1878002834
:1040800000D11EE32528EFD101331193002318003E
:1040900020E00123184301321192012418E0022389
:1040A000184301321192012412E004231843013213
:1040B000119201240CE008231843013211920124CB
:1040C00006E01023184301321192012400E000247D
:1040D000002C09D0119A1378203BD9B21029F6D8B8
:1040E0008B00C449CB589F468146119B1A78130018
:1040F000303BDBB2092B10D92A2A13D00B94119B29
:104100001A782E2A20D0119A1378683BD9B2122936
:1041100065D88B00B849CB589F4611A8FFF708FA1D
:104120000B90ECE71C9B1A1D1C921B68002B04DBF8
:104130000B93119B01331193E1E70222010011431C
:1041400089465B420B93F4E78022D2004946114333
:1041500089465A1C11925A781300303BDBB2092B66
:104160000BD92A2ACFD11C9B1A1D1C921C68002C2B
:1041700008DB119B01331193C5E711A8FFF7D8F9AC
:104180000400C0E70024F4E780235B0049460B43AA
:10419000511C119151786C2901D099461FE0C02320
:1041A0009B004946194389460232119217E0802349
:1041B00049460B43511C11915178682901D0994609
:1041C0000DE0C0234946194389460232119206E0A8
:1041D00080235B0049461943894601321192119BA5
:1041E000187867281CD8252800D25EE20300253BFA
:1041F000DAB2422A00D958E29300804AD3589F4647
:1042000080239B0049461943894601321192E6E713
:1042100080235B0049461943894601321192DEE74B
:10422000782800D941E2692800D23EE20200693ACA
:10423000D2B201239340724A134210D11A0600D51C
:104240000CE25B0500D430E21C9B1A1D1C921E6818
:10425000002C00D0BAE101225242330096E16F28CF
:1042600042D005D8582841D0622803D1022606E062
:1042700078283DD010234A469A4391460A2658286A
:1042800038D0692805D0642803D00C224B469343CC
:1042900099464B465A0502D501229343994669280F
:1042A0002DD064282BD04B469A0500D5AAE0DA051C
:1042B00000D5C2E05A0600D4D3E01C9A111D1C910F
:1042C0001168FF220A404B4605930B9B049303940D
:1042D00002960023019300925B462A005146380063
:1042E000FFF717FA05002AE00826C8E71026C6E7F8
:1042F0001026C4E720224B4613439946C1E74B469C
:104300009A0520D4DA0551D45A0666D51C9A111D97
:104310001C911168FF220A40D017111841404B46EA
:1043200005930B9B049303940296D20F0192009184
:104330005B462A0051463800FFF7EBF90500119B58
:104340000133119399E61C9A073207218A43110021
:1043500008311C91116853689C46DB170C930D9330
:104360000C9A0D9B100048400E900D9B61464B40EF
:104370000F930E980F990C9A0D9B801A99410E90ED
:104380000F914B4608930B9B0793069404960023CA
:1043900005936346DA0F0292009001915B462A0072
:1043A00051463800FFF713FA0500C8E71C9A111DA3
:1043B0001C911268D0171118414005930B9B049370
:1043C00003940296D20F019200915B462A00514657
:1043D0003800FFF79EF90500B1E71A0605D51C9ACB
:1043E000111D1C910023D25E96E71C9A111D1C9191
:1043F000126891E7DC960110209701106C9701106C
:10440000419000001C9A073207218A4311000831AD
:104410001C9108930B9B0793069404960023059325
:10442000029353681268009201935B462A0051463A
:104430003800FFF7CCF9050081E71C9A111D1C918B
:1044400005930B9B04930394029600230193136836
:1044500000935B462A0051463800FFF75AF90500E1
:104460006DE71A0606D51C9A111D1C9112681204DC
:10447000120C28E71C9A111D1C91126823E746288C
:104480001AD01C9B0733072293431A0008321C9250
:104490004A4604920B9A039202941A685B6800924F
:1044A00001935B462A0051463800FFF729FC0500BE
:1044B000119B01331193E0E520234A461A439146AC
:1044C000DFE7672801D0472804D180231B014A4633
:1044D0001A439146452801D0472803D120234A4654
:1044E0001A4391461C9B0733072293431A00083254
:1044F0001C924A4604920B9A039202941A685B68D3
:10450000009201935B462A0051463800FFF7E6F916
:104510000500119B01331193AFE502234E461E4067
:104520004A4613421ED001241C9B1A1D1C926A1C71
:10453000904618785B462A005146B847002E14D1A1
:10454000119B01331193454697E5551C5B46514637
:104550002020B84723002A005C1C0B999942F4D80C
:104560001500E1E701232A00F6E7424606E0561C63
:104570005B4651462020B8472C003200651C0B9B3F
:10458000A342F4D89046DBE701330A0019780029EA
:1045900002D0511E002AF7D19B1B8022D20049462F
:1045A000114088464946114202D0A34200D9230057
:1045B000022249461140109149460A4208D02A0079
:1045C000250099463B004746984626E0220044E6EF
:1045D000A1462A005146B2460E0006E0551C5B4635
:1045E00031002020B84723002A005C1C0B99994217
:1045F000F4D8150022004C46330056469A469146A0
:104600002A0025003B004746984606E01D0001367B
:10461000541C5B465146C04722003078002804D025
:10462000002FF4D06B1E002DF0D115004B464746ED
:10463000109A002A03D1119B013311931DE50B9EA3
:104640002A0006E0551C5B4651462020B84723004F
:104650002A005C1C9E42F5D81500ECE721234A464F
:104660001A4313001C9A111D1C911268059308230C
:1046700004930394083302930023019300925B4652
:104680002A0051463800FFF744F80500119B01331A
:104690001193F2E46C1C5B462A0051462520B84772
:1046A000119B013311932500E7E46C1C5B462A0043
:1046B0005146B847119B013311932500DDE40A4FA1
:1046C000D0E45D450DD35B465A1E5B465146002043
:1046D000B847280013B0F0BCBB46B246A946A04676
:1046E000F0BD2A00F1E7C046213500100CB430B50A
:1046F00085B00A0008AC08CC0394054D0094010075
:104700002800FFF7A1FC05B030BC08BC02B0184778
:104710001935001010B584B00C0002A902904C604D
:1047200001240448009313006242FFF78DFC04B09B
:1047300010BDC0462335001001480421014B184725
:10474000800D002075470010014B9B681847000042
:10475000800D002010B5010018231B88142210883A
:10476000984710BD10B5010018231B881622108829
:10477000984710BDF0B5C64600B507000E000025ED
:104780000123984600E00135B5420AD2AC003C193D
:104790002068FFF7DFFF20600028F4D1002398464F
:1047A000F1E7404680BCB846F0BD0000124A936F66
:1047B0009B0815D29066D166002905D0FFE7FFE778
:1047C000FFE7516F106F704704B580210906C217CB
:1047D0005140002800D0C84310F092FB002104BDD6
:1047E000F0B5146E556E576F166FFFF7E3FF146642
:1047F000556657671667F0BD000000D0114A936FE9
:104800009B0813D210665166002905D0FFE7FFE729
:10481000FFE7516F106F704704B5002801D00020EA
:10482000C04310F06DFB002104BDC046F0B5146E0E
:10483000556E576F166FFFF7E5FF1466556657679D
:104840001667F0BD000000D094464A4A926F920865
:10485000624601D228E0C046F0B5464E346E756E11
:10486000776F366F00F020F89446424A146655661A
:10487000576716676246F0BD94463E4A926F9208AB
:10488000624601D254E0C046F0B53A4E346E756EC1
:10489000776F366F00F04CF89446364A14665566CA
:1048A000576716676246F0BD002B24DB11D0002944
:1048B0003EDA00B5C943404200D1013100F038F87A
:1048C000C943404200D10131DB43524200D10133A0
:1048D00000BD002AEBD1002801D1002905D000201D
:1048E000C90FC90701D1C043410800B510F0F8FA5B
:1048F0000022002300BD00B500290ADBDB43524241
:1049000000D1013300F014F8C943404200D1013115
:1049100000BDC943404200D10131DB43524200D1C6
:10492000013300F005F8DB43524200D1013300BDF2
:10493000002923D1002B18D1002A0CD0BC460D4FE2
:1049400038667A6600210023FFE7FFE7FFE77A6F0A
:10495000386F67467047002801D00748010000B54E
:1049600010F0BEFA0022002300BD02000B00002060
:1049700000217047000000D0FFFFFFFF002B00D098
:10498000BFE0130C28D1002AE7D080B4114F39665C
:104990007A66FFE7FFE730B4040C7B6F396F1B04C6
:1049A00023433B667A66FFE7FFE7FFE7C04684B232
:1049B0007B6F3D6F1B0423433B667A66FFE7FFE78F
:1049C000C04600232C042D0C7A6F386F0019694102
:1049D000B0BC7047000000D0F0B594460025140E1E
:1049E00001D112020835140F01D112010435940FC0
:1049F00001D192000235D40F01D152000135D40B00
:104A00000134254F7C66254C3C660E0C93B2FFE7C3
:104A1000FFE7FFE73C6F6643360C7703BE46734300
:104A2000DF0B5B04C01AB941130C7343DB18C91ABE
:104A3000CE086643360CB64493B273431F0F1B0176
:104A4000C01AB941130C73431F0B1B05C01AB9419F
:104A5000860D8F023E436643360C092D24DB520A35
:104A60007243801A7703460A6643360C16235B1B93
:104A7000DE40DF40BF1964466643821B7046043542
:104A800006330100D940A840C01900D30131A24229
:104A900006D20023F0BD0000000000D0FFFFFFFFA2
:104AA000121B0130F3D3F1E709277F1BFE40644658
:104AB000A2B27243801A00D20139220C7243130C45
:104AC0001204821A99410B00704604351337010015
:104AD000F940A840801900D30131002B02D1A24235
:104AE0000AD2F0BD013000D30131121BFAD2013BD2
:104AF000F8D1A24200D2F0BD013000D30131121B27
:104B0000F7E7F0B51C0C00D080E00CB400251C0ABF
:104B100004D11B02160E3343120208351C0B04D1BC
:104B20001B01160F3343120104359C0B04D19B006B
:104B3000960F334392000235DC0B02D192185B4191
:104B400001351C00971864410134464F7C66464C81
:104B50003C660E0CFFE7FFE7FFE7C0463C6F66438D
:104B6000360C7703BE4697B27743C01B00D201399B
:104B7000C01B00D201399FB27743C91BC91B170C58
:104B800077437E04FF0B801BB941CE086643360C89
:104B90000C2D33DBB644120B1F053A431B0B97B2A7
:104BA0007743C01B00D201399FB27743C91B170C52
:104BB00077433E043F0C801BB941860D8F023E4374
:104BC000664329277F1BFE400C3D7746AF40BF1947
:104BD00030BCA2B2ABB272437343801A9941220C2B
:104BE0007243130C1204801A994102000B00013722
:104BF000001BA941F9D2781E0021F0BD0C277F1BB4
:104C0000FE4077467F0BAF40FF19E0E700245D1CB4
:104C100007D0144F7D663966FFE7FFE7FFE7FFE740
:104C20003C6F95B29EB265436643401BB141150C83
:104C30001E0C6543664336042F0C3E432D04401B77
:104C4000B141994204D202000B0020000021F0BDC6
:104C500001D19042F7D3801A994101349942F2D39D
:104C6000F6E70000000000D0FFFFFFFF4840414092
:104C7000484018B4134B5B68019308BD18B4114B3E
:104C80001B68019308BD94460F4A926F920805D2A3
:104C9000624618B40B4BDB68019308BD0A4AF0B5B5
:104CA000146E556E576F166F6246FFF7F2FF064A95
:104CB0001466556657671667F0BD18B4014B9B68BC
:104CC000019308BDD4590020000000D0FFB550402A
:104CD0004240504059404B40594000E0FFB5154F0D
:104CE0004C00640D03D0BC4204D10C0314D8002046
:104CF000090D09055C00640D03D0BC4204D11C03FE
:104D00000AD800221B0D1B0501264B4009D44B403D
:104D100003D58B4200D18242FFBD9942FCD1904223
:104D2000FFBD0B43DB1803431343F5D0C9434918B8
:104D3000FFBD0000FF07000000B5FFF7CFFF804177
:104D400000BDC04600B5FFF7C9FF01D9002000BD76
:104D5000012000BD00B5FFF7B9FF01D9002000BD5B
:104D6000012000BD00B5FFF7B1FF804100BD01206B
:104D700040054A00121804D85A00121801D8002021
:104D80007047012070470020704700000021002874
:104D900005D17047C1174840401AFAD0C90713B56A
:104DA000064B1B6898470CBC441CA2401005120B14
:104DB0000349091B09051943114310BDD85A0020A6
:104DC0001F04000010B54C00620D8023D218DB00D8
:104DD000D21A5B057E2A10DD9E3A13DACC1709033E
:104DE000490819435242D140640001341532202A47
:104DF00005DAD0400843604310BD002010BD0846CE
:104E0000604310BDC80FC018013810BD18B4024B64
:104E10005B6A019308BD0000D459002018B4024B0E
:104E2000DB6F019308BD0000D459002018B4024B79
:104E30009B69019308BD0000D459002018B4024BAF
:104E40009B6D019308BD0000D459002010B50148A6
:104E5000FEF744FB2060011070B513231C78012C71
:104E600012D0012C12DC214B214A93642148FFF718
:104E700071FC214B186070BD20491D4A980081507B
:104E800001331F2BF8D9ECE70023FAE71C48FFF7A2
:104E900069FC05001B48FFF765FC023803789B009E
:104EA0007F2B09DD12488022290000F043F9022CF3
:104EB00008D0022CDADCD6E7134B144A144832210E
:104EC000FEF774FA134B1A88B5231B029A4209D1D4
:104ED000114B1A88114B9A4204D1114B1A88114B6D
:104EE0009A42E6D00020FEF7F9FAC046294F00109A
:104EF000D45900204C330000D85A00204D4E0010E9
:104F0000534400005346000038600110C898011057
:104F10008C60011054380000D83800004946000069
:104F20009C3800005946000007B56046002800D1B3
:104F300000BE01880A0A0230DF2AFAD1C9B282080B
:104F400004D3028840880004104300E00068024A4D
:104F50005050039007BD0000D459002051434343F3
:104F6000C9188C46110C83B24B4310B4040C614336
:104F700092B280B2504362431C041B0C001910BC57
:104F800059411304120CC01851416144704700008C
:104F90004840414048400E4B5B6818470C4B1B682B
:104FA00018470C4A936F9B0802D2094BDB681847DD
:104FB000F0B5146E556E576F166FFFF7F6FF054A82
:104FC0001466556657671667F0BD014B9B68184716
:104FD000DC5A0020000000D007B54840414048405E
:104FE00001E0C04607B54200120E03D0FF2A03D1EC
:104FF000420218D8C00DC0054A00120E03D0FF2A85
:1050000003D14A020FD8C90DC9050122414005D478
:10501000414001D5814207BD884207BD014349187F
:1050200001D0C043001807BD00B5FFF7DBFF80418A
:1050300000BDC046C10FC90700D54042002817D0A7
:10504000F44603B40B4B1B68984706BC81409E385E
:105050004042803107D20B0607D04900490AC005FB
:105060001043084360470130F8E7490A8902F5E731
:1050700070470000D85A0020014BDB6F1847000032
:10508000DC5A002010B50148FEF728FA78530110C9
:1050900070B513231E781848FFF764FB0500012E36
:1050A00011D0012E09DDAB1E1B789B007F2B1DDD6F
:1050B00012488022290000F03DF81148FFF74AFB12
:1050C000104B186070BD0D485422290000F032F8D2
:1050D000002300E001331F2BE3D8084A9C00A258AC
:1050E000002AF7D10849054AA150F3E7074B084ABF
:1050F00008484221FEF75AF953460000DC5A0020C6
:105100004C330000D85A002085500010F060011088
:10511000DC9801102461011001480421014B18475B
:10512000900D002075470010014B1B6818470000C8
:10513000900D0020014B5B6818470000900D002087
:1051400010B50300080011001B68984710BD00004F
:10515000F8B507000D001600437D002B02D0002497
:1051600000200CE003681100280098472DE03B7DEB
:1051700010E03B68154802219847601C0134B44296
:1051800014DA002CF3DD2B19013B1B780D3B5A423E
:105190005341DBB22A5D0A2AF0D1002BEED1A042A6
:1051A000E7DA3B68211A28189847E2E7B04203DAA9
:1051B0003B68311A28189847002E06DDAD19013DCD
:1051C0002B780D3B5A4253413B75F8BD14990110A1
:1051D00070B505000368002B16D00C4B1C6805E069
:1051E000290004C92000FFF7B3FF2469002C09D06F
:1051F0002368002BF9D0064B1B68002BF0D0A3428C
:10520000F3D1EDE700232B6070BDC04634210020B0
:105210003C21002070B505000C000B68802B05D0E8
:1052200023685A1C2260E418257170BD0800FFF73E
:10523000CFFFF5E710B5002B02DB0260436010BD25
:10524000024B034A03483F21FEF7B0F8CC5301104C
:1052500018990110E853011010B582B00400FDF751
:105260000DFC02000B006846FFF7E4FF009A019B6B
:1052700022606360200002B010BD000070B582B0F3
:10528000060014001D00FA22920000230698002157
:10529000FFF764FE02000B0012196B41002B09DBC3
:1052A0006846FFF7C7FF009A019B326073603000C9
:1052B00002B070BD01225242004BF1E7FFFFFF7FB9
:1052C00030B585B004000D0002A8FFF7C5FF029AB3
:1052D000039B00952000FFF7D1FF200005B030BDF3
:1052E00000B583B0FA2189006846FFF7E9FF009A0C
:1052F000019B02480FF02CFE03B000BD500E0020B1
:1053000010B502480FF0E4FD10BDC046500E00205D
:10531000F0B5CE46474680B583B006000D009046F6
:105320001C00FFF7DDFF81466B1C05D0002C08D068
:10533000194F1A4B1C6807E030000FF07FFD050085
:10534000F4E7174FF5E72469002C17D02368002BEA
:10535000F9D0144B1B68002B01D0A342F3D12A00D3
:1053600031002000B8474346002BECD06B46D91DD6
:105370000A230B7001222000B847E4E74B46002BBC
:1053800007D16B1E9D41E8B203B0C0BCB946B04620
:10539000F0BDFFF7B5FFF4E74151001034210020C4
:1053A000515100103C2100200A4A136802E01A0003
:1053B00010321B69002B09D013688342F7D10029F2
:1053C00007D1036913600023036102E0002900D0C4
:1053D000106070473421002010B5064B1C6800E0B7
:1053E0002469002C04D06368002BF9D09847F7E7B4
:1053F00010BDC0463421002070B505000FF01EFD21
:1054000004000023012201002800FFF781FFFFF7BD
:10541000E3FF200070BD0000F0B5A3B004000E0053
:10542000FFF75EFF050001AF002301930948330039
:1054300022003900FFF76EF904003800FFF7C8FEBC
:10544000FFF7CAFF002D02D1200023B0F0BDFFF707
:1054500057FFF9E7155200100FB400B583B004A947
:1054600001C90191FFF7D8FF03B008BC04B0184789
:1054700010B500F0B3F910BD70470000014B0022D9
:105480001A707047FD5D00204B79FF2B0CD18B7992
:10549000002B0BD1CB79012B0AD1082A0AD98A78A3
:1054A000054B1A70092000E0002070470020FCE73F
:1054B0000020FAE70020F8E7FD5D0020012070479A
:1054C00070B504000D000348FFF744F903002900FC
:1054D000200098475542000010B5012926D11179C6
:1054E00053791B020B43124909788B4201D00020EB
:1054F0001DE05378012B03D0022B10D0002016E0C2
:105500009178D3781B021943DB0506D54B0A01209D
:1055100098407F231940FFF7D3FF0020F9E764226A
:1055200000210020FDF704FF012000E0012010BD54
:10553000FD5D002001230370004870473099011081
:1055400010B50A784B781B0213438A7812041A4369
:10555000CB781B0613439622D200934200D010BD95
:1055600000210800FFF7ACFF024B1860024B1960E6
:105570007047C046A8160020AC16002010B5002BBE
:1055800002DB0260436010BD024B034A03483F2127
:10559000FDF70CFFCC53011064990110E853011082
:1055A00010B582B00400FDF769FA02000B006846EE
:1055B000FFF7E4FF009A019B22606360200002B0C5
:1055C00010BD000070B582B0060014001D00FA2264
:1055D0009200002306980021FFF7C0FC02000B0098
:1055E00012196B41002B09DB6846FFF7C7FF009AD1
:1055F000019B32607360300002B070BD01225242E4
:10560000004BF1E7FFFFFF7F30B585B004000D00D0
:1056100002A8FFF7C5FF029A039B00952000FFF741
:10562000D1FF200005B030BD10B582B00400049851
:10563000059912184B41002B09DB6846FFF79EFFC6
:10564000009A019B22606360200002B010BD01221D
:105650005242014BF1E7C046FFFFFF7F10B5024BFE
:105660001878FCF715F910BDFE5D00200268EFF315
:10567000108172B61368002BFCD0BFF35F8F4160BE
:105680007047000070B50F4B1B68002B16D00D4CF7
:105690002000FFF7EBFF0C4B00221A7021686368B3
:1056A000BFF35F8F0A6083F3108800240025074B47
:1056B0001878FCF7EDF82000290070BDFA24A4004A
:1056C0000025F4E744530020005E0020FE5D00202A
:1056D000F0B5C64600B586B0804616001D000EAB7C
:1056E0001C7804AF3800FFF75BFF049A059B009617
:1056F00001953800FFF798FF049A059B02940D99D5
:1057000001910C9900914046FCF7A2FF06B080BCC5
:10571000B846F0BDF0B5C64600B584B00500884671
:1057200016001F000AAB1C78FCF77CFF029401975F
:1057300000962A004346FFF7CBFF04B080BCB84672
:10574000F0BD000010B582B0184800210FF0E8FB52
:10575000002820D1164B1B68002B24D0144C2000AD
:10576000FFF784FF134A1378DBB20121117021681F
:105770006268BFF35F8F0020086082F31088002BFF
:1057800011D10D4A013300930023FA20800000213B
:10579000FFF7C0FF07E001200021404201F092F82E
:1057A00002480FF095FB02B010BDC046E05B002040
:1057B00044530020005E00208556001010B5054BB4
:1057C0001868002804D0044B1968002200F0A8FDD6
:1057D00010BDC046A8160020AC16002010B582B03F
:1057E000D0231B061C68FCF71DFFFDF733F8A04211
:1057F0002CD1234B1B7801F029FD2248FCF789FBB3
:105800000120FCF703FB204C20702049FF231840A7
:10581000FCF760F820780121FCF732F80520FCF74E
:1058200047F8041E18D01A4900220520FCF77CF81E
:10583000FBF776FF0100174B1800FCF787FB1648B3
:105840000121FFF7B1FD200002B010BD134B144A37
:105850001448B221FDF7AAFD134A01230093002347
:10586000FA2080000021FFF755FFC443E40F0948E8
:1058700008220021FFF758FC002CE4D0DFE7C046E7
:1058800070170510E05B0020FE5D002045570010FA
:105890005D56001044530020A00D002060580110F8
:1058A00054990110C86101108556001010B50020F0
:1058B00001F000FA10BD000030B583B004000D0007
:1058C000FFF7F4FF002830D0002001F00FFA002885
:1058D0002ED0FA2189006846FFF796FE009A019BB8
:1058E00016480FF035FB002825D0FFF7DFFF002812
:1058F00004D0002001F0FAF900280CD10120002189
:10590000404200F0DFFF032464420C480FF0E0FA4D
:10591000200003B030BD2A002100002001F0F2F980
:10592000041EF2D103246442EFE703246442EFE74C
:1059300003246442ECE703246442E9E7E05B0020CF
:10594000F0B5C64600B582B080460D00FA21890048
:105950006846FFF759FE009A019B2C480FF0F8FAB1
:10596000002803D102B080BCB846F0BDFFF79EFF0F
:10597000002849D1264B0020002118605960234897
:105980000FF0A6FAEEE701200021404200F09AFF56
:10599000002001F0CBF9FFF789FF0028EFD00020AD
:1059A00001F036FA002820D0AC42E8DA2E1B0020A5
:1059B00001F02EFA0200864200DC3200002AE2D01A
:1059C00043461919002001F007FA060001200021C2
:1059D000404200F077FF002001F0A8F9A419FDF77C
:1059E0004DF80B4B18605960DEE7FDF747F8084BA0
:1059F0001E685F68074A002392197B419942BED80E
:105A0000D2D19042D0D9BAE70024CDE7E05B0020A4
:105A10000010002020A1070000487047E8990110FD
:105A2000004870479499011010B50400154B1B787D
:105A3000002B0ED0002C11D1134B144A5A80012395
:105A400001335B009BB21048C022920013430380D5
:105A500010BD0C48112100F02DF8EBE7052C0ED8F5
:105A60000B4BA400E4580023122BE9D8E15C002979
:105A7000E6D00133044A58008152DBB2F4E700203B
:105A8000E6E7C046C45D0020E020002009040000D5
:105A90007C99011010B5024800F038F810BDC046DE
:105AA000CC59002010B502490822FFF743FB10BD76
:105AB000CC59002010B5002901D0002308E00F4B7D
:105AC0000F4A10481F31FDF771FC3732C2540133C1
:105AD0004A1E9A420ED90F2B0CD85A080A4CA45CC5
